:020000040800F2
:10000000881000209D010008793C00084F2B000853
:100010005D3C000859040008715000080000000011
:100020000000000000000000000000001342000873
:100030005D0400080000000011420008E9420008C9
:10004000B7010008B7010008B7010008B7010008B0
:10005000B7010008B7010008B7010008B7010008A0
:10006000B7010008B7010008B7010008B701000890
:10007000B7010008B7010008B7010008B701000880
:10008000B7010008B7010008B7010008B701000870
:10009000B7010008B7010008B7010008B701000860
:1000A000B7010008B7010008B7010008B701000850
:1000B000B7010008B7010008B7010008B701000840
:1000C000B7010008B7010008B7010008B701000830
:1000D000B7010008B7010008B7010008B14C0008DB
:1000E000B7010008B7010008B7010008B701000810
:1000F000B7010008B7010008B7010008B701000800
:10010000B7010008B7010008B7010008B7010008EF
:10011000B7010008B7010008C1430008B701000893
:10012000B7010008B7010008B7010008B7010008CF
:10013000B7010008B7010008B7010008B7010008BF
:10014000B7010008B7010008B7010008B7010008AF
:10015000B7010008B7010008B7010008B70100089F
:10016000B7010008B7010008B7010008B70100088F
:10017000B7010008B7010008B7010008000000003F
:10018000B7010008B7010008DFF80CD000F07AF8DA
:10019000004800471956000888100020064880478C
:1001A00006480047FEE7FEE7FEE7FEE7FEE7FEE75C
:1001B000FEE7FEE7FEE7FEE7A54300088901000829
:1001C0002DE9F05F0546002092469B46884606468C
:1001D000814640241BE0284641464746224600F01F
:1001E00041F853465A46C01A914110D31146184659
:1001F000224600F028F82D1A67EB01084F462246E8
:100200000120002100F01FF817EB00094E41201ECD
:10021000A4F10104DFDC484631462A464346BDE8E6
:10022000F09FD2B201E000F8012B491EFBD27047CB
:100230000022F6E710B513460A4604461946FFF7B2
:10024000F0FF204610BD202A04DB203A00FA02F11C
:10025000002070479140C2F1200320FA03F31943B4
:1002600090407047202A04DB203A21FA02F0002156
:10027000704721FA02F3D040C2F1200291400843B6
:1002800019467047064C074D06E0E06840F0010350
:1002900094E8070098471034AC42F6D3FFF778FF94
:1002A000348600085486000870B58C1810F8015B7D
:1002B00015F0070301D110F8013B2A1106D110F8FF
:1002C000012B03E010F8016B01F8016B5B1EF9D103
:1002D0002B0705D40023521E0DD401F8013BFAE789
:1002E00010F8013BCB1A921C03E013F8015B01F8F4
:1002F000015B521EF9D5A142D8D3002070BD10B5C4
:10030000044634B1012C0BD0022C03D0032C0CD1A9
:1003100005E000BF05F0ECFC05F0BCFC05E000BF0B
:1003200005F042FD05F012FD00BF00BF10BD00004A
:10033000014631B101290ED0022916D0032928D156
:100340001DE01548406910B91348806B08B10120C1
:1003500070470020FCE71048806810B90E48406ADA
:1003600008B10120F4E70020F2E70B48806910B9DA
:100370000948406B08B10120EAE70020E8E7064899
:10038000406810B90448806A08B10120E0E7002005
:10039000DEE70020DCE700001004002038B502464C
:1003A00032B1012A0BD0022A10D0032A1CD114E04A
:1003B00005208DF800000E208DF8010014E00920C2
:1003C0008DF8000002208DF801000DE00D208DF861
:1003D000000006208DF8010006E001208DF80000E5
:1003E0000A208DF8010000BF00BF10460B4601EB4C
:1003F000D3746410A1EB440402EBD0756D10A2EB32
:100400004505AC4217D0CC1CA01AC41700EB94745D
:10041000A410A0EB840303EBD37464102CB19DF8FB
:1004200001000C4B53F8200038BD9DF80000094B2B
:1004300053F82000F8E79DF80000064B53F8200021
:1004400020B99DF8010053F8200008B10120EBE726
:100450000020E9E71004002000BFFEE7704700001D
:1004600010B501460020304B186000222F4850F88C
:1004700021002F4B186021E02C4850F821002C4B14
:100480001B68181A2B4B53F820002B4B284C246860
:1004900053F82430244C246800FB0340224B18609E
:1004A0002548234B1B6850F82300012801D1501C1C
:1004B000C2B21F480068401C1D4B18601B4850F812
:1004C0002100001D1A4B1B689842D5DC012A10DD63
:1004D00015480068002804DD16488068124B186033
:1004E00007E011480068002803DA124840680E4B04
:1004F0001860084601EBD0735B10A1EB4303012B9E
:100500000ED109480068401C18B9D81E064B186067
:1005100006E005480068012802D10220024B18605D
:100520000148006810BD00008400002088040020FD
:100530008800002074000020100400207047000094
:1005400010B54021564800F0E9F9564908604FF4CB
:100550000051554800F0E2F9524948604FF480419B
:10056000514800F0DBF94F4988604FF400414E4894
:1005700000F0D4F94B49C8604FF480714B4800F04B
:10058000CDF9484908614FF40071484800F0C6F9B8
:10059000444948610121424800F0C0F9414988615D
:1005A00002213F4800F0BAF93E49C86104213C48A5
:1005B00000F0B4F93B4908620821394800F0AEF96F
:1005C000384948621021364800F0A8F93549886258
:1005D0002021334800F0A2F93249C8620121324893
:1005E00000F09CF92F49086380212D4800F096F90E
:1005F0002C49486304212C4800F090F9294988636C
:100600000821294800F08AF92649C86302212648B2
:1006100000F084F9234908644FF48071204800F009
:100620007DF9204948644FF480411D4800F076F977
:100630001C4988644FF40041194800F06FF91949CA
:10064000C8644FF48061194800F068F915490865DD
:100650004FF40061154800F061F912494865002027
:100660001349086017E00F481149096850F8210044
:10067000012805D10B490E4A126841F8220005E015
:10068000002008490A4A126841F822000848006818
:10069000401C07490860064800681028E3DB10BDCD
:1006A0000010024010040020000802400004024034
:1006B0008800002001200149086070476800002080
:1006C000002001490860704768000020014691F849
:1006D0003500022803D0802048650120704705209E
:1006E00081F835000868006820F001000A68106091
:1006F0000020F3E770B5044600F01EF906462546D3
:10070000681C10B104480078054400BF00F014F9DB
:10071000801BA842FAD370BD64020020F8B50246DF
:100720000B460025002400200021DCE0012606FA0B
:1007300001F51E6806EA0504AC4273D15E68012E1D
:1007400008D05E68022E05D05E68112E02D05E6869
:10075000122E13D190684F000326BE40B0434F00C5
:10076000DE68BE4030439060506801268E40B04342
:100770001E79C6F300168E4030435060D0684F009B
:100780000326BE40B0434F009E68BE403043D06059
:100790005E68022E02D05E68122E13D1CF0802F1DD
:1007A000200656F827004E07F70E0F26BE40B0432E
:1007B0004F07FF0E1E69BE403043CF0802F12006EE
:1007C00046F8270010684F000326BE40B0431E794C
:1007D00006F003064F00BE40304310605E6806F02E
:1007E0008056B6F1805F7DD100BF00260096404E56
:1007F000366846F480463E4F3E603E46366806F414
:100800008046009600BF00BF3A4E8F0856F827007A
:100810008E07370F0F26BE40B043374EB24202D18B
:10082000002624E05EE0354EB24201D101261EE0F2
:10083000334EB24201D1022619E0324EB24201D10A
:10084000032614E0304EB24201D104260FE02F4EB1
:10085000B24201D105260AE02D4EB24201D1062650
:1008600005E02C4EB24201D1072600E008268F0792
:100870003F0FBE4030431F4E8F0846F82700264EDC
:100880003068A0435E6806F48036B6F5803F00D13C
:100890002043214E3060361D3068A0435E6806F468
:1008A0000036B6F5003F00D120431B4E361D3060A8
:1008B000361D3068A0435E6806F48016B6F5801FCA
:1008C00000D12043144E08363060361D3068A043F6
:1008D0005E6806F40016B6F5001F00D120430E4EE8
:1008E0000C363060491C1029FFF420AFF8BD000021
:1008F0004438024008380140000002400004024031
:1009000000080240000C02400010024000140240A7
:1009100000180240001C0240003C014002461369DE
:100920000B400BB1012000E0002070470AB181614B
:1009300001E00B04836170470148006870470000C4
:100940005C02002070B504460CB9012070BD94F81B
:100950003D0028B9002084F83C00204600F08CF9C6
:10096000242084F83D002068006820F00100216800
:1009700008602068006840F4004021680860206832
:10098000006820F400402168086000F057FB05462D
:100990005C496068884206D85B48854201D20120E4
:1009A00007E0002005E05948854201D2012000E01F
:1009B0000020012800D1C9E75548B5FBF0F62068B2
:1009C000406820F03F003043216848604D4960682E
:1009D000884201D8701C07E04FF4967070434FF4C2
:1009E0007A71B0FBF1F0401C2168096A21F03F01E7
:1009F00008432168086243496068884214D8681E29
:100A000061684900B0FBF1F0401CC0F30B00042802
:100A100001D204203DE0681E61684900B0FBF1F09E
:100A2000401CC0F30B0034E0A06838B9681E616850
:100A300001EB4101B0FBF1F0401C0AE0681E616867
:100A400001EBC10202EB0111B0FBF1F0401C40F4DC
:100A50008040C0F30B0008B901201AE0A06848B933
:100A6000681E616801EB4101B0FBF1F0401CC0F36E
:100A70000B000CE0681E616801EBC10202EB011182
:100A8000B0FBF1F0401CC0F30B0040F4804040F498
:100A900000402168C9694CF6FF7291430843216800
:100AA000C861D4E9070108432168096821F0C00141
:100AB000084321680860D4E9031008432168896865
:100AC00048F2FF329143084321688860D4E9050168
:100AD00008432168C96821F0FF0108432168C86004
:100AE0002068006840F00100216808600020206450
:100AF000202084F83D000020206384F83E0000BFE1
:100B000024E70000A086010080841E0000093D004B
:100B100040420F002DE9FC5F04460F46904699467F
:100B2000DDE90CAB0E9EFFF707FF054694F83D008C
:100B300020287DD1192301224D492046009502F03D
:100B4000C5F810B10220BDE8FC9F00BF94F83C003E
:100B5000012801D10220F6E7012084F83C0000BF03
:100B60002068006800F0010028B92068006840F0A3
:100B70000100216808602068006820F40060216896
:100B80000860212084F83D00402084F83E000020C9
:100B90002064C4F824A0A4F82AB0608D20853548CC
:100BA000E0624B46424639462046CDE9006501F0F9
:100BB000EFFF08B10120C6E731E02A463146204662
:100BC00002F029F950B1206C042805D12068006892
:100BD00040F40070216808600120B4E7606A007882
:100BE00021680861606A401C6062208D401E20857B
:100BF000608D401E608520684069C0F3800070B140
:100C0000208D60B1606A007821680861606A401CCC
:100C10006062208D401E2085608D401E6085208D85
:100C20000028CAD12A463146204602F021F800E0C9
:100C30001CE050B1206C042805D12068006840F405
:100C400000702168086001207DE72068006840F49A
:100C5000007021680860202084F83D00002084F89E
:100C60003E0000BF84F83C0000BF6CE702206AE74A
:100C7000020010000000FFFF10B586B004461421EA
:100C800001A8FFF7D5FA1B49206888422FD100BF81
:100C9000002000901848006840F0020016490860E3
:100CA0000846006800F00200009000BF00BFC020AE
:100CB0000190122002900120039003200490042050
:100CC000059001A90D48FFF729FD00BF0020009005
:100CD00009481030006840F40010074910310860DE
:100CE0000846006800F40010009000BF00BF06B086
:100CF00010BD0000005400403038024000040240A3
:100D000003480068034909780844014908607047AE
:100D10005C0200206402002010B50D48006840F419
:100D200000700B4908600846006840F48060086065
:100D30000846006840F480700860032000F0A2F8C4
:100D4000002000F007F800F02BF8002010BD000094
:100D5000003C024070B504460E4800784FF47A71AA
:100D6000B1FBF0F00C490968B1FBF0F5284600F042
:100D7000ABFC08B1012070BD102C07D20022214627
:100D8000501E00F041F80548046001E00120F2E740
:100D90000020F0E7640200206802002060020020CA
:100DA00008B500BF002000900E48006840F4804065
:100DB0000C4908600846006800F48040009000BFBD
:100DC00000BF00BF00200090081F006840F0805066
:100DD000091F08600846006800F08050009000BFBE
:100DE00000BF08BD4438024001460846002809DB20
:100DF00000F01F0301229A4043099B0003F1E02306
:100E0000C3F8002100BF70472DE9F05F80460D4612
:100E10001646002704F040FA074639462A4633466C
:100E200001F00700C0F1070ABAF1040F02D94FF030
:100E3000040A01E0C0F1070AD14600F1040ABAF140
:100E4000070F02D24FF0000A01E0A0F1030AD446D6
:100E50004FF0010A0AFA09FAAAF1010A0AEA020A9B
:100E60000AFA0CFA4FF0010B0BFA0CFBABF1010B79
:100E70000BEA030B4AEA0B042146404604F014FA3D
:100E8000BDE8F09F00BF00F00702064B19684FF65F
:100E9000FF031940044B0B4343EA0221014B196045
:100EA00000BF70470CED00E00000FA0570B5044685
:100EB0000D460CB9012070BD5848006800F00F00C5
:100EC000A84209D255490D700846006800F00F008D
:100ED000A84201D00120EEE7207800F002000228AD
:100EE0001DD1207800F00400042805D14C4800688A
:100EF00040F4E0504A490860207800F008000828D3
:100F000005D14748006840F46040454908604448BE
:100F1000006820F0F000A16808434149086020788B
:100F200000F00100A8B36068012807D13C480838E8
:100F30000068C0F34040B8B90120BCE760680228EF
:100F400002D06068032807D1354808380068C0F32C
:100F5000406048B90120AEE7314808380068C0F366
:100F6000400008B90120A6E72D48006820F00300E2
:100F7000616808432A490860FFF7DEFC064609E07D
:100F8000FFF7DAFC801B41F28831884202D9032046
:100F900091E707E02248006800F00C006168B0EBC0
:100FA000810FEDD11D48006800F00F00A84209D95B
:100FB0001A490D700846006800F00F00A84201D0E1
:100FC000012078E7207800F00400042807D11448B5
:100FD000006820F4E050E168084311490860207877
:100FE00000F00800082808D10D48006820F460408F
:100FF000216940EAC1000A49086000F03FF8084949
:101000000968C1F30311074A515CC84006490860EA
:1010100006480068FFF79EFE00204CE7003C0240B7
:10102000083802401C860008680200206002002088
:1010300001480068704700006802002000B5FFF713
:10104000F7FF04490968C1F38221034A515CC84093
:1010500000BD0000083802402C86000800B5FFF7EC
:10106000E7FF04490968C1F34231034A515CC840B3
:1010700000BD0000083802402C8600082DE9F0472A
:10108000002400250026A1462548006800F00C0039
:1010900020B1042805D008283AD105E0DFF8849073
:1010A00039E0DFF8849036E01D48001F006800F04A
:1010B0003F041B48001F006800F4800078B11A4804
:1010C0001749091F0968C1F38811A0FB0170014687
:1010D000224600233846FFF773F805460EE0114814
:1010E0000F49091F0968C1F38811A0FB017001466F
:1010F000224600233846FFF763F805460848001FDC
:101100000068C0F30140401C4600B5FBF6F902E060
:10111000DFF8109000BF00BF4846BDE8F087000030
:10112000083802400024F40040787D01F8B50446F8
:101130000CB90120F8BD207800F00100002874D01F
:10114000F948006800F00C0004280DD0F64800684B
:1011500000F00C00082813D1F348001F006800F4C9
:101160008000B0F5800F0BD1EF4808380068C0F35D
:101170004040002859D06068002856D10120D9E7A6
:1011800000BF6068B0F5803F08D1E74808380068C4
:1011900040F48030E449083908601EE06068B0F52A
:1011A000A02F0DD1E0480838006840F48020DE49C7
:1011B000083908600846006840F4803008600CE098
:1011C000D9480838006820F48030D74908390860C9
:1011D0000846006820F48020086000BF606890B175
:1011E000FFF7AAFB054606E0FFF7A6FB401B6428B5
:1011F00001D903209EE7CC4808380068C0F340407E
:101200000028F1D011E0FFF797FB054606E0FFF755
:1012100093FB401B642801D903208BE7C2480838A0
:101220000068C0F340400028F1D1207800F00200AF
:1012300002285FD1BC48006800F00C0058B1BA48E1
:10124000006800F00C0008281CD1B748001F006897
:1012500000F48000B0B9B44808380068C0F340001A
:1012600020B1E068012801D0012063E7AE480838CA
:10127000006820F0F800216940EAC100AA49083955
:10128000086037E0E06800B30120A8490860FFF774
:1012900053FB054606E0FFF74FFB401B022801D930
:1012A000032047E7A04808380068C0F34000002842
:1012B000F1D09D480838006820F0F800216940EA24
:1012C000C10099490839086014E000209749086076
:1012D000FFF732FB054606E0FFF72EFB401B022816
:1012E00001D9032026E7904808380068C0F3400081
:1012F0000028F1D1207800F0080008282CD160697E
:10130000A8B101208A490860FFF716FB054606E0F0
:10131000FFF712FB401B022801D903200AE782488D
:101320006C300068C0F340000028F1D014E00020C9
:101330007F490860FFF700FB054606E0FFF7FCFA6F
:10134000401B022801D90320F4E677486C3000687E
:10135000C0F340000028F1D1207800F004000428F8
:1013600070D1002770483830006800F0805090B984
:1013700000BF002000906C483830006840F080507A
:101380006949383108600846006800F080500090D4
:1013900000BF00BF01276748006800F48070B0B943
:1013A0006448006840F4807062490860FFF7C4FA3E
:1013B000054606E0FFF7C0FA401B022801D90320CA
:1013C000B8E65C48006800F480700028F2D000BFE6
:1013D000A068012808D154486830006840F0010036
:1013E0005149683108601DE0A06805280DD14E48BC
:1013F0006830006840F004004B49683108600846D6
:10140000006840F0010008600CE047486830006860
:1014100020F001004449683108600846006820F067
:101420000400086000BFA068A8B1FFF785FA054670
:1014300009E0FFF781FA401B41F28831884202D966
:10144000032077E626E0384868300068C0F34000A3
:101450000028EED013E0FFF76FFA054608E0FFF72B
:101460006BFA401B41F28831884201D9032061E6C2
:101470002D4868300068C0F340000028EFD1012FEC
:1014800007D129483830006820F08050264938318B
:10149000086000BFA069002845D02348006800F01C
:1014A0000C0008285DD0A069022845D100201F4902
:1014B0000866FFF741FA054606E0FFF73DFA401BD4
:1014C000022801D9032035E6174808380068C0F320
:1014D00040600028F1D1D4E907010843616A40EA7D
:1014E00081110122A06AC2EB500041EA00412C2088
:1014F000005D41EA00600C49091F086001200B49AA
:101500000866FFF719FA054606E0FFF715FA401BD3
:10151000022801D903200DE6034808380068C0F30B
:1015200040600028F1D03FE0083802400000474208
:10153000800E47420070004000201C490866FFF7FB
:10154000FBF9054606E0FFF7F7F9401B022801D931
:101550000320EFE516480068C0F340600028F2D190
:1015600022E0A069012800D1E4E51148001D0668C9
:1015700006F48001E069814214D106F03F01206A3F
:1015800081420FD147F6C0703040616A884209D16C
:1015900006F44031A06A814204D106F07061E06A2D
:1015A000814201D00120C5E50020C3E5000047428B
:1015B0000038024010B504460CB9012010BD606A25
:1015C00000B900BF0021A16294F8510028B90020A1
:1015D00084F85000204600F033F8022084F85100CF
:1015E0002068006820F0400021680860D4E901010B
:1015F0000843E16808432169084361690843218B76
:1016000001F400710843E1690843216A0843A16AB3
:101610000843216808600421A06901EA1040616A5A
:101620000843216848602068C06920F40060216890
:10163000C86100206065012084F851000020BDE7EA
:1016400010B586B00446142101A8FEF7F1FD1B4930
:10165000206888422FD100BF002000901848006801
:1016600040F48050164908600846006800F4805035
:10167000009000BF00BF00BF002000901048143849
:10168000006840F001000E491439086008460068FF
:1016900000F00100009000BF00BFE0200190022098
:1016A000029000200390032004900520059001A9DA
:1016B0000448FFF733F806B010BD000000300140C9
:1016C000443802400000024070B504462546681EBA
:1016D000B0F1807F01D301200FE0681E4FF0E021C0
:1016E00048610F214FF0FF3003F0DEFD00204FF086
:1016F000E021886107200861002070BD70477047B5
:1017000010B50346002200BF93F83C00012801D128
:10171000022010BD012083F83C0000BF22F0FF0032
:10172000CC6840EA040222F440708C6840EA04026B
:1017300022F480604C6840EA040222F400600C68E5
:1017400040EA040222F480500C6940EA040222F4C8
:1017500000504C6940EA040222F48040CC6940EA1F
:1017600004021868426400BF002083F83C0000BFF8
:1017700000BFCEE730B502460B4600BF92F83C00F2
:10178000012801D1022030BD012082F83C0000BFB9
:10179000022082F83D00106844681068816824F0D7
:1017A00070041868044310684460184D1068A8421B
:1017B0001BD01068B0F1804F17D0154D1068A842AB
:1017C00013D0144D1068A8420FD0134D1068A842D2
:1017D0000BD0124D1068A84207D0114D1068A842D6
:1017E00003D0104D1068A84205D121F0800158683F
:1017F000014310688160012082F83D0000BF002095
:1018000082F83C0000BF00BFBDE7000000000140BF
:101810000004004000080040000C004000040140AB
:10182000004001400018004010B504460CB90120EA
:1018300010BD94F83D0028B9002084F83C002046F3
:1018400000F00CF8022084F83D00211D206802F011
:10185000BFFD012084F83D000020E9E738B50446CB
:101860002D49206888420FD100BF002000902B48EE
:10187000006840F00100294908600846006800F04F
:101880000100009000BF46E02549206888421AD137
:1018900000BF002000902148001F006840F01000A9
:1018A0001E49091F08600846006800F010000090FB
:1018B00000BF00BF002201213620FFF7A5FA362025
:1018C000FFF792FA27E01749206888420FD100BF3E
:1018D000002000901148006840F002000F490860A5
:1018E0000846006800F00200009000BF13E00E49B7
:1018F000206888420FD100BF002000900748006890
:1019000040F48030054908600846006800F48030E3
:10191000009000BF00BF38BD0000014044380240C5
:1019200000100040000401400040014001460868EA
:10193000C06840F001000B68D8600868806800F05B
:101940000702062A05D00868006840F001000B680D
:101950001860002070472DE9F04104460D4600BF95
:1019600094F83C00012802D10220BDE8F08101205A
:1019700084F83C0000BF022084F83D00206886689F
:1019800026F0770626F47F4620688660286850286F
:1019900033D00CDC202850D004DC00284BD0102899
:1019A00051D149E0302849D040284CD139E0602855
:1019B0002DD0702807D0B0F5805F03D0B0F5005F60
:1019C00041D10DE040E0D5E902136A68206802F0D9
:1019D0007CFD2068866846F077062068866033E0E4
:1019E000D5E902136A68206802F06FFD20688068FC
:1019F00040F480402168886026E0EA6869682068D1
:101A000002F054FE5021206802F06AFD1CE0EA68F2
:101A10006968206802F05DFE6021206802F060FDC8
:101A200012E0EA686968206802F040FE4021206800
:101A300002F056FD08E000BF00BF00BF2968206823
:101A400002F04EFD00E000BF00BF012084F83D0021
:101A500000BF002084F83C0000BF00BF85E72DE9EF
:101A6000F04104460D4614B90120BDE8F08194F818
:101A70003D0028B9002084F83C00204600F046F8DC
:101A8000022084F83D002068806844F20701884302
:101A900021688860211D206802F09AFC2068D0F837
:101AA0000880206886692068076A286840EA080874
:101AB00040F203308643A969A86840EA0120064342
:101AC00040F60C4086434FF2F0008643E969E8682F
:101AD00040EA0120064328690001296A40EA0130F2
:101AE000064327F0220727F088076969686840EAFB
:101AF000011007432068C0F80880206886612068CC
:101B00000762012084F83D000020AEE710B586B0E2
:101B10000446142101A8FEF78BFB2068B0F1804F2A
:101B20004CD100BF002000907348006840F00100D5
:101B3000714908600846006800F00100009000BF8D
:101B400000BF00BF002000906B481038006840F0D4
:101B500001006949103908600846006800F001007A
:101B6000009000BF00BF00BF002000900846006842
:101B700040F0020008600846006800F00200009093
:101B800000BF00BF4FF400400190022002900020EF
:101B9000039004900120059001A95848FEF7BEFD6E
:101BA0000820019002200290002003900490012060
:101BB000059001A95248FEF7B1FD9BE0514920680C
:101BC00088422FD100BF002000904B48006840F0B1
:101BD0000200494908600846006800F002000090D1
:101BE00000BF00BF00BF00200090434810380068CD
:101BF00040F002004049103908600846006800F0D3
:101C00000200009000BF00BF30200190022002902F
:101C10000020039004900220059001A93848FEF7A7
:101C20007DFD67E038492068884230D100BF002040
:101C300000903148006840F004002F4908600846D1
:101C4000006800F00400009000BF00BF00BF00204B
:101C5000009029481038006840F0080026491039E3
:101C600008600846006800F00800009000BF00BF50
:101C70004FF4405001900220029000200390049005
:101C80000220059001A92148FEF748FD32E02049D5
:101C9000206888422ED100BF0020009016480068BE
:101CA00040F00800144908600846006800F0080089
:101CB000009000BF00BF00BF002000900E48103809
:101CC000006840F001000C491039086008460068BF
:101CD00000F00100009000BF00BF0320019002202F
:101CE00002900020039004900220059001A903486F
:101CF000FEF714FD06B010BD40380240000002405F
:101D0000000402400004004000080040000C0240B3
:101D1000000C004030B504460D4615B1042D0CD121
:101D200005E001220021206802F0BEFB10E0012244
:101D30000421206802F0B8FB0AE00122002120689B
:101D400002F0B2FB01220421206802F0ADFB00BFCB
:101D500000BF2068006840F0010021680860002092
:101D600030BD704710B5044620680069C0F34000DC
:101D7000D8B12068C068C0F34000B0B16FF0020075
:101D800021680861012020772068806900F0030045
:101D900018B12046FFF7E5FF05E0204600F04AF9BC
:101DA000204600F0E7F90020207720680069C0F3A2
:101DB0008000D8B12068C068C0F38000B0B16FF077
:101DC000040021680861022020772068806900F4FF
:101DD000407018B12046FFF7C4FF05E0204600F030
:101DE00029F9204600F0C6F9002020772068006914
:101DF000C0F3C000D8B12068C068C0F3C000B0B163
:101E00006FF0080021680861042020772068C0690D
:101E100000F0030018B12046FFF7A3FF05E02046BD
:101E200000F008F9204600F0A5F90020207720688E
:101E30000069C0F30010D8B12068C068C0F300107A
:101E4000B0B16FF010002168086108202077206889
:101E5000C06900F4407018B12046FFF782FF05E02A
:101E6000204600F0E7F8204600F084F900202077B3
:101E70002068006900F0010058B12068C06800F0D7
:101E8000010030B16FF0010021680861204600F0C8
:101E90009FF920680069C0F3C01058B12068C0687D
:101EA000C0F3C01030B16FF0800021680861204697
:101EB000FFF724FC20680069C0F3801058B1206847
:101EC000C068C0F3801030B16FF040002168086135
:101ED000204600F0CFFA20680069C0F3401058B1E6
:101EE0002068C068C0F3401030B16FF02000216856
:101EF00008612046FFF703FC10BD000010B586B056
:101F00000446142101A8FEF793F94349206888424A
:101F10003BD100BF002000904048006840F0100016
:101F20003E4908600846006800F01000009000BFBD
:101F300000BF00BF002000900846006840F001008C
:101F400008600846006800F00100009000BF00BF74
:101F50004FF428500190022002900020039004903A
:101F60000120059001A92E48FEF7D8FB4FF4006030
:101F7000019002200290002003900490012005901F
:101F800001A92848FEF7CAFB43E027492068884298
:101F90001ED100BF002000902048006840F00400DF
:101FA0001E4908600846006800F00400009000BF69
:101FB00000BF4FF470700190022002900020039047
:101FC00004900320059001A91848FEF7A7FB20E024
:101FD0001749206888421CD100BF002000900F489C
:101FE000006840F001000D4908600846006800F0F4
:101FF0000100009000BF00BF042001900220029069
:102000000020039004900320059001A90548FEF7E5
:1020100085FB06B010BD00000000014030380240D2
:10202000001002400000024000040140000802408D
:1020300000400140704770B504460D46164600BF8B
:1020400094F83C00012801D1022070BD012084F8E1
:102050003C0000BF022084F83D0036B1042E1BD0A6
:10206000082E31D00C2E5ED145E02946206802F0C2
:1020700041FA2068806940F0080021688861206882
:10208000806920F0040021688861206880692969DE
:1020900008432168886147E02946206802F062FA17
:1020A0002068806940F40060216888612068806948
:1020B00020F480602168886120688069296940EA8D
:1020C0000120216888612FE02946206802F088FA03
:1020D0002068C06940F008002168C8612068C069B4
:1020E00020F004002168C8612068C069296908439C
:1020F0002168C86118E02946206802F0ADFA20681E
:10210000C06940F400602168C8612068C06920F49B
:1021100080602168C8612068C069296940EA01209F
:102120002168C86100E000BF00BF012084F83D00C5
:1021300000BF002084F83C0000BF00BF85E710B559
:1021400004460CB9012010BD94F83D0028B90020C8
:1021500084F83C00204600F00CF8022084F83D0092
:10216000211D206802F034F9012084F83D00002090
:10217000E9E770477047000070B504460E4601223B
:102180003146206802F090F90F492068884203D058
:102190000E492068884201D1012000E0002028B1CA
:1021A0002068406C40F400402168486420688068E2
:1021B00000F00705062D05D02068006840F00100FA
:1021C00021680860002070BD00000140000401404B
:1021D00070B50446904884427DD190480088401CE8
:1021E0008E4908808E480088401C8D4908808D48A3
:1021F0000088401C8B49088089480088142804D135
:10220000FEF79EF900208649088086480088142839
:1022100012D18548006878B184480068FEF76FF8ED
:1022200083480068012804D180480068401CFEF7FC
:1022300066F800207B4908807848008814287DD102
:102240007C480068406A7C4908607C480068406AB5
:1022500048607B480068406A88607A480068406A45
:10226000C860744800680068C0F3001076490860D0
:10227000724800680068C0F3001048607048006849
:102280000068C0F3001088606E4800680068C0F302
:102290000010C86000206D49087058E066486B491E
:1022A000097850F821006A49684A127851F82210DA
:1022B000401A6849654A127841F822000846634985
:1022C000097850F821004CF2503188420EDD614807
:1022D0005E49097800E09EE050F82100A0F58030CA
:1022E0005C495A4A127841F8220013E0594857498C
:1022F000097850F82100584988420BDA554853496B
:10230000097850F8210000F5803052494F4A127880
:1023100041F822004F484D49097850F821004F49B3
:102320004A4A127851F8221088420BDD4948474941
:10233000097850F821004949444A00E056E01278F3
:1023400041F8220041480078401C404908703F484D
:1023500000780428A2DB01F083FC00203B490870D0
:102360000EE035483949097850F821003849374A94
:10237000127841F8220035480078401C3349087033
:10238000324800780428ECDB354A1168314A10687D
:1023900000F070FD33490860314A51682D4A506899
:1023A00000F0A2FD2F4948602D4A9168294A9068A3
:1023B00000F0D4FD2B498860294AD168254AD068AD
:1023C00000F006FE2749C8600D46EB682A68A96838
:1023D000686801F01FFF2448026824480168244807
:1023E000006803F069FA00200C4908800B48008857
:1023F000142802D1002009490880094800881428BF
:1024000002D100200649088006480088142802D11D
:1024100000200449088070BD840600206C00002064
:102420006E0000207000002064000020B00000203A
:10243000680000208405002070020020C4050020F0
:1024400004060020440600209002002060000020C6
:1024500080020020A0020020B03CFFFFC00200204C
:10246000B002002050000020CC000020C800002056
:10247000C4000020704770472DE9F04704462068EB
:1024800005682068C668206847694FF00008C146A3
:1024900005F00F08B8F1000F0AD105F0200038B19F
:1024A00006F0200020B1204602F051F9BDE8F08787
:1024B000B8F1000F72D007F0010018B906F490705F
:1024C00000286BD005F0010030B106F4807018B11F
:1024D000E06B40F00100E06305F0040030B107F06C
:1024E000010018B1E06B40F00200E06305F002006B
:1024F00030B107F0010018B1E06B40F00400E06378
:1025000005F0080048B106F0200010B907F00100FE
:1025100018B1E06B40F00800E063E06B70B305F0C9
:10252000200028B106F0200010B1204602F00FF97B
:1025300020684069C0F38019E06B00F0080010B912
:10254000B9F1000F23D0204602F0E1F8206840697D
:1025500000F04000402816D12068406920F040007B
:1025600021684861606B50B11748616B0865606B0A
:10257000FEF7ACF810B1606B016D88470CE02046A7
:10258000FFF779FF08E02046FFF775FF04E02046DB
:10259000FFF771FF0020E06388E7FFE705F08000A8
:1025A00030B106F0800018B1204602F017FB7DE73D
:1025B00005F0400030B106F0400018B1204602F0AE
:1025C000B6F873E700BF71E7FB46000810B5044694
:1025D0000CB9012010BDA06900B100E000BF94F863
:1025E000390028B9002084F83800204600F028F887
:1025F000242084F839002068C06820F40050216845
:10260000C860204602F0F6F82068006920F4904087
:10261000216808612068406920F02A00216848612B
:102620002068C06840F400502168C8600020E06362
:10263000202084F8390084F83A000020CAE700001E
:1026400010B586B00446142101A8FDF7F1FD7F49BD
:10265000206888424DD100BF002000907C4800686F
:1026600040F480107A4908600846006800F4801041
:10267000009000BF00BF00BF0020009074481038D9
:10268000006840F00400724910390860084600688C
:1026900000F00400009000BF00BF00BF00200090C9
:1026A0000846006840F0080008600846006800F02E
:1026B0000800009000BF00BF881401900220029023
:1026C00001200390032004900820059001A961488F
:1026D000FEF724F8042001900220029001200390CC
:1026E000032004900820059001A95B48FEF716F826
:1026F000A9E05A492068884233D100BF00200090E9
:102700005348001D006840F010005149091D086041
:102710000846006800F01000009000BF00BF00BF36
:10272000002000904A481038006840F001004849F5
:10273000103908600846006800F00100009000BFF2
:1027400000BF4FF4C060019002200290002003906F
:10275000032004900720059001A94148FDF7DEFF02
:1027600071E040492068884230D100BF00200090CD
:102770003748006840F40030354908600846006872
:1027800000F40030009000BF00BF00BF00200090A8
:102790002F481038006840F008002D4910390860B3
:1027A0000846006800F00800009000BF00BF6020ED
:1027B0000190022002900020039003200490072043
:1027C000059001A92448FDF7A9FF3CE026492068AF
:1027D000884238D100BF002000901D48006840F4B6
:1027E00080201B4908600846006800F480200090A3
:1027F00000BF00BF00BF00200090154810380068DF
:1028000040F008001249103908600846006800F0DE
:102810000800009000BF00BF4FF4407001900220FC
:10282000029000200390032004900720059001A946
:102830000948FDF773FF002201212720FEF7E4FA83
:102840002720FEF7D1FA06B010BD0000005000406E
:102850004038024000080240000C024000100140D5
:1028600000000240004400400048004010B503460C
:1028700093F83A0020282FD101B10AB9012010BDE8
:1028800000BF93F83800012801D10220F7E70120AA
:1028900083F8380000BF99629A85DA850020D863F2
:1028A000222083F83A0000BF002083F8380000BFE0
:1028B0001868C06840F480701C68E060186840695F
:1028C00040F001001C6860611868C06840F020009A
:1028D0001C68E0600020D2E70220D0E770B5054612
:1028E0004D48006898B900204C4908704C49087060
:1028F0004C48007810B1012808D103E00B204A4968
:10290000087003E00A204849087000BF00BF424831
:102910000068401C40490860444801783E4800680F
:10292000401E434A11543C480068401E1146085C52
:102930000A2864D138480068801E085C0D285ED1E2
:10294000354801683BA002F083FC002406E03848CB
:10295000025D21463CA002F07BFC641C2E4800680E
:102960008442F4DB2C4800782C49087000202A4966
:1029700008602A4800782C49097888423FDB01200A
:10298000274908700020254908702648007810B1B2
:1029900001282CD113E02648407832490870244899
:1029A000807848702248C078887021484079487102
:1029B0001F48807988711E48C079C87117E00020CF
:1029C000294908700EE028480078C0F1060018492F
:1029D000085C2649244A1278885423480078401C11
:1029E00021490870204800780628ECDB00BF00BFB2
:1029F00032210F48FDF71CFC00200C4908700748E5
:102A0000007809490978884204DA01220749184800
:102A1000FFF72CFF70BD00002C02002037020020C1
:102A2000F8000020F90000203602002024020020D7
:102A30005008002055617274332D52584C656E3D1C
:102A400025640D0A00000000554152542044617471
:102A500061427566665B25645D203D20307825788F
:102A60000D0A0000FA000020380200202502002094
:102A7000040800202DE9F84304460D4616461F467B
:102A80004FF0000994F8390020285DD105B116B93E
:102A90000120BDE8F88300BF94F83800012801D177
:102AA0000220F6E7012084F8380000BF0020E06330
:102AB000212084F83900FDF73FFF8146A684E68493
:102AC00000BF002084F8380000BF2BE0E08C401EDF
:102AD000E084A068B0F5805F16D14B4600228021CB
:102AE0002046009702F0AEF808B10320D1E7A846CF
:102AF000B8F80000C0F3080021684860206908B9F0
:102B0000AD1C0FE06D1C0DE04B46002280212046DD
:102B1000009702F097F808B10320BAE715F8010B07
:102B200021684860E08C0028D0D14B46002240212B
:102B30002046009702F086F808B10320A9E720207C
:102B400084F839000020A4E70220A2E7704700BF04
:102B5000FEE7014608684069C0F38020B0B16FF419
:102B600080600A68506100200863202081F83D00E1
:102B7000002081F83E00086C40F00400086400BFAB
:102B8000002081F83C0000BF012070470020FCE7D6
:102B90002DE9F8430446884615469946DDE908675D
:102BA0002068006840F48070216808603346002285
:102BB0004FF001112046009700F088F860B12068BE
:102BC000006800F48070B0F5807F02D14FF400708F
:102BD00020640320BDE8F88308F0FE002168086146
:102BE0003B4632462149204600F0B3F808B10120A7
:102BF000F0E700BF00200090206840690090206846
:102C00008069009000BF00BF3A463146204600F080
:102C100002F950B1206C042805D12068006840F406
:102C20000070216808600120D4E7B9F1010F03D1D9
:102C3000E8B22168086117E0C5F307202168086140
:102C40003A463146204600F0E6F850B1206C0428A0
:102C500005D12068006840F40070216808600120F8
:102C6000B8E7E8B2216808610020B3E7020001007C
:102C700070B504460D46164620E02046FFF769FF72
:102C800008B1012070BD681CC0B1FDF755FE801B66
:102C9000A84200D895B900202063202084F83D0088
:102CA000002084F83E00206C40F02000206400BF2B
:102CB000002084F83C0000BF0120E3E72068406961
:102CC000C0F380000028D8D00020DBE72DE9F041D8
:102CD00004460D4617461E46DDF818801CE0701CA1
:102CE000D0B1FDF729FEA0EB0800B04200D89EB994
:102CF00000202063202084F83D00002084F83E005E
:102D0000206C40F02000206400BF002084F83C00CC
:102D100000BF0120BDE8F081C5F3074001280AD1BA
:102D200020684069A9B20840A9B2884201D10120B7
:102D30000BE0002009E020688069A9B20840A9B230
:102D4000884201D1012000E00020B842C7D0002015
:102D5000E0E72DE9F04104460D4616461F463DE0EA
:102D600020684069C0F38020E8B12068006840F422
:102D70000070216808606FF480602168486100205D
:102D80002063202084F83D00002084F83E00206C61
:102D900040F00400206400BF002084F83C0000BF25
:102DA0000120BDE8F081701CC0B1FDF7C5FDC01B5E
:102DB000B04200D896B900202063202084F83D005E
:102DC000002084F83E00206C40F02000206400BF0A
:102DD000002084F83C0000BF0120E2E7C5F3074073
:102DE00001280AD120684069A9B20840A9B28842E6
:102DF00001D101200BE0002009E020688069A9B220
:102E00000840A9B2884201D1012000E0002000283A
:102E1000A6D00020C5E770B504460D46164620E052
:102E20002046FFF796FE08B1012070BD681CC0B1B6
:102E3000FDF782FD801BA84200D895B900202063D1
:102E4000202084F83D00002084F83E00206C40F0F3
:102E50002000206400BF002084F83C0000BF012057
:102E6000E3E720684069C0F3C0100028D8D00020F4
:102E7000DBE7000010B50246501A164B18601846E2
:102E80000068154B1B68C01A144B1B685843144B41
:102E90001B68104C246803FB0400124B1B68184489
:102EA000104B18600B4800680B4B18600D48006809
:102EB00044F29F13984202DD18460A4B18600948F5
:102EC0000068002802DA0020064B186005480068F8
:102ED00010BD000020000020240000200000002081
:102EE000040000202800002010B50246501A164B9E
:102EF000186018460068154B1B68C01A144B1B68F5
:102F00005843144B1B68104C246803FB0400124BFD
:102F10001B681844104B18600B4800680B4B186076
:102F20000D48006844F29F13984202DD18460A4B90
:102F3000186009480068002802DA0020064B186073
:102F40000548006810BD00002C0000203000002063
:102F5000080000200C0000203400002010B50246BC
:102F6000501A164B186018460068154B1B68C01A9B
:102F7000144B1B685843144B1B68104C246803FB0C
:102F80000400124B1B681844104B18600B48006873
:102F90000B4B18600D48006844F29F13984202DD05
:102FA00018460A4B186009480068002802DA002019
:102FB000064B18600548006810BD0000380000206E
:102FC0003C000020100000201400002040000020E1
:102FD00010B50246501A164B186018460068154B7B
:102FE0001B68C01A144B1B685843144B1B68104CC9
:102FF000246803FB0400124B1B681844104B186034
:103000000B4800680B4B18600D48006844F29F1392
:10301000984202DD18460A4B1860094800680028EB
:1030200002DA0020064B18600548006810BD000059
:103030004400002048000020180000201C00002050
:103040004C00002010B5FF21092002F0C3F8032135
:103050000A2002F0BFF807210B2002F0BBF8012183
:103060000C2002F0B7F801210F2002F0B3F810BDD8
:1030700010B500202A4908600CE02948006880004B
:103080002849274A126841F8220025480068401C58
:1030900023490860224800680428EEDB224802F039
:1030A0003DF8B9EE080A204880ED010A9FED1F0A9D
:1030B00080ED020ABFEE000A80ED030A1C4802F010
:1030C0002DF8B1EE080A1A4880ED010A9FED170AA3
:1030D00080ED020AB7EE000A80ED030A154802F0FF
:1030E0001DF8BFEE000A134880ED010A9FED0F0A9C
:1030F00080ED020ABFEE000A80ED030A0E4802F0DE
:103100000DF8BFEE000A0C4880ED010A9FED070A9A
:1031100080ED020ABFEE000A80ED030A10BD000038
:1031200088000020880400206003002000000000C8
:1031300084030020A8030020CC03002000B587B042
:10314000142102A8FDF774F800BF002001905A482E
:10315000006840F01000584908600846006800F018
:103160001000019000BF00BF00BF00200190084682
:10317000006840F0040008600846006800F00400A1
:10318000019000BF00BF00BF00200190084600680A
:1031900040F0800008600846006800F08000019060
:1031A00000BF00BF00BF002001900846006840F04B
:1031B000010008600846006800F00100019000BFAF
:1031C00000BF00BF002001900846006840F00200E8
:1031D00008600846006800F00200019000BF00BFD0
:1031E00000BF002001900846006840F00800086019
:1031F0000846006800F00800019000BF00BF0022F0
:103200004FF4A0512D48FDF791FB00224FF440618F
:103210002B48FDF78BFB002201212A48FDF786FB96
:103220004CF2FF10029000200390049002A9234862
:10323000FDF774FA4EF20F00029000200390049004
:1032400002A91F48FDF76AFA4FF4A050029001202E
:10325000039000200490059002A91848FDF75EFA3B
:103260004FF47060029000200390049002A9164869
:10327000FDF754FA4FF440600290012003900020C3
:103280000490059002A90E48FDF748FA012002902B
:10329000039000200490059002A90A48FDF73EFA29
:1032A0009A20029000200390049002A90548FDF79F
:1032B00035FA07B000BD000030380240001002406F
:1032C00000080240000C02400004024010B50B4808
:1032D0000B4908600B484860002109488160C160C3
:1032E0004FF480410161002141618161C16101624E
:1032F000FDF728FB08B1FDF721F910BD005400408F
:1033000098040020A086010010B50E480E49086000
:103310004FF48270486000210B488160C1600161F8
:1033200041614FF4007181610021C161016241621C
:1033300081620A21C162FEF73DF908B1FDF7FEF88E
:1033400010BD000000300140EC04002000B595B035
:10335000002011901290139014900F9010901C2147
:1033600008A8FCF765FF20216846FCF761FF394893
:10337000394908600A20486000213748816044F2DA
:103380009F11C1600021016141618161FEF74CFA2A
:1033900008B1FDF7D3F84FF48050119011A92E48D1
:1033A000FEF7D9FA08B1FDF7C9F82B48FEF7C7FEBA
:1033B00008B1FDF7C3F800200F9010900FA9264820
:1033C000FEF7D8F908B1FDF7B9F8602008900020A1
:1033D00009900A900B900C900D900E90002208A975
:1033E0001D48FEF728FE08B1FDF7A8F8042208A939
:1033F0001948FEF720FE08B1FDF7A0F8082208A939
:103400001548FEF718FE08B1FDF798F80C2208A938
:103410001148FEF710FE08B1FDF790F84FF4006078
:103420000090401001900020029003904FF48050D3
:103430000490400005904000079069460648FEF75A
:103440005FF908B1FDF77AF80348FEF757FD15B0AC
:1034500000BD0000000001404405002000B58BB015
:10346000242102A8FCF7E4FE0020009001904FF018
:10347000804017490860002048600021144881609E
:103480004FF6FF71C160002101618161012002904E
:1034900000200390012004900020059006900790E2
:1034A00001200890002009900A9002A90848FEF720
:1034B000D6FA08B1FDF742F8002000900190694665
:1034C0000348FEF757F908B1FDF738F80BB000BD17
:1034D0008405002000B58BB0242102A8FCF7A8FECB
:1034E00000200090019018481849086000204860AA
:1034F0000021164881604FF6FF71C1600021016113
:10350000816101200290002003900120049000209E
:1035100005900690079001200890002009900A90DD
:1035200002A90A48FEF79BFA08B1FDF707F8002048
:103530000090019069460548FEF71CF908B1FCF7B8
:10354000FDFF0BB000BD000000040040C4050020DA
:1035500000B58BB0242102A8FCF76AFE0020009081
:10356000019018481849086000204860002116485A
:1035700081604FF6FF71C16000210161816101200E
:1035800002900020039001200490002005900690F6
:10359000079001200890002009900A9002A90A488B
:1035A000FEF75DFA08B1FCF7C9FF0020009001901A
:1035B00069460548FEF7DEF808B1FCF7BFFF0BB01F
:1035C00000BD0000000800400406002000B58BB0DC
:1035D000242102A8FCF72CFE00200090019018483E
:1035E00018490860002048600021164881604FF6A5
:1035F000FF71C16000210161816101200290002002
:10360000039001200490002005900690079001206F
:103610000890002009900A9002A90A48FEF71FFAB4
:1036200008B1FCF78BFF0020009001906946054827
:10363000FEF7A0F808B1FCF781FF0BB000BD000059
:10364000000C0040440600201CB5002000900190B2
:103650000E480F4908600020486000210C48816036
:103660004FF6FF71C16000218161FEF7DDF808B1FE
:10367000FCF764FF00200090019069460448FEF7C3
:1036800079F808B1FCF75AFF1CBD0000001000409B
:103690008406002000B595B0002011901290139080
:1036A00014900F9010901C2108A8FCF7C1FD202158
:1036B0006846FCF7BDFD3948394908600A20486072
:1036C00000213748816044F29F11C16000210161EF
:1036D00041618161FEF7A8F808B1FCF72FFF4FF4B4
:1036E0008050119011A92E48FEF735F908B1FCF76A
:1036F00025FF2B48FEF723FD08B1FCF71FFF002034
:103700000F9010900FA92648FEF734F808B1FCF787
:1037100015FF60200890002009900A900B900C90F3
:103720000D900E90002208A91D48FEF784FC08B1F8
:10373000FCF704FF042208A91948FEF77CFC08B135
:10374000FCF7FCFE082208A91548FEF774FC08B136
:10375000FCF7F4FE0C2208A91148FEF76CFC08B136
:10376000FCF7ECFE4FF40060009040100190002048
:10377000029003904FF48050049040000590400068
:10378000079069460648FDF7BBFF08B1FCF7D6FE77
:103790000348FEF7B3FB15B000BD00000004014074
:1037A000C406002000B58BB0002007900890099057
:1037B0000A901C216846FCF73BFD1C481C49086028
:1037C000A720486000211A48816042F20F71C16051
:1037D000002101618161FEF727F808B1FCF7AEFE18
:1037E0004FF48050079007A91148FEF7B4F808B1CC
:1037F000FCF7A4FE0E48FEF7A2FC08B1FCF79EFE03
:103800006020009040F2DC50019000200290049073
:10381000002269460648FEF70EFC08B1FCF78EFE52
:103820000348FEF76BFB0BB000BD000000400140F9
:103830000407002010B50B480B4908604FF4E13035
:103840004860002108488160C16001610C2141612C
:1038500000218161C161FEF7B9FE08B1FCF76EFE7F
:1038600010BD0000005000404407002010B50B4878
:103870000B4908604FF4E13048600021084881603E
:10388000C16001610C21416100218161C161FEF7CC
:103890009DFE08B1FCF752FE10BD00000010014073
:1038A0008407002010B50B480B4908604FF41650F0
:1038B0004860002108488160C16001610C214161BC
:1038C00000218161C161FEF781FE08B1FCF736FE7F
:1038D00010BD000000440040C407002010B50B4894
:1038E0000B4908604FF4E1304860002108488160CE
:1038F000C16001610C21416100218161C161FEF75C
:1039000065FE08B1FCF71AFE10BD0000004800403B
:103910000408002070B50121002000F0AFF9022159
:10392000012000F0ABF900241BE0C848005D5228DC
:1039300004D13120C64901EB44014870C348005D01
:10394000472804D13220C24901EB44014870BF48E6
:10395000005D422804D13320BD4901EB4401487089
:10396000641C062CE1D300243BE0B94800EB440082
:103970004078B849095D884203D1B54901F814403F
:103980002EE0601C0321B0FBF1F201FB1200B149F3
:10399000085CAF4901EB44014978884209D1601CB9
:1039A0000321B0FBF1F201FB1200A94901F8140058
:1039B00016E0A01C0321B0FBF1F201FB1200A549A7
:1039C000085CA34901EB44014978884208D1A01C56
:1039D0000321B0FBF1F201FB12009D4901F8140034
:1039E000641C032CC1D3002447E0E01C984901EB80
:1039F00040004178601D974A105C814205D1E01C6F
:103A0000C1B2934A02F8101036E0601C0321B0FBEB
:103A1000F1F201FB1200401D8E49095CE01C8C4A4A
:103A200002EB4000407881420BD1601C0321B0FBC7
:103A3000F1F201FB1200C01CE11C854A02F81100E2
:103A40001AE0A01C0321B0FBF1F201FB1200401DA3
:103A50008049095CE01C7E4A02EB400040788142CC
:103A60000AD1A01C0321B0FBF1F201FB1200C01C23
:103A7000E11C774A02F81100641C032CB5D3002422
:103A800005E0734911F81410734A5454641C062C51
:103A9000F7D30024D6E0002547E0032101FB0451C1
:103AA0006D4A515CC91CC8B201F00AF901F094FDDD
:103AB0000321022000F0E2F8032000FB04506649D5
:103AC000085C634901EB40004078332805D101F0E0
:103AD00083FD092001F0F4F820E0032000FB0450EE
:103AE0005D49085C5A4901EB40004078312805D116
:103AF00001F072FD0A2001F0E3F80FE0032000FB63
:103B000004505549085C524901EB40004078322886
:103B100004D101F061FD0B2001F0D2F8022D03D099
:103B20000221032000F0AAF86D1C032DB5D3002557
:103B300077E0032000FB04504749085C444901EB4F
:103B400040004078332805D101F046FD0C2001F0FB
:103B5000B7F820E0032000FB04503F49085C3C49D3
:103B600001EB40004078312805D101F035FD0D20F2
:103B700001F0A6F80FE0032000FB04503649085C72
:103B8000334901EB40004078322804D101F024FD94
:103B90000E2001F095F80421032000F06FF80320B7
:103BA00000FB04502C49085C294901EB4000407897
:103BB000332808D104EB44010F31C8B201F080F87A
:103BC00001F00AFD26E0032000FB04502249085CB6
:103BD0001F4901EB40004078312808D104EB440133
:103BE0001031C8B201F06CF801F0F6FC12E00320CD
:103BF00000FB04501849085C154901EB400040786F
:103C0000322807D104EB44011131C8B201F058F851
:103C100001F0E2FC022D03D00321042000F02EF875
:103C20006D1C032D85D3012C07D10521042000F044
:103C300025F8012001F044F803E00221042000F0FF
:103C40001DF8641C022CFFF426AF70BD2502002075
:103C500044080020FA000020F000002000BFFEE72A
:103C600004480068404203490860084640684042F2
:103C700048607047A0020020704700002DE9F04125
:103C800004460D4604EB840005EB4007222F74D058
:103C900008DC012F0DD00C2F1CD0172F3CD0202F6B
:103CA00017D152E02A2F67D02B2F7DD02D2FF7D19F
:103CB000DEE06FF00E01002000F010F90022114646
:103CC000032000F0D7F90221002000F007F901F0ED
:103CD00093F9F7E000221146032000F0CBF9002110
:103CE000084600F0FBF80021084600F0F7F80A212A
:103CF000002000F0F3F801F011F9022000F0E0FFDD
:103D00006FF00E01002000F0E9F8FCF7D3FC4FF44F
:103D1000FA60FCF7EFFCD5E00A2001F0E5FD4FF476
:103D20007A70FCF7E7FCFCF7CBFC0021084600F0BA
:103D3000D5F86FF00E01002000F0D0F8FCF7BAFCC7
:103D40004FF47A70FCF7D6FCBCE0FCF7B9FC00211C
:103D5000022000F0C3F86FF00E01022000F0BEF860
:103D60006FF0090001F0C0FDFCF7A4FC4FF47A707D
:103D7000FCF7C0FCA6E000E04EE0FCF7A1FC00214F
:103D8000084600F0ABF86FF00E01002000F0A6F836
:103D90000A2001F0A9FDFCF78DFC4FF47A70FCF7C6
:103DA000A9FCFCF78DFC00E00FE00021084600F0C4
:103DB00095F86FF00E01002000F090F8FCF77AFC07
:103DC0004FF47A70FCF796FC7CE0FCF779FC00215C
:103DD000022000F083F86FF00E01022000F07EF860
:103DE0006FF0090001F080FDFCF764FC4FF47A707D
:103DF000FCF780FCFCF764FC0021022000F06EF868
:103E00006FF00E01022000F069F8FCF753FC4FF44C
:103E10007A70FCF76FFC55E0FCF752FC00210220A1
:103E200000F05CF86FF00E01022000F057F86FF020
:103E3000090001F059FDFCF73DFC4FF47A70FCF7E6
:103E400059FCFCF73DFC002604E00021022000F0B4
:103E500045F8761C032EF8DB6FF00E01022000F00F
:103E60003DF86FF0090001F03FFDFCF723FC29E06D
:103E7000FCF726FC0021084600F030F80021084637
:103E800000F02CF86FF00E01002000F027F8002160
:103E9000012000F023F800200C4908600C4908605C
:103EA00005200C4908600F200B49086040F6B83027
:103EB000FCF720FC00200649086006490860064916
:103EC000086000BF00BFBDE8F08100006400002072
:103ED000CC000020C8000020C400002070B50446BB
:103EE0000D460120584908605848046034B1012C3F
:103EF00009D0022C0CD0032C16D10FE005F11E00C6
:103F00005349086010E005F10F00524908600BE0CA
:103F10006FF01D00401B4E49086005E06FF00E0079
:103F2000401B4C49086000BF00BF04F0010020B9ED
:103F30004FF4C870FCF7DEFB03E04FF44870FCF769
:103F4000D9FB00BF2046FCF7F3F90028FAD034B1C2
:103F5000012C0FD0022C19D0032C2FD122E00020ED
:103F60003A4908603A4908603B480068401C3A49B1
:103F7000086023E0012035490860002035490860C9
:103F800036480068401E3549086017E002202F4976
:103F9000086000202E4908602F480068401E2E4906
:103FA00008600BE0032029490860002029490860C7
:103FB0002A480068401C2949086000BF00BF274804
:103FC00002682548016826A001F042F9611C01F051
:103FD0000300FCF794F91420FCF78CFB611C01F042
:103FE0000300FCF78CF91420FCF784FB611C01F042
:103FF0000300FCF784F91420FCF77CFB611C01F042
:104000000300FCF77CF91420FCF774FB611C01F041
:104010000300FCF774F91420FCF76CFB611C01F041
:104020000300FCF76CF91420FCF764FB611C01F041
:104030000300FCF764F91420FCF75CFB0020054941
:1040400008600349086070BD64000020B0000020D3
:10405000C8000020C4000020D8000020DC000020A0
:104060004920616D206174202825642C2564292E47
:104070000D0A000070B504460E4615460120594948
:1040800008605948046034B1012C09D0022C0CD0CE
:10409000032C16D10FE005F11E005449086010E012
:1040A00005F10F00524908600BE06FF01D00401B46
:1040B0004E49086005E06FF00E00401B4C49086057
:1040C00000BF00BF04F0010020B94FF4C870FCF736
:1040D00011FB03E04FF44870FCF70CFB00BFE0B2AB
:1040E0003146FCF75BF90028F9D034B1012C0FD030
:1040F000022C19D0032C2FD122E000203A4908606D
:104100003A4908603B480068401C3A49086023E08F
:1041100001203549086000203549086036480068AC
:10412000401E3549086017E002202F490860002032
:104130002E4908602F480068401E2E4908600BE099
:104140000320294908600020294908602A4800689E
:10415000401C2949086000BF00BF27480268254865
:10416000016826A001F074F8611C01F00300FCF75F
:10417000C6F81420FCF7BEFA611C01F00300FCF73E
:10418000BEF81420FCF7B6FA611C01F00300FCF73E
:10419000B6F81420FCF7AEFA611C01F00300FCF73E
:1041A000AEF81420FCF7A6FA611C01F00300FCF73E
:1041B000A6F81420FCF79EFA611C01F00300FCF73E
:1041C0009EF81420FCF796FA611C01F00300FCF73E
:1041D00096F81420FCF78EFA002005490860034980
:1041E000086070BD64000020B0000020C8000020FE
:1041F000C4000020D8000020DC0000204920616DB0
:10420000206174202825642C2564292E0D0A0000C5
:104210007047704730B542F2D004A04209D944003B
:10422000A4F582449F3C294D2C6000242D1D2C6058
:1042300008E00024254D2C6044F29F14241A241A0F
:104240002D1D2C6042F2D004A14208D94C00A4F5E7
:1042500082449F3C1E4D6C630024AC6307E0002445
:104260001B4D6C6344F29F14641A641AAC6342F2EF
:10427000D004A24208D95400A4F582449F3C144DB6
:104280002C640024EC6307E00024114D2C6444F2FC
:104290009F14A41AA41AEC6342F2D004A3420AD9D0
:1042A0005C00A4F582449F3C084D08352C60002436
:1042B0002D1D2C6009E00024044D08352C6044F2CB
:1042C0009F14E41AE41A2D1D2C6030BD3404014003
:1042D0000000014010B5034C6060A1602260E36003
:1042E00010BD0000B002002010B5FCF709FD10BDA4
:1042F00000B593B0302107A8FBF79AFF142102A85C
:10430000FBF796FF00BF002001902448006840F0B2
:104310008050224908600846006800F080500190F3
:1043200000BF00BF00BF002001901D48006840F49E
:1043300080401B4908600846006800F480400190F6
:1043400000BF00BF012007900004089002200D90DC
:1043500041050E9119210F914FF4A871109102217E
:1043600011910421129107A8FCF7E0FE08B1FCF7B7
:10437000E5F80F20029002200390002004904FF4F3
:10438000A05005904FF480500690052102A8FCF73C
:104390008DFD08B1FCF7D2F813B000BD40380240E3
:1043A000007000400548006840F470000349086050
:1043B0004FF00060014980390860704788ED00E0E7
:1043C00010B50248FDF7CEFC10BD000084060020A9
:1043D00010B50268294B98420ED0B0F1804F0BD037
:1043E000274B984208D0274B984205D0264B98423D
:1043F00002D0264B984203D122F070024B681A4338
:104400001E4B984220D0B0F1804F1DD01C4B9842DB
:104410001AD01C4B984217D01B4B984214D01B4B00
:10442000984211D01A4B98420ED01A4B98420BD09A
:10443000194B984208D0194B984205D0184B984216
:1044400002D0184B984203D122F44072CB681A4331
:1044500022F080034C6943EA040202608B68C36265
:104460000B688362054B984202D0084B984201D1F9
:104470000B6903630123436110BD0000000001408C
:104480000004004000080040000C0040000401400F
:104490000040014000440140004801400018004035
:1044A000001C00400020004030B501F01F05012431
:1044B00004FA05F3046A9C430462046A01F01F05D0
:1044C00002FA05F52C43046230BD30B50C46816814
:1044D00021F47F4142EA032525432943816030BD11
:1044E0000A46816821F0700142F007031943816098
:1044F0007047000030B5056A25F001050562026AC3
:104500004368846924F0700424F003040D682C438C
:1045100022F002028D682A43104DA84200D103E028
:104520000F4DA84206D100BF22F00802CD682A43F1
:1045300022F00402094DA84202D0094DA84207D139
:1045400023F4807323F400734D692B438D692B434F
:10455000436084614D684563026230BD00000140E4
:104560000004014030B5056A25F010050562026AB5
:104570004368846924F4E04424F440740D6844EAF8
:10458000052422F020028D6842EA0512124DA8424D
:1045900000D103E0114DA84207D100BF22F08002F4
:1045A000CD6842EA051222F040020B4DA84202D02B
:1045B0000A4DA84209D123F4806323F400634D69B6
:1045C00043EA85038D6943EA8503436084614D684E
:1045D0008563026230BD000000000140000401401C
:1045E00030B5056A25F480750562026A4368C469BE
:1045F00024F0700424F003040D682C4322F40072AC
:104600008D6842EA0522124DA84200D103E0114D07
:10461000A84207D100BF22F40062CD6842EA052219
:1046200022F480620A4DA84202D00A4DA84209D164
:1046300023F4805323F400534D6943EA05138D6935
:1046400043EA05134360C4614D68C563026230BD2F
:10465000000001400004014030B5056A25F4805592
:104660000562036A4468C26922F4E04222F440729F
:104670000D6842EA052223F400538D6843EA0533AE
:10468000084DA84202D0084DA84204D124F4804429
:104690004D6944EA85144460C2614D680564036253
:1046A00030BD0000000001400004014030B50B4661
:1046B0001446026A056A25F001050562816921F048
:1046C000F00141EA041122F00A021A4381610262F8
:1046D00030BD30B50B461446056A25F0100505625D
:1046E0008169026A21F4704141EA043122F0A0029A
:1046F00042EA03128161026230BD70B50546AC6BBF
:104700000020E085E0842046FDF7B5FE70BD01681D
:10471000C96821F490710268D1600168496921F08B
:10472000010102685161202180F83A10704710B5EC
:1047300004462068C06820F040002168C86020203E
:1047400084F839002046FEF701FA002010BD70B54C
:10475000044694F83A0022284AD1A068B0F5805F58
:1047600013D1A56A206940B920684068C0F30800E9
:104770002880A06A801CA06219E020684068C0B24E
:104780002880A06A401CA06211E0206938B9206826
:104790004068C1B2A26A501CA062117007E0206894
:1047A000406800F07F01A26A501CA0621170E08D89
:1047B000401E80B2E085C8B92068C06820F02000A3
:1047C0002168C8602068C06820F480702168C860D3
:1047D0002068406920F0010021684861202084F8A9
:1047E0003A002046FEF77AF8002070BD0020FCE772
:1047F0000220FAE72DE9F84F04462068006920F40A
:104800004050E1680843216808612169A0680843B5
:1048100061690843E169084300902068C06849F273
:104820000C618843009908432168C860206840698A
:1048300020F44070A169084321684861E069B0F53F
:10484000004F75D1E3492068884203D0E2492068CF
:1048500088426FD1FCF702FC814602206168A0FB10
:1048600001510B461920A9FB00712A463846FBF777
:10487000A7FC6421B0FBF1F04FEA001A0220616846
:10488000A0FB01510B461920A9FB00712A463846AE
:10489000FBF796FC074602206168A0FB01510B461E
:1048A0001920A9FB00B12A465846FBF789FC642170
:1048B000B0FBF1F000EBC00101EB0010A7EB8000B2
:1048C000322101EBC0006421B0FBF1F000F0F800F0
:1048D0000AEB400A02206168A0FB01510B46192037
:1048E000A9FB00712A463846FBF76AFC07460220FE
:1048F0006168A0FB01510B461920A9FB00B12A46B3
:104900005846FBF75DFC6421B0FBF1F000EBC00101
:1049100001EB0010A7EB8000322101EBC000642105
:10492000B0FBF1F000F007005044216888604FE1CF
:104930006EE0FFE7FCF782FB814602206168A0FB86
:1049400001510B461920A9FB00712A463846FBF796
:1049500037FC6421B0FBF1F04FEA001A02206168D5
:10496000A0FB01510B461920A9FB00712A463846CD
:10497000FBF726FC074602206168A0FB01510B46AD
:104980001920A9FB00B12A465846FBF719FC6421FF
:10499000B0FBF1F000EBC00101EB0010A7EB8000D1
:1049A000322101EBC0006421B0FBF1F000F0F8000F
:1049B0000AEB400A02206168A0FB01510B46192056
:1049C000A9FB00712A463846FBF7FAFB074602208E
:1049D0006168A0FB015003461920A9FB00B12A46DB
:1049E0005846FBF7EDFB6421B0FBF1F000EBC00192
:1049F00001EB0010A7EB8000322101EBC000642125
:104A0000B0FBF1F000F00700504421688860DFE05F
:104A100070492068884203D06F49206888426BD172
:104A2000FCF71CFB814604206168A0FB01510B468A
:104A30001920A9FB00712A463846FBF7C1FB8246C4
:104A400004206168A0FB01510B461920A9FB0071ED
:104A50002A463846FBF7B4FB6421B0FBF1F000EBCB
:104A6000C00101EB0010AAEB8000322101EB001025
:104A70006421B0FBF1F000F0F00A04206168A0FBB3
:104A8000015003461920A9FB00712A463846FBF75E
:104A900097FB6421B0FBF1F00AEB001A0420616877
:104AA000A0FB01510B461920A9FB00712A4638468C
:104AB000FBF786FB074604206168A0FB0150034614
:104AC0001920A9FB00B12A465846FBF779FB64215F
:104AD000B0FBF1F000EBC00101EB0010A7EB800090
:104AE000322101EB00106421B0FBF1F000F00F0067
:104AF0005044216888606BE0FCF7A0FA81460420EE
:104B00006168A0FB015003461920A9FB00712A46E9
:104B10003846FBF755FB824604206168A0FB015034
:104B200003461920A9FB00712A463846FBF748FBCB
:104B30006421B0FBF1F000EBC00101EB0010AAEB27
:104B40008000322101EB00106421B0FBF1F000F095
:104B5000F00A04206168A0FB015003461920A9FB5C
:104B600000712A463846FBF72BFB6421B0FBF1F0BD
:104B70000AEB001A04206168A0FB017003461920AB
:104B8000A9FB005001463A462846FBF719FB0746A9
:104B900004206168A0FB015003461920A9FB00B165
:104BA0002A465846FBF70CFB6421B0FBF1F000EB02
:104BB000C00101EB0010A7EB8000322101EB0010D7
:104BC0006421B0FBF1F000F00F00504421688860D0
:104BD000BDE8F88F0010014000140140014691F833
:104BE000390021282CD18868B0F5805F0FD10A6A7E
:104BF0001088C0F308000B685860086918B9086A83
:104C0000801C086209E0086A401C086205E00B6A23
:104C1000581C086218780B685860C88C401E80B217
:104C2000C88458B90868C06820F080000B68D86054
:104C30000868C06840F040000B68D86000207047EA
:104C40000220FCE72DE9F04104460D461746984640
:104C5000069E21E0701CF8B12EB1FBF76DFEA0EBB3
:104C60000800B04218D92068C06820F4D0702168CC
:104C7000C8602068406920F0010021684861202058
:104C800084F8390084F83A0000BF002084F8380026
:104C900000BF0320BDE8F081206800682840A842DA
:104CA00001D1012000E00020B842D3D00020F1E77C
:104CB00010B50248FDF7E0FB10BD0000040800201D
:104CC00010B5044600F088FC152C13D2DFE804F080
:104CD000F30B131B27333F4B57636F7B87939FABBC
:104CE000B7C3CFDBE7004FF6FF730722754976485D
:104CF000FDF7C0FEDFE04FF6FF73072273497248ED
:104D0000FDF7B8FED7E04FF6FF73072270496E48F3
:104D1000FDF7B0FE40F6E440FBF7ECFCCBE04FF6CD
:104D2000FF7307226B496848FDF7A4FE40F6AC50BC
:104D3000FBF7E0FCBFE04FF6FF73072266496248CD
:104D4000FDF798FE40F6AC50FBF7D4FCB3E04FF60D
:104D5000FF73072261495C48FDF78CFE41F2F810B1
:104D6000FBF7C8FCA7E04FF6FF7307225C495648E3
:104D7000FDF780FE41F2B440FBF7BCFC9BE04FF630
:104D8000FF73072257495048FDF774FE41F28830FF
:104D9000FBF7B0FC8FE04FF6FF73072252494A48F9
:104DA000FDF768FE41F27C50FBF7A4FC83E04FF670
:104DB000FF7307224D494448FDF75CFE40F6AC50B6
:104DC000FBF798FC77E04FF6FF73072248493E480F
:104DD000FDF750FE41F27C50FBF78CFC6BE04FF688
:104DE000FF73072243493848FDF744FE41F294100F
:104DF000FBF780FC5FE04FF6FF7307223E49324825
:104E0000FDF738FE4FF47A60FBF774FC53E04FF681
:104E1000FF73072239492C48FDF72CFE41F294100C
:104E2000FBF768FC47E04FF6FF730722344926483A
:104E3000FDF720FE40F6C410FBF75CFC3BE04FF6AC
:104E4000FF7307222F492048FDF714FE40F6B830C3
:104E5000FBF750FC2FE04FF6FF7307222A491A4850
:104E6000FDF708FE40F6C410FBF744FC23E04FF6C4
:104E7000FF73072225491448FDF7FCFD4FF47A60C3
:104E8000FBF738FC17E04FF6FF73072220490E4866
:104E9000FDF7F0FD40F6B830FBF72CFC0BE04FF6C9
:104EA000FF7307221B490848FDF7E4FD4FF47A60C1
:104EB000FBF720FC00BF00BF17480068FBF71AFC97
:104EC00010BD000038010020C40700203F01002071
:104ED000460100204D010020540100205B0100200C
:104EE000620100206901002070010020770100208C
:104EF0007E010020850100208C010020930100200C
:104F00009A010020A1010020A8010020AF0100208B
:104F1000B6010020BD010020200200201FB50120A5
:104F200025490870012225492548FDF79FFC1AE014
:104F30004FF6FF730C2223492148FDF79BFD2149C1
:104F400021A000F085F90520214908601420FBF715
:104F5000D1FB6FF004001E4908601420FBF7CAFB68
:104F600000201B4908601B4800780028E0D014216D
:104F70000A2000F0E1FD1848407917490979164ADE
:104F8000D278154B9B78CDE90032CDE9021012485A
:104F90004378027811A1154800F06AF900231448FB
:104FA00006C8124800F05FFE124800F0CBFD00205A
:104FB000084908701FBD0000F900002024020020ED
:104FC000040800200E01002025730D0A00000000D7
:104FD000C8000020F800002025020020256325637A
:104FE00025632F2563256325630000003002002020
:104FF0004C0200209804002010B5002015490870CC
:10500000012215491548FDF731FC16E04FF6FF73F4
:105010000A2213491148FDF72DFD052011490860AA
:105020001420FBF767FB6FF004000E4908601420A2
:10503000FBF760FB00200B4908600B480078002854
:10504000E4D00A4800F0A3F800200749087000F0F7
:10505000C3FA10BDF900002024020020040800203B
:1050600003010020C8000020F8000020FA00002002
:1050700000BFFEE7B0EE401A80ED001A90ED000A86
:1050800030EE600A80ED040A90ED070AD0ED041AB4
:1050900030EE210A80ED070A90ED010AD0ED041AE6
:1050A00020EE210AD0ED021A90ED072A01EE820AC5
:1050B000D0ED041A90ED052A71EEC21A90ED032A84
:1050C00002EE210A80ED080A90ED040A80ED050A3F
:1050D00090ED080ADFED0F1AB4EEE10AF1EE10FAD6
:1050E00004DD9FED0C0A80ED080A0CE090ED080A43
:1050F000DFED091AB4EEE10AF1EE10FA03D29FEDEA
:10510000060A80ED080A90ED080AF7EE001A20EE74
:10511000210A704700007A4400007AC49FED120A09
:1051200080ED010A9FED110A80ED020AB2EE040A39
:1051300080ED030A9FED0E0A80ED000A9FED0C0A38
:1051400080ED040A9FED0A0A80ED050A9FED080A2A
:1051500080ED060A9FED060A80ED070A9FED040A1E
:1051600080ED080A704700000000C842000070424D
:105170000000000010B50024012405E0E0B20F217A
:1051800000F028F8601C44B2092CF7DB10BD10B504
:105190000446E179012000F01DF8A179022000F019
:1051A00019F86179032000F015F80A21042000F0B5
:1051B00011F80A21052000F00DF8A178062000F072
:1051C00009F86178072000F005F82178082000F040
:1051D00001F810BD70B505460C4600224FF4006181
:1051E0000748FBF7A3FB284600F00CF8204600F028
:1051F00009F80122D1020248FBF798FB70BD0000BC
:105200000008024070B5044600224FF400610E48C9
:10521000FBF78CFB082514E000224FF480610A485C
:10522000FBF784FB04F0800201210848FBF77EFBBA
:105230006006040E012291020348FBF777FB681E0B
:10524000C5B2012DE8DA70BD00080240000C024032
:105250000FB4054B10B503A9044A029800F048F8B2
:1052600010BC5DF814FB0000BD5500086C02002066
:105270000FB4084B10B504A902AA039800F038F83F
:10528000044602A9002000F093F9204610BC5DF806
:1052900014FB0000B155000802480068C0F302206A
:1052A000704700000CED00E010B5002804DB0A0791
:1052B000130E054A135406E00A07140E034A00F0C1
:1052C0000F031B1FD45410BD00E400E018ED00E0F4
:1052D00002E008C8121F08C1002AFAD170477047BF
:1052E000002001E001C1121F002AFBD1704700001D
:1052F0002DE9FF4F8DB09B460F460446002606E081
:1053000025280BD05A460F999047641C761C2078AC
:105310000028F5D111B03046BDE8F08F0025A84631
:105320000122984900E0054314F8013F203B02FAAE
:1053300003F00842F7D120782E2817D114F8010F76
:1053400045F004052A280ED06FF02F022078A0F136
:10535000300109290AD808EB880102EB410100EB72
:105360000108641CF2E757F8048B641C20786C2851
:105370000DD004DC4C2812D06A2811D104E0742826
:105380000DD07A280CD10AE045F4001507E06178C9
:1053900045F48015814202D1641C05F58015641C1A
:1053A0002278692A45D008DC002AB3D0582A69D06F
:1053B000632A10D0642A08D13BE0702A67D0732A90
:1053C00013D0752A5CD0782A5CD010465A460F99C3
:1053D0009047761CD3E017F8040B8DF800000020EE
:1053E0008DF80100E946012003E057F8049B4FF0D7
:1053F000FF3069074FF0000501D40AE06D1C4545F8
:105400000DDA8542FADB19F805100029F6D106E01D
:105410006D1C8542FCDB19F805100029F8D12E44DB
:1054200004E019F8010B5A460F9990476D1EF8D207
:10543000A5E00A200021CDE90801C5F302500228A9
:105440000DD001CFC117031E71F100030DDA4FF02B
:10545000000CD0EB0C006CEB01012D2308E0FF1DCC
:1054600027F00707F7E80201EDE72B0504D52B230A
:105470008DF8283001233BE0EB0739D02023F7E7F4
:105480000A2000E010200021CDE9080107E01020EB
:10549000002145F00405CDE908014FF00808C5F3E7
:1054A000025002280FD001CF00214FF0000A2B0735
:1054B0001FD5702A0DD0DDE908C38CF0100C5CEA12
:1054C000030C0CD015E0FF1D27F00707F7E80201D9
:1054D000EBE740228DF828204FF0010A0BE050EA5C
:1054E000010306D030238DF828308DF829200223BF
:1054F0009A46582A04D024A20DF120090B9209E003
:1055000026A2F9E7DDE90823FAF75AFE0B9B9B5C1C
:1055100009F8013D50EA0102F4D1ADEB0900203059
:105520000890680701D44FF001080899884502DD0A
:10553000A8EB010000E000208046002506E00AA854
:105540005A46405D0F9990476D1C761C5545F6DB19
:1055500004E030205A460F999047761CB8F10001BC
:10556000A8F10108F5DC05E019F8010B5A460F997E
:105570009047761C0899481E08900029F4DC641CAA
:10558000C5E60000092801003031323334353637A2
:10559000383961626364656600000000303132337F
:1055A000343536373839414243444546000000001F
:1055B0000A68531C0B6010707047000013B50C464E
:1055C0004FF6FF73012269460248FDF753FA00982F
:1055D0001CBD00008407002010B500224FF480613C
:1055E0000C48FBF7A3F900224FF480510948FBF760
:1055F0009DF9C820FBF77EF8012291020548FBF7D0
:1056000095F9012211030348FBF790F9C820FBF735
:1056100071F810BD00100240FBF77EFBFEF768FE3C
:10562000FDF78CFDFDF792FEFDF718FFFDF7CEFFAD
:10563000FEF70AF8FEF72EF8FEF7B4F8FDF74AFF7A
:10564000FDF786FFFEF712F9FDF740FEFEF72AF997
:10565000FEF744F9FDF758FEFEF7ECF84CA0FFF713
:10566000F7FDFDF7EFFC6420FBF744F800210F2065
:10567000FFF7B0FD6420FBF73DF8FFF77BFD48A086
:10568000FFF7E6FD4A4800F0B1F96420FBF732F875
:10569000012000F09BF914210A2000F04DFA0023AC
:1056A000444806C844A000F0DEFA414800F04AFA37
:1056B0006420FBF71FF842A0FFF7CAFD0120FFF7A7
:1056C000FFFA44A0FFF7C4FD3C214748FCF722FB4A
:1056D0003C214648FCF71EFB3C214548FCF71AFBE1
:1056E0003C214448FCF716FB43A0FFF7B1FD002125
:1056F0004748FCF741FD04214548FCF73DFD0821E2
:105700004348FCF739FD0C214148FCF735FD0021E9
:105710004048FCF731FD04213E48FCF72DFD0821EF
:105720003C48FCF729FD0C213A48FCF725FD3AA03E
:10573000FFF78EFD3E48FFF7F1FC3E48FFF7EEFC19
:105740003D48FFF7EBFC3D48FFF7E8FC3B48FFF71F
:10575000E5FC3B48FFF7E2FC3A48FFF7DFFC3A483C
:10576000FFF7DCFC3948FFF7D9FC39A0FFF770FDE3
:10577000FDF77EFC3EA0FFF76BFD4448FCF7D6F832
:1057800043A0FFF765FDFEF7C5F800BFFEE7000088
:10579000496E69746174696E672E2E2E0D0A0000C1
:1057A000377365674C4544206F6B2E2E2E0D0A0013
:1057B000980400204C02002055502F444F574E00B3
:1057C000302E39314F4C4544206F6B2E2E2E0D0A52
:1057D00000000000526F626F7469632061726D2077
:1057E0006F6B2E2E2E0D0A0084050020C4050020AC
:1057F0000406002044060020456E636F6465722035
:10580000537461727465642E2E2E0D0A0000000020
:1058100044050020C40600204D6F746F722050575D
:105820004D20537461727465642E2E2E0D0A000093
:10583000D0020020F4020020180300203C030020C6
:105840006003002084030020A8030020CC03002074
:1058500050494420706172616D6574657220496EB3
:10586000697469617465642E2E2E0D0A00000000B3
:105870006C696E652073656E736F7220537461720C
:105880007465642E2E2E0D0A000000008406002090
:10589000A1BE54494D3620696E746572727570747C
:1058A000A1BF20537461727465642E2E2E28316B53
:1058B000487A290D0A0000002DE9F04704460D46FC
:1058C0001646281B87192819A0EB0608281BA0EBF1
:1058D0000609281900EB060A53464A46394640464F
:1058E000FEF7F8FCBDE8F08710B5044600200B4930
:1058F00008600B4804604FF41670FAF7FBFE00BF17
:10590000084840680128FBD1002005490860064985
:10591000086001200149086010BD000064000020FB
:10592000CC00002010040020B0000020F0B5034699
:105930001446802B01DA402900DBF0BD21480079B4
:1059400020B10CB9012000E000200446012C1CD13C
:10595000CD1701EB5575ED1003EBC5151A4E755DAE
:105960000A46CE1701EB5676F610A1EBC6070126C4
:10597000BE403543EEB20846CD1701EB5575ED102C
:1059800003EBC515104F7E551AE0CD1701EB557589
:10599000ED1003EBC5150C4E755D0A46CE1701EBF5
:1059A0005676F610A1EBC6070126BE40B543084661
:1059B000CE1701EB5676F61003EBC616024FBD5517
:1059C00000BFBAE7540200208208002001460020F0
:1059D00006E009B9002200E0FF22034B1A54401CE4
:1059E000B0F5806FF5D370478208002070B505468A
:1059F0006420FAF77FFE0024AE21284600F022F949
:105A000004442021284600F01DF9044410212846B2
:105A100000F018F90444B021284600F013F90444BA
:105A2000C821284600F00EF904440021284600F061
:105A300009F904441021284600F004F904444021E7
:105A4000284600F0FFF804448121284600F0FAF8C7
:105A50000444FF21284600F0F5F80444A12128461B
:105A600000F0F0F80444A621284600F0EBF80444C6
:105A7000A821284600F0E6F804443F21284600F01B
:105A8000E1F80444A421284600F0DCF80444D321C2
:105A9000284600F0D7F804440021284600F0D2F848
:105AA0000444D521284600F0CDF80444F0212846CE
:105AB00000F0C8F80444D921284600F0C3F8044493
:105AC0002221284600F0BEF80444DA21284600F0DE
:105AD000B9F804441221284600F0B4F80444DB214C
