:020000040800F2
:10000000C84900209D0100088D4B0008CB3800082E
:10001000714B0008F50A0008716400080000000038
:10002000000000000000000000000000395300083C
:10003000F90A00080000000069500008095800088B
:10004000B7010008B7010008B7010008B7010008B0
:10005000B7010008B7010008B7010008B7010008A0
:10006000B7010008B7010008B7010008B701000890
:10007000B7010008B7010008B7010008B701000880
:10008000B7010008B7010008B7010008B701000870
:10009000B7010008B7010008B7010008B701000860
:1000A000B7010008B7010008B7010008B701000850
:1000B000B7010008B7010008B7010008B701000840
:1000C000B7010008B7010008B7010008B701000830
:1000D000B7010008E9610008F96100080962000839
:1000E000B7010008B7010008B7010008B701000810
:1000F000B7010008B7010008B7010008B701000800
:10010000B7010008B7010008B7010008B7010008EF
:10011000B7010008215C0008E5580008B701000895
:10012000B7010008B7010008B7010008B7010008CF
:10013000B7010008B7010008B7010008B7010008BF
:10014000B7010008B7010008B7010008B7010008AF
:10015000B7010008B7010008B7010008B70100089F
:10016000B7010008B7010008B7010008B70100088F
:10017000B7010008B7010008B7010008000000003F
:10018000B7010008B7010008DFF80CD000F07EFAD4
:1001900000480047B9700008C84900200648804759
:1001A00006480047FEE7FEE7FEE7FEE7FEE7FEE75C
:1001B000FEE7FEE7FEE7FEE7C958000889010008F0
:1001C0002DE9F05F0546002092469B46884606468C
:1001D000814640241BE0284641464746224600F01F
:1001E0008DF853465A46C01A914110D3114618460D
:1001F000224600F074F82D1A67EB01084F4622469C
:100200000120002100F06BF817EB00094E41201E81
:10021000A4F10104DFDC484631462A464346BDE8E6
:10022000F09F40EA01039B0703D009E008C9121FB1
:1002300008C0042AFAD203E011F8013B00F8013BA0
:10024000521EF9D27047D2B201E000F8012B491ECC
:10025000FBD270470022F6E710B513460A46044663
:100260001946FFF7F0FF204610BD421C10F8011B95
:100270000029FBD1801A704710B5002200E0521C03
:10028000835C8C5CA34201D1002BF8D1D8B2E1B2DF
:10029000401A10BD30B505460020034600E05B1C47
:1002A000934205D2EC5CC85C201A01D1002CF6D137
:1002B00030BD30B50B46014600202022012409E064
:1002C00021FA02F59D4205D303FA02F5491B04FA0F
:1002D00002F52844151EA2F10102F1DC30BD202AEE
:1002E00004DB203A00FA02F1002070479140C2F18D
:1002F000200320FA03F3194390407047202A04DBBF
:10030000203A21FA02F00021704721FA02F3D0408E
:10031000C2F1200291400843194670472DE9FE4F73
:10032000804681EA0300C00F0C46009021F0004196
:1003300023F00045B8EB0200A94105D24046214612
:1003400090461C460B46024623F00040104347D01F
:10035000270DC7F30A00C3F30A510290401A019017
:1003600040286BDAC3F3130040F4801B00989246D8
:1003700020B10023D2EB030A63EB0B0B0198594623
:10038000C0F140025046FFF7AAFF06460D46504610
:100390005946019A00F08CF910EB080061410024E5
:1003A00087EA115284EAE7731A4340D0009A62B395
:1003B000019A012A4FEA075215DC001B61EB02018A
:1003C0004FF0004202EA0752CDE90042001C41F51D
:1003D000801132462B4600F08CF903B0BDE8F08F57
:1003E00040462146F9E7001B61EB0201001C41F584
:1003F000801300185B412018A2F5001747EB03019A
:1004000040EAD570B6196D4111E06D084FEA360625
:1004100045EAC0754FEA0752001B61EB0201001C60
:1004200041F5801149084FEA300000195141324628
:100430002B4603B0BDE8F04F00F04CB90098012204
:1004400040000023D0EB020263EBE07300982146EA
:100450004FEAE074B8EB000061EB0401E9E783F0D8
:1004600000435BE781F0004158E72DE9FE4F81EA48
:10047000030404F0004421F0004100944FF0000B0D
:1004800023F0004350EA01045ED052EA03045BD03B
:10049000C3F30A54C1F30A552C44A4F2F334019473
:1004A000A0FB0254C1F3130141F48011C3F3130301
:1004B00043F4801301FB024400FB034E840A970AB5
:1004C00044EA815447EA8357A4FB076802958D0AE2
:1004D00005FB07854FEA932C04FB0C542705029D6E
:1004E0004FEA065847EA1637B5EB08056EEB070CDE
:1004F000870E920E47EA811742EA8312A7FB020198
:10050000B6EB0B0164EB00042B0D43EA0C335E18D1
:1005100044EB1C50DA465146E7FB0201C5F31304D5
:100520004FEA0B3343EA14534FEA0432019C43EA87
:100530000603A4F10C040294009CCDE900B400F081
:10054000D8F803B0BDE8F08F00200146F9E72DE9A7
:10055000F04D81EA030404F0004B21F000451446FD
:100560004FF0000A23F0004150EA050220D054EA7F
:1005700001021DD0C5F30A570246C5F31303C1F3A8
:100580001300C1F30A5640F4801543F48013A7EB1F
:100590000608101BD64608F2FD3873EB050002D39F
:1005A00008F1010801E092185B41B8F1000F03DA8D
:1005B00000200146BDE8F08D00204FF48011064672
:1005C00084460EE0171B73EB050705D3121B63EB84
:1005D000050306434CEA010C49084FEA3000921823
:1005E0005B4150EA0107EDD152EA030012D082EAE2
:1005F000040083EA0501084305D0101BAB4106D275
:100600000122002306E000224FF0004302E06FF0D9
:10061000010253101AEB06004CEB085110EB0A00D4
:1006200041EB0B01BDE8F04D00F054B8C1F30A52A4
:10063000C1F3130140F2FF3341F480119A4202DA10
:1006400000200146704740F233439A42A2F23342FF
:1006500002DC5242FFF752BEFFF741BE30B5041E26
:1006600071F1000404DB4FF00044404264EB0101EF
:10067000141E73F1000405DB1C464FF00043524288
:1006800063EB0403994208BF904230BD064C074D0E
:1006900006E0E06840F0010394E807009847103452
:1006A000AC42F6D3FFF774FDB89A0008D89A000858
:1006B000202A06DBCB17203A41FA02F043EAE07326
:1006C00006E041FA02F3D040C2F120029140084313
:1006D0001946704710B5141E73F1000408DA401C67
:1006E00041F1000192185B411A4301D120F0010051
:1006F00010BD2DE9F04D92469B4611B1B1FA81F241
:1007000002E0B0FA80F220329046FFF7E8FD04469E
:100710000F4640EA0A0041EA0B0153465A46084395
:1007200013D0114653EA010019D0C8F140025046D7
:10073000FFF7E4FD05460E46504659464246FFF790
:10074000CEFD084305D0012004E020463946BDE82F
:10075000F08D0020054346EAE0762C4337430A98A3
:100760006305E40AA0EB08000022FD0A44EA4754AE
:100770000A3002D500200146E9E701051019694158
:10078000DDE9084500196941BDE8F04DA2E770B503
:100790008C1810F8015B15F0070301D110F8013B2C
:1007A0002A1106D110F8012B03E010F8016B01F8B3
:1007B000016B5B1EF9D12B0705D40023521E0DD40B
:1007C00001F8013BFAE710F8013BCB1A921C03E059
:1007D00013F8015B01F8015B521EF9D5A142D8D391
:1007E000002070BD38B50446FE2C2DD01748007887
:1007F00050B306F0F5FB08B9002038BD0421684667
:1008000006F008FF042801D00020F6E79DF800005C
:10081000A04201D00020F0E79DF80100022801D09D
:100820000020EAE79DF800009DF8011008449DF8BB
:1008300002100844C043C5B29DF80300A84201D08D
:100840000020DAE706F032FE0120D6E74C01002056
:1008500010B5044634B1012C0BD0022C03D0032C6C
:100860000CD105E000BF08F0B5FA08F085FA05E004
:1008700000BF08F00BFB08F0DBFA00BF00BF10BDA3
:1008800070B504460D46204608F0E0F9294620469A
:1008900000F0F8F9204603F07FF970BD10B5002490
:1008A0000AE0611CC8B200234FF4FA624FF4FF71F2
:1008B00005F07EFE601CC4B2052CF2DB10BD00000A
:1008C00010B5002010E000210AE04FF0FF32C0EB2D
:1008D0000013144C04EB430323F811204A1CD1B23B
:1008E0000F29F2DB411CC8B22828ECDB002008E00D
:1008F0004FF0FF31C0EBC0020B4B23F81210411C2C
:10090000C8B26428F4DB002008E04FF0FF31C0EBF0
:10091000C002064B23F81210411C88B2B0F5487F84
:10092000F3DB10BDCC0E0020540900207C13002006
:1009300000210EE0002008E0C1EB0112204B03EB88
:10094000420222F81000421CD0B20F28F4DB481CEF
:10095000C1B22829EEDB002014E0C0EBC001194A27
:1009600022F81100002109E0C0EBC002154B03EB97
:100970004202921C22F811104A1CD1B20529F3DB65
:10098000411CC8B26428E8DB002015E001B2C0EBCE
:10099000C0020D4B23F81210002109E0C0EBC00289
:1009A000094B03EB4202921C22F811104A1CD1B2EF
:1009B0000529F3DB411C88B2B0F5487FE6DB7047C0
:1009C000CC0E0020540900207C130020014631B1D8
:1009D00001290ED0022916D0032928D11DE015487F
:1009E000406910B91348806B08B10120704700209E
:1009F000FCE71048806810B90E48406A08B1012031
:100A0000F4E70020F2E70B48806910B90948406B11
:100A100008B10120EAE70020E8E70648406810B97D
:100A20000448806A08B10120E0E70020DEE70020EA
:100A3000DCE700009003002038B5024632B1012AFD
:100A40000BD0022A10D0032A1CD114E005208DF807
:100A500000000E208DF8010014E009208DF8000040
:100A600002208DF801000DE00D208DF80000062019
:100A70008DF8010006E001208DF800000A208DF8B5
:100A8000010000BF00BF10460B4601EBD374641099
:100A9000A1EB440402EBD0756D10A2EB4505AC420E
:100AA00017D0CC1CA01AC41700EB9474A410A0EBB0
:100AB000840303EBD37464102CB19DF801000C4B3C
:100AC00053F8200038BD9DF80000094B53F8200072
:100AD000F8E79DF80000064B53F8200020B99DF878
:100AE000010053F8200008B10120EBE70020E9E7FE
:100AF0009003002000BFFEE7704700000D4800682B
:100B000020F080700B4908600846006840F0807053
:100B100008600948006820F001000749086008469D
:100B2000006840F0010008600020486000BF00BF7E
:100B300000BF7047FCED00E0001000E018B5094B65
:100B40001B68094CB3FBF4F303FB00F1074B5A6835
:100B500000BF064B5B689B1A0093009B8B42F8D347
:100B600018BD00004801002040420F00001000E0C6
:100B700010B501460020304B186000222F4850F875
:100B800021002F4B186021E02C4850F821002C4BFD
:100B90001B68181A2B4B53F820002B4B284C246849
:100BA00053F82430244C246800FB0340224B186087
:100BB0002548234B1B6850F82300012801D1501C05
:100BC000C2B21F480068401C1D4B18601B4850F8FB
:100BD0002100001D1A4B1B689842D5DC012A10DD4C
:100BE00015480068002804DD16488068124B18601C
:100BF00007E011480068002803DA124840680E4BED
:100C00001860084601EBD0735B10A1EB4303012B86
:100C10000ED109480068401C18B9D81E064B186050
:100C200006E005480068012802D10220024B186046
:100C30000148006810BD00007C000020080400206E
:100C4000800000206C0000209003002070B5044656
:100C500000250AE0C4EB0411094A02EB410131F915
:100C6000150000F069FA681CC5B2C4EB0410044911
:100C700001EB400030F91500401C0028EAD170BD9E
:100C8000CC0E002070B505460C4622462821284689
:100C900008F03FF870BD704710B5002201B909E0B7
:100CA000012901D10A0205E0022901D10A0201E06D
:100CB0004FF440720E4B1B6823F440730C4C2360BE
:100CC00023461B681343236023461B6823F0F80365
:100CD000236023461B68022444EAC0042343044CD7
:100CE000236023461B6843F48033236010BD00005B
:100CF000103C02401C48006800F40070B0B11A4873
:100D0000006820F400701849086000BF08460068B9
:100D100040F4006008600846006820F40060086045
:100D200000BF0846006840F4007008600E48006884
:100D300000F48060B0B10C48006820F480600A497B
:100D4000086000BF0846006840F48050086008460C
:100D5000006820F48050086000BF0846006840F436
:100D60008060086070470000003C02400A4A126838
:100D700022F44072084B1A601A46126842F00402CC
:100D80001A601A4612684FF4803343EA00231A436C
:100D9000014B1A6070470000103C0240074A12687D
:100DA00022F44072054B1A601A4612681A601A46FD
:100DB000126842F001021A6001707047103C024054
:100DC00010B50D49096821F440710B4C2160214692
:100DD000096841F4407121602146096841F0010130
:100DE0002160026000BF00BF00BFBFF36F8F00BF74
:100DF00000BF00BF436010BD103C0240084A1268AB
:100E000022F44072064B1A601A46126842F480724D
:100E10001A601A46126842F001021A600180704797
:100E2000103C0240084A126822F44072064B1A60D5
:100E30001A46126842F400721A601A46126842F0AA
:100E400001021A6001607047103C024023480068AC
:100E500000F0100040B12248C06940F01000204965
:100E6000C86110201D4908601C48006800F020007F
:100E700040B11B48C06940F008001949C8612020F2
:100E8000164908601548006800F0400040B1144859
:100E9000C06940F004001249C86140200F49086051
:100EA0000E48006800F0800040B10D48C06940F075
:100EB00002000B49C86180200849086007480068A3
:100EC00000F0020040B10648C06940F0200004492B
:100ED000C861022001490860704700000C3C0240D4
:100EE0000408002070B50446002500201449C8619C
:100EF00000F07EFB054609E0601C38B124B100F02B
:100F000077FB401BA04201D9032070BD0D4800684B
:100F100000F480300028EFD10A48006800F001009A
:100F200010B10120074908600648006800F0F2008F
:100F300018B1FFF78BFF0120E7E70020E5E700008D
:100F4000040800200C3C024070B5054600240EE069
:100F5000611CC8B207F07AFE611CC8B22946FFF7CF
:100F600091FE611CC8B202F017FE601CC4B2052CD1
:100F7000EEDB70BD10B54FF48071564800F02AFBCF
:100F8000554908604FF40071524800F023FB524964
:100F900048600121514800F01DFB4F498860022143
:100FA0004E4800F017FB4C49C86080214B4800F0C8
:100FB00011FB494908610121494800F00BFB4649F2
:100FC00048610421464800F005FB43498861082137
:100FD000434800F0FFFA4049C86104213F4800F04F
:100FE000F9FA3D49086208213C4800F0F3FA3A4911
:100FF00048621021394800F0EDFA37498862202113
:10100000364800F0E7FA3449C8624021334800F01E
:10101000E1FA314908634FF40051314800F0DAFA3F
:101020002D4948634FF480412D4800F0D3FA2A49F6
:1010300088634FF400412A4800F0CCFA2649C8637F
:101040000221274800F0C6FA234908644FF4807152
:10105000224800F0BFFA204948644FF480411F48FD
:1010600000F0B8FA1C4988644FF400411B4800F0B6
:10107000B1FA1949C8644FF48061164800F0AAFA21
:10108000154908654FF40061124800F0A3FA1249AF
:10109000486500201349086017E00F4811490968A6
:1010A00050F82100012805D10B490E4A126841F879
:1010B000220005E0002008490A4A126841F822008F
:1010C00008480068401C0749086006480068102866
:1010D000E3DB10BD0004024090030020001002403A
:1010E000000802408000002010B50020044908607C
:1010F00000F076F805F09AF800F078F810BD0000DE
:10110000A800002010B50020094908600520094901
:10111000086040F6C41000F083F80020054908601C
:1011200005F0EEF86FF01801002003F067FE10BD27
:10113000A80000201001002070B50446642C23DABA
:10114000002515E0C4EBC403234E06EB43039B1CB0
:1011500033F8153099B2C4EBC40306EB43039B8903
:101160009AB26B1CD8B2002305F022FA681CC5B2F3
:10117000052DE7DBC4EBC401174A02EB4101B1F9CD
:101180000C0005F054FF25E0A4F1640004B2002532
:1011900015E0C4EBC403114E06EB43039B1C33F86C
:1011A000153099B2C4EBC40306EB43039B899AB292
:1011B0006B1CD8B2002305F0FBF9681CC5B2052DE5
:1011C000E7DBC4EBC401054A02EB4101B1F90C00B5
:1011D00005F02DFF70BD0000540900207C13002095
:1011E0000120014908707047620000200020014979
:1011F0000870704762000020014691F8350002280F
:1012000003D08020486501207047052081F8350013
:101210000868006820F001000A6810600020F3E709
:1012200070B5044600F0E4F906462546681C10B186
:1012300004480078054400BF00F0DAF9801BA8429A
:10124000FAD370BD440100202DE9F04104460E465A
:101250000127002500BF2548007E012802D1022079
:10126000BDE8F08101202149087600BF4CF25030E2
:10127000FFF738FE0746002F31D1401E306020684E
:1012800001280FD1207C6168FFF770FD4CF25030CF
:10129000FFF728FE07461648006820F004001449AE
:1012A00008601AE0A56812E0217C2846FFF7F4FCEC
:1012B0004CF25030FFF716FE07460D48006820F04C
:1012C000FA000B4908600FB1356005E06D1CD4E9E8
:1012D00002100844A842E7D800BFFFF70BFD00BF8B
:1012E00000200249087600BF3846B9E7040800200C
:1012F000103C02400348006840F00040014908608B
:1013000000207047103C02402DE9F04106460F4690
:1013100014461D464FF0010800BF1F48007E0128FB
:1013200002D10220BDE8F08101201B49087600BFF0
:101330004CF25030FFF7D6FD8046B8F1000F23D1B4
:1013400026B9E1B23846FFF729FD12E0012E04D19B
:10135000A1B23846FFF752FD0BE0022E04D1214620
:101360003846FFF75FFD04E022462B463846FFF77C
:1013700027FD4CF25030FFF7B5FD80460748006866
:1013800020F001000549086000BF002002490876EE
:1013900000BF4046C6E7000004080020103C0240A1
:1013A00000200949096801F0004159B10749064A7E
:1013B0000C3A1160064911600349096801F00041C7
:1013C00001B1012070470000103C02402301674535
:1013D000AB89EFCDF8B502460B460025002400206E
:1013E0000021DCE0012606FA01F51E6806EA050484
:1013F000AC4273D15E68012E08D05E68022E05D023
:101400005E68112E02D05E68122E13D190684F00D4
:101410000326BE40B0434F00DE68BE4030439060BC
:10142000506801268E40B0431E79C6F300168E40E8
:1014300030435060D0684F000326BE40B0434F0099
:101440009E68BE403043D0605E68022E02D05E6867
:10145000122E13D1CF0802F1200656F827004E07AE
:10146000F70E0F26BE40B0434F07FF0E1E69BE4069
:101470003043CF0802F1200646F8270010684F00DD
:101480000326BE40B0431E7906F003064F00BE405F
:10149000304310605E6806F08056B6F1805F7DD103
:1014A00000BF00260096404E366846F480463E4F08
:1014B0003E603E46366806F48046009600BF00BF98
:1014C0003A4E8F0856F827008E07370F0F26BE407A
:1014D000B043374EB24202D1002624E05EE0354EE2
:1014E000B24201D101261EE0334EB24201D10226A2
:1014F00019E0324EB24201D1032614E0304EB2421E
:1015000001D104260FE02F4EB24201D105260AE098
:101510002D4EB24201D1062605E02C4EB24201D139
:10152000072600E008268F073F0FBE4030431F4EBE
:101530008F0846F82700264E3068A0435E6806F400
:101540008036B6F5803F00D12043214E3060361DF5
:101550003068A0435E6806F40036B6F5003F00D15F
:1015600020431B4E361D3060361D3068A0435E6838
:1015700006F48016B6F5801F00D12043144E0836BD
:101580003060361D3068A0435E6806F40016B6F57C
:10159000001F00D120430E4E0C363060491C10292C
:1015A000FFF420AFF8BD0000443802400838014085
:1015B000000002400004024000080240000C02400B
:1015C000001002400014024000180240001C0240BB
:1015D000003C0140024613690B400BB1012000E0C2
:1015E000002070470AB1816101E00B0483617047FC
:1015F00001480068704700003C01002070B50446B7
:101600000CB9012070BD94F83D0028B9002084F881
:101610003C00204600F0DAF8242084F83D002068E1
:10162000006820F00100216808602068006840F42C
:101630000040216808602068006820F400402168AC
:10164000086000F0A5FA05465C496068884206D843
:101650005B48854201D2012007E0002005E059489F
:10166000854201D2012000E00020012800D1C9E715
:101670005548B5FBF0F62068406820F03F00304345
:10168000216848604D496068884201D8701C07E0B5
:101690004FF4967070434FF47A71B0FBF1F0401C38
:1016A0002168096A21F03F01084321680862434923
:1016B0006068884214D8681E61684900B0FBF1F088
:1016C000401CC0F30B00042801D204203DE0681E3A
:1016D00061684900B0FBF1F0401CC0F30B0034E03E
:1016E000A06838B9681E616801EB4101B0FBF1F0F8
:1016F000401C0AE0681E616801EBC10202EB0111A7
:10170000B0FBF1F0401C40F48040C0F30B0008B97E
:1017100001201AE0A06848B9681E616801EB410128
:10172000B0FBF1F0401CC0F30B000CE0681E6168D8
:1017300001EBC10202EB0111B0FBF1F0401CC0F360
:101740000B0040F4804040F400402168C9694CF629
:10175000FF72914308432168C861D4E90701084337
:101760002168096821F0C001084321680860D4E9B4
:10177000031008432168896848F2FF329143084307
:1017800021688860D4E9050108432168C96821F00F
:10179000FF0108432168C8602068006840F001002C
:1017A0002168086000202064202084F83D0000208B
:1017B000206384F83E0000BF24E70000A0860100FB
:1017C00080841E0000093D0040420F0010B586B025
:1017D0000446142101A8FEF73DFD1B4920688842FC
:1017E0002FD100BF002000901848006840F0020090
:1017F000164908600846006800F00200009000BF2B
:1018000000BFC0200190122002900120039003200D
:1018100004900420059001A90D48FFF7DBFD00BFEF
:101820000020009009481030006840F4001007497B
:10183000103108600846006800F40010009000BFF6
:1018400000BF06B010BD0000005400403038024018
:10185000000402400348006803490978084401492C
:10186000086070473C0100204401002010B50D487D
:10187000006840F400700B4908600846006840F4B6
:10188000806008600846006840F4807008600320AB
:1018900000F0A2F8002000F007F800F02BF800207C
:1018A00010BD0000003C024070B504460E480078B0
:1018B0004FF47A71B1FBF0F00C490968B1FBF0F517
:1018C000284600F085FD08B1012070BD102C07D21C
:1018D00000222146501E00F041F80548046001E056
:1018E0000120F2E70020F0E7440100204801002039
:1018F0004001002008B500BF002000900E4800689D
:1019000040F480400C4908600846006800F48040BC
:10191000009000BF00BF00BF00200090081F0068BB
:1019200040F08050091F08600846006800F08050B1
:10193000009000BF00BF08BD443802400146084681
:10194000002809DB00F01F0301229A4043099B0095
:1019500003F1E023C3F8002100BF70472DE9F05FD9
:1019600080460D461646002704F066FE07463946B7
:101970002A46334601F00700C0F1070ABAF1040F06
:1019800002D94FF0040A01E0C0F1070AD14600F184
:10199000040ABAF1070F02D24FF0000A01E0A0F1E9
:1019A000030AD4464FF0010A0AFA09FAAAF1010A19
:1019B0000AEA020A0AFA0CFA4FF0010B0BFA0CFBC6
:1019C000ABF1010B0BEA030B4AEA0B04214640463C
:1019D00004F03AFEBDE8F09F00BF00F00702064B9E
:1019E00019684FF6FF031940044B0B4343EA0221E9
:1019F000014B196000BF70470CED00E00000FA05D4
:101A000070B504460D460CB9012070BD58480068F9
:101A100000F00F00A84209D255490D700846006831
:101A200000F00F00A84201D00120EEE7207800F07E
:101A3000020002281DD1207800F00400042805D1FE
:101A40004C48006840F4E0504A490860207800F0B3
:101A50000800082805D14748006840F4604045491F
:101A600008604448006820F0F000A168084341493C
:101A70000860207800F00100A8B36068012807D151
:101A80003C4808380068C0F34040B8B90120BCE7C2
:101A90006068022802D06068032807D135480838FA
:101AA0000068C0F3406048B90120AEE7314808380B
:101AB0000068C0F3400008B90120A6E72D4800687F
:101AC00020F00300616808432A490860FFF790FD91
:101AD000064609E0FFF78CFD801B41F28831884201
:101AE00002D9032091E707E02248006800F00C00CB
:101AF0006168B0EB810FEDD11D48006800F00F0068
:101B0000A84209D91A490D700846006800F00F0074
:101B1000A84201D0012078E7207800F004000428D2
:101B200007D11448006820F4E050E16808431149E7
:101B30000860207800F00800082808D10D480068E7
:101B400020F46040216940EAC1000A49086000F0C1
:101B50003FF808490968C1F30311074A515CC840BE
:101B60000649086006480068FFF79EFE00204CE723
:101B7000003C024008380240E29000084801002082
:101B80004001002001480068704700004801002023
:101B900000B5FFF7F7FF04490968C1F38221034A42
:101BA000515CC84000BD000008380240F2900008B7
:101BB00000B5FFF7E7FF04490968C1F34231034A62
:101BC000515CC84000BD000008380240F290000897
:101BD0002DE9F047002400250026A146254800688D
:101BE00000F00C0020B1042805D008283AD105E007
:101BF000DFF8849039E0DFF8849036E01D48001F5C
:101C0000006800F03F041B48001F006800F48000DB
:101C100078B11A481749091F0968C1F38811A0FB58
:101C200001700146224600233846FEF7C9FA0546F0
:101C30000EE011480F49091F0968C1F38811A0FB84
:101C400001700146224600233846FEF7B9FA0546E0
:101C50000848001F0068C0F30140401C4600B5FB67
:101C6000F6F902E0DFF8109000BF00BF4846BDE87B
:101C7000F0870000083802400024F40040787D011D
:101C8000F8B504460CB90120F8BD207800F0010039
:101C9000002874D0F948006800F00C0004280DD02A
:101CA000F648006800F00C00082813D1F348001F24
:101CB000006800F48000B0F5800F0BD1EF480838C1
:101CC0000068C0F34040002859D06068002856D111
:101CD0000120D9E700BF6068B0F5803F08D1E74830
:101CE0000838006840F48030E449083908601EE094
:101CF0006068B0F5A02F0DD1E0480838006840F4C6
:101D00008020DE49083908600846006840F48030C9
:101D100008600CE0D9480838006820F48030D749C2
:101D2000083908600846006820F48020086000BF79
:101D3000606890B1FFF75CFC054606E0FFF758FCD1
:101D4000401B642801D903209EE7CC48083800686E
:101D5000C0F340400028F1D011E0FFF749FC0546F0
:101D600006E0FFF745FC401B642801D903208BE700
:101D7000C24808380068C0F340400028F1D12078FC
:101D800000F0020002285FD1BC48006800F00C009F
:101D900058B1BA48006800F00C0008281CD1B748B8
:101DA000001F006800F48000B0B9B448083800682B
:101DB000C0F3400020B1E068012801D0012063E7B2
:101DC000AE480838006820F0F800216940EAC100F8
:101DD000AA490839086037E0E06800B30120A84943
:101DE0000860FFF705FC054606E0FFF701FC401B15
:101DF000022801D9032047E7A04808380068C0F34B
:101E000040000028F1D09D480838006820F0F80014
:101E1000216940EAC10099490839086014E00020AE
:101E200097490860FFF7E4FB054606E0FFF7E0FB93
:101E3000401B022801D9032026E790480838006893
:101E4000C0F340000028F1D1207800F008000828F5
:101E50002CD16069A8B101208A490860FFF7C8FB4E
:101E6000054606E0FFF7C4FB401B022801D903200A
:101E70000AE782486C300068C0F340000028F1D0C7
:101E800014E000207F490860FFF7B2FB054606E03A
:101E9000FFF7AEFB401B022801D90320F4E6774888
:101EA0006C300068C0F340000028F1D1207800F0C9
:101EB0000400042870D1002770483830006800F012
:101EC000805090B900BF002000906C483830006806
:101ED00040F080506949383108600846006800F0D9
:101EE0008050009000BF00BF01276748006800F4E1
:101EF0008070B0B96448006840F48070624908603E
:101F0000FFF776FB054606E0FFF772FB401B022851
:101F100001D90320B8E65C48006800F4807000280E
:101F2000F2D000BFA068012808D15448683000688A
:101F300040F001005149683108601DE0A0680528A3
:101F40000DD14E486830006840F004004B496831BC
:101F500008600846006840F0010008600CE047484F
:101F60006830006820F00100444968310860084684
:101F7000006820F00400086000BFA068A8B1FFF767
:101F800037FB054609E0FFF733FB401B41F2883180
:101F9000884202D9032077E626E038486830006896
:101FA000C0F340000028EED013E0FFF721FB054608
:101FB00008E0FFF71DFB401B41F28831884201D940
:101FC000032061E62D4868300068C0F34000002817
:101FD000EFD1012F07D129483830006820F0805018
:101FE00026493831086000BFA069002845D0234841
:101FF000006800F00C0008285DD0A069022845D1D7
:1020000000201F490866FFF7F3FA054606E0FFF7D0
:10201000EFFA401B022801D9032035E6174808389B
:102020000068C0F340600028F1D1D4E907010843FB
:10203000616A40EA81110122A06AC2EB500041EAC4
:1020400000412C20005D41EA00600C49091F086036
:1020500001200B490866FFF7CBFA054606E0FFF7BB
:10206000C7FA401B022801D903200DE603480838AF
:102070000068C0F340600028F1D03FE0083802401B
:1020800000004742800E47420070004000201C497B
:102090000866FFF7ADFA054606E0FFF7A9FA401B10
:1020A000022801D90320EFE516480068C0F340601C
:1020B0000028F2D122E0A069012800D1E4E511480E
:1020C000001D066806F48001E069814214D106F023
:1020D0003F01206A81420FD147F6C0703040616AEB
:1020E000884209D106F44031A06A814204D106F049
:1020F0007061E06A814201D00120C5E50020C3E59E
:10210000000047420038024010B504460CB90120D7
:1021100010BD606A00B900BF0021A16294F85100AF
:1021200028B9002084F85000204600F033F802203F
:1021300084F851002068006820F0400021680860A1
:10214000D4E901010843E168084321690843616952
:102150000843218B01F400710843E1690843216AB7
:102160000843A16A0843216808600421A06901EAC4
:102170001040616A0843216848602068C06920F403
:1021800000602168C86100206065012084F851006A
:102190000020BDE710B586B00446142101A8FEF763
:1021A00059F81B49206888422FD100BF00200090B9
:1021B0001848006840F480501649086008460068D6
:1021C00000F48050009000BF00BF00BF00200090CE
:1021D00010481438006840F001000E4914390860B6
:1021E0000846006800F00100009000BF00BFA0207A
:1021F000019002200290002003900320049005200B
:10220000059001A90448FFF7E5F806B010BD0000ED
:102210000030014044380240000002402DE9F84FF0
:102220000446884616461D464FF0000A00BF94F843
:102230005000012802D10220BDE8F88F012084F867
:10224000500000BFFFF7D4F90746B14694F851009B
:10225000012802D04FF0020AA7E0B8F1000F00D029
:1022600016B94FF0010AA0E0032084F851000020C5
:102270006065C4F83080A686E686A063A087E08704
:1022800060642064A068B0F5004F05D12068006844
:1022900040F48040216808602068006800F0400039
:1022A000402805D02068006840F0400021680860A0
:1022B000E068B0F5006F2FD1606810B1B9F1010F7F
:1022C00009D1206B00882168C860206B801C2063C6
:1022D000E08E401EE0861BE02068806800F002006F
:1022E00002280AD1206B00882168C860206B801CFE
:1022F0002063E08E401EE0860AE0FFF779F9C01BFC
:10230000A84201D3681C00B915B94FF0030A4CE08C
:10231000E08E0028E0D12EE0606810B1B9F1010F25
:1023200009D1206B007821680873206B401C206362
:10233000E08E401EE0861BE02068806800F002000E
:1023400002280AD1206B007821680873206B401C9A
:102350002063E08E401EE0860AE0FFF749F9C01BCB
:10236000A84201D3681C00B915B94FF0030A1CE05C
:10237000E08E0028E0D13A462946204602F022FFAE
:1023800008B120206065A06850B900BF002000900F
:102390002068C068009020688068009000BF00BF7F
:1023A000606D08B14FF0010A00BF012084F85100B0
:1023B00000BF002084F8500000BF50463CE70000FA
:1023C00002480068401C014908607047680100200D
:1023D00070B504462546681EB0F1807F01D3012008
:1023E0000FE0681E4FF0E02148610F214FF0FF30F1
:1023F00004F02AF900204FF0E021886107200861ED
:10240000002070BD10B5FFF7DBFF10BD70477047AF
:1024100010B50346002200BF93F83C00012801D10B
:10242000022010BD012083F83C0000BF22F0FF0015
:10243000CC6840EA040222F440708C6840EA04024E
:1024400022F480604C6840EA040222F400600C68C8
:1024500040EA040222F480500C6940EA040222F4AB
:1024600000504C6940EA040222F48040CC6940EA02
:1024700004021868426400BF002083F83C0000BFDB
:1024800000BFCEE730B502460B4600BF92F83C00D5
:10249000012801D1022030BD012082F83C0000BF9C
:1024A000022082F83D00106844681068816824F0BA
:1024B00070041868044310684460184D1068A842FE
:1024C0001BD01068B0F1804F17D0154D1068A8428E
:1024D00013D0144D1068A8420FD0134D1068A842B5
:1024E0000BD0124D1068A84207D0114D1068A842B9
:1024F00003D0104D1068A84205D121F08001586822
:10250000014310688160012082F83D0000BF002077
:1025100082F83C0000BF00BFBDE7000000000140A2
:102520000004004000080040000C0040000401408E
:10253000004001400018004010B504460CB90120CD
:1025400010BD94F83D0028B9002084F83C002046D6
:1025500000F00CF8022084F83D00211D206803F0F3
:10256000C9F9012084F83D000020E9E738B50446A8
:102570002D49206888420FD100BF002000902B48D1
:10258000006840F00100294908600846006800F032
:102590000100009000BF46E02549206888421AD11A
:1025A00000BF002000902148001F006840F010008C
:1025B0001E49091F08600846006800F010000090DE
:1025C00000BF00BF002201213620FFF7C7F93620E7
:1025D000FFF7B4F927E01749206888420FD100BF00
:1025E000002000901148006840F002000F49086088
:1025F0000846006800F00200009000BF13E00E499A
:10260000206888420FD100BF002000900748006872
:1026100040F48030054908600846006800F48030C6
:10262000009000BF00BF38BD0000014044380240A8
:1026300000100040000401400040014001460868CD
:10264000C06840F001000B68D8600868806800F03E
:102650000702062A05D00868006840F001000B68F0
:102660001860002070472DE9F04104460D4600BF78
:1026700094F83C00012802D10220BDE8F08101203D
:1026800084F83C0000BF022084F83D002068866882
:1026900026F0770626F47F46206886602868502852
:1026A00033D00CDC202850D004DC00284BD010287C
:1026B00051D149E0302849D040284CD139E0602838
:1026C0002DD0702807D0B0F5805F03D0B0F5005F43
:1026D00041D10DE040E0D5E902136A68206803F0BB
:1026E00086F92068866846F077062068866033E0C1
:1026F000D5E902136A68206803F079F920688068D8
:1027000040F480402168886026E0EA6869682068B3
:1027100003F05EFA5021206803F074F91CE0EA68C7
:102720006968206803F067FA6021206803F06AF99D
:1027300012E0EA686968206803F04AFA40212068DC
:1027400003F060F908E000BF00BF00BF29682068FF
:1027500003F058F900E000BF00BF012084F83D00FD
:1027600000BF002084F83C0000BF00BF85E72DE9D2
:10277000F04104460D4614B90120BDE8F08194F8FB
:102780003D0028B9002084F83C00204600F046F8BF
:10279000022084F83D002068806844F207018843E5
:1027A00021688860211D206803F0A4F82068D0F813
:1027B0000880206886692068076A286840EA080857
:1027C00040F203308643A969A86840EA0120064325
:1027D00040F60C4086434FF2F0008643E969E86812
:1027E00040EA0120064328690001296A40EA0130D5
:1027F000064327F0220727F088076969686840EADE
:10280000011007432068C0F80880206886612068AE
:102810000762012084F83D000020AEE710B586B0C5
:102820000446142101A8FDF715FD2068B0F1804F82
:102830004CD100BF002000907348006840F00100B8
:10284000714908600846006800F00100009000BF70
:1028500000BF00BF002000906B481038006840F0B7
:1028600001006949103908600846006800F001005D
:10287000009000BF00BF00BF002000900846006825
:1028800040F0020008600846006800F00200009076
:1028900000BF00BF4FF400400190022002900020D2
:1028A000039004900120059001A95848FEF792FD7D
:1028B0000820019002200290002003900490012043
:1028C000059001A95248FEF785FD9BE0514920681B
:1028D00088422FD100BF002000904B48006840F094
:1028E0000200494908600846006800F002000090B4
:1028F00000BF00BF00BF00200090434810380068B0
:1029000040F002004049103908600846006800F0B5
:102910000200009000BF00BF302001900220029012
:102920000020039004900220059001A93848FEF78A
:1029300051FD67E038492068884230D100BF00204F
:1029400000903148006840F004002F4908600846B4
:10295000006800F00400009000BF00BF00BF00202E
:10296000009029481038006840F0080026491039C6
:1029700008600846006800F00800009000BF00BF33
:102980004FF44050019002200290002003900490E8
:102990000220059001A92148FEF71CFD32E02049E4
:1029A000206888422ED100BF0020009016480068A1
:1029B00040F00800144908600846006800F008006C
:1029C000009000BF00BF00BF002000900E481038EC
:1029D000006840F001000C491039086008460068A2
:1029E00000F00100009000BF00BF03200190022012
:1029F00002900020039004900220059001A9034852
:102A0000FEF7E8FC06B010BD40380240000002406E
:102A1000000402400004004000080040000C024096
:102A2000000C004030B504460D4615B1042D0CD104
:102A300005E001220021206802F0C8FF10E0012219
:102A40000421206802F0C2FF0AE001220021206870
:102A500002F0BCFF01220421206802F0B7FF00BF92
:102A600000BF2068006840F0010021680860002075
:102A700030BD704710B5044620680069C0F34000BF
:102A8000D8B12068C068C0F34000B0B16FF0020058
:102A900021680861012020772068806900F0030028
:102AA00018B12046FFF7E5FF05E0204600F04AF99F
:102AB000204600F0E7F90020207720680069C0F385
:102AC0008000D8B12068C068C0F38000B0B16FF05A
:102AD000040021680861022020772068806900F4E2
:102AE000407018B12046FFF7C4FF05E0204600F013
:102AF00029F9204600F0C6F90020207720680069F7
:102B0000C0F3C000D8B12068C068C0F3C000B0B145
:102B10006FF0080021680861042020772068C069F0
:102B200000F0030018B12046FFF7A3FF05E02046A0
:102B300000F008F9204600F0A5F900202077206871
:102B40000069C0F30010D8B12068C068C0F300105D
:102B5000B0B16FF01000216808610820207720686C
:102B6000C06900F4407018B12046FFF782FF05E00D
:102B7000204600F0E7F8204600F084F90020207796
:102B80002068006900F0010058B12068C06800F0BA
:102B9000010030B16FF0010021680861204600F0AB
:102BA0009FF920680069C0F3C01058B12068C06860
:102BB000C0F3C01030B16FF080002168086120467A
:102BC000FFF724FC20680069C0F3801058B120682A
:102BD000C068C0F3801030B16FF040002168086118
:102BE000204600F0DDFA20680069C0F3401058B1BB
:102BF0002068C068C0F3401030B16FF02000216839
:102C000008612046FFF703FC10BD000010B586B038
:102C10000446142101A8FDF71DFB434920688842A2
:102C20003BD100BF002000904048006840F01000F9
:102C30003E4908600846006800F01000009000BFA0
:102C400000BF00BF002000900846006840F001006F
:102C500008600846006800F00100009000BF00BF57
:102C60004FF428500190022002900020039004901D
:102C70000120059001A92E48FEF7ACFB4FF400603F
:102C80000190022002900020039004900120059002
:102C900001A92848FEF79EFB43E0274920688842A7
:102CA0001ED100BF002000902048006840F00400C2
:102CB0001E4908600846006800F00400009000BF4C
:102CC00000BF4FF47070019002200290002003902A
:102CD00004900320059001A91848FEF77BFB20E033
:102CE0001749206888421CD100BF002000900F487F
:102CF000006840F001000D4908600846006800F0D7
:102D00000100009000BF00BF04200190022002904B
:102D10000020039004900320059001A90548FEF7C8
:102D200059FB06B010BD00000000014030380240E1
:102D30000010024000000240000401400008024070
:102D400000400140704770B504460D46164600BF6E
:102D500094F83C00012801D1022070BD012084F8C4
:102D60003C0000BF022084F83D0036B1042E1BD089
:102D7000082E31D00C2E5ED145E02946206802F0A5
:102D80004BFE2068806940F0080021688861206857
:102D9000806920F0040021688861206880692969C1
:102DA00008432168886147E02946206802F06CFEEC
:102DB0002068806940F4006021688861206880692B
:102DC00020F480602168886120688069296940EA70
:102DD0000120216888612FE02946206802F092FED8
:102DE0002068C06940F008002168C8612068C06997
:102DF00020F004002168C8612068C069296908437F
:102E00002168C86118E02946206802F0B7FE2068F2
:102E1000C06940F400602168C8612068C06920F47E
:102E200080602168C8612068C069296940EA012082
:102E30002168C86100E000BF00BF012084F83D00A8
:102E400000BF002084F83C0000BF00BF85E710B53C
:102E500004460CB9012010BD94F83D0028B90020AB
:102E600084F83C00204600F00CF8022084F83D0075
:102E7000211D206802F03EFD012084F83D00002065
:102E8000E9E770477047000070B504460E4601221E
:102E90003146206802F09AFD0F492068884203D02D
:102EA0000E492068884201D1012000E0002028B1AD
:102EB0002068406C40F400402168486420688068C5
:102EC00000F00705062D05D02068006840F00100DD
:102ED00021680860002070BD00000140000401402E
:102EE00070B50446954884427DD195480078002805
:102EF00079D094480088401C924908809248008804
:102F0000401C9149088091480088401C8F490880E6
:102F10008F48007808B104F041FA8B4800881428E3
:102F200004D1FEF727F800208749088087480088E9
:102F3000142812D18748007878B187480068FDF7D7
:102F400087FC86480078012804D183480068401C2B
:102F5000FDF77EFC00207D4908807A48008814280F
:102F60007ED17F480068406A7E4908607E480068DC
:102F7000406A48607D480068406A88607C48006814
:102F8000406AC860764800680068C0F3001079495C
:102F90000860754800680068C0F300104860734816
:102FA00000680068C0F3001088607148006800681D
:102FB000C0F30010C86000206F49087058E06948ED
:102FC0006D49097850F821006C496B4A127851F824
:102FD0002210401A6A49684A127841F822000846CD
:102FE0006549097800E0A7E050F821004CF2503123
:102FF00088420CDD62486049097850F82100A0F54C
:1030000080305F495C4A127841F8220013E05C4846
:103010005949097850F821005A4988420BDA584832
:103020005549097850F8210000F580305449524A3A
:10303000127841F8220052484F49097850F821008F
:1030400051494D4A127851F8221088420BDD4C4804
:103050004949097850F821004B49474A127800E065
:1030600055E041F8220044480078401C424908706D
:10307000414800780428A2DB01F07CFD00203E4995
:1030800008700EE037483C49097850F821003B4968
:10309000394A127841F8220037480078401C3649F6
:1030A0000870354800780428ECDB384A1168344A47
:1030B000106800F01BFC36490860344A5168304AF9
:1030C000506800F04FFC32494860304A91682C4A01
:1030D000906800F083FC2E4988602C4AD168284A09
:1030E000D06800F0B7FC2A49C8600D46EB682A6832
:1030F000A968686802F01AFB264802682648016839
:103100002648006804F02CF900200E4908800D487C
:103110000088142802D100200A4908800A48008843
:10312000142802D100200849088008480088142883
:1031300002D100200549088070BD0000440600202F
:103140006A00002064000020660000206800002063
:103150006B00002061000020A80000206200002019
:1031600044050020F001002084050020C405002053
:103170000406002010020020600000200002002051
:1031800020020020B03CFFFF40020020300200205F
:103190005000002014010020100100200C0100202C
:1031A000704770472DE9F04704462068056820689D
:1031B000C668206847694FF00008C14605F00F084F
:1031C000B8F1000F0AD105F0200038B106F0200058
:1031D00020B1204602F056FDBDE8F087B8F1000F9F
:1031E00072D007F0010018B906F4907000286BD077
:1031F00005F0010030B106F4807018B1E06B40F0CA
:103200000100E06305F0040030B107F0010018B1DF
:10321000E06B40F00200E06305F0020030B107F01F
:10322000010018B1E06B40F00400E06305F0080015
:1032300048B106F0200010B907F0010018B1E06BAA
:1032400040F00800E063E06B70B305F0200028B1A7
:1032500006F0200010B1204602F014FD20684069FD
:10326000C0F38019E06B00F0080010B9B9F1000F4D
:1032700023D0204602F0E6FC2068406900F04000C0
:10328000402816D12068406920F04000216848613C
:10329000606B50B11748616B0865606BFDF7ACFF60
:1032A00010B1606B016D88470CE02046FFF779FF95
:1032B00008E02046FFF775FF04E02046FFF771FFA6
:1032C0000020E06388E7FFE705F0800030B106F0FA
:1032D000800018B1204602F01DFF7DE705F0400098
:1032E00030B106F0400018B1204602F0BBFC73E795
:1032F00000BF71E7315C000810B504460CB901202D
:1033000010BDA06900B100E000BF94F8390028B9F1
:10331000002084F83800204600F028F8242084F8A3
:1033200039002068C06820F400502168C860204639
:1033300002F0FCFC2068006920F4904021680861DC
:103340002068406920F02A00216848612068C06830
:1033500040F400502168C8600020E063202084F819
:10336000390084F83A000020CAE7000010B586B0A2
:103370000446142101A8FCF76DFF8B4920688842A0
:1033800055D100BF002000908848006840F48010AC
:10339000864908600846006800F48010009000BF6D
:1033A00000BF00BF0020009080481038006840F047
:1033B00004007E49103908600846006800F00400E7
:1033C000009000BF00BF00BF0020009008460068CA
:1033D00040F0080008600846006800F0080000900F
:1033E00000BF00BF881401900220029001200390CA
:1033F000032004900820059001A96D48FDF7EAFF1D
:1034000004200190022002900120039003200490E8
:103410000820059001A96748FDF7DCFF0022042180
:103420003520FEF79BFA3520FEF788FAB9E06249AD
:10343000206888423BD100BF002000905B48001DFF
:10344000006840F010005949091D086008460068EE
:1034500000F01000009000BF00BF00BF00200090EF
:1034600052481038006840F0010050491039086097
:103470000846006800F00100009000BF00BF4FF454
:10348000C06001900220029000200390032004906D
:103490000720059001A94948FDF79CFF002205215E
:1034A0002520FEF75BFA2520FEF748FA79E044492B
:1034B0002068884238D100BF002000903B48006857
:1034C00040F40030394908600846006800F40030D4
:1034D000009000BF00BF00BF0020009033481038AC
:1034E000006840F00800314910390860084600685B
:1034F00000F00800009000BF00BF60200190022093
:10350000029000200390032004900720059001A959
:103510002848FDF75FFF002204212620FEF71EFA4F
:103520002620FEF70BFA3CE026492068884238D175
:1035300000BF002000901D48006840F480201B4917
:1035400008600846006800F48020009000BF00BFBB
:1035500000BF0020009015481038006840F00800B7
:103560001249103908600846006800F00800009011
:1035700000BF00BF4FF44070019002200290002075
:103580000390032004900720059001A90948FDF746
:1035900021FF002203212720FEF7E0F92720FEF774
:1035A000CDF906B010BD0000005000404038024088
:1035B00000080240000C02400010014000000240E0
:1035C000004400400048004010B5034693F83A001C
:1035D00020282FD101B10AB9012010BD00BF93F8F6
:1035E0003800012801D10220F7E7012083F83800D4
:1035F00000BF99629A85DA850020D863222083F87B
:103600003A0000BF002083F8380000BF1868C06887
:1036100040F480701C68E0601868406940F0010068
:103620001C6860611868C06840F020001C68E06099
:103630000020D2E70220D0E710B5044611492068E7
:1036400088420AD110480178104804F0A5FB0122F5
:103650000D490F48FFF7B8FF13E00E492068884274
:1036600002D101F08FFD0CE00B492068884202D1A5
:1036700000F016F805E009492068884201D101F000
:1036800081FD10BD00100140CC0100205C3F0020F6
:103690004407002000440040004800400050004023
:1036A00010B54848006898B9002047490870474954
:1036B00008704748007810B1012808D103E00B20BA
:1036C0004449087003E00A204249087000BF00BF67
:1036D0003C480068401C3B4908603F480178394835
:1036E0000068401E3D4A115436480068401E11468D
:1036F000085C0A2859D133480068801E085C0D28F0
:1037000053D1002004E02F4909782F4A1170401C42
:103710002C4909688842F6DB00202A4908602A48BB
:1037200000782C49097888423FDB0120274908703E
:103730000020254908702648007810B101282CD1B6
:1037400013E026484078264908702448807848705D
:103750002248C07888702148407948711F48807994
:1037600088711E48C079C87117E000201D49087093
:103770000EE01C480078C0F106001849095C1A48A0
:10378000184A1278815417480078401C154908706F
:10379000144800780628ECDB00BF00BF32210F4838
:1037A000FCF758FD00200C490870074800780949CB
:1037B0000978884204DA012207490C48FFF704FF20
:1037C00010BD0000FC00002007010020C800002000
:1037D000C900002006010020F3000020240400207E
:1037E000CA00002008010020F4000020C4070020C7
:1037F0002DE9F84304460D4616461F464FF00009D2
:1038000094F8390020285DD105B116B90120BDE832
:10381000F88300BF94F83800012801D10220F6E7B0
:10382000012084F8380000BF0020E063212084F8E4
:103830003900FDF7DDFE8146A684E68400BF002046
:1038400084F8380000BF2BE0E08C401EE084A068C4
:10385000B0F5805F16D14B460022802120460097AC
:1038600002F08CFC08B10320D1E7A846B8F80000AC
:10387000C0F3080021684860206908B9AD1C0FE05A
:103880006D1C0DE04B46002280212046009702F07F
:1038900075FC08B10320BAE715F8010B21684860F0
:1038A000E08C0028D0D14B460022402120460097D2
:1038B00002F064FC08B10320A9E7202084F8390055
:1038C0000020A4E70220A2E7704700BFFEE7000047
:1038D000054B1B781BB1130A03700A7002E0130A30
:1038E0000B700270704700004D01002010B50246B9
:1038F000501A174B186018460068164B1B68C01A00
:10390000154B1B685843154B1B68114C246803FB6F
:103910000400134B1B681844114B18600C480068D6
:103920000C4B18600E48006843F6E363984202DDD2
:1039300018460B4B18600A480068B0F5FA7F03DAA6
:103940004FF4FA70064B18600548006810BD00007F
:10395000200000202400002000000020040000209F
:103960002800002010B50246501A174B1860184660
:103970000068164B1B68C01A154B1B685843154B43
:103980001B68114C246803FB0400134B1B6818448C
:10399000114B18600C4800680C4B18600E4800680A
:1039A00043F6E363984202DD18460B4B18600A4861
:1039B0000068B0F5FA7F03DA4FF4FA70064B18602E
:1039C0000548006810BD00002C00002030000020D9
:1039D000080000200C0000203400002010B5024632
:1039E000501A174B186018460068164B1B68C01A0F
:1039F000154B1B685843154B1B68114C246803FB7F
:103A00000400134B1B681844114B18600C480068E5
:103A10000C4B18600E48006843F6E363984202DDE1
:103A200018460B4B18600A480068B0F5FA7F03DAB5
:103A30004FF4FA70064B18600548006810BD00008E
:103A4000380000203C00002010000020140000205E
:103A50004000002010B50246501A174B1860184657
:103A60000068164B1B68C01A154B1B685843154B52
:103A70001B68114C246803FB0400134B1B6818449B
:103A8000114B18600C4800680C4B18600E48006819
:103A900043F6E363984202DD18460B4B18600A4870
:103AA0000068B0F5FA7F03DA4FF4FA70064B18603D
:103AB0000548006810BD00004400002048000020B8
:103AC000180000201C0000204C00002010B5002031
:103AD0002A4908600CE02948006880002849274AE4
:103AE000126841F8220025480068401C23490860FC
:103AF000224800680428EEDB224802F00FFDB9EEF0
:103B0000080A204880ED010A9FED1F0A80ED020A95
:103B1000BFEE000A80ED030A1C4802F0FFFCB1EE84
:103B2000040A1A4880ED010A9FED170A80ED020A87
:103B3000B7EE000A80ED030A154802F0EFFCBFEE75
:103B4000000A134880ED010A9FED0F0A80ED020A7A
:103B5000BFEE000A80ED030A0E4802F0DFFCBFEE64
:103B6000000A0C4880ED010A9FED070A80ED020A69
:103B7000BFEE000A80ED030A10BD000080000020A7
:103B800008040020E00200200000000004030020E0
:103B9000280300204C03002010B5044601223021E8
:103BA000204605F0B6F810BD70B504460D46042C4D
:103BB00001DB002070BD2A460921204600F074F97F
:103BC00008B90020F6E70120F4E770B505460C4679
:103BD0001646042D01DB002070BD072C01DD0020FE
:103BE000FAE7F2B2601CC1B2284600F05DF908B9EC
:103BF0000020F1E70120EFE770B506460C461546B8
:103C0000054806600548046005480580FCF776FF16
:103C100001F072FB70BD00006C01002070010020FB
:103C20007401002070B505460C46042D01DB002010
:103C300070BD0F2C00DD0F2422460A21284600F01B
:103C400033F908B90020F3E70120F1E7014600202D
:103C500005E00022034B03EBC1031A54401C082863
:103C6000F7DB7047330900202DE9F04105460E4689
:103C700017463A4631462846FFF7BEFF00241AE0B1
:103C8000E0B2FFF7E3FFE0B2012100F0E5F8E0B2B7
:103C9000002100F0F5F8E0B20021FFF785FFE0B267
:103CA0000121FFF7BFFFE0B2072100F0C1F8E0B249
:103CB000FFF7CCFF641C042CE2DBBDE8F0810000C0
:103CC000F0B5054600203EE0204E365CF607340E87
:103CD0001E4E1036365C77101C4E10363754183E88
:103CE000365CF607330E194E0836365C7710174EE1
:103CF00008363754365C2643144F08373E5407F1D4
:103D00000806365CF607320E104E365C77100F4E02
:103D10003754365C1E430D4F3E5407F10806365C9F
:103D2000F607310EA7F10806365C7610083F3E54C0
:103D30003E46365C16433E5407F11806365C0E4389
:103D400018373E54401C0828BEDBF0BD3B0900205C
:103D5000F0B50546002041E0224E365CF409214EC4
:103D6000103E365C7606360E1E4F103F3E5407F16D
:103D70001806365CF10907F10806365C7606370E40
:103D8000184E083E3754365C2643164F083F3E54C3
:103D9000A7F10806365CF209124E365C7606370E3D
:103DA000104E3754365C0E430E4F3E54A7F10806B2
:103DB000365CF30907F10806365C7606370E094EC5
:103DC00008363754365C1643064F08373E54A7F181
:103DD0001806365C1E43183F3E54401C0828BBDBC7
:103DE000F0BD000043090020024B03EBC0035A540E
:103DF000704700003309002070B5002411E0002551
:103E00000CE00A4800EBC400465DE9B2E0B272B2D1
:103E1000FFF7DBFE08B9002070BD6D1C082DF0DB3C
:103E2000641C042CEBDB0120F6E7000033090020C2
:103E300070B505460C46042D01DB002070BD072C33
:103E400000DD072422460B21284600F02DF808B992
:103E50000020F3E70120F1E770B505460C46042D7C
:103E600001DB002070BD012C00DD012422460C2165
:103E7000284600F019F808B90020F3E70120F1E71F
:103E800070B505460C46042D01DB002070BD012CE9
:103E900000DD012422460F21284600F005F808B96C
:103EA0000020F3E70120F1E72DE9F04104460D463B
:103EB0001646042C02DB0020BDE8F08101F02CFA4C
:103EC00027460CE0002001F0B3F908B90020F3E721
:103ED000002001F0ADF908B90020EDE77F1C032FA9
:103EE000F0DB284601F0A4F908B90020E4E73046E9
:103EF00001F09EF908B90020DEE700270CE0002061
:103F000001F096F908B90020D6E7002001F090F9F9
:103F100008B90020D0E77F1CA742F0DB01F0ECF9E4
:103F20000120C9E72DE9F041054600242E78534FC2
:103F300007EBC60703CF6E78504F07EBC6070CCFD1
:103F400000BF1AE00F26164016EB060C4CEA40168E
:103F5000C4F10607DFF828C10CF807604FEA102605
:103F600046EA01604FEA11214FEA122646EA03624F
:103F70004FEA132304F10106F4B2082CE2DBAE7819
:103F80003E4F07EBC60603CE3E46D6E90823002483
:103F900022E01F2702EA07060027B60846EA8776CE
:103FA00046EA4017C4F1060C354E083606F80C7088
:103FB00003261640B607370EC4F1060C304E1036F5
:103FC00006F80C70060A46EA0160090A160A46EA73
:103FD00003621B0A661CF4B2082CDADBEE78274F6A
:103FE00007EBC60603CE00241AE0C4F10607244EF0
:103FF0001036F65D0F270740FF1946EA0706F7B2AD
:10400000C4F1060C1E4E06F1100606F80C704FEABD
:10401000102646EA01604FEA112104F10106F4B2CC
:10402000082CE2DB2E79154F07EBC60603CE6E791E
:1040300007EBC6060CCE00241CE00F26164016EB3C
:10404000060C4CEA4016F7B2C4F1060C0C4E06F111
:10405000180606F80C704FEA102646EA01604FEA8F
:1040600011214FEA122646EA03624FEA132304F1B4
:104070000106F4B2082CE0DBBDE8F0819091000865
:104080003309002000B587B0142102A8FCF7E2F83C
:1040900000BF002001906748006840F010006549AB
:1040A00008600846006800F01000019000BF00BFE3
:1040B00000BF002001900846006840F0040008603E
:1040C0000846006800F00400019000BF00BF00BF78
:1040D000002001900846006840F080000860084613
:1040E000006800F08000019000BF00BF00BF00200A
:1040F00001900846006840F001000860084600682A
:1041000000F00100019000BF00BF00BF002001903F
:104110000846006840F0020008600846006800F0A9
:104120000200019000BF00BF00BF002001900846C0
:10413000006840F0080008600846006800F00800C9
:10414000019000BF00BF002240213B48FDF74AFA22
:1041500000224FF4A0513948FDF744FA00224FF4F1
:1041600040613748FDF73EFA002201213548FDF74E
:1041700039FA4CF2FF10029000200390049002A93B
:104180002E48FDF727F94EF20F0002900020039011
:10419000049002A92A48FDF71DF940200290012051
:1041A000039000200490059002A92348FDF712F91E
:1041B0004FF4A0500290012003900020049005903D
:1041C00002A91E48FDF706F94FF470600290002026
:1041D0000390049002A91C48FDF7FCF84FF44060DE
:1041E00002900120039000200490059002A9144839
:1041F000FDF7F0F801200290039000200490059054
:1042000002A91048FDF7E6F81A200290002003905A
:10421000049002A90B48FDF7DDF8802002900020F1
:1042200003900120049002A90648FDF7D3F807B0D7
:1042300000BD000030380240000002400010024083
:1042400000080240000C02400004024010B50B4878
:104250000B4908600B484860002109488160C16033
:104260004FF480410161002141618161C1610162BE
:10427000FDF7C4F908B1FCF70EFD10BD0054004075
:1042800058040020A086010010B50F480F490860AF
:104290004FF4827048604FF400410C488160002167
:1042A000C160016141614FF4007181612821C161E8
:1042B00000210162416281620A21C162FDF724FF8F
:1042C00008B1FCF7E8FC10BD00300140AC04002050
:1042D00000B595B0002011901290139014900F909B
:1042E00010901C2108A8FBF7B5FF20216846FBF7BA
:1042F000B1FF394839490860082048600021374833
:10430000816044F29F11C1600021016141618161BE
:10431000FEF712F908B1FCF7BEFC4FF48050119083
:1043200011A92E48FEF79FF908B1FCF7B4FC2B4801
:10433000FEF78DFD08B1FCF7AEFC00200F90109049
:104340000FA92648FEF79EF808B1FCF7A4FC6020F0
:104350000890002009900A900B900C900D900E9000
:10436000002208A91D48FEF7EEFC08B1FCF793FCFB
:10437000042208A91948FEF7E6FC08B1FCF78BFCFB
:10438000082208A91548FEF7DEFC08B1FCF783FCFB
:104390000C2208A91148FEF7D6FC08B1FCF77BFCFB
:1043A0004FF40060009040100190002002900390B4
:1043B0004FF48050049040000590400007906946FB
:1043C0000648FEF725F808B1FCF765FC0348FEF740
:1043D0001DFC15B000BD00000000014004050020D8
:1043E00000B58BB0242102A8FBF734FF0020009019
:1043F00001904FF08040174908600020486000217C
:10440000144881604FF6FF71C16000210161816134
:1044100001200290002003900120049000200590CC
:104420000690079001200890002009900A9002A9A8
:104430000848FEF79CF908B1FCF72DFC002000901D
:10444000019069460348FEF71DF808B1FCF723FC0C
:104450000BB000BD4405002000B58BB0242102A89C
:10446000FBF7F8FE002000900190184818490860FA
:10447000002048600021164881604FF6FF71C1603E
:104480000021016181610120029000200390012040
:1044900004900020059006900790012008900020CD
:1044A00009900A9002A90A48FEF761F908B1FCF7E1
:1044B000F2FB00200090019069460548FDF7E2FFFD
:1044C00008B1FCF7E8FB0BB000BD000000040040A1
:1044D0008405002000B58BB0242102A8FBF7BAFEAA
:1044E000002000900190184818490860002048609A
:1044F0000021164881604FF6FF71C1600021016103
:10450000816101200290002003900120049000208E
:1045100005900690079001200890002009900A90CD
:1045200002A90A48FEF723F908B1FCF7B4FB002002
:104530000090019069460548FDF7A4FF08B1FCF71B
:10454000AAFB0BB000BD000000080040C40500201D
:1045500000B58BB0242102A8FBF77CFE0020009060
:10456000019018481849086000204860002116484A
:1045700081604FF6FF71C1600021016181610120FE
:1045800002900020039001200490002005900690E6
:10459000079001200890002009900A9002A90A487B
:1045A000FEF7E5F808B1FCF776FB002000900190DB
:1045B00069460548FDF766FF08B1FCF76CFB0BB0D8
:1045C00000BD0000000C0040040600201CB50020C7
:1045D000009001900E480F49086053204860002168
:1045E0000C48816040F2E731C16000218161FDF734
:1045F000A3FF08B1FCF74FFB002000900190694633
:104600000448FDF73FFF08B1FCF745FB1CBD000067
:10461000001000404406002000B595B00020119025
:104620001290139014900F9010901C2108A8FBF783
:1046300011FE20216846FBF70DFE39483949086014
:104640000820486000213748816044F29F11C16012
:104650000021016141618161FDF76EFF08B1FCF746
:104660001AFB4FF48050119011A92E48FDF7FBFF63
:1046700008B1FCF710FB2B48FEF7E9FB08B1FCF78B
:104680000AFB00200F9010900FA92648FDF7FAFEB4
:1046900008B1FCF700FB60200890002009900A9008
:1046A0000B900C900D900E90002208A91D48FEF76B
:1046B0004AFB08B1FCF7EFFA042208A91948FEF7F3
:1046C00042FB08B1FCF7E7FA082208A91548FEF7F3
:1046D0003AFB08B1FCF7DFFA0C2208A91148FEF7F3
:1046E00032FB08B1FCF7D7FA4FF40060009040109D
:1046F00001900020029003904FF4805004904000FD
:1047000005904000079069460648FDF781FE08B114
:10471000FCF7C1FA0348FEF779FA15B000BD0000B6
:10472000000401408406002000B58BB000200790F3
:10473000089009900A901C216846FBF78BFD1C48E5
:104740001C490860A720486000211A48816042F295
:104750000F71C160002101618161FDF7EDFE08B1BB
:10476000FCF799FA4FF48050079007A91148FDF71C
:104770007AFF08B1FCF78FFA0E48FEF768FB08B124
:10478000FCF789FA6020009040F2DC500190002094
:1047900002900490002269460648FEF7D4FA08B158
:1047A000FCF779FA0348FEF731FA0BB000BD0000C0
:1047B00000400140C406002010B50B480B490860BA
:1047C0004FF4E1304860002108488160C160016118
:1047D0000C21416100218161C161FEF78DFD08B1AD
:1047E000FCF759FA10BD00000050004004070020FB
:1047F00010B50B480B4908604FF4E13048600021C8
:1048000008488160C16001610C2141610021816122
:10481000C161FEF771FD08B1FCF73DFA10BD000063
:10482000001001404407002010B50B480B490860F8
:104830004FF416504860002108488160C160016152
:104840000C21416100218161C161FEF755FD08B174
:10485000FCF721FA10BD000000440040840700204E
:1048600010B50B480B4908604FF4E1304860002157
:1048700008488160C16001610C21416100218161B2
:10488000C161FEF739FD08B1FCF705FA10BD000063
:1048900000480040C407002070B50121002000F04E
:1048A00077F90221012000F073F900241BE0A748EA
:1048B000005D522804D13120A54901EB4401487024
:1048C000A248005D472804D13220A14901EB4401F0
:1048D00048709E48005D422804D133209C4901EB7A
:1048E00044014870641C062CE1D300243BE0984846
:1048F00000EB440040789749095D884203D1944910
:1049000001F814402EE0601C0321B0FBF1F201FB22
:1049100012009049085C8E4901EB440149788842B5
:1049200009D1601C0321B0FBF1F201FB12008849A0
:1049300001F8140016E0A01C0321B0FBF1F201FB0A
:1049400012008449085C824901EB4401497888429D
:1049500008D1A01C0321B0FBF1F201FB12007C493D
:1049600001F81400641C032CC1D3002447E0E01CB0
:10497000774901EB40004178601D764A105C814226
:1049800005D1E01CC1B2724A02F8101036E0601C7A
:104990000321B0FBF1F201FB1200401D6D49095CDF
:1049A000E01C6B4A02EB4000407881420BD1601C56
:1049B0000321B0FBF1F201FB1200C01CE11C644AB0
:1049C00002F811001AE0A01C0321B0FBF1F201FB78
:1049D0001200401D5F49095CE01C5D4A02EB40008B
:1049E000407881420AD1A01C0321B0FBF1F201FB07
:1049F0001200C01CE11C564A02F81100641C032C72
:104A0000B5D3002405E0524911F81410524A545409
:104A1000641C062CF7D3002507E04F48425D294669
:104A20004EA001F0E5FD681CC5B2062DF5DB4FA0D8
:104A300001F0DEFD002485E000251DE0032000FBE1
:104A400004504549085C424901EB4000407803218D
:104A500090FBF1F201FB1201032000FB04503E4ADF
:104A6000105C00EB4000401C0844C6B2304601F028
:104A7000D3FB02F00BFB6D1C032DDFD303210220BF
:104A800000F086F8002516E0032000FB04503249B0
:104A9000085C2F4901EB40004078032190FBF1F2C4
:104AA00001FB120040001330C6B2304601F0B4FBE7
:104AB00002F0ECFA6D1C032DE6D3002516E003206E
:104AC00000FB04502449085C214901EB4000407878
:104AD000032190FBF1F201FB120040001430C6B23A
:104AE000304601F099FB02F0D1FA6D1C032DE6D39C
:104AF0000421032000F04CF8002515E0032000FB02
:104B000004501549085C124901EB4000407803212C
:104B100090FBF1F201FB12001930C6B2304601F0F1
:104B20007BFB02F0B3FA6D1C032DE7D3012C04D1FB
:104B30000521042000F02CF803E00221042000F0FD
:104B400027F8641C022CFFF477AF70BDF40000203E
:104B500018040020CA000020C0000020717565758F
:104B6000655B25645D3D2564090000000A0D0000B9
:104B700000BFFEE704480068404203490860084659
:104B800040684042486070472002002070470000A3
:104B90002DE9F04104460D4604EB840005EB400787
:104BA000222F76D008DC012F0DD00C2F18D0172F14
:104BB0003DD0202F13D153E02A2F68D02B2F67D060
:104BC0002D2FF7D1DEE06FF00E01002000F016F976
:104BD00000221146032000F0A5F9FCF793FA02E148
:104BE00000221146032000F09DF9FCF7F9FA4FF47A
:104BF0007A70FCF715FBFCF7F9FA0021084600F083
:104C0000FDF80021084600F0F9F80021084600F000
:104C1000F5F86FF00E01002000F0F0F8FCF764FAF0
:104C2000FCF7DEFA4FF4FA60FCF7FAFADBE00A2050
:104C300002F01AFC4FF47A70FCF7F2FAFCF7D6FA9D
:104C40000021084600F0DAF86FF00E01002000F0B5
:104C5000D5F8FCF7C5FA4FF47A70FCF7E1FAC2E038
:104C6000FCF7C4FA0021022000F0C8F86FF00E0132
:104C7000022000F0C3F86FF0090002F0F5FBFCF72A
:104C8000AFFA4FF47A70FCF7CBFAACE001E04DE0FC
:104C900025E0FCF7ABFA0021084600F0AFF86FF012
:104CA0000E01002000F0AAF80A2002F0DDFBFCF75C
:104CB00097FA4FF47A70FCF7B3FAFCF797FA0021F1
:104CC000084600F09BF86FF00E01002000F096F807
:104CD000FCF786FA4FF47A70FCF7A2FA83E0FCF74F
:104CE00085FA0021022000F089F86FF00E01022001
:104CF00000F084F86FF0090002F0B6FBFCF770FAE0
:104D00004FF47A70FCF78CFAFCF770FA002102205D
:104D100000F074F86FF00E01022000F06FF8FCF75D
:104D20005FFA4FF47A70FCF77BFA5CE0FCF75EFA0E
:104D30000021022000F062F86FF00E01022000F066
:104D40005DF86FF0090002F08FFBFCF749FA4FF4B1
:104D50007A70FCF765FAFCF749FA002604E00021B6
:104D6000022000F04BF8761C032EF8DB6FF00E01EA
:104D7000022000F043F86FF0090002F075FBFCF729
:104D80002FFA30E0FCF732FA0021084600F036F83E
:104D90000021084600F032F86FF00E01002000F00C
:104DA0002DF80021012000F029F8FCF719FA40F253
:104DB000DC50FCF735FAFCF719FA00200B490870B3
:104DC0000B49086005200B4908600B49086040F654
:104DD000B830FCF725FA002005490860054908604D
:104DE0000549086000BF00BFBDE8F08161000020F8
:104DF00014010020100100200C01002070B50446B1
:104E00000D4601203C4908703C48046034B1012C37
:104E100009D0022C0CD0032C16D10FE005F11E0096
:104E20003749086010E005F10F00364908600BE0D3
:104E30006FF01D00401B3249086005E06FF00E0066
:104E4000401B3049086000BF00BF04F0010020B9DA
:104E50004FF4C870FCF7E4F903E04FF44870FCF736
:104E6000DFF900BF2046FBF7B1FD0028FAD034B1CE
:104E7000012C0FD0022C19D0032C2FD122E00020BE
:104E80001E4908601E4908601F480068401C1E49F2
:104E9000086023E0012019490860002019490860D2
:104EA0001A480068401E1949086017E0022013499B
:104EB000086000201249086013480068401E12492B
:104EC00008600BE003200D49086000200D490860D0
:104ED0000E480068401C0D49086000BF00BF0B4829
:104EE0000268094801680AA001F082FB0020054918
:104EF00008600349086070BD61000020A800002020
:104F0000100100200C0100202001002024010020BD
:104F10004920616D206174202825642C2564292E88
:104F20000D0A000070B504460E46154601204249A0
:104F300008704248046034B1012C09D0022C0CD016
:104F4000032C16D10FE005F11E003D49086010E06A
:104F500005F10F003B4908600BE06FF01D00401B9E
:104F60003749086005E06FF00E00401B35490860C6
:104F700000BF00BF04F0010020B94FF4C870FCF777
:104F80004FF90DE03048007830B901202E49087003
:104F90006420FCF745F903E04FF44870FCF740F952
:104FA00000BFE0B23146FBF747FD0028F9D034B12D
:104FB000012C0FD0022C19D0032C2FD122E000207D
:104FC0001E4908601E49086020480068401C1F49AF
:104FD000086023E001201949086000201949086091
:104FE0001B480068401E1A49086017E00220134958
:104FF000086000201249086014480068401E1349E8
:1050000008600BE003200D49086000200D4908608E
:105010000F480068401C0E49086000BF00BF0C48E4
:1050200002680A4801680BA001F0E2FA0020054975
:1050300008600349086070BD61000020A8000020DE
:10504000100100200C010020B000002020010020F1
:10505000240100204920616D206174202825642CE2
:105060002564292E0D0A00007047000030B513B2E8
:10507000C0EB0014024D05EB440424F8113030BDA0
:10508000CC0E00202DE9FF4383B0804689461746A9
:1050900002F01EFA0220012306AA4946009040466B
:1050A00003F0EEFD03F0DAFD01F09AFF18B90020DD
:1050B00007B0BDE8F083032102A802F0ABFA032891
:1050C00001D00020F4E79DF81810384602F0A2FA4B
:1050D00004469DF81800844201D00020E8E7012131
:1050E0000DF10B0002F096FA012801D00020DFE755
:1050F0009DF808009DF8091008449DF80A1008441E
:10510000C5B2002604E0B85D2844C5B2701CC6B222
:10511000A642F8DBE843C5B29DF80B00A84201D0D7
:105120000020C5E72046C3E770B505464FF0FF34C1
:10513000681C28B90A4804782402407804430CE02B
:10514000002008490860E8B2382102F08BFA0446D2
:10515000601C10B9012003490860204670BD0000A2
:1051600024080020500100200246054B1B781BB18B
:1051700010460002084302E0084600021043704750
:105180004D01002010B50B4800780B490B4A1268FE
:1051900088540A490968481CC11700EB5161C911BC
:1051A000A0EBC111054A1160012202490448FEF733
:1051B0000BFA10BD64010020B3080020600100203C
:1051C000040700207CB504460D46164616480068C4
:1051D0001821B0FBF1F01549B0FBF1F04FF47A71F2
:1051E000484301906068B0F5827F0DD12B460022C4
:1051F00080212046009600F02BF898B1606D40F0B9
:105200002000606503207CBD00BF019800B908E064
:105210000198401E019020688068C0F3C0100028EB
:10522000F3D100BF0020EEE74801002040420F000C
:1052300001B54FF0FF330122694604480068FCF7CE
:10524000EDFF08B1002008BD0120FCE76C01002043
:105250002DE9F04104460E4617461D46DDF818803C
:105260003EE0681CD8B3FCF7C3F9A0EB0800A842E5
:1052700000D2A5BB2068406820F0E00021684860AB
:105280006068B0F5827F0DD1A068B0F5004F03D003
:10529000A068B0F5806F05D12068006820F040005C
:1052A00021680860A06AB0F5005F0DD100BF2068DA
:1052B000006820F40050216808602068006840F40D
:1052C00000502168086000BF012084F8510000BF31
:1052D000002084F8500000BF0320BDE8F081FFE704
:1052E000206880683040B04201D1012000E00020F9
:1052F000B842B6D10020F0E710B501220448018879
:1053000004480068FCF76EF90120FBF717FC10BD9C
:10531000740100207001002010B5002204480188AB
:1053200004480068FCF75EF90120FBF707FC10BD9C
:105330007401002070010020704700002DE9F04F3B
:1053400093B0002600201190A74D2822294602A8DC
:10535000FAF767FFA5A001F04BF900BF06E002A82D
:1053600050F82610A7A001F043F9761C0A2EF6DBB0
:10537000A6A001F03DF900200C9001200D900B201B
:105380000E9001200F9002201090FCF709F811A94F
:105390000CA8FBF759FF8246FBF7ACFFBAF1000FF0
:1053A00004D09BA0119901F023F902E0A0A001F024
:1053B0001FF92822294602A8FAF733FFA0A001F01E
:1053C00017F9002606E002A850F826108DA001F07B
:1053D0000FF9761C0A2EF6DB8CA001F009F9FBF719
:1053E000DFFF4FF0000906244FF0000B3AE0CBEB53
:1053F000CB00994A32F91000C317074629193A46DB
:105400000120FBF781FFA01C84B2002714E0CBEB46
:10541000CB00914A02EB4000801C30F91700C21704
:105420002919CDE9000202460120019BFBF76CFF20
:10543000A01C84B2781CC7B2052FE8DBCBEBCB00F5
:10544000854A02EB4000B0F90C00C3170746291942
:105450003A460120FBF758FFA01C84B20BF1010073
:1054600000F0FF0BCBEBCB007B4931F91000401C67
:1054700010B1BBF1640FBADB05EB09012246002332
:105480000120FBF741FF09F102001FFA80F9002714
:105490001BE04FF0000813E0C7EB07106F4A02EB68
:1054A000400030F91800C317834629195A460120D5
:1054B000FBF72AFFA01C84B208F1010000F0FF08EE
:1054C000B8F10F0FE8DB781CC7B2C7EB07106349D0
:1054D00031F91000401C08B1282FDADB05EB090177
:1054E000224600230120FBF70FFF824609F102004C
:1054F0001FFA80F94FF0000B3AE0CBEBCB00584A93
:1055000032F91000C317074629193A460120FBF764
:10551000FBFEA01C84B2002714E0CBEBCB00504A6A
:1055200002EB4000801C30F91700C2172919CDE9A1
:10553000000202460120019BFBF7E6FEA01C84B29C
:10554000781CC7B2052FE8DBCBEBCB00444A02EB5B
:105550004000B0F90C00C317074629193A4601204C
:10556000FBF7D2FEA01C84B20BF101001FFA80FBF6
:10557000CBEBCB003A4931F91000401C10B1BBF520
:10558000487FBADB05EB0901224600230120FBF727
:10559000BBFE09F102001FFA80F9FBF7ABFEBAF17E
:1055A000000F03D02FA001F023F802E031A001F09A
:1055B0001FF80D4D2822294602A8FAF732FE31A025
:1055C00001F016F8002606E002A850F826100DA0FB
:1055D00001F00EF8761C0A2EF6DB0CA001F008F89C
:1055E00013B0BDE8F08F000000000E087265616422
:1055F000206265666F72652065726173653A0D0A97
:105600000900000030782530387820000D0A0000AD
:105610006572617365206661696C2C2050616765F5
:105620004572726F72203D2025640D0A0000000053
:10563000657261736520737563636573730D0A002A
:10564000726561642061667465722065726173655C
:105650003A0D0A090000000054090020CC0E002079
:105660007C1300207772697465206661696C0D0A8D
:105670000000000077726974652073756363657359
:10568000730D0A007265616420616674657220772B
:10569000726974653A0D0A09000000007FB504467E
:1056A0000E46002509E0681CFFF73EFD01B20DF132
:1056B000020020F81510681CC5B2052DF3DBADF80B
:1056C0000040ADF80C60002509E00DF1020030F952
:1056D000152029460FA000F08BFF681CC5B2052DD0
:1056E000F3DB642C09DAC4EBC4010E4A02EB41007F
:1056F0000E226946FAF795FD0AE0A4F16401C1EBB8
:10570000C101094A02EB41000E226946FAF789FD00
:105710007FBD0000616E676C6525643A2025640DCD
:105720000A000000540900207C13002030B542F22A
:10573000D004A04209D94400A4F582449F3C2B4DDB
:105740002C6000242D1D2C6009E00024274D2C60C6
:1057500044F29F14241A241A641C2D1D2C6042F25A
:10576000D004A14208D94C00A4F582449F3C204DAE
:10577000AC6300246C6308E000241D4DAC6344F26C
:105780009F14641A641A641C6C6342F2D004A2422F
:1057900008D95400A4F582449F3C154DEC630024C5
:1057A0002C6408E00024124DEC6344F29F14A41A08
:1057B000A41A641C2C6442F2D004A3420AD95C00EF
:1057C000A4F582449F3C094D0C352C6000242D1F0C
:1057D0002C600AE00024054D0C352C6044F29F1427
:1057E000E41AE41A641C2D1F2C6030BD34040140FF
:1057F0000000014010B5034C6060A1602260E360CE
:1058000010BD00003002002010B5FCF723F8FCF7B3
:10581000F9FD10BD00B593B0302107A8FAF71AFDC5
:10582000142102A8FAF716FD00BF002001902448B9
:10583000006840F08050224908600846006800F087
:105840008050019000BF00BF00BF002001901D48A4
:10585000006840F480401B4908600846006800F476
:105860008040019000BF00BF012007900004089015
:1058700002200D9041050E9119210F914FF4A8714E
:105880001091022111910421129107A8FCF7F8F957
:1058900008B1FBF700FA0F200290022003900020CD
:1058A00004904FF4A05005904FF4805006900521CD
:1058B00002A8FCF7A5F808B1FBF7EDF913B000BD9D
:1058C00040380240007000400548006840F4700015
:1058D000034908604FF00060014980390860704753
:1058E00088ED00E010B50248FDF7C4F810BD0000D7
:1058F0004406002010B50268294B98420ED0B0F142
:10590000804F0BD0274B984208D0274B984205D0A8
:10591000264B984202D0264B984203D122F07002C7
:105920004B681A431E4B984220D0B0F1804F1DD0D7
:105930001C4B98421AD01C4B984217D01B4B9842D4
:1059400014D01B4B984211D01A4B98420ED01A4BD0
:1059500098420BD0194B984208D0194B984205D069
:10596000184B984202D0184B984203D122F440724F
:10597000CB681A4322F080034C6943EA04020260B8
:105980008B68C3620B688362054B984202D0084B58
:10599000984201D10B6903630123436110BD0000EC
:1059A000000001400004004000080040000C0040DE
:1059B0000004014000400140004401400048014013
:1059C00000180040001C00400020004030B501F0ED
:1059D0001F05012404FA05F3046A9C430462046A67
:1059E00001F01F0502FA05F52C43046230BD30B505
:1059F0000C46816821F47F4142EA0325254329436F
:105A0000816030BD0A46816821F0700142F00703D1
:105A1000194381607047000030B5056A25F0010523
:105A20000562026A4368846924F0700424F0030468
:105A30000D682C4322F002028D682A43104DA842C3
:105A400000D103E00F4DA84206D100BF22F00802AA
:105A5000CD682A4322F00402094DA84202D0094D24
:105A6000A84207D123F4807323F400734D692B43BC
:105A70008D692B43436084614D684563026230BD8C
:105A8000000001400004014030B5056A25F0100512
:105A90000562026A4368846924F4E04424F4407493
:105AA0000D6844EA052422F020028D6842EA0512BE
:105AB000124DA84200D103E0114DA84207D100BF0A
:105AC00022F08002CD6842EA051222F040020B4D1E
:105AD000A84202D00A4DA84209D123F4806323F4DE
