:020000040800F2
:10000000F04A00209D01000899510008473D000872
:100010007D510008690A0008D96A00080000000044
:10002000000000000000000000000000B1580008BF
:10003000ED0A000800000000CD5500083D5F0008F3
:10004000B7010008B7010008B7010008B7010008B0
:10005000B7010008B7010008B7010008B7010008A0
:10006000B7010008B7010008B7010008B701000890
:10007000B7010008B7010008B7010008B701000880
:10008000B7010008B7010008B7010008B701000870
:10009000B7010008B7010008B7010008B701000860
:1000A000B7010008B7010008B7010008B701000850
:1000B000B7010008B7010008B7010008B701000840
:1000C000B7010008B7010008B7010008B701000830
:1000D000B70100081D6900082D6900083D69000886
:1000E000B7010008B7010008B7010008B701000810
:1000F000B7010008B7010008B7010008B701000800
:10010000B7010008B7010008B7010008B7010008EF
:10011000B70100085563000819600008B70100081E
:10012000B7010008B7010008B7010008B7010008CF
:10013000B7010008B7010008B7010008B7010008BF
:10014000B7010008B7010008B7010008B7010008AF
:10015000B7010008B7010008B7010008B70100089F
:10016000B7010008B7010008B7010008B70100088F
:10017000B7010008B7010008B7010008000000003F
:10018000B7010008B7010008DFF80CD000F0EEFA64
:1001900000480047B57B0008F04A00200648804729
:1001A00006480047FEE7FEE7FEE7FEE7FEE7FEE75C
:1001B000FEE7FEE7FEE7FEE7FD5F000889010008B5
:1001C0002DE9F05F0546002092469B46884606468C
:1001D000814640241BE0284641464746224600F01F
:1001E00015FA53465A46C01A914110D31146184683
:1001F000224600F0FCF92D1A67EB01084F46224613
:100200000120002100F0F3F917EB00094E41201EF8
:10021000A4F10104DFDC484631462A464346BDE8E6
:10022000F09F40EA01039B0703D009E008C9121FB1
:1002300008C0042AFAD203E011F8013B00F8013BA0
:10024000521EF9D27047D2B201E000F8012B491ECC
:10025000FBD270470022F6E710B513460A46044663
:100260001946FFF7F0FF204610BD421C10F8011B95
:100270000029FBD1801A704710B5002200E0521C03
:10028000835C8C5CA34201D1002BF8D1D8B2E1B2DF
:10029000401A10BD30B505460020034600E05B1C47
:1002A000934205D2EC5CC85C201A01D1002CF6D137
:1002B00030BD2DE9FE4F804681EA0300C00F0C4699
:1002C000009021F0004123F00045B8EB0200A94165
:1002D00005D24046214690461C460B46024623F076
:1002E0000040104347D0270DC7F30A00C3F30A515B
:1002F0000290401A019040286BDAC3F3130040F4D7
:10030000801B0098924620B10023D2EB030A63EBD6
:100310000B0B01985946C0F14002504600F067F9B6
:1003200006460D4650465946019A00F07FF910EBFB
:1003300008006141002487EA115284EAE7731A43F6
:1003400040D0009A62B3019A012A4FEA075215DCA5
:10035000001B61EB02014FF0004202EA0752CDE9B7
:100360000042001C41F5801132462B4600F07FF917
:1003700003B0BDE8F08F40462146F9E7001B61EB72
:100380000201001C41F5801300185B412018A2F502
:10039000001747EB030140EAD570B6196D4111E033
:1003A0006D084FEA360645EAC0754FEA0752001B52
:1003B00061EB0201001C41F5801149084FEA300051
:1003C0000019514132462B4603B0BDE8F04F00F012
:1003D0003FB90098012240000023D0EB020263EBFA
:1003E000E073009821464FEAE074B8EB000061EB3F
:1003F0000401E9E783F000435BE781F0004158E73F
:100400002DE9FE4F81EA030404F0004421F000418D
:1004100000944FF0000B23F0004350EA01045ED03B
:1004200052EA03045BD0C3F30A54C1F30A552C44C7
:10043000A4F2F3340194A0FB0254C1F3130141F47C
:100440008011C3F3130343F4801301FB024400FB48
:10045000034E840A970A44EA815447EA8357A4FB6F
:10046000076802958D0A05FB07854FEA932C04FB6C
:100470000C542705029D4FEA065847EA1637B5EB9C
:1004800008056EEB070C870E920E47EA811742EAC9
:100490008312A7FB0201B6EB0B0164EB00042B0DEA
:1004A00043EA0C335E1844EB1C50DA465146E7FB36
:1004B0000201C5F313044FEA0B3343EA14534FEA26
:1004C0000432019C43EA0603A4F10C040294009C4C
:1004D000CDE900B400F0CBF803B0BDE8F08F002008
:1004E0000146F9E72DE9F04D81EA030404F0004BE1
:1004F00021F0004514464FF0000A23F0004150EA75
:10050000050220D054EA01021DD0C5F30A57024665
:10051000C5F31303C1F31300C1F30A5640F4801569
:1005200043F48013A7EB0608101BD64608F2FD38EB
:1005300073EB050002D308F1010801E092185B415A
:10054000B8F1000F03DA00200146BDE8F08D00206D
:100550004FF48011064684460EE0171B73EB050727
:1005600005D3121B63EB050306434CEA010C490853
:100570004FEA300092185B4150EA0107EDD152EA90
:10058000030012D082EA040083EA0501084305D083
:10059000101BAB4106D20122002306E000224FF0DF
:1005A000004302E06FF0010253101AEB06004CEB1F
:1005B000085110EB0A0041EB0B01BDE8F04D00F0D3
:1005C00047B830B50B46014600202022012409E03F
:1005D00021FA02F59D4205D303FA02F5491B04FAFC
:1005E00002F52844151EA2F10102F1DC30BD202ADB
:1005F00004DB203A00FA02F1002070479140C2F17A
:10060000200320FA03F3194390407047202A04DBAB
:10061000203A21FA02F00021704721FA02F3D0407B
:10062000C2F120029140084319467047202A06DB98
:10063000CB17203A41FA02F043EAE07306E041FAB0
:1006400002F3D040C2F1200291400843194670479E
:1006500010B5141E73F1000408DA401C41F10001CA
:1006600092185B411A4301D120F0010010BD2DE921
:10067000F04D92469B4611B1B1FA81F202E0B0FA18
:1006800080F220329046FFF7B2FF04460F4640EA60
:100690000A0041EA0B0153465A46084313D011465B
:1006A00053EA010019D0C8F140025046FFF7AEFFEF
:1006B00005460E46504659464246FFF798FF084306
:1006C00005D0012004E020463946BDE8F08D002029
:1006D000054346EAE0762C4337430A986305E40A6B
:1006E000A0EB08000022FD0A44EA47540A3002D574
:1006F00000200146E9E7010510196941DDE90845D7
:1007000000196941BDE8F04DA2E7C1F30A52C1F3F7
:10071000130140F2FF3341F480119A4202DA0020C3
:100720000146704740F233439A42A2F2334202DC60
:100730005242FFF76BBFFFF75ABF000030B5041EEF
:1007400071F1000404DB4FF00044404264EB01010E
:10075000141E73F1000405DB1C464FF000435242A7
:1007600063EB0403994208BF904230BD064C074D2D
:1007700006E0E06840F0010394E807009847103471
:10078000AC42F6D3FFF704FD2CB700084CB70008C5
:1007900070B58C1810F8015B15F0070301D110F843
:1007A000013B2A1106D110F8012B03E010F8016B70
:1007B00001F8016B5B1EF9D12B0705D40023521EF3
:1007C0000DD401F8013BFAE710F8013BCB1A921C5B
:1007D00003E013F8015B01F8015B521EF9D5A14259
:1007E000D8D3002070BD000038B50446FE2C2DD0B3
:1007F0001748007850B307F015F908B9002038BD44
:100800000421684607F020FE042801D00020F6E706
:100810009DF80000A04201D00020F0E79DF8010003
:10082000022801D00020EAE79DF800009DF80110A1
:1008300008449DF802100844C043C5B29DF8030067
:10084000A84201D00020DAE707F0C8FC0120D6E773
:100850006401002010B5044634B1012C0BD0022CE9
:1008600003D0032C0CD105E000BF09F0F1FA09F028
:10087000C1FA05E000BF09F047FB09F017FB00BF14
:1008800000BF10BD70B504460D46052C0AD02046A9
:1008900009F060F92946204600F0EEF9204603F001
:1008A000B9FB0BE0052C09D1204609F05BF929467C
:1008B000204600F0E1F9204603F0B4FB70BD10B50E
:1008C00000240AE0611CC8B200234FF4FA624FF41E
:1008D000FF7106F031FA601CC4B2042CF2DB322343
:1008E0004FF4FA621146052006F052FA10BD0000DE
:1008F00010B5002010E000210AE04FF0FF32C0EBFD
:100900000013144C04EB430323F811204A1CD1B20A
:100910000F29F2DB411CC8B22828ECDB002008E0DC
:100920004FF0FF31C0EBC0020B4B23F81210411CFB
:10093000C8B26428F4DB002008E04FF0FF31C0EBC0
:10094000C002064B23F81210411C88B2B0F5487F54
:10095000F3DB10BDF40F00207C0A0020A41400205B
:1009600000210EE0002008E0C1EB0112204B03EB58
:10097000420222F81000421CD0B20F28F4DB481CBF
:10098000C1B22829EEDB002014E0C0EBC001194AF7
:1009900022F81100002109E0C0EBC002154B03EB67
:1009A0004202921C22F811104A1CD1B20529F3DB35
:1009B000411CC8B26428E8DB002015E001B2C0EB9E
:1009C000C0020D4B23F81210002109E0C0EBC00259
:1009D000094B03EB4202921C22F811104A1CD1B2BF
:1009E0000529F3DB411C88B2B0F5487FE6DB704790
:1009F000F40F00207C0A0020A4140020014631B12D
:100A000001290ED0022916D0032928D11DE015484E
:100A1000406910B91348806B08B10120704700206D
:100A2000FCE71048806810B90E48406A08B1012000
:100A3000F4E70020F2E70B48806910B90948406BE1
:100A400008B10120EAE70020E8E70648406810B94D
:100A50000448806A08B10120E0E70020DEE70020BA
:100A6000DCE70000F003002000BFFEE770B50024C3
:100A70001FE0E11704EB91718910A4EB810119B912
:100A80004FF47A7000F05EFD07F02EFA00F02AFBBA
:100A9000002509E0084850F82500012802D1074840
:100AA000055503E0681CC5B2102DF3DB00BF601CC8
:100AB000C4B2102CDDDB70BD68040020F0040020FF
:100AC00008B50246002008A31B680093002106E039
:100AD0001DF80130934201D1084602E0491C032968
:100AE000F6DB00BF08BD0000333132007047000064
:100AF0000D48006820F080700B49086008460068C7
:100B000040F0807008600948006820F00100074943
:100B100008600846006840F0010008600020486056
:100B200000BF00BF00BF7047FCED00E0001000E018
:100B300018B5094B1B68094CB3FBF4F303FB00F138
:100B4000074B5A6800BF064B5B689B1A0093009BDB
:100B50008B42F8D318BD00006001002040420F0016
:100B6000001000E010B501460020304B1860002254
:100B70002F4850F821002F4B186021E02C4850F8E6
:100B800021002C4B1B68181A2B4B53F820002B4BC1
:100B9000284C246853F82430244C246800FB03407C
:100BA000224B18602548234B1B6850F8230001286E
:100BB00001D1501CC2B21F480068401C1D4B186078
:100BC0001B4850F82100001D1A4B1B689842D5DCC9
:100BD000012A10DD15480068002804DD16488068E9
:100BE000124B186007E011480068002803DA124829
:100BF00040680E4B1860084601EBD0735B10A1EB08
:100C00004303012B0ED109480068401C18B9D81EB7
:100C1000064B186006E005480068012802D1022052
:100C2000024B18600148006810BD000088000020D9
:100C3000E00400208C00002078000020F003002059
:100C400070B5044600250AE0C4EB0411094A02EB22
:100C5000410131F9150000F027FB681CC5B2C4EB57
:100C60000410044901EB400030F91500401C002835
:100C7000EAD170BDF40F002070B505460C4622463F
:100C80002821284609F083F870BD704710B500226E
:100C900001B909E0012901D10A0205E0022901D1C7
:100CA0000A0201E04FF440720E4B1B6823F44073BC
:100CB0000C4C236023461B681343236023461B68A8
:100CC00023F0F803236023461B68022444EAC0048F
:100CD0002343044C236023461B6843F48033236082
:100CE00010BD0000103C02401C48006800F4007079
:100CF000B0B11A48006820F400701849086000BFBD
:100D00000846006840F4006008600846006820F467
:100D10000060086000BF0846006840F4007008608A
:100D20000E48006800F48060B0B10C48006820F400
:100D300080600A49086000BF0846006840F480509F
:100D400008600846006820F48050086000BF08462C
:100D5000006840F48060086070470000003C02407A
:100D60000A4A126822F44072084B1A601A46126846
:100D700042F004021A601A4612684FF4803343EAC4
:100D800000231A43014B1A6070470000103C0240D8
:100D9000074A126822F44072054B1A601A4612681C
:100DA0001A601A46126842F001021A600170704718
:100DB000103C024010B50D49096821F440710B4CFC
:100DC00021602146096841F440712160214609688B
:100DD00041F001012160026000BF00BF00BFBFF30E
:100DE0006F8F00BF00BF00BF436010BD103C0240CA
:100DF000084A126822F44072064B1A601A461268BA
:100E000042F480721A601A46126842F001021A60B7
:100E100001807047103C0240084A126822F4407278
:100E2000064B1A601A46126842F400721A601A469B
:100E3000126842F001021A6001607047103C0240E3
:100E40002348006800F0100040B12248C06940F01B
:100E500010002049C86110201D4908601C48006826
:100E600000F0200040B11B48C06940F0080019495B
:100E7000C8612020164908601548006800F040004D
:100E800040B11448C06940F004001249C8614020D4
:100E90000F4908600E48006800F0800040B10D481E
:100EA000C06940F002000B49C86180200849086011
:100EB0000748006800F0020040B10648C06940F0F1
:100EC00020000449C8610220014908607047000001
:100ED0000C3C02402C09002070B50446002500207F
:100EE0001449C86100F020FD054609E0601C38B1D6
:100EF00024B100F019FD401BA04201D9032070BDB0
:100F00000D48006800F480300028EFD10A480068DE
:100F100000F0010010B10120074908600648006890
:100F200000F0F20018B1FFF78BFF0120E7E7002087
:100F3000E5E700002C0900200C3C024070B5054696
:100F400000240EE0611CC8B208F004FE611CC8B2A7
:100F50002946FFF791FE611CC8B203F05BF8601CE4
:100F6000C4B2052CEEDB0DB906F0BEFF70BD00006B
:100F700010B50421564800F0BFFC5649086008210E
:100F8000534800F0B9FC534948600121504800F033
:100F9000B3FC504988604FF400714F4800F0ACFC3E
:100FA0004C49C8604FF480714B4800F0A5FC49499A
:100FB00008610221464800F09FFC464948614FF411
:100FC0000041464800F098FC4249886108214348A6
:100FD00000F092FC3F49C86140213D4800F08CFC84
:100FE0003C4908624FF400513C4800F085FC394907
:100FF00048620421394800F07FFC364988620121AB
:10100000364800F079FC3349C8620221334800F0C9
:1010100073FC304908634FF48041304800F06CFCA9
:101020002C49486310212A4800F066FC294988634E
:101030002021274800F060FC2649C863802124480D
:1010400000F05AFC234908644FF48071204800F0F6
:1010500053FC204948644FF480411D4800F04CFC8B
:101060001C4988644FF40041194800F045FC1949B7
:10107000C8644FF48061184800F03EFC15490865CB
:101080004FF40061144800F037FC12494865002015
:101090001349086017E00F481149096850F821000A
:1010A000012805D10B490E4A126841F8220005E0DB
:1010B000002008490A4A126841F8220008480068DE
:1010C000401C07490860064800681028E3DB10BD93
:1010D00000100240F003002000040240000802401B
:1010E0008C00002010B50421564800F005FC56493C
:1010F00008600821534800F0FFFB53494860102165
:10110000504800F0F9FB5049886020214D4800F01C
:10111000F3FB4D49C86040214A4800F0EDFB4A49C5
:1011200008614FF40051494800F0E6FB4649486128
:101130004FF48041454800F0DFFB434988614FF49C
:101140000041424800F0D8FB3F49C8614FF480712C
:101150003F4800F0D1FB3C4908624FF400713C4825
:1011600000F0CAFB384948620121364800F0C4FB50
:10117000354988620221334800F0BEFB3249C8621B
:101180000121324800F0B8FB2F49086302212F48A3
:1011900000F0B2FB2C49486304212C4800F0ACFB62
:1011A000294988630821294800F0A6FB2649C8631D
:1011B0008021244800F0A0FB234908644FF480718B
:1011C000204800F099FB204948644FF480411D48B5
:1011D00000F092FB1C4988644FF40041194800F06C
:1011E0008BFB1949C8644FF48061194800F084FBF7
:1011F000154908654FF40061154800F07DFB124960
:10120000486500201349086017E00F481149096834
:1012100050F82100012805D10B490E4A126841F807
:10122000220005E0002008490A4A126841F822001D
:1012300008480068401C07490860064800681028F4
:10124000E3DB10BD001002406804002000080240EB
:10125000000402408C00002010B500200449086002
:1012600000F038F905F0A6FB00F042F910BD0000CF
:10127000B400002010B50020094908600520094984
:10128000086040F6C41000F05DF9002005490860D0
:1012900005F0B2FB6FF01801002004F003F910BD57
:1012A000B40000202801002070B50446642C07DA41
:1012B000C4EBC400454931F91000401C50B970BD61
:1012C000A4F16400C0EBC000414931F91000401C9A
:1012D00000B9F4E7642C39DA002529E0042D14D094
:1012E000C4EBC403394E06EB43039B1C33F81530A3
:1012F00099B2C4EBC40306EB43039B899AB26B1CFF
:10130000D8B2002305F018FD10E0042D0ED1C4EB77
:10131000C4022E4B03EB4202921C32F915106A1CD8
:10132000D0B232234FF4FA6205F032FD681CC5B228
:10133000052DD3DBC4EBC401244A02EB4101B1F912
:101340000C1001F10A0006F0EFFB3CE0A4F1640090
:1013500004B200252AE0042D15D0C4EBC4031C4EB2
:1013600006EB43039B1C33F8153099B2C4EBC4035E
:10137000164E06EB43039B899AB26B1CD8B200232E
:1013800005F0DAFC10E0042D0ED1C4EBC402104BC2
:1013900003EB4202921C32F915106A1CD0B23223C0
:1013A0004FF4FA6205F0F4FC681CC5B2052DD2DBDF
:1013B000C4EBC401064A02EB4101B1F90C1001F182
:1013C0000A0006F0B1FB00BF79E700007C0A0020AC
:1013D000A414002070B50446642C07DAC4EBC400E2
:1013E0003A4931F91000401C50B970BDA4F16400B5
:1013F000C0EBC000364931F91000401C00B9F4E7D9
:10140000642C2EDA002529E0042D14D0C4EBC4038B
:101410002E4E06EB43039B1C33F8153099B2C4EBF8
:10142000C40306EB43039B899AB26B1CD8B200231A
:1014300005F082FC10E0042D0ED1C4EBC402234B56
:1014400003EB4202921C32F915106A1CD0B232230F
:101450004FF4FA6205F09CFC681CC5B2052DD3DB85
:1014600031E0A4F1640004B200252AE0042D15D077
:10147000C4EBC403164E06EB43039B1C33F8153034
:1014800099B2C4EBC403114E06EB43039B899AB295
:101490006B1CD8B2002305F04FFC10E0042D0ED1D8
:1014A000C4EBC4020A4B03EB4202921C32F9151042
:1014B0006A1CD0B232234FF4FA6205F069FC681C52
:1014C000C5B2052DD2DB00BF8FE700007C0A0020EB
:1014D000A414002000B501200349087002F0EAFDC1
:1014E00001200249087000BD610000206200002058
:1014F00000B50020054908700549086005490860E5
:101500000549086002F096FD00BD00006200002061
:1015100028010020240100202C010020014691F820
:101520003500022803D0802048650120704705203F
:1015300081F835000868006820F001000A68106032
:101540000020F3E770B5044600F0EEF906462546A4
:10155000681C10B104480078054400BF00F0E4F9AD
:10156000801BA842FAD370BD5C0100202DE9F04138
:1015700004460E460127002500BF2548007E0128AD
:1015800002D10220BDE8F08101202149087600BF88
:101590004CF25030FFF7A0FC0746002F31D1401E1F
:1015A0003060206801280FD1207C6168FFF7D8FBEC
:1015B0004CF25030FFF790FC07461648006820F0C8
:1015C0000400144908601AE0A56812E0217C28464E
:1015D000FFF75CFB4CF25030FFF77EFC07460D48EE
:1015E000006820F0FA000B4908600FB1356005E093
:1015F0006D1CD4E902100844A842E7D800BFFFF7E9
:1016000073FB00BF00200249087600BF3846B9E7E7
:101610002C090020103C02400348006840F00040C4
:101620000149086000207047103C02402DE9F0415C
:1016300006460F4614461D464FF0010800BF1F48DE
:10164000007E012802D10220BDE8F08101201B4963
:10165000087600BF4CF25030FFF73EFC8046B8F1F0
:10166000000F23D126B9E1B23846FFF791FB12E013
:10167000012E04D1A1B23846FFF7BAFB0BE0022ECF
:1016800004D121463846FFF7C7FB04E022462B462B
:101690003846FFF78FFB4CF25030FFF71DFC8046B9
:1016A0000748006820F001000549086000BF0020DD
:1016B0000249087600BF4046C6E700002C0900201A
:1016C000103C024000200949096801F0004159B16D
:1016D0000749064A0C3A1160064911600349096836
:1016E00001F0004101B1012070470000103C0240B0
:1016F00023016745AB89EFCDF8B502460B460025BF
:10170000002400200021DCE0012606FA01F51E6815
:1017100006EA0504AC4273D15E68012E08D05E680B
:10172000022E05D05E68112E02D05E68122E13D1F3
:1017300090684F000326BE40B0434F00DE68BE40B5
:1017400030439060506801268E40B0431E79C6F346
:1017500000168E4030435060D0684F000326BE40D4
:10176000B0434F009E68BE403043D0605E68022E9A
:1017700002D05E68122E13D1CF0802F1200656F86F
:1017800027004E07F70E0F26BE40B0434F07FF0E4F
:101790001E69BE403043CF0802F1200646F82700FC
:1017A00010684F000326BE40B0431E7906F00306C2
:1017B0004F00BE40304310605E6806F08056B6F1C0
:1017C000805F7DD100BF00260096404E366846F40B
:1017D00080463E4F3E603E46366806F480460096A0
:1017E00000BF00BF3A4E8F0856F827008E07370F0C
:1017F0000F26BE40B043374EB24202D1002624E04D
:101800005EE0354EB24201D101261EE0334EB242B7
:1018100001D1022619E0324EB24201D1032614E072
:10182000304EB24201D104260FE02F4EB24201D118
:1018300005260AE02D4EB24201D1062605E02C4EC7
:10184000B24201D1072600E008268F073F0FBE40B5
:1018500030431F4E8F0846F82700264E3068A043BD
:101860005E6806F48036B6F5803F00D12043214EF5
:101870003060361D3068A0435E6806F40036B6F569
:10188000003F00D120431B4E361D3060361D3068AE
:10189000A0435E6806F48016B6F5801F00D1204391
:1018A000144E08363060361D3068A0435E6806F47A
:1018B0000016B6F5001F00D120430E4E0C363060E6
:1018C000491C1029FFF420AFF8BD00004438024045
:1018D00008380140000002400004024000080240B5
:1018E000000C0240001002400014024000180240A8
:1018F000001C0240003C0140024613690B400BB142
:10190000012000E00020704742690A408A4202D16B
:101910000A04826100E0816170470AB1816101E0DF
:101920000B048361704700000148006870470000A5
:101930005401002070B504460CB9012070BD94F824
:101940003D0028B9002084F83C00204600F0DAF879
:10195000242084F83D002068006820F00100216800
:1019600008602068006840F4004021680860206832
:10197000006820F400402168086000F0A5FA0546E0
:101980005C496068884206D85B48854201D20120E4
:1019900007E0002005E05948854201D2012000E01F
:1019A0000020012800D1C9E75548B5FBF0F62068B2
:1019B000406820F03F003043216848604D4960682E
:1019C000884201D8701C07E04FF4967070434FF4C2
:1019D0007A71B0FBF1F0401C2168096A21F03F01E7
:1019E00008432168086243496068884214D8681E29
:1019F00061684900B0FBF1F0401CC0F30B00042803
:101A000001D204203DE0681E61684900B0FBF1F09E
:101A1000401CC0F30B0034E0A06838B9681E616850
:101A200001EB4101B0FBF1F0401C0AE0681E616867
:101A300001EBC10202EB0111B0FBF1F0401C40F4DC
:101A40008040C0F30B0008B901201AE0A06848B933
:101A5000681E616801EB4101B0FBF1F0401CC0F36E
:101A60000B000CE0681E616801EBC10202EB011182
:101A7000B0FBF1F0401CC0F30B0040F4804040F498
:101A800000402168C9694CF6FF7291430843216800
:101A9000C861D4E9070108432168096821F0C00141
:101AA000084321680860D4E9031008432168896865
:101AB00048F2FF329143084321688860D4E9050168
:101AC00008432168C96821F0FF0108432168C86004
:101AD0002068006840F00100216808600020206450
:101AE000202084F83D000020206384F83E0000BFE1
:101AF00024E70000A086010080841E0000093D004C
:101B000040420F0010B586B00446142101A8FEF72C
:101B1000A1FB1B49206888422FD100BF0020009004
:101B20001848006840F0020016490860084600683E
:101B300000F00200009000BF00BFC0200190122002
:101B4000029001200390032004900420059001A935
:101B50000D48FFF7D1FD00BF00200090094810306C
:101B6000006840F40010074910310860084600681A
:101B700000F40010009000BF00BF06B010BD0000D0
:101B8000005400403038024000040240034800681E
:101B9000034909780844014908607047540100204E
:101BA0005C01002010B50D48006840F400700B493E
:101BB00008600846006840F48060086008460068D5
:101BC00040F480700860032000F0A2F8002000F0CC
:101BD00007F800F02BF8002010BD0000003C024088
:101BE00070B504460E4800784FF47A71B1FBF0F0FE
:101BF0000C490968B1FBF0F5284600F085FD08B1F5
:101C0000012070BD102C07D200222146501E00F08A
:101C100041F80548046001E00120F2E70020F0E708
:101C20005C010020600100205801002008B500BFC1
:101C3000002000900E48006840F480400C49086085
:101C40000846006800F48040009000BF00BF00BF5D
:101C500000200090081F006840F08050091F0860B5
:101C60000846006800F08050009000BF00BF08BD2B
:101C70004438024001460846002809DB00F01F03F3
:101C800001229A4043099B0003F1E023C3F800219D
:101C900000BF70472DE9F05F80460D4616460027CD
:101CA00005F030F9074639462A46334601F0070069
:101CB000C0F1070ABAF1040F02D94FF0040A01E09B
:101CC000C0F1070AD14600F1040ABAF1070F02D2A7
:101CD0004FF0000A01E0A0F1030AD4464FF0010AD8
:101CE0000AFA09FAAAF1010A0AEA020A0AFA0CFA3D
:101CF0004FF0010B0BFA0CFBABF1010B0BEA030BE2
:101D00004AEA0B042146404605F004F9BDE8F09F7D
:101D100000BF00F00702064B19684FF6FF03194099
:101D2000044B0B4343EA0221014B196000BF70478B
:101D30000CED00E00000FA0570B504460D460CB944
:101D4000012070BD5848006800F00F00A84209D279
:101D500055490D700846006800F00F00A84201D0F8
:101D60000120EEE7207800F0020002281DD1207843
:101D700000F00400042805D14C48006840F4E0500D
:101D80004A490860207800F00800082805D1474833
:101D9000006840F46040454908604448006820F00D
:101DA000F000A168084341490860207800F0010074
:101DB000A8B36068012807D13C4808380068C0F320
:101DC0004040B8B90120BCE76068022802D06068D2
:101DD000032807D1354808380068C0F3406048B987
:101DE0000120AEE7314808380068C0F3400008B968
:101DF0000120A6E72D48006820F003006168084331
:101E00002A490860FFF790FD064609E0FFF78CFDC0
:101E1000801B41F28831884202D9032091E707E014
:101E20002248006800F00C006168B0EB810FEDD132
:101E30001D48006800F00F00A84209D91A490D702A
:101E40000846006800F00F00A84201D0012078E7A2
:101E5000207800F00400042807D11448006820F41A
:101E6000E050E168084311490860207800F008005C
:101E7000082808D10D48006820F46040216940EA34
:101E8000C1000A49086000F03FF808490968C1F339
:101E90000311074A515CC8400649086006480068BB
:101EA000FFF79EFE00204CE7003C0240083802404D
:101EB000AAA2000860010020580100200148006823
:101EC000704700006001002000B5FFF7F7FF0449EC
:101ED0000968C1F38221034A515CC84000BD00007B
:101EE00008380240BAA2000800B5FFF7E7FF04492E
:101EF0000968C1F34231034A515CC84000BD00008B
:101F000008380240BAA200082DE9F0470024002555
:101F10000026A1462548006800F00C0020B10428E6
:101F200005D008283AD105E0DFF8849039E0DFF8E1
:101F3000849036E01D48001F006800F03F041B48F5
:101F4000001F006800F4800078B11A481749091F83
:101F50000968C1F38811A0FB0170014622460023E5
:101F60003846FEF72DF905460EE011480F49091FC6
:101F70000968C1F38811A0FB0170014622460023C5
:101F80003846FEF71DF905460848001F0068C0F3F3
:101F90000140401C4600B5FBF6F902E0DFF8109066
:101FA00000BF00BF4846BDE8F08700000838024087
:101FB0000024F40040787D01F8B504460CB90120F6
:101FC000F8BD207800F00100002874D0F9480068BE
:101FD00000F00C0004280DD0F648006800F00C005A
:101FE000082813D1F348001F006800F48000B0F502
:101FF000800F0BD1EF4808380068C0F3404000283C
:1020000059D06068002856D10120D9E700BF606828
:10201000B0F5803F08D1E7480838006840F48030C8
:10202000E449083908601EE06068B0F5A02F0DD1C2
:10203000E0480838006840F48020DE49083908602C
:102040000846006840F4803008600CE0D948083841
:10205000006820F48030D7490839086008460068D5
:1020600020F48020086000BF606890B1FFF75CFC3E
:10207000054606E0FFF758FC401B642801D9032001
:102080009EE7CC4808380068C0F340400028F1D0F3
:1020900011E0FFF749FC054606E0FFF745FC401B51
:1020A000642801D903208BE7C24808380068C0F3D0
:1020B00040400028F1D1207800F0020002285FD1D2
:1020C000BC48006800F00C0058B1BA48006800F045
:1020D0000C0008281CD1B748001F006800F48000DD
:1020E000B0B9B44808380068C0F3400020B1E068D7
:1020F000012801D0012063E7AE480838006820F0CD
:10210000F800216940EAC100AA490839086037E0AF
:10211000E06800B30120A8490860FFF705FC054608
:1021200006E0FFF701FC401B022801D9032047E726
:10213000A04808380068C0F340000028F1D09D484E
:102140000838006820F0F800216940EAC100994988
:102150000839086014E0002097490860FFF7E4FBA5
:10216000054606E0FFF7E0FB401B022801D90320EB
:1021700026E7904808380068C0F340000028F1D1F5
:10218000207800F0080008282CD16069A8B101204F
:102190008A490860FFF7C8FB054606E0FFF7C4FB65
:1021A000401B022801D903200AE782486C300068EE
:1021B000C0F340000028F1D014E000207F490860FF
:1021C000FFF7B2FB054606E0FFF7AEFB401B022817
:1021D00001D90320F4E677486C300068C0F3400072
:1021E0000028F1D1207800F00400042870D10027E5
:1021F00070483830006800F0805090B900BF00206F
:1022000000906C483830006840F08050694938319F
:1022100008600846006800F08050009000BF00BFD2
:1022200001276748006800F48070B0B9644800680E
:1022300040F4807062490860FFF776FB054606E0CF
:10224000FFF772FB401B022801D90320B8E65C4867
:10225000006800F480700028F2D000BFA068012858
:1022600008D154486830006840F001005149683195
:1022700008601DE0A06805280DD14E486830006850
:1022800040F004004B49683108600846006840F09F
:10229000010008600CE047486830006820F0010049
:1022A0004449683108600846006820F0040008606E
:1022B00000BFA068A8B1FFF737FB054609E0FFF7AC
:1022C00033FB401B41F28831884202D9032077E674
:1022D00026E0384868300068C0F340000028EED09F
:1022E00013E0FFF721FB054608E0FFF71DFB401B4D
:1022F00041F28831884201D9032061E62D486830D7
:102300000068C0F340000028EFD1012F07D1294811
:102310003830006820F0805026493831086000BF0E
:10232000A069002845D02348006800F00C00082868
:102330005DD0A069022845D100201F490866FFF73B
:10234000F3FA054606E0FFF7EFFA401B022801D931
:10235000032035E6174808380068C0F340600028BD
:10236000F1D1D4E907010843616A40EA81110122F1
:10237000A06AC2EB500041EA00412C20005D41EA16
:1023800000600C49091F086001200B490866FFF72F
:10239000CBFA054606E0FFF7C7FA401B022801D931
:1023A00003200DE6034808380068C0F340600028A9
:1023B000F1D03FE00838024000004742800E47421B
:1023C0000070004000201C490866FFF7ADFA054682
:1023D00006E0FFF7A9FA401B022801D90320EFE528
:1023E00016480068C0F340600028F2D122E0A069DE
:1023F000012800D1E4E51148001D066806F48001BB
:10240000E069814214D106F03F01206A81420FD178
:1024100047F6C0703040616A884209D106F4403105
:10242000A06A814204D106F07061E06A814201D065
:102430000120C5E50020C3E5000047420038024006
:1024400010B504460CB9012010BD606A00B900BF88
:102450000021A16294F8510028B9002084F85000AE
:10246000204600F033F8022084F85100206800680C
:1024700020F0400021680860D4E901010843E168C8
:1024800008432169084361690843218B01F4007105
:102490000843E1690843216A0843A16A08432168A7
:1024A00008600421A06901EA1040616A08432168BC
:1024B00048602068C06920F400602168C86100207D
:1024C0006065012084F851000020BDE710B586B09A
:1024D0000446142101A8FDF7BDFE1B49206888426F
:1024E0002FD100BF002000901848006840F48050B1
:1024F000164908600846006800F48050009000BF4C
:1025000000BF00BF0020009010481438006840F061
:1025100001000E49143908600846006800F0010007
:10252000009000BF00BFA020019002200290002078
:102530000390032004900520059001A90448FFF7AB
:10254000DBF806B010BD0000003001404438024006
:10255000000002402DE9F84F0446884616461D4605
:102560004FF0000A00BF94F85000012802D1022069
:10257000BDE8F88F012084F8500000BFFFF7D4F9C0
:102580000746B14694F85100012802D04FF0020AE4
:10259000A7E0B8F1000F00D016B94FF0010AA0E093
:1025A000032084F8510000206065C4F83080A686BE
:1025B000E686A063A087E08760642064A068B0F529
:1025C000004F05D12068006840F480402168086011
:1025D0002068006800F04000402805D020680068AE
:1025E00040F0400021680860E068B0F5006F2FD12E
:1025F000606810B1B9F1010F09D1206B0088216822
:10260000C860206B801C2063E08E401EE0861BE0CB
:102610002068806800F0020002280AD1206B008840
:102620002168C860206B801C2063E08E401EE0861D
:102630000AE0FFF779F9C01BA84201D3681C00B972
:1026400015B94FF0030A4CE0E08E0028E0D12EE0EF
:10265000606810B1B9F1010F09D1206B00782168D1
:102660000873206B401C2063E08E401EE0861BE058
:102670002068806800F0020002280AD1206B0078F0
:1026800021680873206B401C2063E08E401EE086AA
:102690000AE0FFF749F9C01BA84201D3681C00B942
:1026A00015B94FF0030A1CE0E08E0028E0D13A464D
:1026B0002946204603F042F808B120206065A06852
:1026C00050B900BF002000902068C06800902068CA
:1026D0008068009000BF00BF606D08B14FF0010A34
:1026E00000BF012084F8510000BF002084F8500092
:1026F00000BF50463CE7000002480068401C01490A
:10270000086070478001002070B504462546681EA9
:10271000B0F1807F01D301200FE0681E4FF0E0216F
:1027200048610F214FF0FF3004F0F4FB00204FF020
:10273000E021886107200861002070BD10B5FFF717
:10274000DBFF10BD7047704710B50346002200BF85
:1027500093F83C00012801D1022010BD012083F82C
:102760003C0000BF22F0FF00CC6840EA040222F4E3
:1027700040708C6840EA040222F480604C6840EAB1
:10278000040222F400600C6840EA040222F4805043
:102790000C6940EA040222F400504C6940EA040249
:1027A00022F48040CC6940EA04021868426400BF09
:1027B000002083F83C0000BF00BFCEE730B50246E2
:1027C0000B4600BF92F83C00012801D1022030BD29
:1027D000012082F83C0000BF022082F83D00106812
:1027E00044681068816824F0700418680443106815
:1027F0004460184D1068A8421BD01068B0F1804F9B
:1028000017D0154D1068A84213D0144D1068A84277
:102810000FD0134D1068A8420BD0124D1068A8427B
:1028200007D0114D1068A84203D0104D1068A8427F
:1028300005D121F0800158680143106881600120B2
:1028400082F83D0000BF002082F83C0000BF00BFBE
:10285000BDE7000000000140000400400008004007
:10286000000C0040000401400040014000180040FE
:1028700010B504460CB9012010BD94F83D0028B9EC
:10288000002084F83C00204600F00CF8022084F878
:102890003D00211D206803F0C7FB012084F83D00A6
:1028A0000020E9E738B504462D49206888420FD159
:1028B00000BF002000902B48006840F0010029492B
:1028C00008600846006800F00100009000BF46E084
:1028D0002549206888421AD100BF00200090214875
:1028E000001F006840F010001E49091F08600846DC
:1028F000006800F01000009000BF00BF002201211E
:102900003620FFF7C7F93620FFF7B4F927E017495B
:10291000206888420FD100BF002000901148006855
:1029200040F002000F4908600846006800F002000D
:10293000009000BF13E00E49206888420FD100BF0D
:10294000002000900748006840F480300549086086
:102950000846006800F48030009000BF00BF38BD1A
:1029600000000140443802400010004000040140D3
:102970000040014001460868C06840F001000B6853
:10298000D8600868806800F00702062A05D0086849
:10299000006840F001000B681860002070472DE9C6
:1029A000F04104460D4600BF94F83C00012802D1D6
:1029B0000220BDE8F081012084F83C0000BF022025
:1029C00084F83D002068866826F0770626F47F4666
:1029D000206886602868502833D00CDC202850D02E
:1029E00004DC00284BD0102851D149E0302849D0D0
:1029F00040284CD139E060282DD0702807D0B0F5A0
:102A0000805F03D0B0F5005F41D10DE040E0D5E933
:102A100002136A68206803F084FB2068866846F029
:102A200077062068866033E0D5E902136A6820687B
:102A300003F077FB2068806840F48040216888605C
:102A400026E0EA686968206803F05CFC5021206891
:102A500003F072FB1CE0EA686968206803F065FC1B
:102A60006021206803F068FB12E0EA68696820686A
:102A700003F048FC4021206803F05EFB08E000BF43
:102A800000BF00BF2968206803F056FB00E000BFCC
:102A900000BF012084F83D0000BF002084F83C0006
:102AA00000BF00BF85E72DE9F04104460D4614B98B
:102AB0000120BDE8F08194F83D0028B9002084F899
:102AC0003C00204600F046F8022084F83D002068D3
:102AD000806844F20701884321688860211D2068CE
:102AE00003F0A2FA2068D0F8088020688669206880
:102AF000076A286840EA080840F203308643A9695B
:102B0000A86840EA0120064340F60C4086434FF295
:102B1000F0008643E969E86840EA01200643286935
:102B20000001296A40EA0130064327F0220727F016
:102B300088076969686840EA011007432068C0F89F
:102B400008802068866120680762012084F83D00C3
:102B50000020AEE710B586B00446142101A8FDF7A9
:102B600079FB2068B0F1804F4CD100BF002000906D
:102B70007348006840F00100714908600846006829
:102B800000F00100009000BF00BF00BF00200090D7
:102B90006B481038006840F001006949103908603E
:102BA0000846006800F00100009000BF00BF00BFB1
:102BB000002000900846006840F0020008600846C7
:102BC000006800F00200009000BF00BF4FF400401A
:102BD00001900220029000200390049001200590B3
:102BE00001A95848FEF788FD0820019002200290B4
:102BF0000020039004900120059001A95248FEF79F
:102C00007BFD9BE05149206888422FD100BF002006
:102C100000904B48006840F00200494908600846AF
:102C2000006800F00200009000BF00BF00BF00205D
:102C3000009043481038006840F0020040491039C5
:102C400008600846006800F00200009000BF00BF66
:102C50003020019002200290002003900490022076
:102C6000059001A93848FEF747FD67E0384920681C
:102C7000884230D100BF002000903148006840F009
:102C800004002F4908600846006800F00400009026
:102C900000BF00BF00BF0020009029481038006826
:102CA00040F008002649103908600846006800F026
:102CB0000800009000BF00BF4FF440500190022078
:102CC00002900020039004900220059001A9214861
:102CD000FEF712FD32E02049206888422ED100BF65
:102CE000002000901648006840F008001449086071
:102CF0000846006800F00800009000BF00BF00BF59
:102D0000002000900E481038006840F001000C4987
:102D1000103908600846006800F00100009000BF0C
:102D200000BF032001900220029000200390049035
:102D30000220059001A90348FEF7DEFC06B010BD95
:102D400040380240000002400004024000040040FD
:102D500000080040000C0240000C004030B5044662
:102D60000D4615B1042D0CD105E00122002120688B
:102D700003F0C6F910E001220421206803F0C0F935
:102D80000AE001220021206803F0BAF9012204219F
:102D9000206803F0B5F900BF00BF2068006840F06C
:102DA000010021680860002030BD704710B504465E
:102DB00020680069C0F34000D8B12068C068C0F343
:102DC0004000B0B16FF00200216808610120207757
:102DD0002068806900F0030018B12046FFF7E5FF86
:102DE00005E0204600F070F9204600F027FA0020A8
:102DF000207720680069C0F38000D8B12068C068DF
:102E0000C0F38000B0B16FF00400216808610220B7
:102E100020772068806900F4407018B12046FFF7E1
:102E2000C4FF05E0204600F04FF9204600F006FA06
:102E30000020207720680069C0F3C000D8B1206866
:102E4000C068C0F3C000B0B16FF00800216808612D
:102E5000042020772068C06900F0030018B12046E4
:102E6000FFF7A3FF05E0204600F02EF9204600F012
:102E7000E5F90020207720680069C0F30010D8B180
:102E80002068C068C0F30010B0B16FF01000216876
:102E90000861082020772068C06900F4407018B1EC
:102EA0002046FFF782FF05E0204600F00DF920469E
:102EB00000F0C4F9002020772068006900F00100CC
:102EC00058B12068C06800F0010030B16FF0010017
:102ED00021680861204600F0DFF920680069C0F32E
:102EE000C01058B12068C068C0F3C01030B16FF096
:102EF0008000216808612046FFF724FC20680069F3
:102F0000C0F3801058B12068C068C0F3801030B1A1
:102F10006FF0400021680861204600F071FB2068D6
:102F20000069C0F3401058B12068C068C0F3401079
:102F300030B16FF02000216808612046FFF703FCE4
:102F400010BD000010B586B00446142101A8FDF79D
:102F500081F95449206888423BD100BF002000908D
:102F60005148006840F010004F490860084600686A
:102F700000F01000009000BF00BF00BF00200090D4
:102F80000846006840F0010008600846006800F04C
:102F90000100009000BF00BF4FF4285001900220B4
:102FA00002900020039004900120059001A93F4861
:102FB000FEF7A2FB4FF40060019002200290002077
:102FC000039004900120059001A93948FEF794FB75
:102FD00066E03849206888421ED100BF002000907A
:102FE0003148006840F004002F4908600846006836
:102FF00000F00400009000BF00BF4FF4707001901B
:10300000022002900020039004900320059001A963
:103010002948FEF771FB43E02849206888421DD10A
:1030200000BF002000902048006840F001001E49C9
:1030300008600846006800F00100009000BF00BF73
:1030400004200190022002900020039004900320AD
:10305000059001A91648FEF74FFB21E018492068AA
:1030600088421DD100BF002000900F48006840F04A
:1030700002000D4908600846006800F00200009058
:1030800000BF00BF4FF400400190022002900020DA
:10309000039004900920059001A90A48FEF72CFB33
:1030A00006B010BD00000140303802400010024060
:1030B00000000240000401400008024000400140BE
:1030C0000018004000040240704770B504460D46E9
:1030D000164600BF94F83C00012801D1022070BDC3
:1030E000012084F83C0000BF022084F83D0036B186
:1030F000042E1BD0082E31D00C2E5ED145E029467F
:10310000206803F023F82068806940F008002168F7
:1031100088612068806920F0040021688861206847
:103120008069296908432168886147E02946206849
:1031300003F044F82068806940F4006021688861E9
:103140002068806920F48060216888612068806937
:10315000296940EA0120216888612FE0294620681A
:1031600003F06AF82068C06940F008002168C8616F
:103170002068C06920F004002168C8612068C06927
:10318000296908432168C86118E02946206803F0CE
:103190008FF82068C06940F400602168C861206829
:1031A000C06920F480602168C8612068C06929690D
:1031B00040EA01202168C86100E000BF00BF012093
:1031C00084F83D0000BF002084F83C0000BF00BF31
:1031D00085E710B504460CB9012010BD94F83D00F8
:1031E00028B9002084F83C00204600F00DF80220A9
:1031F00084F83D00211D206802F016FF012084F8AC
:103200003D000020E9E7000008B50A4A0168914244
:103210000FD100BF002100910749096841F040012A
:10322000054A11601146096801F04001009100BF94
:1032300000BF08BD00180040403802407047000041
:1032400070B504460E4601223146206802F058FF50
:103250000F492068884203D00E492068884201D176
:10326000012000E0002028B12068406C40F40040BC
:10327000216848642068806800F00705062D05D0A5
:103280002068006840F0010021680860002070BDDF
:10329000000001400004014070B50446B648844275
:1032A0007ED1B648007800287AD0B5480088401C06
:1032B000B3490880B3480088401CB2490880B2482E
:1032C0000088401CB0490880B048007808B104F07C
:1032D000F5FEAF48007808B104F032FEAD48007842
:1032E00068B1AA48007850B9A948007838B9A94807
:1032F000007820B90020A8490860A8494863A84878
:10330000007868B10121A748FEF7FEFA0A20FEF70F
:1033100019F90121A348FEF7F7FA0020A049087027
:10332000A148007868B102219E48FEF7EDFA0A2014
:10333000FEF708F902219B48FEF7E6FA00209A49B9
:10334000087090480088142804D1FDF711FE002071
:103350008C4908808C480088142812D19348007842
:1033600078B193480068FDF775FA92480078012813
:1033700004D18F480068401CFDF76CFA0020824998
:1033800008807F48008814287ED18B480068406AF6
:103390008A4908608A480068406A4860894800E0B5
:1033A000E8E00068406A886087480068406AC86052
:1033B000814800680068C0F30010844908608048B4
:1033C00000680068C0F3001048607E48006800682C
:1033D000C0F3001088607C4800680068C0F30010EB
:1033E000C86000207A49087056E074487849097826
:1033F00050F821007749764A127851F82210401A85
:103400007549734A127841F82200084670490978D4
:1034100050F821004CF2503188420CDD6E486C4966
:10342000097850F82100A0F580306B49684A12787D
:1034300041F8220013E068486549097850F82100F6
:10344000664988420BDA64486149097850F82100DE
:1034500000F5803060495E4A127841F822005E48EB
:103460005B49097850F821105D48594A127850F8A4
:10347000220081420BDD58485549097850F8210057
:103480005749534A127800E05FE041F82200504863
:103490000078401C4E4908704D4800780428A4DB91
:1034A00001F06EFE00204A4908700EE0434848498A
:1034B000097850F821004749454A127841F822001E
:1034C00043480078401C424908704148007804286D
:1034D000ECDB444A1168404A106800F045FC424960
:1034E0000860404A51683C4A506800F079FC3E4907
:1034F00048603C4A9168384A906800F0ADFC3A490F
:103500008860384AD168344AD06800F0E1FC364916
:10351000C8600D46EB682A68A968686802F0A0FCDC
:1035200032480268324801683248006804F0BEFC44
:103530003148007830B128480068304909680844AB
:103540002E49086000200E4908800D480088142884
:1035500002D100200A4908800A480088142802D1B4
:1035600000200849088008480088142802D100205B
:103570000549088070BD00002C0700206A0000206B
:103580006400002066000020680000206B0000201E
:103590006C0000206D000020381800400040014001
:1035A0006E000020000C02406F000020610000202F
:1035B000B4000020620000202C06002050020020F1
:1035C0006C060020AC060020EC06002070020020F3
:1035D000600000206002002080020020B03CFFFF5D
:1035E000A002002090020020500000202C010020AA
:1035F0002801002024010020710000207400002018
:10360000704770472DE9F047044620680568206838
:10361000C668206847694FF00008C14605F00F08EA
:10362000B8F1000F0AD105F0200038B106F02000F3
:1036300020B1204602F0C0FEBDE8F087B8F1000FCF
:1036400072D007F0010018B906F4907000286BD012
:1036500005F0010030B106F4807018B1E06B40F065
:103660000100E06305F0040030B107F0010018B17B
:10367000E06B40F00200E06305F0020030B107F0BB
:10368000010018B1E06B40F00400E06305F00800B1
:1036900048B106F0200010B907F0010018B1E06B46
:1036A00040F00800E063E06B70B305F0200028B143
:1036B00006F0200010B1204602F07EFE206840692E
:1036C000C0F38019E06B00F0080010B9B9F1000FE9
:1036D00023D0204602F050FE2068406900F04000F0
:1036E000402816D12068406920F0400021684861D8
:1036F000606B50B11748616B0865606BFDF70EFF9A
:1037000010B1606B016D88470CE02046FFF779FF30
:1037100008E02046FFF775FF04E02046FFF771FF41
:103720000020E06388E7FFE705F0800030B106F095
:10373000800018B1204603F087F87DE705F04000CF
:1037400030B106F0400018B1204602F025FE73E7C4
:1037500000BF71E76563000810B504460CB901208D
:1037600010BDA06900B100E000BF94F8390028B98D
:10377000002084F83800204600F028F8242084F83F
:1037800039002068C06820F400502168C8602046D5
:1037900002F066FE2068006920F49040216808610C
:1037A0002068406920F02A00216848612068C068CC
:1037B00040F400502168C8600020E063202084F8B5
:1037C000390084F83A000020CAE7000010B586B03E
:1037D0000446142101A8FCF73DFD8B49206888426E
:1037E00055D100BF002000908848006840F4801048
:1037F000864908600846006800F48010009000BF09
:1038000000BF00BF0020009080481038006840F0E2
:1038100004007E49103908600846006800F0040082
:10382000009000BF00BF00BF002000900846006865
:1038300040F0080008600846006800F008000090AA
:1038400000BF00BF88140190022002900120039065
:10385000032004900820059001A96D48FDF74CFF56
:103860000420019002200290012003900320049084
:103870000820059001A96748FDF73EFF00220421BA
:103880003520FEF707FA3520FEF7F4F9B9E0624972
:10389000206888423BD100BF002000905B48001D9B
:1038A000006840F010005949091D0860084600688A
:1038B00000F01000009000BF00BF00BF002000908B
:1038C00052481038006840F0010050491039086033
:1038D0000846006800F00100009000BF00BF4FF4F0
:1038E000C060019002200290002003900320049009
:1038F0000720059001A94948FDF7FEFE0022052199
:103900002520FEF7C7F92520FEF7B4F979E04449F0
:103910002068884238D100BF002000903B480068F2
:1039200040F40030394908600846006800F400306F
:10393000009000BF00BF00BF002000903348103847
:10394000006840F0080031491039086008460068F6
:1039500000F00800009000BF00BF6020019002202E
:10396000029000200390032004900720059001A9F5
:103970002848FDF7C1FE002204212620FEF78AF91F
:103980002620FEF777F93CE026492068884238D1A6
:1039900000BF002000901D48006840F480201B49B3
:1039A00008600846006800F48020009000BF00BF57
:1039B00000BF0020009015481038006840F0080053
:1039C0001249103908600846006800F008000090AD
:1039D00000BF00BF4FF44070019002200290002011
:1039E0000390032004900720059001A90948FDF7E2
:1039F00083FE002203212720FEF74CF92720FEF743
:103A000039F906B010BD00000050004040380240B7
:103A100000080240000C024000100140000002407B
:103A2000004400400048004010B5034693F83A00B7
:103A300020282FD101B10AB9012010BD00BF93F891
:103A40003800012801D10220F7E7012083F838006F
:103A500000BF99629A85DA850020D863222083F816
:103A60003A0000BF002083F8380000BF1868C06823
:103A700040F480701C68E0601868406940F0010004
:103A80001C6860611868C06840F020001C68E06035
:103A90000020D2E70220D0E710B50446154920687F
:103AA000884212D11448007820B11448017814A03B
:103AB00003F004FA11480178124805F0F1F80122E8
:103AC0000E491148FFF7B0FF13E010492068884203
:103AD00002D101F013FE0CE00D492068884202D1AA
:103AE00000F01AF805E00B492068884201D101F086
:103AF00005FE10BD0010014051010020E40100202E
:103B000025630000844000206C0800200044004031
:103B1000004800400050004010B54948006898B97E
:103B2000002048490870484908704848007810B19A
:103B3000012808D103E00B204549087003E00A2062
:103B40004349087000BF00BF3D480068401C3C4925
:103B50000860404801783A480068401E3E4A1154C7
:103B600037480068401E1146085C0A2858D134487E
:103B70000068801E085C0D2852D1002004E0304906
:103B80000978304A1170401C2D4909688842F6DBDB
:103B900000202B4908602B4800782D49097888427D
:103BA0003EDB01202849087000202649087027487C
:103BB000007810B101282BD113E02748407827491D
:103BC00008702548807848702348C078887022485B
:103BD000407948712048807988711F48C079C87140
:103BE00016E000201E4908700DE01B491C480078B3
:103BF000401C095C1B481A4A127881541848007806
:103C0000401C17490870164800780628EDDB00BFF5
:103C100000BF32211048FCF71DFB00200D49087041
:103C2000084800780A490978884207DA0648007887
:103C300020B9012207490C48FFF7F6FE10BD00002D
:103C40001401002021010020D4000020D500002014
:103C5000200100200C0100200C050020D6000020CF
:103C6000220100200D010020EC0800202DE9F8437E
:103C700004460D4616461F464FF0000994F83900D9
:103C800020285DD105B116B90120BDE8F88300BF39
:103C900094F83800012801D10220F6E7012084F8C9
:103CA000380000BF0020E063212084F83900FDF7D0
:103CB0003BFE8146A684E68400BF002084F83800DD
:103CC00000BF2BE0E08C401EE084A068B0F5805F70
:103CD00016D14B46002280212046009702F0E8FDD5
:103CE00008B10320D1E7A846B8F80000C0F30800E7
:103CF00021684860206908B9AD1C0FE06D1C0DE01B
:103D00004B46002280212046009702F0D1FD08B1E9
:103D10000320BAE715F8010B21684860E08C002801
:103D2000D0D14B46002240212046009702F0C0FD32
:103D300008B10320A9E7202084F839000020A4E777
:103D40000220A2E7704700BFFEE70000054B1B788A
:103D50001BB1130A03700A7002E0130A0B700270A1
:103D6000704700006501002010B50246501A174B3D
:103D7000186018460068164B1B68C01A154B1B6864
:103D80005843154B1B68114C246803FB0400134B6C
:103D90001B681844114B18600C4800680C4B1860E5
:103DA0000E48006843F6E363984202DD18460B4B69
:103DB00018600A480068B0F5FA7F03DA4FF4FA7029
:103DC000064B18600548006810BD00002000002068
:103DD0002400002000000020040000202800002013
:103DE00010B50246501A174B186018460068164B5B
:103DF0001B68C01A154B1B685843154B1B68114CA8
:103E0000246803FB0400134B1B681844114B186013
:103E10000C4800680C4B18600E48006843F6E363DA
:103E2000984202DD18460B4B18600A480068B0F54E
:103E3000FA7F03DA4FF4FA70064B18600548006801
:103E400010BD00002C0000203000002008000020E1
:103E50000C0000203400002010B50246501A174B09
:103E6000186018460068164B1B68C01A154B1B6873
:103E70005843154B1B68114C246803FB0400134B7B
:103E80001B681844114B18600C4800680C4B1860F4
:103E90000E48006843F6E363984202DD18460B4B78
:103EA00018600A480068B0F5FA7F03DA4FF4FA7038
:103EB000064B18600548006810BD0000380000205F
:103EC0003C000020100000201400002040000020D2
:103ED00010B50246501A174B186018460068164B6A
:103EE0001B68C01A154B1B685843154B1B68114CB7
:103EF000246803FB0400134B1B681844114B186023
:103F00000C4800680C4B18600E48006843F6E363E9
:103F1000984202DD18460B4B18600A480068B0F55D
:103F2000FA7F03DA4FF4FA70064B18600548006810
:103F300010BD0000440000204800002018000020B0
:103F40001C0000204C00002010B500202A49086009
:103F50000CE02948006880002849274A126841F887
:103F6000220025480068401C234908602248006858
:103F70000428EEDB224802F005FEB0EE080A2048D5
:103F800080ED010A9FED1F0A80ED020AB7EE000ADC
:103F900080ED030A1C4802F0F5FDB0EE080A1A484D
:103FA00080ED010A9FED170A80ED020AB7EE000AC4
:103FB00080ED030A154802F0E5FDB0EE000A134853
:103FC00080ED010A9FED0F0A80ED020AB7EE000AAC
:103FD00080ED030A0E4802F0D5FDB8EE000A0C4849
:103FE00080ED010A9FED070A80ED020ABFEE000A8C
:103FF00080ED030A10BD00008C000020E0040020CA
:10400000400300200000000064030020880300201B
:10401000AC03002010B5044601223021204605F0F3
:10402000B6FE10BD10B5044601223721204605F02A
:10403000AEFE10BDB0EE080A194880ED010A9FEDF2
:10404000190A80ED020AB7EE000A80ED030AB0EE0D
:10405000080A154880ED010A9FED120A80ED020A58
:10406000B7EE000A80ED030AB0EE000A0F4880EDBB
:10407000010A9FED0C0A80ED020AB7EE000A80EDFE
:10408000030AB8EE000A0A4880ED010A9FED050A0E
:1040900080ED020ABFEE000A80ED030A70470000BF
:1040A000400300200000000064030020880300207B
:1040B000AC030020B0EE000A194880ED010A9FED24
:1040C000190A80ED020AB7EE000A80ED030AB7EE86
:1040D000000A154880ED010A9FED120A80ED020AE0
:1040E000B7EE000A80ED030AB7EE000A0F4880ED34
:1040F000010A9FED0C0A80ED020AB7EE000A80ED7E
:10410000030ABFEE000A0A4880ED010A9FED050A86
:1041100080ED020ABFEE000A80ED030A704700003E
:1041200040030020000000006403002088030020FA
:10413000AC03002070B504460D46042C01DB0020C2
:1041400070BD2A460921204600F074F908B9002004
:10415000F6E70120F4E770B505460C461646042D37
:1041600001DB002070BD072C01DD0020FAE7F2B270
:10417000601CC1B2284600F05DF908B90020F1E7E3
:104180000120EFE770B506460C4615460548066067
:104190000548046005480580FCF7AAFC01F068FBAF
:1041A00070BD000084010020880100208C010020E7
:1041B00070B505460C46042D01DB002070BD0F2CA8
:1041C00000DD0F2422460A21284600F033F908B901
:1041D0000020F3E70120F1E70146002005E000227E
:1041E000034B03EBC1031A54401C0828F7DB70474C
:1041F0005B0A00202DE9F04105460E4617463A4677
:1042000031462846FFF7BEFF00241AE0E0B2FFF770
:10421000E3FFE0B2012100F0E5F8E0B2002100F098
:10422000F5F8E0B20021FFF785FFE0B20121FFF7CA
:10423000BFFFE0B2072100F0C1F8E0B2FFF7CCFF0A
:10424000641C042CE2DBBDE8F0810000F0B50546FB
:1042500000203EE0204E365CF607340E1E4E10362F
:10426000365C77101C4E10363754183E365CF60715
:10427000330E194E0836365C7710174E0836375411
:10428000365C2643144F08373E5407F10806365C67
:10429000F607320E104E365C77100F4E3754365CF0
:1042A0001E430D4F3E5407F10806365CF607310EEB
:1042B000A7F10806365C7610083F3E543E46365C51
:1042C00016433E5407F11806365C0E4318373E5429
:1042D000401C0828BEDBF0BD630A0020F0B505468F
:1042E000002041E0224E365CF409214E103E365C3F
:1042F0007606360E1E4F103F3E5407F11806365C08
:10430000F10907F10806365C7606370E184E083EAE
:104310003754365C2643164F083F3E54A7F1080633
:10432000365CF209124E365C7606370E104E375464
:10433000365C0E430E4F3E54A7F10806365CF30977
:1043400007F10806365C7606370E094E08363754F4
:10435000365C1643064F08373E54A7F11806365C04
:104360001E43183F3E54401C0828BBDBF0BD000034
:104370006B0A0020024B03EBC0035A547047000045
:104380005B0A002070B5002411E000250CE00A480B
:1043900000EBC400465DE9B2E0B272B2FFF7DBFEAB
:1043A00008B9002070BD6D1C082DF0DB641C042CC6
:1043B000EBDB0120F6E700005B0A002070B5054644
:1043C0000C46042D01DB002070BD072C00DD072406
:1043D00022460B21284600F02DF808B90020F3E70B
:1043E0000120F1E770B505460C46042D01DB0020E5
:1043F00070BD012C00DD012422460C21284600F06E
:1044000019F808B90020F3E70120F1E770B5054677
:104410000C46042D01DB002070BD012C00DD0124C1
:1044200022460F21284600F005F808B90020F3E7DE
:104430000120F1E72DE9F04104460D461646042C13
:1044400002DB0020BDE8F08101F022FA27460CE0F3
:10445000002001F0A9F908B90020F3E7002001F0DD
:10446000A3F908B90020EDE77F1C032FF0DB2846F5
:1044700001F09AF908B90020E4E7304601F094F918
:1044800008B90020DEE700270CE0002001F08CF9DD
:1044900008B90020D6E7002001F086F908B900200D
:1044A000D0E77F1CA742F0DB01F0E2F90120C9E769
:1044B0002DE9F041054600242E78534F07EBC6073F
:1044C00003CF6E78504F07EBC6070CCF00BF1AE042
:1044D0000F26164016EB060C4CEA4016C4F10607F0
:1044E000DFF828C10CF807604FEA102646EA0160A1
:1044F0004FEA11214FEA122646EA03624FEA1323DC
:1045000004F10106F4B2082CE2DBAE783E4F07EB73
:10451000C60603CE3E46D6E90823002422E01F2724
:1045200002EA07060027B60846EA877646EA4017F9
:10453000C4F1060C354E083606F80C7003261640FA
:10454000B607370EC4F1060C304E103606F80C7064
:10455000060A46EA0160090A160A46EA03621B0ACD
:10456000661CF4B2082CDADBEE78274F07EBC606A0
:1045700003CE00241AE0C4F10607244E1036F65D7F
:104580000F270740FF1946EA0706F7B2C4F1060CE9
:104590001E4E06F1100606F80C704FEA102646EA89
:1045A00001604FEA112104F10106F4B2082CE2DBAC
:1045B0002E79154F07EBC60603CE6E7907EBC606BC
:1045C0000CCE00241CE00F26164016EB060C4CEA1D
:1045D0004016F7B2C4F1060C0C4E06F1180606F8A8
:1045E0000C704FEA102646EA01604FEA11214FEAAB
:1045F000122646EA03624FEA132304F10106F4B2DD
:10460000082CE0DBBDE8F08178A300085B0A0020FD
:1046100000B587B0142102A8FBF71CFE00BF0020E4
:1046200001906C48006840F010006A490860084634
:10463000006800F01000019000BF00BF00BF002024
:1046400001900846006840F00400086008460068D1
:1046500000F00400019000BF00BF00BF00200190E7
:104660000846006840F0800008600846006800F0D6
:104670008000019000BF00BF00BF002001900846ED
:10468000006840F0010008600846006800F0010082
:10469000019000BF00BF00BF0020019008460068E5
:1046A00040F0020008600846006800F00200019037
:1046B00000BF00BF00BF002001900846006840F026
:1046C000080008600846006800F00800019000BF7C
:1046D00000BF002240214048FDF71FF900224FF49F
:1046E000A0513E48FDF719F900224FF440613C48C3
:1046F000FDF713F9002201213A48FDF70EF94CF2BB
:10470000FF10029000200390049002A93348FCF7A8
:10471000F3FF4FF4C070029000200390012004903A
:1047200002A92E48FCF7E8FF4EF20F00029000208D
:104730000390049002A92A48FCF7DEFF4020029073
:104740000120039000200490059002A92248FCF764
:10475000D3FF4FF4A050029001200390002004905A
:10476000059002A91D48FCF7C7FF4FF47060029046
:1047700000200390049002A91B48FCF7BDFF4FF4F2
:10478000406002900120039000200490059002A94F
:104790001348FCF7B1FF0120029003900020049021
:1047A000059002A90F48FCF7A7FF1A2002900020ED
:1047B0000390049002A90B48FCF79EFF8020029012
:1047C000002003900120049002A90648FCF794FF02
:1047D00007B000BD30380240000002400010024027
:1047E00000080240000C02400004024010B50B48D3
:1047F0000B4908600B484860002109488160C1608E
:104800004FF480410161002141618161C161016218
:10481000FDF790F808B1FCF738FA10BD00540040DD
:1048200040050020A086010010B50F480F49086020
:104830004FF4827048604FF400410C4881600021C1
:10484000C160016141614FF4007181612021C1614A
:1048500000210162416281620A21C162FDF7F0FD1F
:1048600008B1FCF712FA10BD003001409405002099
:1048700000B587B01C216846FBF7ECFC12481349D1
:104880000860002048600021104881604FF6FF71E9
:10489000C160002101618161FEF79BFC08B1FCF75A
:1048A000F4F960200090002001900290049004220E
:1048B00069460648FEF709FC08B1FCF7E6F903482B
:1048C000FEF740FB07B000BD00180040EC070020D9
:1048D00000B595B0002011901290139014900F9095
:1048E00010901C2108A8FBF7B5FC20216846FBF7B7
:1048F000B1FC39483949086009204860002137482F
:10490000816044F29F11C1600021016141618161B8
:10491000FDF7AEFF08B1FCF7B8F94FF480501190E5
:1049200011A92E48FEF73BF808B1FCF7AEF92B4869
:10493000FEF74FFC08B1FCF7A8F900200F9010908B
:104940000FA92648FDF73AFF08B1FCF79EF9602051
:104950000890002009900A900B900C900D900E90FA
:10496000002208A91D48FEF7B0FB08B1FCF78DF93D
:10497000042208A91948FEF7A8FB08B1FCF785F93D
:10498000082208A91548FEF7A0FB08B1FCF77DF93D
:104990000C2208A91148FEF798FB08B1FCF775F93D
:1049A0004FF40060009040100190002002900390AE
:1049B0004FF48050049040000590400007906946F5
:1049C0000648FDF7C1FE08B1FCF75FF90348FEF7A2
:1049D000B9FA15B000BD000000000140EC05002050
:1049E00000B58BB0242102A8FBF734FC0020009016
:1049F00001904FF080401749086000204860002176
:104A0000144881604FF6FF71C1600021016181612E
:104A100001200290002003900120049000200590C6
:104A20000690079001200890002009900A9002A9A2
:104A30000848FEF738F808B1FCF727F90020009085
:104A4000019069460348FDF7B9FE08B1FCF71DF96E
:104A50000BB000BD2C06002000B58BB0242102A8AD
:104A6000FBF7F8FB002000900190184818490860F7
:104A7000002048600021164881604FF6FF71C16038
:104A8000002101618161012002900020039001203A
:104A900004900020059006900790012008900020C7
:104AA00009900A9002A90A48FDF7FDFF08B1FCF73A
:104AB000ECF800200090019069460548FDF77EFE65
:104AC00008B1FCF7E2F80BB000BD000000040040A4
:104AD0006C06002000B58BB0242102A8FBF7BAFBBE
:104AE0000020009001901848184908600020486094
:104AF0000021164881604FF6FF71C16000210161FD
:104B00008161012002900020039001200490002088
:104B100005900690079001200890002009900A90C7
:104B200002A90A48FDF7BFFF08B1FCF7AEF8002064
:104B30000090019069460548FDF740FE08B1FCF77A
:104B4000A4F80BB000BD000000080040AC06002037
:104B500000B58BB0242102A8FBF77CFB002000905D
:104B60000190184818490860002048600021164844
:104B700081604FF6FF71C1600021016181610120F8
:104B800002900020039001200490002005900690E0
:104B9000079001200890002009900A9002A90A4875
:104BA000FDF781FF08B1FCF770F80020009001903C
:104BB00069460548FDF702FE08B1FCF766F80BB040
:104BC00000BD0000000C0040EC0600201CB50020D9
:104BD000009001900E480F49086053204860002162
:104BE0000C48816040F2E731C16000218161FDF72E
:104BF0003FFE08B1FCF749F800200090019069469B
:104C00000448FDF7DBFD08B1FCF73FF81CBD0000D0
:104C1000001000402C07002000B595B00020119036
:104C20001290139014900F9010901C2108A8FBF77D
:104C300011FB20216846FBF70DFB39483949086014
:104C40000920486000213748816044F29F11C1600B
:104C50000021016141618161FDF70AFE08B1FCF7A5
:104C600014F84FF48050119011A92E48FDF797FECB
:104C700008B1FCF70AF82B48FEF7ABFA08B1FCF7CD
:104C800004F800200F9010900FA92648FDF796FD1C
:104C900008B1FBF7FAFF60200890002009900A9005
:104CA0000B900C900D900E90002208A91D48FEF765
:104CB0000CFA08B1FBF7E9FF042208A91948FEF72E
:104CC00004FA08B1FBF7E1FF082208A91548FEF72E
:104CD000FCF908B1FBF7D9FF0C2208A91148FEF72F
:104CE000F4F908B1FBF7D1FF4FF4006000904010D9
:104CF00001900020029003904FF4805004904000F7
:104D000005904000079069460648FDF71DFD08B173
:104D1000FBF7BBFF0348FEF715F915B000BD000017
:104D2000000401406C07002000B58BB00020079004
:104D3000089009900A901C216846FBF78BFA1C48E2
:104D40001C490860A720486000211A48816042F28F
:104D50000F71C160002101618161FDF789FD08B11A
:104D6000FBF793FF4FF48050079007A91148FDF718
:104D700016FE08B1FBF789FF0E48FEF72AFA08B1C4
:104D8000FBF783FF6020009040F2DC500190002090
:104D900002900490002269460648FEF796F908B191
:104DA000FBF773FF0348FEF7CDF80BB000BD000022
:104DB00000400140AC07002010B50B480B490860CB
:104DC0004FF4E1304860002108488160C160016112
:104DD0000C21416100218161C161FEF7BDFC08B178
:104DE000FBF753FF10BD0000005000402C080020CE
:104DF00010B50B480B4908604FF4E13048600021C2
:104E000008488160C16001610C214161002181611C
:104E1000C161FEF7A1FC08B1FBF737FF10BD000030
:104E2000001001406C08002010B50B480B490860C9
:104E30004FF416504860002108488160C16001614C
:104E40000C21416100218161C161FEF785FC08B13F
:104E5000FBF71BFF10BD000000440040AC08002021
:104E600010B50B480B4908604FF4E1304860002151
:104E700008488160C16001610C21416100218161AC
:104E8000C161FEF769FC08B1FBF7FFFE10BD000031
:104E900000480040EC0800202DE9F04101210020ED
:104EA00000F07CF90221012000F078F900241BE0D9
:104EB000A948005D522804D13120A84901EB4401E2
:104EC0004870A548005D472804D13220A34901EB72
:104ED00044014870A048005D422804D133209F4916
:104EE00001EB44014870641C062CE1D300243BE034
:104EF0009A4800EB440040789949095D884203D103
:104F0000964901F814402EE0601C0321B0FBF1F239
:104F100001FB12009249085C904901EB4401497879
:104F2000884209D1601C0321B0FBF1F201FB1200A1
:104F30008A4901F8140016E0A01C0321B0FBF1F22D
:104F400001FB12008649085C844901EB4401497861
:104F5000884208D1A01C0321B0FBF1F201FB120032
:104F60007E4901F81400641C032CC1D3002447E0DF
:104F7000E01C7A4901EB40004178601D784A105CE2
:104F8000814205D1E01CC1B2744A02F8101036E02B
:104F9000601C0321B0FBF1F201FB1200401D7049BF
:104FA000095CE01C6D4A02EB4000407881420BD165
:104FB000601C0321B0FBF1F201FB1200C01CE11CDC
:104FC000664A02F811001AE0A01C0321B0FBF1F2BE
:104FD00001FB1200401D6249095CE01C5F4A02EBC4
:104FE0004000407881420AD1A01C0321B0FBF1F2BD
:104FF00001FB1200C01CE11C584A02F81100641C9D
:10500000032CB5D3002405E0544911F81410554A77
:105010005454641C062CF7D3002507E05148425D28
:10502000294651A001F04AFF681CC5B2062DF5DBE8
:1050300051A001F043FF002489E000251AE003217C
:1050400001FB0451474A515C444A02EB4101487854
:10505000FBF736FD032101FB0451424A515C01EB91
:105060004101491C0844C7B2384601F081FC02F0F6
:105070008BFD6D1C032DE2D30321022000F08EF87E
:105080000026002519E01EB15720FCF70DF900E0BD
:105090000126032101FB0451324A515C2F4A02EBE5
:1050A00041014878FBF70CFD40001330C7B2384689
:1050B00001F05EFC02F068FD6D1C032DE3D30025BA
:1050C00016E05720FCF7F0F8032101FB0451254AB4
:1050D000515C224A02EB41014878FBF7F1FC4000A9
:1050E0001430C7B2384601F043FC02F04DFD6D1C90
:1050F000032DE6D30421032000F050F8002515E02D
:10510000032101FB0451174A515C144A02EB41018F
:105110004878FBF7D5FC04EB440119310844C7B2C9
:10512000384601F025FC02F02FFD6D1C032DE7D35E
:10513000012C07D10521042000F030F85720FCF79E
:10514000B3F803E00221042000F028F8641C022CCC
:10515000FFF473AFBDE8F0810D01002000050020D1
:10516000D6000020CC00002071756575655B256454
:105170005D3D2564090000000A0D000000BFFEE748
:10518000044880684042034988600846C06840423D
:10519000C860704780020020704700002DE9F04190
:1051A00004460D4604EB840005EB4007222F71D026
:1051B00008DC012F0DD00C2F3BD0172F6DD0202FE6
:1051C00036D185E02A2F67D02B2F7DD02D2FF7D118
:1051D00038E10020AB490860AB4908600920AB49C1
:1051E00008606FF00700AA49086040F6B830FCF785
:1051F000A9F90020A4490860A4490860A4490860EE
:10520000FCF768F940F2DC50FCF79CF9FCF770F908
:10521000A048007808B101F0EFFB0021084600F03B
:1052200041F904F009FD5720FCF7D4F8FCF760F9C8
:1052300024E101F0BFFB0D21002000F033F90D2126
:10524000002000F02FF90021084600F02BF9FCF7B0
:1052500041F94FF47A70FCF775F9FCF749F905202C
:105260008A49086001208C49087000BF8B4800689B
:10527000B0F5AE7FFADB00208749087083490860EB
:1052800004F08AFC6FF01301022000F00BF9FCF728
:1052900021F9F3E03AE000E095E00A2002F074FF23
:1052A0004FF44870FCF74EF9FCF722F9002108464C
:1052B00000F0F8F86FF00E01002000F0F3F8FCF7B2
:1052C00009F94FF4487000E04EE0FCF73BF9D5E0F7
:1052D000FCF70EF90021022000F0E4F86FF00E0157
:1052E000022000F0DFF8FCF7F5F84FF44870FCF707
:1052F00029F9FCF7FDF86FF0090002F045FFFCF713
:10530000E9F84FF44870FCF71DF9B7E0FCF7F0F846
:105310000021084600F0C6F86FF00E01002000F0F2
:10532000C1F8FCF7D7F84FF44870FCF70BF9FCF71D
:10533000DFF80A2002F028FFFCF7CCF84FF44870A1
:10534000FCF700F9FCF7D4F80021084600F0AAF8B1
:105350006FF00E01002000F0A5F8FCF7BBF84FF449
:105360004870FCF7EFF889E0FCF7C2F80021022052
:1053700000F098F86FF00E01022000F093F8FCF7AF
:10538000A9F84FF44870FCF7DDF8FCF7B1F86FF0BE
:10539000090002F0F9FEFCF79DF84FF44870FCF7A5
:1053A000D1F8FCF7A5F80021022000F07BF86FF09F
:1053B0000E01022000F076F8FCF78CF84FF44870EC
:1053C000FCF7C0F85AE05720FCF704F8FCF790F817
:1053D0000021022000F066F86FF00E01022000F0BC
:1053E00061F8FCF777F84FF44870FCF7ABF8FCF77E
:1053F0007FF86FF0090002F0C7FEFCF76BF84FF47E
:105400004870FCF79FF8FCF773F8002604E00621CB
:10541000022000F047F8761C032EF8DB6FF00E0137
:10542000022000F03FF8FCF755F84FF4FA70FCF753
:1054300089F8FCF75DF86FF0090002F0A5FEFCF7B3
:1054400049F81BE0FCF754F85720FBF7C3FF002096
:10545000134908700C4908601E200C49086012208E
:105460000B49086040F65430FCF76CF80020064900
:105470000860064908600649086000BF00BFBDE833
:10548000F0810000B40000202C0100202801002041
:1054900024010020D20000207100002074000020B0
:1054A0006100002070B504460D463D4804600120AF
:1054B0003C49087034B1012C09D0022C0CD0032CCB
:1054C00016D10FE005F11E003749086010E005F124
:1054D0000F00364908600BE06FF01D00401B324999
:1054E000086005E06FF00E00401B3049086000BF07
:1054F00000BF04F0010020B94FF4C870FCF722F897
:1055000003E04FF44870FCF71DF800BF2046FBF79E
:1055100075FA0028FAD034B1012C0FD0022C19D022
:10552000032C2FD122E000201D4908601E4908608D
:105530001F480068401C1E49086023E001201849EC
:1055400008600020194908601A480068401E19497F
:10555000086017E002201249086000201249086024
:1055600013480068401E124908600BE003200C49F4
:10557000086000200D4908600E480068401C0D4975
:10558000086000BF00BF0B480268094801680AA014
:1055900001F094FC0020054908600349086070BDD3
:1055A000B400002061000020280100202401002018
:1055B000380100203C0100204920616D20617420E9
:1055C0002825642C2564292E0D0A00007047000050
:1055D00030B513B2C0EB0014024D05EB440424F8BF
:1055E000113030BDF40F00202DE9FF4383B0804619
:1055F0008946174602F004FE0220012306AA494606
:105600000090404604F07AFB04F0B4FA02F00AFA83
:1056100018B9002007B0BDE8F083032102A802F00A
:1056200013FF032801D00020F4E79DF81810384636
:1056300002F00AFF04469DF81800844201D00020C1
:10564000E8E701210DF10B0002F0FEFE012801D078
:105650000020DFE79DF808009DF8091008449DF838
:105660000A100844C5B2002604E0B85D2844C5B25B
:10567000701CC6B2A642F8DBE843C5B29DF80B0029
:10568000A84201D00020C5E72046C3E770B5054613
:105690004FF0FF34681C28B90F4804782402407882
:1056A000044317E000200D490860E8B2382102F0F9
:1056B00007FF0446601C10B9012008490860052D49
:1056C00008D10648006828B904F4004010B124F459
:1056D00000404442204670BD4C0900206801002073
:1056E0000246054B1B781BB110460002084302E03E
:1056F00008460002104370476501002010B50B48B2
:1057000000780B490B4A126888540A490968481CFA
:10571000C11700EB5161C911A0EBC111054A11601D
:10572000012202490448FEF77FF910BD7C010020E8
:10573000DB090020780100202C0800207CB50446FD
:105740000D461646164800681821B0FBF1F01549C1
:10575000B0FBF1F04FF47A71484301906068B0F506
:10576000827F0DD12B46002280212046009600F03A
:105770002BF898B1606D40F02000606503207CBD7F
:1057800000BF019800B908E00198401E0190206810
:105790008068C0F3C0100028F3D100BF0020EEE7FE
:1057A0006001002040420F0001B54FF0FF3301229D
:1057B000694604480068FCF7CDFE08B1002008BD2A
:1057C0000120FCE7840100202DE9F04104460E464B
:1057D00017461D46DDF818803EE0681CD8B3FCF77C
:1057E000A3F8A0EB0800A84200D2A5BB206840683F
:1057F00020F0E000216848606068B0F5827F0DD13C
:10580000A068B0F5004F03D0A068B0F5806F05D157
:105810002068006820F0400021680860A06AB0F5A8
:10582000005F0DD100BF2068006820F4005021689F
:1058300008602068006840F400502168086000BFDC
:10584000012084F8510000BF002084F8500000BF00
:105850000320BDE8F081FFE7206880683040B04257
:1058600001D1012000E00020B842B6D10020F0E7CD
:1058700010B501220448018804480068FCF74DF87F
:105880000120FBF755F910BD8C0100208801002094
:1058900010B500220448018804480068FCF73DF870
:1058A0000120FBF745F910BD8C0100208801002084
:1058B000704700002DE9F04F93B0002600201190B2
:1058C000A74D2822294602A8FAF7ABFCA5A001F0B3
:1058D000F5FA00BF06E002A850F82610A7A001F0D4
:1058E000EDFA761C0A2EF6DBA6A001F0E7FA0020FE
:1058F0000C9001200D900B200E9001200F900220A3
:105900001090FBF7DFFE11A90CA8FBF72FFE8246D3
:10591000FBF782FEBAF1000F04D09BA0119901F0B1
:10592000CDFA02E0A0A001F0C9FA2822294602A877
:10593000FAF777FCA0A001F0C1FA002606E002A861
:1059400050F826108DA001F0B9FA761C0A2EF6DB6D
:105950008CA001F0B3FAFBF7B5FE4FF00009062466
:105960004FF0000B3AE0CBEBCB00994A32F9100034
:10597000C317074629193A460120FBF757FEA01C1A
:1059800084B2002714E0CBEBCB00914A02EB40003D
:10599000801C30F91700C2172919CDE90002024610
:1059A0000120019BFBF742FEA01C84B2781CC7B209
:1059B000052FE8DBCBEBCB00854A02EB4000B0F9CA
:1059C0000C00C317074629193A460120FBF72EFEA3
:1059D000A01C84B20BF1010000F0FF0BCBEBCB005D
:1059E0007B4931F91000401C10B1BBF1640FBADBE8
:1059F00005EB0901224600230120FBF717FE09F100
:105A000002001FFA80F900271BE04FF0000813E0A6
:105A1000C7EB07106F4A02EB400030F91800C317BC
:105A2000834629195A460120FBF700FEA01C84B2C8
:105A300008F1010000F0FF08B8F10F0FE8DB781C57
:105A4000C7B2C7EB0710634931F91000401C08B119
:105A5000282FDADB05EB0901224600230120FBF7A2
:105A6000E5FD824609F102001FFA80F94FF0000BB4
:105A70003AE0CBEBCB00584A32F91000C317074687
:105A800029193A460120FBF7D1FDA01C84B200275A
:105A900014E0CBEBCB00504A02EB4000801C30F905
:105AA0001700C2172919CDE9000202460120019B07
:105AB000FBF7BCFDA01C84B2781CC7B2052FE8DB45
:105AC000CBEBCB00444A02EB4000B0F90C00C3170B
:105AD000074629193A460120FBF7A8FDA01C84B20D
