:020000040800F2
:10000000F04A00209D010008015100088F3C0008C3
:10001000E5500008250B0008516C000800000000A6
:10002000000000000000000000000000355900083A
:100030007D0B00080000000051560008C15F000859
:10004000B7010008B7010008B7010008B7010008B0
:10005000B7010008B7010008B7010008B7010008A0
:10006000B7010008B7010008B7010008B701000890
:10007000B7010008B7010008B7010008B701000880
:10008000B7010008B7010008B7010008B701000870
:10009000B7010008B7010008B7010008B701000860
:1000A000B7010008B7010008B7010008B701000850
:1000B000B7010008B7010008B7010008B701000840
:1000C000B7010008B7010008B7010008B701000830
:1000D000B7010008A1690008B1690008C1690008FA
:1000E000B7010008B7010008B7010008B701000810
:1000F000B7010008B7010008B7010008B701000800
:10010000B7010008B7010008B7010008B7010008EF
:10011000B7010008D96300089D600008B701000816
:10012000B7010008B7010008B7010008B7010008CF
:10013000B7010008B7010008B7010008B7010008BF
:10014000B7010008B7010008B7010008B7010008AF
:10015000B7010008B7010008B7010008B70100089F
:10016000B7010008B7010008B7010008B70100088F
:10017000B7010008B7010008B7010008000000003F
:10018000B7010008B7010008DFF80CD000F0EEFA64
:10019000004800472D7D0008F04A002006488047AF
:1001A00006480047FEE7FEE7FEE7FEE7FEE7FEE75C
:1001B000FEE7FEE7FEE7FEE7816000088901000830
:1001C0002DE9F05F0546002092469B46884606468C
:1001D000814640241BE0284641464746224600F01F
:1001E00015FA53465A46C01A914110D31146184683
:1001F000224600F0FCF92D1A67EB01084F46224613
:100200000120002100F0F3F917EB00094E41201EF8
:10021000A4F10104DFDC484631462A464346BDE8E6
:10022000F09F40EA01039B0703D009E008C9121FB1
:1002300008C0042AFAD203E011F8013B00F8013BA0
:10024000521EF9D27047D2B201E000F8012B491ECC
:10025000FBD270470022F6E710B513460A46044663
:100260001946FFF7F0FF204610BD421C10F8011B95
:100270000029FBD1801A704710B5002200E0521C03
:10028000835C8C5CA34201D1002BF8D1D8B2E1B2DF
:10029000401A10BD30B505460020034600E05B1C47
:1002A000934205D2EC5CC85C201A01D1002CF6D137
:1002B00030BD2DE9FE4F804681EA0300C00F0C4699
:1002C000009021F0004123F00045B8EB0200A94165
:1002D00005D24046214690461C460B46024623F076
:1002E0000040104347D0270DC7F30A00C3F30A515B
:1002F0000290401A019040286BDAC3F3130040F4D7
:10030000801B0098924620B10023D2EB030A63EBD6
:100310000B0B01985946C0F14002504600F067F9B6
:1003200006460D4650465946019A00F07FF910EBFB
:1003300008006141002487EA115284EAE7731A43F6
:1003400040D0009A62B3019A012A4FEA075215DCA5
:10035000001B61EB02014FF0004202EA0752CDE9B7
:100360000042001C41F5801132462B4600F07FF917
:1003700003B0BDE8F08F40462146F9E7001B61EB72
:100380000201001C41F5801300185B412018A2F502
:10039000001747EB030140EAD570B6196D4111E033
:1003A0006D084FEA360645EAC0754FEA0752001B52
:1003B00061EB0201001C41F5801149084FEA300051
:1003C0000019514132462B4603B0BDE8F04F00F012
:1003D0003FB90098012240000023D0EB020263EBFA
:1003E000E073009821464FEAE074B8EB000061EB3F
:1003F0000401E9E783F000435BE781F0004158E73F
:100400002DE9FE4F81EA030404F0004421F000418D
:1004100000944FF0000B23F0004350EA01045ED03B
:1004200052EA03045BD0C3F30A54C1F30A552C44C7
:10043000A4F2F3340194A0FB0254C1F3130141F47C
:100440008011C3F3130343F4801301FB024400FB48
:10045000034E840A970A44EA815447EA8357A4FB6F
:10046000076802958D0A05FB07854FEA932C04FB6C
:100470000C542705029D4FEA065847EA1637B5EB9C
:1004800008056EEB070C870E920E47EA811742EAC9
:100490008312A7FB0201B6EB0B0164EB00042B0DEA
:1004A00043EA0C335E1844EB1C50DA465146E7FB36
:1004B0000201C5F313044FEA0B3343EA14534FEA26
:1004C0000432019C43EA0603A4F10C040294009C4C
:1004D000CDE900B400F0CBF803B0BDE8F08F002008
:1004E0000146F9E72DE9F04D81EA030404F0004BE1
:1004F00021F0004514464FF0000A23F0004150EA75
:10050000050220D054EA01021DD0C5F30A57024665
:10051000C5F31303C1F31300C1F30A5640F4801569
:1005200043F48013A7EB0608101BD64608F2FD38EB
:1005300073EB050002D308F1010801E092185B415A
:10054000B8F1000F03DA00200146BDE8F08D00206D
:100550004FF48011064684460EE0171B73EB050727
:1005600005D3121B63EB050306434CEA010C490853
:100570004FEA300092185B4150EA0107EDD152EA90
:10058000030012D082EA040083EA0501084305D083
:10059000101BAB4106D20122002306E000224FF0DF
:1005A000004302E06FF0010253101AEB06004CEB1F
:1005B000085110EB0A0041EB0B01BDE8F04D00F0D3
:1005C00047B830B50B46014600202022012409E03F
:1005D00021FA02F59D4205D303FA02F5491B04FAFC
:1005E00002F52844151EA2F10102F1DC30BD202ADB
:1005F00004DB203A00FA02F1002070479140C2F17A
:10060000200320FA03F3194390407047202A04DBAB
:10061000203A21FA02F00021704721FA02F3D0407B
:10062000C2F120029140084319467047202A06DB98
:10063000CB17203A41FA02F043EAE07306E041FAB0
:1006400002F3D040C2F1200291400843194670479E
:1006500010B5141E73F1000408DA401C41F10001CA
:1006600092185B411A4301D120F0010010BD2DE921
:10067000F04D92469B4611B1B1FA81F202E0B0FA18
:1006800080F220329046FFF7B2FF04460F4640EA60
:100690000A0041EA0B0153465A46084313D011465B
:1006A00053EA010019D0C8F140025046FFF7AEFFEF
:1006B00005460E46504659464246FFF798FF084306
:1006C00005D0012004E020463946BDE8F08D002029
:1006D000054346EAE0762C4337430A986305E40A6B
:1006E000A0EB08000022FD0A44EA47540A3002D574
:1006F00000200146E9E7010510196941DDE90845D7
:1007000000196941BDE8F04DA2E7C1F30A52C1F3F7
:10071000130140F2FF3341F480119A4202DA0020C3
:100720000146704740F233439A42A2F2334202DC60
:100730005242FFF76BBFFFF75ABF000030B5041EEF
:1007400071F1000404DB4FF00044404264EB01010E
:10075000141E73F1000405DB1C464FF000435242A7
:1007600063EB0403994208BF904230BD064C074D2D
:1007700006E0E06840F0010394E807009847103471
:10078000AC42F6D3FFF704FD28B7000848B70008CD
:1007900070B58C1810F8015B15F0070301D110F843
:1007A000013B2A1106D110F8012B03E010F8016B70
:1007B00001F8016B5B1EF9D12B0705D40023521EF3
:1007C0000DD401F8013BFAE710F8013BCB1A921C5B
:1007D00003E013F8015B01F8015B521EF9D5A14259
:1007E000D8D3002070BD000038B50446FE2C2DD0B3
:1007F0001748007850B307F0D1F908B9002038BD88
:100800000421684607F0CCFE042801D00020F6E75A
:100810009DF80000A04201D00020F0E79DF8010003
:10082000022801D00020EAE79DF800009DF80110A1
:1008300008449DF802100844C043C5B29DF8030067
:10084000A84201D00020DAE707F074FD0120D6E7C6
:100850006001002010B5044634B1012C0BD0022CED
:1008600003D0032C0CD105E000BF09F0EBFA09F02E
:10087000BBFA05E000BF09F041FB09F011FB00BF26
:1008800000BF10BD70B504460D46052C0AD02046A9
:1008900009F00CFA2946204600F036FA204603F00B
:1008A0005DFB0BE0052C09D1204609F007FA29462B
:1008B000204600F029FA204603F058FB70BD10B521
:1008C00000240AE0611CC8B200234FF4FA624FF41E
:1008D000FF7106F0EDFA601CC4B2042CF2DB322387
:1008E0004FF4FA621146052006F00EFB10BD000021
:1008F00010B5002010E000210AE04FF0FF32C0EBFD
:100900000013144C04EB430323F811204A1CD1B20A
:100910000F29F2DB411CC8B22828ECDB002008E0DC
:100920004FF0FF31C0EBC0020B4B23F81210411CFB
:10093000C8B26428F4DB002008E04FF0FF31C0EBC0
:10094000C002064B23F81210411C88B2B0F5487F54
:10095000F3DB10BDF00F0020780A0020A014002067
:1009600000210EE0002008E0C1EB0112204B03EB58
:10097000420222F81000421CD0B20F28F4DB481CBF
:10098000C1B22829EEDB002014E0C0EBC001194AF7
:1009900022F81100002109E0C0EBC002154B03EB67
:1009A0004202921C22F811104A1CD1B20529F3DB35
:1009B000411CC8B26428E8DB002015E001B2C0EB9E
:1009C000C0020D4B23F81210002109E0C0EBC00259
:1009D000094B03EB4202921C22F811104A1CD1B2BF
:1009E0000529F3DB411C88B2B0F5487FE6DB704790
:1009F000F00F0020780A0020A0140020014631B139
:100A000001290ED0022916D0032928D11DE015484E
:100A1000406910B91348806B08B10120704700206D
:100A2000FCE71048806810B90E48406A08B1012000
:100A3000F4E70020F2E70B48806910B90948406BE1
:100A400008B10120EAE70020E8E70648406810B94D
:100A50000448806A08B10120E0E70020DEE70020BA
:100A6000DCE70000EC03002038B5024632B1012A71
:100A70000BD0022A10D0032A1CD114E005208DF8D7
:100A800000000E208DF8010014E009208DF8000010
:100A900002208DF801000DE00D208DF800000620E9
:100AA0008DF8010006E001208DF800000A208DF885
:100AB000010000BF00BF10460B4601EBD374641069
:100AC000A1EB440402EBD0756D10A2EB4505AC42DE
:100AD00017D0CC1CA01AC41700EB9474A410A0EB80
:100AE000840303EBD37464102CB19DF801000C4B0C
:100AF00053F8200038BD9DF80000094B53F8200042
:100B0000F8E79DF80000064B53F8200020B99DF847
:100B1000010053F8200008B10120EBE70020E9E7CD
:100B2000EC03002000BFFEE770B500241FE0E117D2
:100B300004EB91718910A4EB810119B94FF47A701B
:100B400000F0B4FC07F07CFA00F014FB002509E08B
:100B5000084850F82500012802D10748055503E050
:100B6000681CC5B2102DF3DB00BF601CC4B2102C92
:100B7000DDDB70BD64040020EC0400207047000041
:100B80000D48006820F080700B4908600846006836
:100B900040F0807008600948006820F001000749B3
:100BA00008600846006840F00100086000204860C6
:100BB00000BF00BF00BF7047FCED00E0001000E088
:100BC00018B5094B1B68094CB3FBF4F303FB00F1A8
:100BD000074B5A6800BF064B5B689B1A0093009B4B
:100BE0008B42F8D318BD00005C01002040420F008A
:100BF000001000E010B501460020304B18600022C4
:100C00002F4850F821002F4B186021E02C4850F855
:100C100021002C4B1B68181A2B4B53F820002B4B30
:100C2000284C246853F82430244C246800FB0340EB
:100C3000224B18602548234B1B6850F823000128DD
:100C400001D1501CC2B21F480068401C1D4B1860E7
:100C50001B4850F82100001D1A4B1B689842D5DC38
:100C6000012A10DD15480068002804DD1648806858
:100C7000124B186007E011480068002803DA124898
:100C800040680E4B1860084601EBD0735B10A1EB77
:100C90004303012B0ED109480068401C18B9D81E27
:100CA000064B186006E005480068012802D10220C2
:100CB000024B18600148006810BD0000840000204D
:100CC000DC0400208800002074000020EC030020D9
:100CD00070B5044600250AE0C4EB0411094A02EB92
:100CE000410131F9150000F027FB681CC5B2C4EBC7
:100CF0000410044901EB400030F91500401C0028A5
:100D0000EAD170BDF00F002070B505460C462246B2
:100D10002821284609F035F870BD704710B500222B
:100D200001B909E0012901D10A0205E0022901D136
:100D30000A0201E04FF440720E4B1B6823F440732B
:100D40000C4C236023461B681343236023461B6817
:100D500023F0F803236023461B68022444EAC004FE
:100D60002343044C236023461B6843F480332360F1
:100D700010BD0000103C02401C48006800F40070E8
:100D8000B0B11A48006820F400701849086000BF2C
:100D90000846006840F4006008600846006820F4D7
:100DA0000060086000BF0846006840F400700860FA
:100DB0000E48006800F48060B0B10C48006820F470
:100DC00080600A49086000BF0846006840F480500F
:100DD00008600846006820F48050086000BF08469C
:100DE000006840F48060086070470000003C0240EA
:100DF0000A4A126822F44072084B1A601A461268B6
:100E000042F004021A601A4612684FF4803343EA33
:100E100000231A43014B1A6070470000103C024047
:100E2000074A126822F44072054B1A601A4612688B
:100E30001A601A46126842F001021A600170704787
:100E4000103C024010B50D49096821F440710B4C6B
:100E500021602146096841F44071216021460968FA
:100E600041F001012160026000BF00BF00BFBFF37D
:100E70006F8F00BF00BF00BF436010BD103C024039
:100E8000084A126822F44072064B1A601A46126829
:100E900042F480721A601A46126842F001021A6027
:100EA00001807047103C0240084A126822F44072E8
:100EB000064B1A601A46126842F400721A601A460B
:100EC000126842F001021A6001607047103C024053
:100ED0002348006800F0100040B12248C06940F08B
:100EE00010002049C86110201D4908601C48006896
:100EF00000F0200040B11B48C06940F008001949CB
:100F0000C8612020164908601548006800F04000BC
:100F100040B11448C06940F004001249C861402043
:100F20000F4908600E48006800F0800040B10D488D
:100F3000C06940F002000B49C86180200849086080
:100F40000748006800F0020040B10648C06940F060
:100F500020000449C8610220014908607047000070
:100F60000C3C02402809002070B5044600250020F2
:100F70001449C86100F08CFC054609E0601C38B1DA
:100F800024B100F085FC401BA04201D9032070BDB4
:100F90000D48006800F480300028EFD10A4800684E
:100FA00000F0010010B10120074908600648006800
:100FB00000F0F20018B1FFF78BFF0120E7E70020F7
:100FC000E5E70000280900200C3C024070B505460A
:100FD00000240EE0611CC8B208F068FE611CC8B2B3
:100FE0002946FFF791FE611CC8B202F0B7FF601CF2
:100FF000C4B2052CEEDB0DB907F022F870BD00007D
:1010000010B50421564800F02BFC56490860082111
:10101000534800F025FC534948600121504800F036
:101020001FFC504988604FF400714F4800F018FCD5
:101030004C49C8604FF480714B4800F011FC49499D
:1010400008610221464800F00BFC464948614FF414
:101050000041464800F004FC4249886108214348A9
:1010600000F0FEFB3F49C86140213D4800F0F8FB1D
:101070003C4908624FF400513C4800F0F1FB39490B
:1010800048620421394800F0EBFB364988620121AF
:10109000364800F0E5FB3349C8620221334800F0CE
:1010A000DFFB304908634FF48041304800F0D8FB43
:1010B0002C49486310212A4800F0D2FB2949886353
:1010C0002021274800F0CCFB2649C8638021244812
:1010D00000F0C6FB234908644FF48071204800F0FB
:1010E000BFFB204948644FF480411D4800F0B8FB25
:1010F0001C4988644FF40041194800F0B1FB1949BC
:10110000C8644FF48061184800F0AAFB15490865CF
:101110004FF40061144800F0A3FB12494865002019
:101120001349086017E00F481149096850F8210079
:10113000012805D10B490E4A126841F8220005E04A
:10114000002008490A4A126841F82200084800684D
:10115000401C07490860064800681028E3DB10BD02
:1011600000100240EC03002000040240000802408E
:101170008800002010B50421564800F071FB564944
:1011800008600821534800F06BFB53494860102168
:10119000504800F065FB5049886020214D4800F020
:1011A0005FFB4D49C86040214A4800F059FB4A495D
:1011B00008614FF40051494800F052FB464948612C
:1011C0004FF48041454800F04BFB434988614FF4A0
:1011D0000041424800F044FB3F49C8614FF4807130
:1011E0003F4800F03DFB3C4908624FF400713C4829
:1011F00000F036FB384948620121364800F030FBE8
:10120000354988620221334800F02AFB3249C8621E
:101210000121324800F024FB2F49086302212F48A6
:1012200000F01EFB2C49486304212C4800F018FBF9
:10123000294988630821294800F012FB2649C86320
:101240008021244800F00CFB234908644FF480718E
:10125000204800F005FB204948644FF480411D48B8
:1012600000F0FEFA1C4988644FF40041194800F070
:10127000F7FA1949C8644FF48061194800F0F0FA90
:10128000154908654FF40061154800F0E9FA124964
:10129000486500201349086017E00F4811490968A4
:1012A00050F82100012805D10B490E4A126841F877
:1012B000220005E0002008490A4A126841F822008D
:1012C00008480068401C0749086006480068102864
:1012D000E3DB10BD0010024064040020000802405F
:1012E000000402408800002010B500200449086076
:1012F00000F0B4F805F088FB00F0BAF810BD00006B
:10130000B000002010B500200949086005200949F7
:10131000086040F6C41000F0C9F8002005490860D4
:1013200005F0E0FB6FF01801002004F05BF810BD41
:10133000B00000202401002070B50446642C07DAB8
:10134000C4EBC400434931F91000401C50B970BDD2
:10135000A4F16400C0EBC0003F4931F91000401C0B
:1013600000B9F4E7642C37DA002529E0042D14D005
:10137000C4EBC403374E06EB43039B1C33F8153014
:1013800099B2C4EBC40306EB43039B899AB26B1C6E
:10139000D8B2002305F08CFD10E0042D0ED1C4EB73
:1013A000C4022C4B03EB4202921C32F915106A1C4A
:1013B000D0B232234FF4FA6205F0A6FD681CC5B224
:1013C000052DD3DBC4EBC401224A02EB4101B1F984
:1013D0000C0006F065FC3AE0A4F1640004B20025BC
:1013E0002AE0042D15D0C4EBC4031B4E06EB4303C7
:1013F0009B1C33F8153099B2C4EBC403154E06EBB1
:1014000043039B899AB26B1CD8B2002305F050FDB0
:1014100010E0042D0ED1C4EBC4020F4B03EB4202CB
:10142000921C32F915106A1CD0B232234FF4FA62C2
:1014300005F06AFD681CC5B2052DD2DBC4EBC40102
:10144000054A02EB4101B1F90C0006F029FC00BF8E
:101450007DE70000780A0020A014002000B502F00B
:10146000CDFD01200149087000BD00006200002090
:1014700000B500200249087002F080FD00BD0000A8
:1014800062000020014691F83500022803D0802038
:10149000486501207047052081F83500086800681C
:1014A00020F001000A6810600020F3E770B50446E0
:1014B00000F0EEF906462546681C10B10448007895
:1014C000054400BF00F0E4F9801BA842FAD370BDC8
:1014D000580100202DE9F04104460E460127002561
:1014E00000BF2548007E012802D10220BDE8F0811E
:1014F00001202149087600BF4CF25030FFF734FD3F
:101500000746002F31D1401E3060206801280FD1DE
:10151000207C6168FFF76CFC4CF25030FFF724FD33
:1015200007461648006820F00400144908601AE0D5
:10153000A56812E0217C2846FFF7F0FB4CF2503002
:10154000FFF712FD07460D48006820F0FA000B492E
:1015500008600FB1356005E06D1CD4E90210084445
:10156000A842E7D800BFFFF707FC00BF00200249F0
:10157000087600BF3846B9E728090020103C024031
:101580000348006840F000400149086000207047AF
:10159000103C02402DE9F04106460F4614461D4618
:1015A0004FF0010800BF1F48007E012802D1022031
:1015B000BDE8F08101201B49087600BF4CF2503095
:1015C000FFF7D2FC8046B8F1000F23D126B9E1B273
:1015D0003846FFF725FC12E0012E04D1A1B23846AF
:1015E000FFF74EFC0BE0022E04D121463846FFF7F0
:1015F0005BFC04E022462B463846FFF723FC4CF206
:101600005030FFF7B1FC80460748006820F0010029
:101610000549086000BF00200249087600BF404627
:10162000C6E7000028090020103C024000200949BC
:10163000096801F0004159B10749064A0C3A1160A6
:10164000064911600349096801F0004101B1012018
:1016500070470000103C024023016745AB89EFCD85
:10166000F8B502460B460025002400200021DCE0EE
:10167000012606FA01F51E6806EA0504AC4273D19C
:101680005E68012E08D05E68022E05D05E68112EBD
:1016900002D05E68122E13D190684F000326BE4020
:1016A000B0434F00DE68BE40304390605068012672
:1016B0008E40B0431E79C6F300168E403043506012
:1016C000D0684F000326BE40B0434F009E68BE4026
:1016D0003043D0605E68022E02D05E68122E13D1B5
:1016E000CF0802F1200656F827004E07F70E0F2606
:1016F000BE40B0434F07FF0E1E69BE403043CF08C7
:1017000002F1200646F8270010684F000326BE406D
:10171000B0431E7906F003064F00BE403043106010
:101720005E6806F08056B6F1805F7DD100BF00266E
:101730000096404E366846F480463E4F3E603E4638
:10174000366806F48046009600BF00BF3A4E8F0808
:1017500056F827008E07370F0F26BE40B043374E8E
:10176000B24202D1002624E05EE0354EB24201D101
:1017700001261EE0334EB24201D1022619E0324E5C
:10178000B24201D1032614E0304EB24201D1042608
:101790000FE02F4EB24201D105260AE02D4EB24293
:1017A00001D1062605E02C4EB24201D1072600E009
:1017B00008268F073F0FBE4030431F4E8F0846F864
:1017C0002700264E3068A0435E6806F48036B6F5E2
:1017D000803F00D12043214E3060361D3068A04349
:1017E0005E6806F40036B6F5003F00D120431B4E7C
:1017F000361D3060361D3068A0435E6806F48016E2
:10180000B6F5801F00D12043144E08363060361DD7
:101810003068A0435E6806F40016B6F5001F00D1DC
:1018200020430E4E0C363060491C1029FFF420AFC7
:10183000F8BD000044380240083801400000024072
:101840000004024000080240000C02400010024068
:101850000014024000180240001C0240003C0140FD
:10186000024613690B400BB1012000E000207047D5
:1018700042690A408A4202D10A04826100E0816121
:1018800070470AB1816101E00B0483617047000079
:1018900001480068704700005001002070B5044600
:1018A0000CB9012070BD94F83D0028B9002084F8DF
:1018B0003C00204600F0DAF8242084F83D0020683F
:1018C000006820F00100216808602068006840F48A
:1018D0000040216808602068006820F4004021680A
:1018E000086000F0A5FA05465C496068884206D8A1
:1018F0005B48854201D2012007E0002005E05948FD
:10190000854201D2012000E00020012800D1C9E772
:101910005548B5FBF0F62068406820F03F003043A2
:10192000216848604D496068884201D8701C07E012
:101930004FF4967070434FF47A71B0FBF1F0401C95
:101940002168096A21F03F01084321680862434980
:101950006068884214D8681E61684900B0FBF1F0E5
:10196000401CC0F30B00042801D204203DE0681E97
:1019700061684900B0FBF1F0401CC0F30B0034E09B
:10198000A06838B9681E616801EB4101B0FBF1F055
:10199000401C0AE0681E616801EBC10202EB011104
:1019A000B0FBF1F0401C40F48040C0F30B0008B9DC
:1019B00001201AE0A06848B9681E616801EB410186
:1019C000B0FBF1F0401CC0F30B000CE0681E616836
:1019D00001EBC10202EB0111B0FBF1F0401CC0F3BE
:1019E0000B0040F4804040F400402168C9694CF687
:1019F000FF72914308432168C861D4E90701084395
:101A00002168096821F0C001084321680860D4E911
:101A1000031008432168896848F2FF329143084364
:101A200021688860D4E9050108432168C96821F06C
:101A3000FF0108432168C8602068006840F0010089
:101A40002168086000202064202084F83D000020E8
:101A5000206384F83E0000BF24E70000A086010058
:101A600080841E0000093D0040420F0010B586B082
:101A70000446142101A8FEF7EDFB1B4920688842AB
:101A80002FD100BF002000901848006840F00200ED
:101A9000164908600846006800F00200009000BF88
:101AA00000BFC0200190122002900120039003206B
:101AB00004900420059001A90D48FFF7D1FD00BF57
:101AC0000020009009481030006840F400100749D9
:101AD000103108600846006800F40010009000BF54
:101AE00000BF06B010BD0000005400403038024076
:101AF000000402400348006803490978084401498A
:101B000008607047500100205801002010B50D48B2
:101B1000006840F400700B4908600846006840F413
:101B2000806008600846006840F480700860032008
:101B300000F0A2F8002000F007F800F02BF80020D9
:101B400010BD0000003C024070B504460E4800780D
:101B50004FF47A71B1FBF0F00C490968B1FBF0F574
:101B6000284600F085FD08B1012070BD102C07D279
:101B700000222146501E00F041F80548046001E0B3
:101B80000120F2E70020F0E7580100205C0100206E
:101B90005401002008B500BF002000900E480068E6
:101BA00040F480400C4908600846006800F480401A
:101BB000009000BF00BF00BF00200090081F006819
:101BC00040F08050091F08600846006800F080500F
:101BD000009000BF00BF08BD4438024001460846DF
:101BE000002809DB00F01F0301229A4043099B00F3
:101BF00003F1E023C3F8002100BF70472DE9F05F37
:101C000080460D461646002705F038FA0746394645
:101C10002A46334601F00700C0F1070ABAF1040F63
:101C200002D94FF0040A01E0C0F1070AD14600F1E1
:101C3000040ABAF1070F02D24FF0000A01E0A0F146
:101C4000030AD4464FF0010A0AFA09FAAAF1010A76
:101C50000AEA020A0AFA0CFA4FF0010B0BFA0CFB23
:101C6000ABF1010B0BEA030B4AEA0B042146404699
:101C700005F00CFABDE8F09F00BF00F00702064B2C
:101C800019684FF6FF031940044B0B4343EA022146
:101C9000014B196000BF70470CED00E00000FA0531
:101CA00070B504460D460CB9012070BD5848006857
:101CB00000F00F00A84209D255490D70084600688F
:101CC00000F00F00A84201D00120EEE7207800F0DC
:101CD000020002281DD1207800F00400042805D15C
:101CE0004C48006840F4E0504A490860207800F011
:101CF0000800082805D14748006840F4604045497D
:101D000008604448006820F0F000A1680843414999
:101D10000860207800F00100A8B36068012807D1AE
:101D20003C4808380068C0F34040B8B90120BCE71F
:101D30006068022802D06068032807D13548083857
:101D40000068C0F3406048B90120AEE73148083868
:101D50000068C0F3400008B90120A6E72D480068DC
:101D600020F00300616808432A490860FFF790FDEE
:101D7000064609E0FFF78CFD801B41F2883188425E
:101D800002D9032091E707E02248006800F00C0028
:101D90006168B0EB810FEDD11D48006800F00F00C5
:101DA000A84209D91A490D700846006800F00F00D2
:101DB000A84201D0012078E7207800F00400042830
:101DC00007D11448006820F4E050E1680843114945
:101DD0000860207800F00800082808D10D48006845
:101DE00020F46040216940EAC1000A49086000F01F
:101DF0003FF808490968C1F30311074A515CC8401C
:101E00000649086006480068FFF79EFE00204CE780
:101E1000003C024008380240B4A200085C010020E7
:101E20005401002001480068704700005C01002058
:101E300000B5FFF7F7FF04490968C1F38221034A9F
:101E4000515CC84000BD000008380240C4A2000830
:101E500000B5FFF7E7FF04490968C1F34231034ABF
:101E6000515CC84000BD000008380240C4A2000810
:101E70002DE9F047002400250026A14625480068EA
:101E800000F00C0020B1042805D008283AD105E064
:101E9000DFF8849039E0DFF8849036E01D48001FB9
:101EA000006800F03F041B48001F006800F4800039
:101EB00078B11A481749091F0968C1F38811A0FBB6
:101EC00001700146224600233846FEF779F905469F
:101ED0000EE011480F49091F0968C1F38811A0FBE2
:101EE00001700146224600233846FEF769F905468F
:101EF0000848001F0068C0F30140401C4600B5FBC5
:101F0000F6F902E0DFF8109000BF00BF4846BDE8D8
:101F1000F0870000083802400024F40040787D017A
:101F2000F8B504460CB90120F8BD207800F0010096
:101F3000002874D0F948006800F00C0004280DD087
:101F4000F648006800F00C00082813D1F348001F81
:101F5000006800F48000B0F5800F0BD1EF4808381E
:101F60000068C0F34040002859D06068002856D16E
:101F70000120D9E700BF6068B0F5803F08D1E7488D
:101F80000838006840F48030E449083908601EE0F1
:101F90006068B0F5A02F0DD1E0480838006840F423
:101FA0008020DE49083908600846006840F4803027
:101FB00008600CE0D9480838006820F48030D74920
:101FC000083908600846006820F48020086000BFD7
:101FD000606890B1FFF75CFC054606E0FFF758FC2F
:101FE000401B642801D903209EE7CC4808380068CC
:101FF000C0F340400028F1D011E0FFF749FC05464E
:1020000006E0FFF745FC401B642801D903208BE75D
:10201000C24808380068C0F340400028F1D1207859
:1020200000F0020002285FD1BC48006800F00C00FC
:1020300058B1BA48006800F00C0008281CD1B74815
:10204000001F006800F48000B0B9B4480838006888
:10205000C0F3400020B1E068012801D0012063E70F
:10206000AE480838006820F0F800216940EAC10055
:10207000AA490839086037E0E06800B30120A849A0
:102080000860FFF705FC054606E0FFF701FC401B72
:10209000022801D9032047E7A04808380068C0F3A8
:1020A00040000028F1D09D480838006820F0F80072
:1020B000216940EAC10099490839086014E000200C
:1020C00097490860FFF7E4FB054606E0FFF7E0FBF1
:1020D000401B022801D9032026E7904808380068F1
:1020E000C0F340000028F1D1207800F00800082853
:1020F0002CD16069A8B101208A490860FFF7C8FBAC
:10210000054606E0FFF7C4FB401B022801D9032067
:102110000AE782486C300068C0F340000028F1D024
:1021200014E000207F490860FFF7B2FB054606E097
:10213000FFF7AEFB401B022801D90320F4E67748E5
:102140006C300068C0F340000028F1D1207800F026
:102150000400042870D1002770483830006800F06F
:10216000805090B900BF002000906C483830006863
:1021700040F080506949383108600846006800F036
:102180008050009000BF00BF01276748006800F43E
:102190008070B0B96448006840F48070624908609B
:1021A000FFF776FB054606E0FFF772FB401B0228AF
:1021B00001D90320B8E65C48006800F4807000286C
:1021C000F2D000BFA068012808D1544868300068E8
:1021D00040F001005149683108601DE0A068052801
:1021E0000DD14E486830006840F004004B4968311A
:1021F00008600846006840F0010008600CE04748AD
:102200006830006820F001004449683108600846E1
:10221000006820F00400086000BFA068A8B1FFF7C4
:1022200037FB054609E0FFF733FB401B41F28831DD
:10223000884202D9032077E626E0384868300068F3
:10224000C0F340000028EED013E0FFF721FB054665
:1022500008E0FFF71DFB401B41F28831884201D99D
:10226000032061E62D4868300068C0F34000002874
:10227000EFD1012F07D129483830006820F0805075
:1022800026493831086000BFA069002845D023489E
:10229000006800F00C0008285DD0A069022845D134
:1022A00000201F490866FFF7F3FA054606E0FFF72E
:1022B000EFFA401B022801D9032035E617480838F9
:1022C0000068C0F340600028F1D1D4E90701084359
:1022D000616A40EA81110122A06AC2EB500041EA22
:1022E00000412C20005D41EA00600C49091F086094
:1022F00001200B490866FFF7CBFA054606E0FFF719
:10230000C7FA401B022801D903200DE6034808380C
:102310000068C0F340600028F1D03FE00838024078
:1023200000004742800E47420070004000201C49D8
:102330000866FFF7ADFA054606E0FFF7A9FA401B6D
:10234000022801D90320EFE516480068C0F3406079
:102350000028F2D122E0A069012800D1E4E511486B
:10236000001D066806F48001E069814214D106F080
:102370003F01206A81420FD147F6C0703040616A48
:10238000884209D106F44031A06A814204D106F0A6
:102390007061E06A814201D00120C5E50020C3E5FB
:1023A000000047420038024010B504460CB9012035
:1023B00010BD606A00B900BF0021A16294F851000D
:1023C00028B9002084F85000204600F033F802209D
:1023D00084F851002068006820F0400021680860FF
:1023E000D4E901010843E1680843216908436169B0
:1023F0000843218B01F400710843E1690843216A15
:102400000843A16A0843216808600421A06901EA21
:102410001040616A0843216848602068C06920F460
:1024200000602168C86100206065012084F85100C7
:102430000020BDE710B586B00446142101A8FDF7C1
:1024400009FF1B49206888422FD100BF002000905F
:102450001848006840F48050164908600846006833
:1024600000F48050009000BF00BF00BF002000902B
:1024700010481438006840F001000E491439086013
:102480000846006800F00100009000BF00BFA020D7
:102490000190022002900020039003200490052068
:1024A000059001A90448FFF7DBF806B010BD000055
:1024B0000030014044380240000002402DE9F84F4E
:1024C0000446884616461D464FF0000A00BF94F8A1
:1024D0005000012802D10220BDE8F88F012084F8C5
:1024E000500000BFFFF7D4F90746B14694F85100F9
:1024F000012802D04FF0020AA7E0B8F1000F00D087
:1025000016B94FF0010AA0E0032084F85100002022
:102510006065C4F83080A686E686A063A087E08761
:1025200060642064A068B0F5004F05D120680068A1
:1025300040F48040216808602068006800F0400096
:10254000402805D02068006840F0400021680860FD
:10255000E068B0F5006F2FD1606810B1B9F1010FDC
:1025600009D1206B00882168C860206B801C206323
:10257000E08E401EE0861BE02068806800F00200CC
:1025800002280AD1206B00882168C860206B801C5B
:102590002063E08E401EE0860AE0FFF779F9C01B59
:1025A000A84201D3681C00B915B94FF0030A4CE0EA
:1025B000E08E0028E0D12EE0606810B1B9F1010F83
:1025C00009D1206B007821680873206B401C2063C0
:1025D000E08E401EE0861BE02068806800F002006C
:1025E00002280AD1206B007821680873206B401CF8
:1025F0002063E08E401EE0860AE0FFF749F9C01B29
:10260000A84201D3681C00B915B94FF0030A1CE0B9
:10261000E08E0028E0D13A462946204603F0D0F863
:1026200008B120206065A06850B900BF002000906C
:102630002068C068009020688068009000BF00BFDC
:10264000606D08B14FF0010A00BF012084F851000D
:1026500000BF002084F8500000BF50463CE7000057
:1026600002480068401C0149086070477C01002056
:1026700070B504462546681EB0F1807F01D3012065
:102680000FE0681E4FF0E02148610F214FF0FF304E
:1026900004F0FCFC00204FF0E02188610720086175
:1026A000002070BD10B5FFF7DBFF10BD704770470D
:1026B00010B50346002200BF93F83C00012801D169
:1026C000022010BD012083F83C0000BF22F0FF0073
:1026D000CC6840EA040222F440708C6840EA0402AC
:1026E00022F480604C6840EA040222F400600C6826
:1026F00040EA040222F480500C6940EA040222F409
:1027000000504C6940EA040222F48040CC6940EA5F
:1027100004021868426400BF002083F83C0000BF38
:1027200000BFCEE730B502460B4600BF92F83C0032
:10273000012801D1022030BD012082F83C0000BFF9
:10274000022082F83D00106844681068816824F017
:1027500070041868044310684460184D1068A8425B
:102760001BD01068B0F1804F17D0154D1068A842EB
:1027700013D0144D1068A8420FD0134D1068A84212
:102780000BD0124D1068A84207D0114D1068A84216
:1027900003D0104D1068A84205D121F0800158687F
:1027A000014310688160012082F83D0000BF0020D5
:1027B00082F83C0000BF00BFBDE700000000014000
:1027C0000004004000080040000C004000040140EC
:1027D000004001400018004010B504460CB901202B
:1027E00010BD94F83D0028B9002084F83C00204634
:1027F00000F00CF8022084F83D00211D206803F051
:1028000055FC012084F83D000020E9E738B5044676
:102810002D49206888420FD100BF002000902B482E
:10282000006840F00100294908600846006800F08F
:102830000100009000BF46E02549206888421AD177
:1028400000BF002000902148001F006840F01000E9
:102850001E49091F08600846006800F0100000903B
:1028600000BF00BF002201213620FFF7C7F9362044
:10287000FFF7B4F927E01749206888420FD100BF5D
:10288000002000901148006840F002000F490860E5
:102890000846006800F00200009000BF13E00E49F7
:1028A000206888420FD100BF0020009007480068D0
:1028B00040F48030054908600846006800F4803024
:1028C000009000BF00BF38BD000001404438024006
:1028D000001000400004014000400140014608682B
:1028E000C06840F001000B68D8600868806800F09C
:1028F0000702062A05D00868006840F001000B684E
:102900001860002070472DE9F04104460D4600BFD5
:1029100094F83C00012802D10220BDE8F08101209A
:1029200084F83C0000BF022084F83D0020688668DF
:1029300026F0770626F47F462068866028685028AF
:1029400033D00CDC202850D004DC00284BD01028D9
:1029500051D149E0302849D040284CD139E0602895
:102960002DD0702807D0B0F5805F03D0B0F5005FA0
:1029700041D10DE040E0D5E902136A68206803F018
:1029800012FC2068866846F077062068866033E08F
:10299000D5E902136A68206803F005FC20688068A6
:1029A00040F480402168886026E0EA686968206811
:1029B00003F0EAFC5021206803F000FC1CE0EA6808
:1029C0006968206803F0F3FC6021206803F0F6FBDF
:1029D00012E0EA686968206803F0D6FC40212068AC
:1029E00003F0ECFB08E000BF00BF00BF29682068CF
:1029F00003F0E4FB00E000BF00BF012084F83D00CD
:102A000000BF002084F83C0000BF00BF85E72DE92F
:102A1000F04104460D4614B90120BDE8F08194F858
:102A20003D0028B9002084F83C00204600F046F81C
:102A3000022084F83D002068806844F20701884342
:102A400021688860211D206803F030FB2068D0F8E1
:102A50000880206886692068076A286840EA0808B4
:102A600040F203308643A969A86840EA0120064382
:102A700040F60C4086434FF2F0008643E969E8686F
:102A800040EA0120064328690001296A40EA013032
:102A9000064327F0220727F088076969686840EA3B
:102AA000011007432068C0F808802068866120680C
:102AB0000762012084F83D000020AEE710B586B023
:102AC0000446142101A8FDF7C5FB2068B0F1804F32
:102AD0004CD100BF002000907348006840F0010016
:102AE000714908600846006800F00100009000BFCE
:102AF00000BF00BF002000906B481038006840F015
:102B000001006949103908600846006800F00100BA
:102B1000009000BF00BF00BF002000900846006882
:102B200040F0020008600846006800F002000090D3
:102B300000BF00BF4FF4004001900220029000202F
:102B4000039004900120059001A95848FEF788FDE4
:102B500008200190022002900020039004900120A0
:102B6000059001A95248FEF77BFD9BE05149206882
:102B700088422FD100BF002000904B48006840F0F1
:102B80000200494908600846006800F00200009011
:102B900000BF00BF00BF002000904348103800680D
:102BA00040F002004049103908600846006800F013
:102BB0000200009000BF00BF302001900220029070
:102BC0000020039004900220059001A93848FEF7E8
:102BD00047FD67E038492068884230D100BF0020B7
:102BE00000903148006840F004002F490860084612
:102BF000006800F00400009000BF00BF00BF00208C
:102C0000009029481038006840F008002649103923
:102C100008600846006800F00800009000BF00BF90
:102C20004FF4405001900220029000200390049045
:102C30000220059001A92148FEF712FD32E020494B
:102C4000206888422ED100BF0020009016480068FE
:102C500040F00800144908600846006800F00800C9
:102C6000009000BF00BF00BF002000900E48103849
:102C7000006840F001000C491039086008460068FF
:102C800000F00100009000BF00BF0320019002206F
:102C900002900020039004900220059001A90348AF
:102CA000FEF7DEFC06B010BD4038024000000240D6
:102CB000000402400004004000080040000C0240F4
:102CC000000C004030B504460D4615B1042D0CD162
:102CD00005E001220021206803F054FA10E00122EF
:102CE0000421206803F04EFA0AE001220021206846
:102CF00003F048FA01220421206803F043FA00BFE0
:102D000000BF2068006840F00100216808600020D2
:102D100030BD704710B5044620680069C0F340001C
:102D2000D8B12068C068C0F34000B0B16FF00200B5
:102D300021680861012020772068806900F0030085
:102D400018B12046FFF7E5FF05E0204600F070F9D6
:102D5000204600F027FA0020207720680069C0F3A1
:102D60008000D8B12068C068C0F38000B0B16FF0B7
:102D7000040021680861022020772068806900F43F
:102D8000407018B12046FFF7C4FF05E0204600F070
:102D90004FF9204600F006FA0020207720680069ED
:102DA000C0F3C000D8B12068C068C0F3C000B0B1A3
:102DB0006FF0080021680861042020772068C0694E
:102DC00000F0030018B12046FFF7A3FF05E02046FE
:102DD00000F02EF9204600F0E5F900202077206869
:102DE0000069C0F30010D8B12068C068C0F30010BB
:102DF000B0B16FF0100021680861082020772068CA
:102E0000C06900F4407018B12046FFF782FF05E06A
:102E1000204600F00DF9204600F0C4F9002020778C
:102E20002068006900F0010058B12068C06800F017
:102E3000010030B16FF0010021680861204600F008
:102E4000DFF920680069C0F3C01058B12068C0687D
:102E5000C0F3C01030B16FF08000216808612046D7
:102E6000FFF724FC20680069C0F3801058B1206887
:102E7000C068C0F3801030B16FF040002168086175
:102E8000204600F061FB20680069C0F3401058B193
:102E90002068C068C0F3401030B16FF02000216896
:102EA00008612046FFF703FC10BD000010B586B096
:102EB0000446142101A8FDF7CDF954492068884241
:102EC0003BD100BF002000905148006840F0100046
:102ED0004F4908600846006800F01000009000BFED
:102EE00000BF00BF002000900846006840F00100CD
:102EF00008600846006800F00100009000BF00BFB5
:102F00004FF428500190022002900020039004907A
:102F10000120059001A93F48FEF7A2FB4FF4006095
:102F2000019002200290002003900490012005905F
:102F300001A93948FEF794FB66E0384920688842C9
:102F40001ED100BF002000903148006840F004000E
:102F50002F4908600846006800F00400009000BF98
:102F600000BF4FF470700190022002900020039087
:102F700004900320059001A92948FEF771FB43E066
:102F80002849206888421DD100BF002000902048B9
:102F9000006840F001001E4908600846006800F023
:102FA0000100009000BF00BF0420019002200290A9
:102FB0000020039004900320059001A91648FEF715
:102FC0004FFB21E01849206888421DD100BF002036
:102FD00000900F48006840F002000D490860084664
:102FE000006800F00200009000BF00BF4FF40040F6
:102FF0000190022002900020039004900920059087
:1030000001A90A48FEF72CFB06B010BD00000140E4
:10301000303802400010024000000240000401402D
:103020000008024000400140001800400004024037
:10303000704770B504460D46164600BF94F83C0034
:10304000012801D1022070BD012084F83C0000BF9E
:10305000022084F83D0036B1042E1BD0082E31D05A
:103060000C2E5ED145E02946206803F0B1F82068B7
:10307000806940F00800216888612068806920F03C
:1030800004002168886120688069296908432168F3
:10309000886147E02946206803F0D2F820688069FB
:1030A00040F40060216888612068806920F48060B5
:1030B0002168886120688069296940EA01202168C7
:1030C00088612FE02946206803F0F8F82068C0697D
:1030D00040F008002168C8612068C06920F0040041
:1030E0002168C8612068C069296908432168C861EE
:1030F00018E02946206803F01DF92068C06940F4F3
:1031000000602168C8612068C06920F4806021687F
:10311000C8612068C069296940EA01202168C86146
:1031200000E000BF00BF012084F83D0000BF002088
:1031300084F83C0000BF00BF85E710B504460CB919
:10314000012010BD94F83D0028B9002084F83C000F
:10315000204600F00DF8022084F83D00211D206873
:1031600002F0A4FF012084F83D000020E9E7000000
:1031700008B50A4A016891420FD100BF00210091B1
:103180000749096841F04001054A11601146096884
:1031900001F04001009100BF00BF08BD00180040D1
:1031A000403802407047000070B504460E460122C8
:1031B0003146206802F0E6FF0F492068884203D0BC
:1031C0000E492068884201D1012000E0002028B18A
:1031D0002068406C40F400402168486420688068A2
:1031E00000F00705062D05D02068006840F00100BA
:1031F00021680860002070BD00000140000401400B
:1032000070B50446B04884427ED1B04800780028AA
:103210007AD0AF480088401CAD490880AD4800888E
:10322000401CAC490880AC480088401CAA49088072
:10323000AA48007808B104F0EDFFA948007808B169
:1032400004F02AFFA748007868B1A448007850B974
:10325000A348007838B9A348007820B90020A249D3
:103260000860A2494863A248007868B10121A148DA
:10327000FEF7FEFA0A20FEF719F901219D48FEF734
:10328000F7FA00209A4908709B48007868B102213B
:103290009848FEF7EDFA0A20FEF708F90221954852
:1032A000FEF7E6FA0020944908708A48008814283E
:1032B00004D1FDF7A5FE00208649088086480088D5
:1032C000142812D18D48007878B18D480068FDF738
:1032D000C1FA8C480078012804D189480068401C54
:1032E000FDF7B8FA00207C49088079480088142846
:1032F0007DD185480068406A844908608448006838
:10330000406A4860834800E0DDE00068406A886009
:1033100081480068406AC8607B4800680068C0F364
:1033200000107E4908607A4800680068C0F3001009
:103330004860784800680068C0F3001088607648EC
:1033400000680068C0F30010C8600020744908706D
:1033500055E06E487249097850F821007149704A69
:10336000127851F82210411A6F486D4A127840F8CD
:1033700022106B49097850F821004CF250318842F4
:103380000CDD69486649097850F82100A0F58030C5
:103390006549634A127841F8220013E062486049A7
:1033A000097850F82100614988420BDA5E485C498F
:1033B000097850F8210000F580305B49584A1278AE
:1033C00041F8220058485649097850F821005849D8
:1033D000534A127851F8221088420BDD5248504966
:1033E000097850F8210052494D4A127800E055E022
:1033F00041F822004A480078401C49490870484872
:1034000000780428A5DB01F06FFE00204449087015
:103410000EE03E484249097850F821004149404AAF
:10342000127841F822003E480078401C3C49087060
:103430003B4800780428ECDB3E4A11683A4A1068A1
:1034400000F036FC3C4908603A4A5168364A5068F8
:1034500000F06AFC38494860364A9168324A906800
:1034600000F09EFC34498860324AD1682E4AD06808
:1034700000F0D2FC3049C8600D46EB682A68A968A4
:10348000686802F02FFD2D4802682D4801682D481C
:10349000006804F0B7FD00200D4908800C48008842
:1034A000142802D100200A4908800A4800881428FC
:1034B00002D100200749088007480088142802D15B
:1034C00000200549088070BD280700206A00002000
:1034D0006400002066000020680000206B000020CF
:1034E0006C0000206D0000203818004000400140B2
:1034F0006E000020000C02406F00002061000020E0
:10350000B000002062000020280600204C020020AD
:1035100068060020A8060020E80600206C020020B3
:10352000600000205C0200207C020020B03CFFFF15
:103530009C0200208C020020500000202801002066
:103540002401002020010020704770472DE9F0473A
:103550000446206805682068C668206847694FF0FF
:103560000008C14605F00F08B8F1000F0AD105F0B8
:10357000200038B106F0200020B1204602F05EFFA6
:10358000BDE8F087B8F1000F72D007F0010018B95C
:1035900006F4907000286BD005F0010030B106F4FD
:1035A000807018B1E06B40F00100E06305F00400AA
:1035B00030B107F0010018B1E06B40F00200E063A9
:1035C00005F0020030B107F0010018B1E06B40F0E7
:1035D0000400E06305F0080048B106F0200010B9CF
:1035E00007F0010018B1E06B40F00800E063E06B09
:1035F00070B305F0200028B106F0200010B120467D
:1036000002F01CFF20684069C0F38019E06B00F0F5
:10361000080010B9B9F1000F23D0204602F0EEFEE9
:103620002068406900F04000402816D120684069B9
:1036300020F0400021684861606B50B11748616B11
:103640000865606BFDF71EFF10B1606B016D884768
:103650000CE02046FFF779FF08E02046FFF775FFF2
:1036600004E02046FFF771FF0020E06388E7FFE7F2
:1036700005F0800030B106F0800018B1204603F05C
:1036800025F97DE705F0400030B106F0400018B1A3
:10369000204602F0C3FE73E700BF71E7E96300084C
:1036A00010B504460CB9012010BDA06900B100E0BE
:1036B00000BF94F8390028B9002084F8380020466B
:1036C00000F028F8242084F839002068C06820F42D
:1036D00000502168C860204602F004FF206800699D
:1036E00020F49040216808612068406920F02A0099
:1036F000216848612068C06840F400502168C860B3
:103700000020E063202084F8390084F83A0000208B
:10371000CAE7000010B586B00446142101A8FCF7E2
:1037200099FD8B492068884255D100BF0020009048
:103730008848006840F480108649086008460068A0
:1037400000F48010009000BF00BF00BF0020009078
:1037500080481038006840F004007E491039086045
:103760000846006800F00400009000BF00BF00BFE2
:10377000002000900846006840F0080008600846F5
:10378000006800F00800009000BF00BF881401909E
:10379000022002900120039003200490082005904D
:1037A00001A96D48FDF75CFF042001900220029002
:1037B00001200390032004900820059001A9674888
:1037C000FDF74EFF002204213520FEF717FA3520C1
:1037D000FEF704FAB9E06249206888423BD100BF95
:1037E000002000905B48001D006840F0100059491F
:1037F000091D08600846006800F01000009000BF36
:1038000000BF00BF0020009052481038006840F010
:1038100001005049103908600846006800F00100B6
:10382000009000BF00BF4FF4C060019002200290E2
:1038300000200390032004900720059001A9494827
:10384000FDF70EFF002205212520FEF7D7F92520E0
:10385000FEF7C4F979E044492068884238D100BFB6
:10386000002000903B48006840F40030394908606F
:103870000846006800F40030009000BF00BF00BFA1
:103880000020009033481038006840F008003149AB
:10389000103908600846006800F00800009000BF7A
:1038A00000BF6020019002200290002003900320BE
:1038B00004900720059001A92848FDF7D1FE0022B9
:1038C00004212620FEF79AF92620FEF787F93CE02E
:1038D00026492068884238D100BF002000901D484A
:1038E000006840F480201B4908600846006800F426
:1038F0008020009000BF00BF00BF0020009015484E
:103900001038006840F00800124910390860084675
:10391000006800F00800009000BF00BF4FF4407046
:1039200001900220029000200390032004900720C1
:10393000059001A90948FDF793FE002203212720E5
:10394000FEF75CF92720FEF749F906B010BD00002C
:10395000005000404038024000080240000C024085
:1039600000100140000002400044004000480040B8
:1039700010B5034693F83A0020282FD101B10AB9B7
:10398000012010BD00BF93F83800012801D10220AA
:10399000F7E7012083F8380000BF99629A85DA853D
:1039A0000020D863222083F83A0000BF002083F86B
:1039B000380000BF1868C06840F480701C68E06080
:1039C0001868406940F001001C6860611868C068B0
:1039D00040F020001C68E0600020D2E70220D0E721
:1039E00010B5044615492068884212D11448007861
:1039F00020B11448017814A003F01CFB1148017891
:103A0000124805F0F9F901220E491148FFF7B0FFFD
:103A100013E010492068884202D101F0B1FE0CE0A9
:103A20000D492068884202D100F01AF805E00B49E0
:103A30002068884201D101F0A3FE10BD00100140B2
:103A40004D010020E001002025630000804000209F
:103A5000680800200044004000480040005000403A
:103A600010B54948006898B900204849087048498D
:103A700008704848007810B1012808D103E00B20F5
:103A80004549087003E00A204349087000BF00BFA1
:103A90003D480068401C3C490860404801783A486D
:103AA0000068401E3E4A115437480068401E1146C7
:103AB000085C0A2858D134480068801E085C0D282C
:103AC00052D1002004E030490978304A1170401C7E
:103AD0002D4909688842F6DB00202B4908602B48F5
:103AE00000782D49097888423EDB0120284908707A
:103AF0000020264908702748007810B101282BD1F2
:103B000013E0274840782749087025488078487096
:103B10002348C078887022484079487120488079CD
:103B200088711F48C079C87116E000201E490870CE
:103B30000DE01B491C480078401C095C1B481A4AD0
:103B40001278815418480078401C174908701648AC
:103B500000780628EDDB00BF00BF32211048FCF7DB
:103B600079FB00200D490870084800780A49097857
:103B7000884207DA0648007820B9012207490C4834
:103B8000FFF7F6FE10BD0000100100201C01002010
:103B9000D0000020D20000201B01002009010020DD
:103BA00008050020D30000201D0100200A0100208C
:103BB000E80800202DE9F84304460D4616461F4646
:103BC0004FF0000994F8390020285DD105B116B9ED
:103BD0000120BDE8F88300BF94F83800012801D126
:103BE0000220F6E7012084F8380000BF0020E063DF
:103BF000212084F83900FDF74BFE8146A684E68437
:103C000000BF002084F8380000BF2BE0E08C401E8D
:103C1000E084A068B0F5805F16D14B460022802179
:103C20002046009702F086FE08B10320D1E7A8469F
:103C3000B8F80000C0F3080021684860206908B99E
:103C4000AD1C0FE06D1C0DE04B460022802120468C
:103C5000009702F06FFE08B10320BAE715F8010BD8
:103C600021684860E08C0028D0D14B4600224021DA
:103C70002046009702F05EFE08B10320A9E720204D
:103C800084F839000020A4E70220A2E7704700BFB3
:103C9000FEE70000054B1B781BB1130A03700A7086
:103CA00002E0130A0B7002707047000061010020EF
:103CB00010B50246501A174B186018460068164B8C
:103CC0001B68C01A154B1B685843154B1B68114CD9
:103CD000246803FB0400134B1B681844114B186045
:103CE0000C4800680C4B18600E48006843F6E3630C
:103CF000984202DD18460B4B18600A480068B0F580
:103D0000FA7F03DA4FF4FA70064B18600548006832
:103D100010BD000020000020240000200000002032
:103D2000040000202800002010B50246501A174B4E
:103D3000186018460068164B1B68C01A154B1B68A4
:103D40005843154B1B68114C246803FB0400134BAC
:103D50001B681844114B18600C4800680C4B186025
:103D60000E48006843F6E363984202DD18460B4BA9
:103D700018600A480068B0F5FA7F03DA4FF4FA7069
:103D8000064B18600548006810BD00002C0000209C
:103D900030000020080000200C000020340000202B
:103DA00010B50246501A174B186018460068164B9B
:103DB0001B68C01A154B1B685843154B1B68114CE8
:103DC000246803FB0400134B1B681844114B186054
:103DD0000C4800680C4B18600E48006843F6E3631B
:103DE000984202DD18460B4B18600A480068B0F58F
:103DF000FA7F03DA4FF4FA70064B18600548006842
:103E000010BD0000380000203C0000201000002001
:103E1000140000204000002010B50246501A174B35
:103E2000186018460068164B1B68C01A154B1B68B3
:103E30005843154B1B68114C246803FB0400134BBB
:103E40001B681844114B18600C4800680C4B186034
:103E50000E48006843F6E363984202DD18460B4BB8
:103E600018600A480068B0F5FA7F03DA4FF4FA7078
:103E7000064B18600548006810BD00004400002093
:103E800048000020180000201C0000204C000020EA
:103E900010B500202A4908600CE02948006880001D
:103EA0002849274A126841F8220025480068401C2A
:103EB00023490860224800680428EEDB224802F00B
:103EC0001DFFB0EE080A204880ED010A9FED1F0A91
:103ED00080ED020AB7EE000A80ED030A1C4802F0EA
:103EE0000DFFB0EE080A1A4880ED010A9FED170A8F
:103EF00080ED020AB7EE000A80ED030A154802F0D1
:103F0000FDFEB0EE000A134880ED010A9FED0F0A96
:103F100080ED020AB7EE000A80ED030A0E4802F0B7
:103F2000EDFEB8EE000A0C4880ED010A9FED070A8D
:103F300080ED020ABFEE000A80ED030A10BD00000A
:103F400088000020DC0400203C030020000000006A
:103F50006003002084030020A803002010B504465D
:103F600001223021204605F00CFF10BD10B504469B
:103F700001223721204605F004FF10BDB0EE080AEB
:103F8000194880ED010A9FED190A80ED020AB7EE8B
:103F9000000A80ED030AB0EE080A154880ED010A18
:103FA0009FED120A80ED020AB7EE000A80ED030AC7
:103FB000B0EE000A0F4880ED010A9FED0C0A80ED7B
:103FC000020AB7EE000A80ED030AB8EE000A0A48BA
:103FD00080ED010A9FED050A80ED020ABFEE000A9E
:103FE00080ED030A704700003C0300200000000041
:103FF0006003002084030020A8030020B0EE000A24
:10400000194880ED010A9FED190A80ED020AB7EE0A
:10401000000A80ED030AB7EE000A154880ED010A98
:104020009FED120A80ED020AB7EE000A80ED030A46
:10403000B7EE000A0F4880ED010A9FED0C0A80EDF3
:10404000020AB7EE000A80ED030ABFEE000A0A4832
:1040500080ED010A9FED050A80ED020ABFEE000A1D
:1040600080ED030A704700003C03002000000000C0
:104070006003002084030020A803002070B50446DC
:104080000D46042C01DB002070BD2A460921204684
:1040900000F074F908B90020F6E70120F4E770B5E4
:1040A00005460C461646042D01DB002070BD072C8A
:1040B00001DD0020FAE7F2B2601CC1B2284600F030
:1040C0005DF908B90020F1E70120EFE770B5064679
:1040D0000C461546054806600548046005480580FD
:1040E000FCF74EFD01F006FC70BD000080010020D1
:1040F000840100208801002070B505460C46042D7F
:1041000001DB002070BD0F2C00DD0F2422460A21A8
:10411000284600F033F908B90020F3E70120F1E761
:104120000146002005E00022034B03EBC1031A54B3
:10413000401C0828F7DB7047570A00202DE9F041A2
:1041400005460E4617463A4631462846FFF7BEFF5B
:1041500000241AE0E0B2FFF7E3FFE0B2012100F033
:10416000E5F8E0B2002100F0F5F8E0B20021FFF739
:1041700085FFE0B20121FFF7BFFFE0B2072100F0A9
:10418000C1F8E0B2FFF7CCFF641C042CE2DBBDE811
:10419000F0810000F0B5054600203EE0204E365C80
:1041A000F607340E1E4E1036365C77101C4E103655
:1041B0003754183E365CF607330E194E0836365C17
:1041C0007710174E08363754365C2643144F08379D
:1041D0003E5407F10806365CF607320E104E365C88
:1041E00077100F4E3754365C1E430D4F3E5407F187
:1041F0000806365CF607310EA7F10806365C761025
:10420000083F3E543E46365C16433E5407F11806BE
:10421000365C0E4318373E54401C0828BEDBF0BD08
:104220005F0A0020F0B50546002041E0224E365CD2
:10423000F409214E103E365C7606360E1E4F103FB6
:104240003E5407F11806365CF10907F10806365CA2
:104250007606370E184E083E3754365C2643164F06
:10426000083F3E54A7F10806365CF209124E365C50
:104270007606370E104E3754365C0E430E4F3E54C2
:10428000A7F10806365CF30907F10806365C7606E6
:10429000370E094E08363754365C1643064F08373A
:1042A0003E54A7F11806365C1E43183F3E54401C8E
:1042B0000828BBDBF0BD0000670A0020024B03EBBF
:1042C000C0035A5470470000570A002070B50024FC
:1042D00011E000250CE00A4800EBC400465DE9B29D
:1042E000E0B272B2FFF7DBFE08B9002070BD6D1CB2
:1042F000082DF0DB641C042CEBDB0120F6E700004A
:10430000570A002070B505460C46042D01DB00203D
:1043100070BD072C00DD072422460B21284600F043
:104320002DF808B90020F3E70120F1E770B5054644
:104330000C46042D01DB002070BD012C00DD0124A2
:1043400022460C21284600F019F808B90020F3E7AE
:104350000120F1E770B505460C46042D01DB002075
:1043600070BD012C00DD012422460F21284600F0FB
:1043700005F808B90020F3E70120F1E72DE9F04145
:1043800004460D461646042C02DB0020BDE8F081F1
:1043900001F0C0FA27460CE0002001F047FA08B906
:1043A0000020F3E7002001F041FA08B90020EDE712
:1043B0007F1C032FF0DB284601F038FA08B90020F3
:1043C000E4E7304601F032FA08B90020DEE70027C2
:1043D0000CE0002001F02AFA08B90020D6E70020FE
:1043E00001F024FA08B90020D0E77F1CA742F0DBD7
:1043F00001F080FA0120C9E72DE9F04105460024CB
:104400002E78534F07EBC60703CF6E78504F07EB5C
:10441000C6070CCF00BF1AE00F26164016EB060C9D
:104420004CEA4016C4F10607DFF828C10CF8076013
:104430004FEA102646EA01604FEA11214FEA1226A0
:1044400046EA03624FEA132304F10106F4B2082C92
:10445000E2DBAE783E4F07EBC60603CE3E46D6E91A
:104460000823002422E01F2702EA07060027B608D7
:1044700046EA877646EA4017C4F1060C354E083600
:1044800006F80C7003261640B607370EC4F1060C6A
:10449000304E103606F80C70060A46EA0160090A2A
:1044A000160A46EA03621B0A661CF4B2082CDADB21
:1044B000EE78274F07EBC60603CE00241AE0C4F1BE
:1044C0000607244E1036F65D0F270740FF1946EA0F
:1044D0000706F7B2C4F1060C1E4E06F1100606F8E8
:1044E0000C704FEA102646EA01604FEA112104F1F0
:1044F0000106F4B2082CE2DB2E79154F07EBC60655
:1045000003CE6E7907EBC6060CCE00241CE00F2606
:10451000164016EB060C4CEA4016F7B2C4F1060C36
:104520000C4E06F1180606F80C704FEA102646EA03
:1045300001604FEA11214FEA122646EA03624FEA70
:10454000132304F10106F4B2082CE0DBBDE8F0818E
:1045500088A30008570A002000B587B0142102A8DC
:10456000FBF778FE00BF002001906C48006840F027
:1045700010006A4908600846006800F010000190C9
:1045800000BF00BF00BF002001900846006840F057
:10459000040008600846006800F00400019000BFB5
:1045A00000BF00BF002001900846006840F0800076
:1045B00008600846006800F08000019000BF00BF5E
:1045C00000BF002001900846006840F0010008602C
:1045D0000846006800F00100019000BF00BF00BF66
:1045E000002001900846006840F00200086008467C
:1045F000006800F00200019000BF00BF00BF002073
:1046000001900846006840F008000860084600680D
:1046100000F00800019000BF00BF00224021404888
:10462000FDF72FF900224FF4A0513E48FDF729F97C
:1046300000224FF440613C48FDF723F9002201219C
:104640003A48FDF71EF94CF2FF100290002003904B
:10465000049002A93348FDF703F84FF4C0700290AC
:10466000002003900120049002A92E48FCF7F8FFD7
:104670004EF20F00029000200390049002A92A48F5
:10468000FCF7EEFF402002900120039000200490F0
:10469000059002A92248FCF7E3FF4FF4A0500290D6
:1046A0000120039000200490059002A91D48FCF70A
:1046B000D7FF4FF47060029000200390049002A98D
:1046C0001B48FCF7CDFF4FF440600290012003909F
:1046D00000200490059002A91348FCF7C1FF0120B7
:1046E0000290039000200490059002A90F48FCF767
:1046F000B7FF1A20029000200390049002A90B48F3
:10470000FCF7AEFF8020029000200390012004906F
:1047100002A90648FCF7A4FF07B000BD30380240EC
:10472000000002400010024000080240000C02405D
:104730000004024010B50B480B4908600B48486064
:10474000002109488160C1604FF48041016100216E
:1047500041618161C1610162FDF7A0F808B1FCF718
:10476000DCFA10BD005400403C050020A08601008A
:1047700010B50F480F4908604FF4827048604FF43D
:1047800000410C4881600021C160016141614FF42A
:10479000007181612021C161002101624162816259
:1047A0000A21C162FDF700FE08B1FCF7B6FA10BDA0
:1047B000003001409005002000B587B01C216846FC
:1047C000FBF748FD124813490860002048600021AB
:1047D000104881604FF6FF71C16000210161816165
:1047E000FEF7ABFC08B1FCF798FA602000900020BF
:1047F000019002900490042269460648FEF719FCD5
:1048000008B1FCF78AFA0348FEF750FB07B000BD79
:1048100000180040E807002000B595B00020119076
:104820001290139014900F9010901C2108A8FBF781
:1048300011FD20216846FBF70DFD39483949086014
:104840000920486000213748816044F29F11C1600F
:104850000021016141618161FDF7BEFF08B1FCF7F4
:104860005CFA4FF48050119011A92E48FEF74BF8D6
:1048700008B1FCF752FA2B48FEF75FFC08B1FCF7D1
:104880004CFA00200F9010900FA92648FDF74AFF20
:1048900008B1FCF742FA60200890002009900A90C5
:1048A0000B900C900D900E90002208A91D48FEF769
:1048B000C0FB08B1FCF731FA042208A91948FEF739
:1048C000B8FB08B1FCF729FA082208A91548FEF739
:1048D000B0FB08B1FCF721FA0C2208A91148FEF739
:1048E000A8FB08B1FCF719FA4FF4006000904010E3
:1048F00001900020029003904FF4805004904000FB
:1049000005904000079069460648FDF7D1FE08B1C2
:10491000FCF703FA0348FEF7C9FA15B000BD000022
:1049200000000140E805002000B58BB0242102A85A
:10493000FBF790FC0020009001904FF08040174959
:104940000860002048600021144881604FF6FF7124
:10495000C16000210161816101200290002003906B
:1049600001200490002005900690079001200890F7
:10497000002009900A9002A90848FEF748F808B1FB
:10498000FCF7CBF900200090019069460348FDF741
:10499000C9FE08B1FCF7C1F90BB000BD2806002024
:1049A00000B58BB0242102A8FBF754FC0020009036
:1049B00001901848184908600020486000211648F6
:1049C00081604FF6FF71C1600021016181610120AA
:1049D0000290002003900120049000200590069092
:1049E000079001200890002009900A9002A90A4827
:1049F000FEF70DF808B1FCF790F900200090019047
:104A000069460548FDF78EFE08B1FCF786F90BB044
:104A100000BD0000000400406806002000B58BB017
:104A2000242102A8FBF716FC0020009001901848F2
:104A300018490860002048600021164881604FF640
:104A4000FF71C1600021016181610120029000209D
:104A5000039001200490002005900690079001200B
:104A60000890002009900A9002A90A48FDF7CFFF9C
:104A700008B1FCF752F90020009001906946054802
:104A8000FDF750FE08B1FCF748F90BB000BD00007F
:104A900000080040A806002000B58BB0242102A821
:104AA000FBF7D8FB002000900190184818490860D7
:104AB000002048600021164881604FF6FF71C160F8
:104AC00000210161816101200290002003900120FA
:104AD0000490002005900690079001200890002087
:104AE00009900A9002A90A48FDF791FF08B1FCF766
:104AF00014F900200090019069460548FDF712FE68
:104B000008B1FCF70AF90BB000BD0000000C004032
:104B1000E80600201CB50020009001900E480F49C7
:104B200008605320486000210C48816040F2E73162
:104B3000C16000218161FDF74FFE08B1FCF7EDF87F
:104B400000200090019069460448FDF7EBFD08B194
:104B5000FCF7E3F81CBD000000100040280700200F
:104B600000B595B0002011901290139014900F9002
:104B700010901C2108A8FBF76DFB20216846FBF76D
:104B800069FB3948394908600920486000213748E5
:104B9000816044F29F11C160002101614161816126
:104BA000FDF71AFE08B1FCF7B8F84FF480501190E9
:104BB00011A92E48FDF7A7FE08B1FCF7AEF82B4867
:104BC000FEF7BBFA08B1FCF7A8F800200F90109090
:104BD0000FA92648FDF7A6FD08B1FCF79EF8602056
:104BE0000890002009900A900B900C900D900E9068
:104BF000002208A91D48FEF71CFA08B1FCF78DF841
:104C0000042208A91948FEF714FA08B1FCF785F840
:104C1000082208A91548FEF70CFA08B1FCF77DF840
:104C20000C2208A91148FEF704FA08B1FCF775F840
:104C30004FF400600090401001900020029003901B
:104C40004FF4805004904000059040000790694662
:104C50000648FDF72DFD08B1FCF75FF80348FEF7A5
:104C600025F915B000BD00000004014068070020D0
:104C700000B58BB000200790089009900A901C2185
:104C80006846FBF7E7FA1C481C490860A720486003
:104C900000211A48816042F20F71C1600021016158
:104CA0008161FDF799FD08B1FCF737F84FF48050AA
:104CB000079007A91148FDF726FE08B1FCF72DF86B
:104CC0000E48FEF73AFA08B1FCF727F8602000908A
:104CD00040F2DC50019000200290049000226946CE
:104CE0000648FEF7A6F908B1FCF717F80348FEF7E7
:104CF000DDF80BB000BD000000400140A807002017
:104D000010B50B480B4908604FF4E13048600021B2
:104D100008488160C16001610C214161002181610D
:104D2000C161FEF7BDFC08B1FBF7F7FF10BD000045
:104D3000005000402808002010B50B480B490860BF
:104D40004FF4E1304860002108488160C160016192
:104D50000C21416100218161C161FEF7A1FC08B114
:104D6000FBF7DBFF10BD00000010014068080020C9
:104D700010B50B480B4908604FF4165048600021ED
:104D800008488160C16001610C214161002181619D
:104D9000C161FEF785FC08B1FBF7BFFF10BD000045
:104DA00000440040A808002010B50B480B490860DB
:104DB0004FF4E1304860002108488160C160016122
:104DC0000C21416100218161C161FEF769FC08B1DC
:104DD000FBF7A3FF10BD000000480040E8080020DA
:104DE00070B50121002000F08DF90221012000F0B2
:104DF00089F900241BE0B148005D522804D131201C
:104E0000AF4901EB44014870AC48005D472804D12C
:104E10003220AB4901EB44014870A848005D4228AC
:104E200004D13320A64901EB44014870641C062CD0
:104E3000E1D300243BE0A24800EB44004078A149C4
:104E4000095D884203D19E4901F814402EE0601CA0
:104E50000321B0FBF1F201FB12009A49085C98496A
:104E600001EB44014978884209D1601C0321B0FB61
:104E7000F1F201FB1200924901F8140016E0A01CA7
:104E80000321B0FBF1F201FB12008E49085C8C4952
:104E900001EB44014978884208D1A01C0321B0FBF2
:104EA000F1F201FB1200864901F81400641C032C86
:104EB000C1D3002447E0E01C814901EB4000417868
:104EC000601D804A105C814205D1E01CC1B27C4A61
:104ED00002F8101036E0601C0321B0FBF1F201FB78
:104EE0001200401D7749095CE01C754A02EB400046
:104EF000407881420BD1601C0321B0FBF1F201FB31
:104F00001200C01CE11C6E4A02F811001AE0A01C3D
:104F10000321B0FBF1F201FB1200401D6949095C5D
:104F2000E01C674A02EB4000407881420AD1A01C95
:104F30000321B0FBF1F201FB1200C01CE11C604A2E
:104F400002F81100641C032CB5D3002405E05C4971
:104F500011F814105C4A5454641C062CF7D3002535
:104F600007E05948425D294658A002F063F8681CE2
:104F7000C5B2062DF5DB59A002F05CF8002498E0DC
:104F800000251DE0032000FB04504F49085C4C49FC
:104F900001EB40004078032190FBF1F201FB12018C
:104FA000032000FB0450484A105C00EB4000401C0A
:104FB0000844C6B2304601F01DFD02F0A1FE6D1C92
:104FC000032DDFD30321022000F09CF8002520E010
:104FD0004348007818B15720FCF7AEF902E00120F1
:104FE0003F490870032000FB04503749085C3449EE
:104FF00001EB40004078032190FBF1F201FB12002D
:1050000040001330C6B2304601F0F4FC02F078FEE6
:105010006D1C032DDCD3002519E05720FCF78CF91B
:10502000032000FB04502849085C254901EB40009F
:105030004078032190FBF1F201FB12004000143094
:10504000C6B2304601F0D6FC02F05AFE6D1C032DAC
:10505000E3D30421032000F055F8002518E00320D5
:1050600000FB04501849085C154901EB40004078EA
:10507000032190FBF1F201FB120104EB4400193013
:105080000844C6B2304601F0B5FC02F039FE6D1C92
:10509000032DE4D3012C07D10521042000F032F8C0
:1050A0005720FCF749F903E00221042000F02AF818
:1050B000641C022CFFF464AF70BD00000A010020E4
:1050C000FC040020D3000020C80000207175657525
:1050D000655B25645D3D2564090000000A0D000044
:1050E000CE00002000BFFEE704488068404203492C
:1050F00088600846C0684042C86070477C02002053
:10510000704700002DE9F04104460D4604EB840091
:1051100005EB4007222F7DD008DC012F0DD00C2F8E
:1051200038D0172F4BD0202F33D161E02A2F72D0E7
:105130002B2F71D02D2FF7D115E16FF00E0100202C
:1051400000F050F900221146032000F0DFF90022A0
:105150001146032000F0DAF90021084600F042F978
:105160006FF00E01002000F03DF9FCF777F94FF4E5
:10517000FA70FCF79BF94FF4FA70FCF797F963208B
:10518000FCF7DAF801F0AEFC5720FCF7D5F8FCF795
:105190006FF91CE10021084600F024F900210846BF
:1051A00000F020F96FF00E01002000F01BF9002044
:1051B000FCF7C2F801F028FCFCF750F907E10A20DF
:1051C00003F08EF84FF47A70FCF770F9FCF750F9A1
:1051D0000021084600F006F96FF00E01002000F0F3
:1051E00001F9FCF73BF94FF47A70FCF75FF9EEE058
:1051F000FCF73EF90021022000F0F4F86FF00E01F8
:10520000022000F0EFF8FCF729F94FF47A70FCF770
:105210004DF902E00EE06AE03AE0FCF729F96FF0A0
:10522000090003F05DF8FCF719F94FF47A70FCF708
:105230003DF9CCE0FCF71CF90021084600F0D2F85B
:105240006FF00E01002000F0CDF8FCF707F94FF4E5
:105250007A70FCF72BF9FCF70BF90A2003F040F801
:10526000FCF7FCF84FF47A70FCF720F9FCF700F932
:105270000021084600F0B6F86FF00E01002000F0A3
:10528000B1F8FCF7EBF84FF47A70FCF70FF99EE0F9
:10529000FCF7EEF80021022000F0A4F86FF00E01F8
:1052A000022000F09FF8FCF7D9F84FF47A70FCF771
:1052B000FDF8FCF7DDF86FF0090003F011F8FCF7DA
:1052C000CDF84FF47A70FCF7F1F8FCF7D1F8002133
:1052D000022000F087F86FF00E01022000F082F843
:1052E000FCF7BCF84FF47A70FCF7E0F86FE0FCF7DD
:1052F000BFF80021022000F075F86FF00E010220C7
:1053000000F070F8FCF7AAF84FF47A70FCF7CEF8CA
:10531000FCF7AEF86FF0090002F0E2FFFCF79EF830
:105320004FF47A70FCF7C2F8FCF7A2F8002604E00C
:105330000021022000F056F8761C032EF8DB6FF0F7
:105340000E01022000F04EF8FCF788F84FF47A7056
:10535000FCF7ACF8FCF78CF86FF0090002F0C0FF26
:10536000FCF77CF833E0FCF783F85720FBF7E4FF09
:105370000021084600F036F80021084600F032F817
:105380006FF00E01002000F02DF80021012000F048
:1053900029F8FCF763F840F2DC50FCF787F8FCF7DB
:1053A00067F800200B4908700B49086005200B497D
:1053B00008600B4908604FF4FA60FCF777F80020AA
:1053C00005490860054908600549086000BF00BF3D
:1053D000BDE8F081610000202801002024010020A8
:1053E0002001002070B504460D4601203C4908709C
:1053F0003C48046034B1012C09D0022C0CD0032CA1
:1054000016D10FE005F11E003749086010E005F1E4
:105410000F00364908600BE06FF01D00401B324959
:10542000086005E06FF00E00401B3049086000BFC7
:1054300000BF04F0010020B94FF4C870FCF736F843
:1054400003E04FF44870FCF731F800BF2046FBF74B
:10545000D5FA0028FAD034B1012C0FD0022C19D083
:10546000032C2FD122E000201E4908601E4908604D
:105470001F480068401C1E49086023E001201949AC
:1054800008600020194908601A480068401E194940
:10549000086017E0022013490860002012490860E4
:1054A00013480068401E124908600BE003200D49B4
:1054B000086000200D4908600E480068401C0D4936
:1054C000086000BF00BF0B480268094801680AA0D5
:1054D00001F0B0FD0020054908600349086070BD77
:1054E00061000020B00000202401002020010020E5
:1054F00034010020380100204920616D20617420B2
:105500002825642C2564292E0D0A000070B5044658
:105510000E4615460120424908704248046034B1E5
:10552000012C09D0022C0CD0032C16D10FE005F170
:105530001E003D49086010E005F10F003B4908607E
:105540000BE06FF01D00401B3749086005E06FF06D
:105550000E00401B3549086000BF00BF04F0010089
:1055600020B94FF4C870FBF7A1FF0DE03048007878
:1055700030B901202E4908706420FBF797FF03E043
:105580004FF44870FBF792FF00BFE0B23146FBF7E3
:105590006BFA0028F9D034B1012C0FD0022C19D0AD
:1055A000032C2FD122E000201E4908601E4908600C
:1055B00020480068401C1F49086023E00120194969
:1055C00008600020194908601B480068401E1A49FD
:1055D000086017E0022013490860002012490860A3
:1055E00014480068401E134908600BE003200D4971
:1055F000086000200D4908600F480068401C0E49F3
:10560000086000BF00BF0C4802680A4801680BA090
:1056100001F010FD0020054908600349086070BDD5
:1056200061000020B00000202401002020010020A3
:10563000B800002034010020380100204920616DAD
:10564000206174202825642C2564292E0D0A000071
:105650007047000030B513B2C0EB0014024D05EBEB
:10566000440424F8113030BDF00F00202DE9FF4331
:1056700083B080468946174602F06EFE0220012361
:1056800006AA49460090404604F032FB04F01EFB97
:1056900002F084FA18B9002007B0BDE8F0830321B6
:1056A00002A802F07DFF032801D00020F4E79DF856
:1056B0001810384602F074FF04469DF81800844222
:1056C00001D00020E8E701210DF10B0002F068FF96
:1056D000012801D00020DFE79DF808009DF809109F
:1056E00008449DF80A100844C5B2002604E0B85DDD
:1056F0002844C5B2701CC6B2A642F8DBE843C5B266
:105700009DF80B00A84201D00020C5E72046C3E762
:1057100070B505464FF0FF34681C28B90F4804786F
:1057200024024078044317E000200D490860E8B2E5
:10573000382102F071FF0446601C10B901200849AD
:105740000860052D08D10648006828B904F4004017
:1057500010B124F400404442204670BD48090020A6
:10576000640100200246054B1B781BB11046000265
:10577000084302E008460002104370476101002020
:1057800010B50B4800780B490B4A126888540A4937
:105790000968481CC11700EB5161C911A0EBC11188
:1057A000054A1160012202490448FEF7E1F810BDE4
:1057B00078010020D709002074010020280800206B
:1057C0007CB504460D461646164800681821B0FB05
:1057D000F1F01549B0FBF1F04FF47A7148430190B4
:1057E0006068B0F5827F0DD12B46002280212046D3
:1057F000009600F02BF898B1606D40F020006065D5
:1058000003207CBD00BF019800B908E00198401E4C
:10581000019020688068C0F3C0100028F3D100BF59
:105820000020EEE75C01002040420F0001B54FF080
:10583000FF330122694604480068FCF73FFE08B1C7
:10584000002008BD0120FCE7800100202DE9F04187
:1058500004460E4617461D46DDF818803EE0681CDB
:10586000D8B3FCF715F8A0EB0800A84200D2A5BBFE
:105870002068406820F0E000216848606068B0F56A
:10588000827F0DD1A068B0F5004F03D0A068B0F5BD
:10589000806F05D12068006820F040002168086012
:1058A000A06AB0F5005F0DD100BF2068006820F449
:1058B0000050216808602068006840F400502168AA
:1058C000086000BF012084F8510000BF002084F868
:1058D000500000BF0320BDE8F081FFE7206880682A
:1058E0003040B04201D1012000E00020B842B6D1E2
:1058F0000020F0E710B50122044801880448006840
:10590000FBF7BFFF0120FBF75BF910BD880100200A
:105910008401002010B50022044801880448006872
:10592000FBF7AFFF0120FBF74BF910BD880100200A
:1059300084010020704700002DE9F04F93B000264D
:1059400000201190A74D2822294602A8FAF769FCE9
:10595000A5A001F06FFB00BF06E002A850F82610DA
:10596000A7A001F067FB761C0A2EF6DBA6A001F0CB
:1059700061FB00200C9001200D900B200E90012067
:105980000F9002201090FBF751FE11A90CA8FBF715
:10599000A1FD8246FBF7F4FDBAF1000F04D09BA0F5
:1059A000119901F047FB02E0A0A001F043FB28227F
:1059B000294602A8FAF735FCA0A001F03BFB00261F
:1059C00006E002A850F826108DA001F033FB761CEB
:1059D0000A2EF6DB8CA001F02DFBFBF727FE4FF023
:1059E000000906244FF0000B3AE0CBEBCB00994ABC
:1059F00032F91000C317074629193A460120FBF770
:105A0000C9FDA01C84B2002714E0CBEBCB00914A67
:105A100002EB4000801C30F91700C2172919CDE9AC
:105A2000000202460120019BFBF7B4FDA01C84B2DA
:105A3000781CC7B2052FE8DBCBEBCB00854A02EB25
:105A40004000B0F90C00C317074629193A46012057
:105A5000FBF7A0FDA01C84B20BF1010000F0FF0BCE
:105A6000CBEBCB007B4931F91000401C10B1BBF1EE
:105A7000640FBADB05EB0901224600230120FBF786
:105A800089FD09F102001FFA80F900271BE04FF0A1
:105A9000000813E0C7EB07106F4A02EB400030F933
:105AA0001800C317834629195A460120FBF772FDD7
:105AB000A01C84B208F1010000F0FF08B8F10F0F3C
:105AC000E8DB781CC7B2C7EB0710634931F9100057
:105AD000401C08B1282FDADB05EB09012246002320
