:020000040800F2
:10000000A82900209D0100083D4C000897360008F3
:10001000214C0008350A0008296300080000000090
:10002000000000000000000000000000195300085C
:10003000390A000800000000D551000825550008C5
:10004000B7010008B7010008B7010008B7010008B0
:10005000B7010008B7010008B7010008B7010008A0
:10006000B7010008B7010008B7010008B701000890
:10007000B7010008B7010008B7010008B701000880
:10008000B7010008B7010008B7010008B701000870
:10009000B7010008B7010008B7010008B701000860
:1000A000B7010008B7010008B7010008B701000850
:1000B000B7010008B7010008B7010008B701000840
:1000C000B7010008B7010008B7010008B701000830
:1000D000B7010008B7010008B7010008ED5E00088D
:1000E000B7010008B7010008B7010008B701000810
:1000F000B7010008B7010008B7010008B701000800
:10010000B7010008B7010008B7010008B7010008EF
:10011000B7010008B7010008FD550008B701000845
:10012000B7010008B7010008B7010008B7010008CF
:10013000B7010008B7010008B7010008B7010008BF
:10014000B7010008B7010008B7010008B7010008AF
:10015000B7010008B7010008B7010008B70100089F
:10016000B7010008B7010008B7010008B70100088F
:10017000B7010008B7010008B7010008000000003F
:10018000B7010008B7010008DFF80CD000F07EFAD4
:100190000048004721710008A82900200648804730
:1001A00006480047FEE7FEE7FEE7FEE7FEE7FEE75C
:1001B000FEE7FEE7FEE7FEE7E155000889010008DB
:1001C0002DE9F05F0546002092469B46884606468C
:1001D000814640241BE0284641464746224600F01F
:1001E0008DF853465A46C01A914110D3114618460D
:1001F000224600F074F82D1A67EB01084F4622469C
:100200000120002100F06BF817EB00094E41201E81
:10021000A4F10104DFDC484631462A464346BDE8E6
:10022000F09F40EA01039B0703D009E008C9121FB1
:1002300008C0042AFAD203E011F8013B00F8013BA0
:10024000521EF9D27047D2B201E000F8012B491ECC
:10025000FBD270470022F6E710B513460A46044663
:100260001946FFF7F0FF204610BD421C10F8011B95
:100270000029FBD1801A704710B5002200E0521C03
:10028000835C8C5CA34201D1002BF8D1D8B2E1B2DF
:10029000401A10BD30B505460020034600E05B1C47
:1002A000934205D2EC5CC85C201A01D1002CF6D137
:1002B00030BD30B50B46014600202022012409E064
:1002C00021FA02F59D4205D303FA02F5491B04FA0F
:1002D00002F52844151EA2F10102F1DC30BD202AEE
:1002E00004DB203A00FA02F1002070479140C2F18D
:1002F000200320FA03F3194390407047202A04DBBF
:10030000203A21FA02F00021704721FA02F3D0408E
:10031000C2F1200291400843194670472DE9FE4F73
:10032000804681EA0300C00F0C46009021F0004196
:1003300023F00045B8EB0200A94105D24046214612
:1003400090461C460B46024623F00040104347D01F
:10035000270DC7F30A00C3F30A510290401A019017
:1003600040286BDAC3F3130040F4801B00989246D8
:1003700020B10023D2EB030A63EB0B0B0198594623
:10038000C0F140025046FFF7AAFF06460D46504610
:100390005946019A00F08CF910EB080061410024E5
:1003A00087EA115284EAE7731A4340D0009A62B395
:1003B000019A012A4FEA075215DC001B61EB02018A
:1003C0004FF0004202EA0752CDE90042001C41F51D
:1003D000801132462B4600F08CF903B0BDE8F08F57
:1003E00040462146F9E7001B61EB0201001C41F584
:1003F000801300185B412018A2F5001747EB03019A
:1004000040EAD570B6196D4111E06D084FEA360625
:1004100045EAC0754FEA0752001B61EB0201001C60
:1004200041F5801149084FEA300000195141324628
:100430002B4603B0BDE8F04F00F04CB90098012204
:1004400040000023D0EB020263EBE07300982146EA
:100450004FEAE074B8EB000061EB0401E9E783F0D8
:1004600000435BE781F0004158E72DE9FE4F81EA48
:10047000030404F0004421F0004100944FF0000B0D
:1004800023F0004350EA01045ED052EA03045BD03B
:10049000C3F30A54C1F30A552C44A4F2F334019473
:1004A000A0FB0254C1F3130141F48011C3F3130301
:1004B00043F4801301FB024400FB034E840A970AB5
:1004C00044EA815447EA8357A4FB076802958D0AE2
:1004D00005FB07854FEA932C04FB0C542705029D6E
:1004E0004FEA065847EA1637B5EB08056EEB070CDE
:1004F000870E920E47EA811742EA8312A7FB020198
:10050000B6EB0B0164EB00042B0D43EA0C335E18D1
:1005100044EB1C50DA465146E7FB0201C5F31304D5
:100520004FEA0B3343EA14534FEA0432019C43EA87
:100530000603A4F10C040294009CCDE900B400F081
:10054000D8F803B0BDE8F08F00200146F9E72DE9A7
:10055000F04D81EA030404F0004B21F000451446FD
:100560004FF0000A23F0004150EA050220D054EA7F
:1005700001021DD0C5F30A570246C5F31303C1F3A8
:100580001300C1F30A5640F4801543F48013A7EB1F
:100590000608101BD64608F2FD3873EB050002D39F
:1005A00008F1010801E092185B41B8F1000F03DA8D
:1005B00000200146BDE8F08D00204FF48011064672
:1005C00084460EE0171B73EB050705D3121B63EB84
:1005D000050306434CEA010C49084FEA3000921823
:1005E0005B4150EA0107EDD152EA030012D082EAE2
:1005F000040083EA0501084305D0101BAB4106D275
:100600000122002306E000224FF0004302E06FF0D9
:10061000010253101AEB06004CEB085110EB0A00D4
:1006200041EB0B01BDE8F04D00F054B8C1F30A52A4
:10063000C1F3130140F2FF3341F480119A4202DA10
:1006400000200146704740F233439A42A2F23342FF
:1006500002DC5242FFF752BEFFF741BE30B5041E26
:1006600071F1000404DB4FF00044404264EB0101EF
:10067000141E73F1000405DB1C464FF00043524288
:1006800063EB0403994208BF904230BD064C074D0E
:1006900006E0E06840F0010394E807009847103452
:1006A000AC42F6D3FFF774FDC4BF0008E4BF0008F6
:1006B000202A06DBCB17203A41FA02F043EAE07326
:1006C00006E041FA02F3D040C2F120029140084313
:1006D0001946704710B5141E73F1000408DA401C67
:1006E00041F1000192185B411A4301D120F0010051
:1006F00010BD2DE9F04D92469B4611B1B1FA81F241
:1007000002E0B0FA80F220329046FFF7E8FD04469E
:100710000F4640EA0A0041EA0B0153465A46084395
:1007200013D0114653EA010019D0C8F140025046D7
:10073000FFF7E4FD05460E46504659464246FFF790
:10074000CEFD084305D0012004E020463946BDE82F
:10075000F08D0020054346EAE0762C4337430A98A3
:100760006305E40AA0EB08000022FD0A44EA4754AE
:100770000A3002D500200146E9E701051019694158
:10078000DDE9084500196941BDE8F04DA2E770B503
:100790008C1810F8015B15F0070301D110F8013B2C
:1007A0002A1106D110F8012B03E010F8016B01F8B3
:1007B000016B5B1EF9D12B0705D40023521E0DD40B
:1007C00001F8013BFAE710F8013BCB1A921C03E059
:1007D00013F8015B01F8015B521EF9D5A142D8D391
:1007E000002070BD38B50446FE2C2DD01748007887
:1007F00050B306F095FB08B9002038BD04216846C7
:1008000006F0D8FE042801D00020F6E79DF800008D
:10081000A04201D00020F0E79DF80100022801D09D
:100820000020EAE79DF800009DF8011008449DF8BB
:1008300002100844C043C5B29DF80300A84201D08D
:100840000020DAE706F04CFE0120D6E76C0200201B
:1008500010B5044634B1012C0BD0022C03D0032C6C
:100860000CD105E000BF08F02FFA08F0FFF905E011
:1008700000BF08F085FA08F055FA00BF00BF10BDB0
:1008800070B504460D46204608F059F92946204621
:1008900000F05AF9204603F0DFFA70BD10B50024CD
:1008A0000AE0611CC8B200234FF47A724FF4FF7162
:1008B00005F0DFFD601CC4B2052CF2DB10BD0000AA
:1008C00010B500200DE0002107E0FF22C0EB00136F
:1008D0000C4C23445A544A1CD1B20F29F5DB411C5D
:1008E000C8B21E28EFDB002008E04FF0FF31C0EB5C
:1008F000C002054B23F81210411CC8B26428F4DB77
:1009000010BD0000C0130020480E0020014631B188
:1009100001290ED0022916D0032928D11DE015483F
:10092000406910B91348806B08B10120704700205E
:10093000FCE71048806810B90E48406A08B10120F1
:10094000F4E70020F2E70B48806910B90948406BD2
:1009500008B10120EAE70020E8E70648406810B93E
:100960000448806A08B10120E0E70020DEE70020AB
:10097000DCE70000A404002038B5024632B1012AA9
:100980000BD0022A10D0032A1CD114E005208DF8C8
:1009900000000E208DF8010014E009208DF8000001
:1009A00002208DF801000DE00D208DF800000620DA
:1009B0008DF8010006E001208DF800000A208DF876
:1009C000010000BF00BF10460B4601EBD37464105A
:1009D000A1EB440402EBD0756D10A2EB4505AC42CF
:1009E00017D0CC1CA01AC41700EB9474A410A0EB71
:1009F000840303EBD37464102CB19DF801000C4BFD
:100A000053F8200038BD9DF80000094B53F8200032
:100A1000F8E79DF80000064B53F8200020B99DF838
:100A2000010053F8200008B10120EBE70020E9E7BE
:100A3000A404002000BFFEE77047000010B5014687
:100A40000020304B186000222F4850F821002F4B17
:100A5000186021E02C4850F821002C4B1B68181A14
:100A60002B4B53F820002B4B284C246853F8243090
:100A7000244C246800FB0340224B18602548234B7C
:100A80001B6850F82300012801D1501CC2B21F4836
:100A90000068401C1D4B18601B4850F82100001DC9
:100AA0001A4B1B689842D5DC012A10DD15480068F6
:100AB000002804DD16488068124B186007E01148D2
:100AC0000068002803DA124840680E4B1860084698
:100AD00001EBD0735B10A1EB4303012B0ED109484E
:100AE0000068401C18B9D81E064B186006E005487F
:100AF0000068012802D10220024B186001480068FA
:100B000010BD0000840000201C050020880000208B
:100B100074000020A404002070B50446002508E0FD
:100B2000C4EB0411074A1144485700F0E7F8681C69
:100B3000C5B2C4EB0410034908444057401C0028C8
:100B4000EED170BDC013002070B505460C4622469C
:100B50002821284608F057F870BD704770B5054643
:100B600000240EE0611CC8B207F0E9FF611CC8B2A6
:100B70002946FFF7E9FF611CC8B203F06DF9601C5C
:100B8000C4B2052CEEDB70BD10B54021564800F014
:100B900011FA564908604FF40051554800F00AFA1E
:100BA000524948604FF48041514800F003FA4F49E0
:100BB00088604FF400414E4800F0FCF94B49C86092
:100BC0004FF480714B4800F0F5F9484908614FF443
:100BD0000071484800F0EEF944494861012142485B
:100BE00000F0E8F94149886102213F4800F0E2F94C
:100BF0003E49C86104213C4800F0DCF93B490862E9
:100C00000821394800F0D6F93849486210213648A1
:100C100000F0D0F9354988622021334800F0CAF944
:100C20003249C8620121324800F0C4F92F490863F3
:100C300080212D4800F0BEF92C49486304212C483E
:100C400000F0B8F9294988630821294800F0B2F971
:100C50002649C8630221264800F0ACF923490864FC
:100C60004FF48071204800F0A5F9204948644FF402
:100C700080411D4800F09EF91C4988644FF40041F2
:100C8000194800F097F91949C8644FF48061194870
:100C900000F090F9154908654FF40061154800F01F
:100CA00089F91249486500201349086017E00F4888
:100CB0001149096850F82100012805D10B490E4A55
:100CC000126841F8220005E0002008490A4A12682B
:100CD00041F8220008480068401C0749086006489F
:100CE00000681028E3DB10BD00100240A4040020BF
:100CF00000080240000402408800002070B504464D
:100D0000002515E0C4EBC4030F4E06EB43039B1C08
:100D100033F8153099B2C4EBC40306EB43039B8947
:100D20009AB26B1CD8B2002305F0A3FB681CC5B2B5
:100D3000052DE7DBC4EBC401034A02EB4101B1F925
:100D40000C0006F014F970BD480E00200120014986
:100D50000860704768000020002001490860704763
:100D600068000020014691F83500022803D0802059
:100D7000486501207047052081F835000868006843
:100D800020F001000A6810600020F3E770B5044607
:100D900000F01EF906462546681C10B1044800788C
:100DA000054400BF00F014F9801BA842FAD370BDBF
:100DB00064020020F8B502460B46002500240020FE
:100DC0000021DCE0012606FA01F51E6806EA0504AA
:100DD000AC4273D15E68012E08D05E68022E05D049
:100DE0005E68112E02D05E68122E13D190684F00FB
:100DF0000326BE40B0434F00DE68BE4030439060E3
:100E0000506801268E40B0431E79C6F300168E400E
:100E100030435060D0684F000326BE40B0434F00BF
:100E20009E68BE403043D0605E68022E02D05E688D
:100E3000122E13D1CF0802F1200656F827004E07D4
:100E4000F70E0F26BE40B0434F07FF0E1E69BE408F
:100E50003043CF0802F1200646F8270010684F0003
:100E60000326BE40B0431E7906F003064F00BE4085
:100E7000304310605E6806F08056B6F1805F7DD129
:100E800000BF00260096404E366846F480463E4F2E
:100E90003E603E46366806F48046009600BF00BFBE
:100EA0003A4E8F0856F827008E07370F0F26BE40A0
:100EB000B043374EB24202D1002624E05EE0354E08
:100EC000B24201D101261EE0334EB24201D10226C8
:100ED00019E0324EB24201D1032614E0304EB24244
:100EE00001D104260FE02F4EB24201D105260AE0BF
:100EF0002D4EB24201D1062605E02C4EB24201D160
:100F0000072600E008268F073F0FBE4030431F4EE4
:100F10008F0846F82700264E3068A0435E6806F426
:100F20008036B6F5803F00D12043214E3060361D1B
:100F30003068A0435E6806F40036B6F5003F00D185
:100F400020431B4E361D3060361D3068A0435E685E
:100F500006F48016B6F5801F00D12043144E0836E3
:100F60003060361D3068A0435E6806F40016B6F5A2
:100F7000001F00D120430E4E0C363060491C102952
:100F8000FFF420AFF8BD00004438024008380140AB
:100F9000000002400004024000080240000C024031
:100FA000001002400014024000180240001C0240E1
:100FB000003C0140024613690B400BB1012000E0E8
:100FC000002070470AB1816101E00B048361704722
:100FD00001480068704700005C02002070B50446BC
:100FE0000CB9012070BD94F83D0028B9002084F8A8
:100FF0003C00204600F0E2FB242084F83D002068FD
:10100000006820F00100216808602068006840F452
:101010000040216808602068006820F400402168D2
:10102000086000F0ADFD05465C496068884206D85E
:101030005B48854201D2012007E0002005E05948C5
:10104000854201D2012000E00020012800D1C9E73B
:101050005548B5FBF0F62068406820F03F0030436B
:10106000216848604D496068884201D8701C07E0DB
:101070004FF4967070434FF47A71B0FBF1F0401C5E
:101080002168096A21F03F01084321680862434949
:101090006068884214D8681E61684900B0FBF1F0AE
:1010A000401CC0F30B00042801D204203DE0681E60
:1010B00061684900B0FBF1F0401CC0F30B0034E064
:1010C000A06838B9681E616801EB4101B0FBF1F01E
:1010D000401C0AE0681E616801EBC10202EB0111CD
:1010E000B0FBF1F0401C40F48040C0F30B0008B9A5
:1010F00001201AE0A06848B9681E616801EB41014F
:10110000B0FBF1F0401CC0F30B000CE0681E6168FE
:1011100001EBC10202EB0111B0FBF1F0401CC0F386
:101120000B0040F4804040F400402168C9694CF64F
:10113000FF72914308432168C861D4E9070108435D
:101140002168096821F0C001084321680860D4E9DA
:10115000031008432168896848F2FF32914308432D
:1011600021688860D4E9050108432168C96821F035
:10117000FF0108432168C8602068006840F0010052
:101180002168086000202064202084F83D000020B1
:10119000206384F83E0000BF24E70000A086010021
:1011A00080841E0000093D0040420F002DE9F84FE9
:1011B00004460F4690461E46FFF70AFF05464FF0CD
:1011C000010994F83D0020287ED1192301226349AA
:1011D0002046009502F0DEFB10B10220BDE8F88F3A
:1011E00000BF94F83C00012801D10220F6E701205D
:1011F00084F83C0000BF2068006800F0010028B9B6
:101200002068006840F001002168086020680068DC
:1012100020F4006021680860242084F83D0000204C
:1012200020644F48E06200BF2068006840F480708E
:1012300021680860334600224FF0011120460095D6
:1012400002F0A8FB58B12068006800F48070B0F587
:10125000807F02D14FF4007020640320BEE707F0C6
:10126000FE0021680861FFF7B3FE0546206840696B
:10127000C0F3400A20684069C0F3802B10E0FFF7FC
:10128000A7FE401BB04200D816B9A02084F83D004C
:1012900020684069C0F3400A20684069C0F3802B91
:1012A00094F83D00A02805D0BAF1000F02D1BBF19F
:1012B000000FE4D0202084F83D0020684069C0F38E
:1012C000400028B3206800E045E0006840F400706A
:1012D0002168086000BF00200090206840690090ED
:1012E00020688069009000BF00BF192301221B49BC
:1012F0002046009502F04EFB08B101206EE7202049
:1013000084F83D0000BF002084F83C0000BF65E782
:101310002068006840F40070216808606FF4806005
:1013200021684861192301220C492046009502F0EA
:1013300031FB08B1012051E709F10109C145FFF472
:1013400073AF202084F83D0000BF002084F83C00EB
:1013500000BF012042E7022040E700000200100029
:101360000000FFFF2DE9FC5F04460F4690469946BA
:10137000DDE90CAB0E9EFFF72BFE054694F83D0011
:10138000202870D119230122B0492046009502F08F
:1013900001FB10B10220BDE8FC9F00BF94F83C00A7
:1013A000012801D10220F6E7012084F83C0000BFAB
:1013B0002068006800F0010028B92068006840F04B
:1013C0000100216808602068006820F4006021683E
:1013D0000860222084F83D00402084F83E00002070
:1013E0002064C4F824A0A4F82AB0608D2085984811
:1013F000E0624B46424639462046CDE9006502F0A0
:101400007BF908B10120C6E7208D88B900BF002014
:10141000019020684069019020688069019000BFB8
:1014200000BF2068006840F400702168086040E058
:10143000208D012818D12068006820F48060216880
:10144000086000BF0020019020684069019020687A
:101450008069019000BF00BF2068006840F4007000
:101460002168086025E0EFE0208D022816D1206871
:10147000006820F48060216808602068006840F4FB
:1014800000602168086000BF00200190206840696A
:10149000019020688069019000BF0AE000BF002031
:1014A000019020684069019020688069019000BF28
:1014B00000BFBAE0208D03287ED8208D012815D1E9
:1014C0002A463146204602F00AFB08B1012062E7B5
:1014D00020680069616A0870606A401C6062208D43
:1014E000401E2085608D401E60859EE0208D022874
:1014F0002AD13346002257492046009502F04AFA85
:1015000008B1012047E72068006840F400702168B6
:10151000086020680069616A0870606A401C606247
:10152000208D401E2085608D401E608520680069EA
:10153000616A0870606A401C6062208D401E2085D0
:10154000608D401E608570E0334600224149204690
:10155000009502F01FFA08B101201CE7206800681E
:1015600020F480602168086020680069616A087062
:10157000606A401C6062208D401E2085608D401E88
:1015800060853346002233492046009502F002FA76
:1015900008B10120FFE62068006840F4007021686F
:1015A000086020680069616A0870606A401C6062B7
:1015B000208D401E208500E010E0608D401E60857B
:1015C00020680069616A0870606A401C6062208D52
:1015D000401E2085608D401E608526E02A463146EB
:1015E000204602F07CFA08B10120D4E620680069A8
:1015F000616A0870606A401C6062208D401E208510
:10160000608D401E608520684069C0F3800060B135
:1016100020680069616A0870606A401C6062208D01
:10162000401E2085608D401E6085208D00287FF43F
:1016300041AF202084F83D00002084F83E0000BF28
:1016400084F83C0000BFA6E60220A4E602001000D9
:101650000000FFFF040001002DE9FC5F04460F4677
:1016600090469946DDE90CAB0E9EFFF7B1FC0546AE
:1016700094F83D0020287DD1192301224D492046B0
:10168000009502F087F910B10220BDE8FC9F00BF71
:1016900094F83C00012801D10220F6E7012084F8EB
:1016A0003C0000BF2068006800F0010028B92068F5
:1016B000006840F00100216808602068006820F49C
:1016C000006021680860212084F83D00402084F8F3
:1016D0003E0000202064C4F824A0A4F82AB0608D45
:1016E00020853548E0624B46424639462046CDE9E2
:1016F000006502F0B1F808B10120C6E731E02A46E2
:101700003146204602F02BFA50B1206C042805D156
:101710002068006840F40070216808600120B4E788
:10172000606A007821680861606A401C6062208DF0
:10173000401E2085608D401E608520684069C0F392
:10174000800070B1208D60B1606A00782168086106
:10175000606A401C6062208D401E2085608D401EA6
:101760006085208D0028CAD12A463146204602F0E5
:10177000E3F800E01CE050B1206C042805D120689B
:10178000006840F400702168086001207DE720684F
:10179000006840F4007021680860202084F83D0053
:1017A000002084F83E0000BF84F83C0000BF6CE7D6
:1017B00002206AE7020010000000FFFF10B586B0AB
:1017C0000446142101A8FEF745FD1B492068884204
:1017D0002FD100BF002000901848006840F00200A0
:1017E000164908600846006800F00200009000BF3B
:1017F00000BFC0200190122002900120039003201E
:1018000004900420059001A90D48FFF7D3FA00BF0A
:101810000020009009481030006840F4001007498B
:10182000103108600846006800F40010009000BF06
:1018300000BF06B010BD0000005400403038024028
:10184000000402400348006803490978084401493C
:10185000086070475C0200206402002010B50D484B
:10186000006840F400700B4908600846006840F4C6
:10187000806008600846006840F4807008600320BB
:1018800000F0A2F8002000F007F800F02BF800208C
:1018900010BD0000003C024070B504460E480078C0
:1018A0004FF47A71B1FBF0F00C490968B1FBF0F527
:1018B000284600F0ABFC08B1012070BD102C07D207
:1018C00000222146501E00F041F80548046001E066
:1018D0000120F2E70020F0E7640200206802002007
:1018E0006002002008B500BF002000900E4800688C
:1018F00040F480400C4908600846006800F48040CD
:10190000009000BF00BF00BF00200090081F0068CB
:1019100040F08050091F08600846006800F08050C1
:10192000009000BF00BF08BD443802400146084691
:10193000002809DB00F01F0301229A4043099B00A5
:1019400003F1E023C3F8002100BF70472DE9F05FE9
:1019500080460D461646002704F00EFE074639461F
:101960002A46334601F00700C0F1070ABAF1040F16
:1019700002D94FF0040A01E0C0F1070AD14600F194
:10198000040ABAF1070F02D24FF0000A01E0A0F1F9
:10199000030AD4464FF0010A0AFA09FAAAF1010A29
:1019A0000AEA020A0AFA0CFA4FF0010B0BFA0CFBD6
:1019B000ABF1010B0BEA030B4AEA0B04214640464C
:1019C00004F0E2FDBDE8F09F00BF00F00702064B07
:1019D00019684FF6FF031940044B0B4343EA0221F9
:1019E000014B196000BF70470CED00E00000FA05E4
:1019F00070B504460D460CB9012070BD584800680A
:101A000000F00F00A84209D255490D700846006841
:101A100000F00F00A84201D00120EEE7207800F08E
:101A2000020002281DD1207800F00400042805D10E
:101A30004C48006840F4E0504A490860207800F0C3
:101A40000800082805D14748006840F4604045492F
:101A500008604448006820F0F000A168084341494C
:101A60000860207800F00100A8B36068012807D161
:101A70003C4808380068C0F34040B8B90120BCE7D2
:101A80006068022802D06068032807D1354808380A
:101A90000068C0F3406048B90120AEE7314808381B
:101AA0000068C0F3400008B90120A6E72D4800688F
:101AB00020F00300616808432A490860FFF788FAAC
:101AC000064609E0FFF784FA801B41F2883188421C
:101AD00002D9032091E707E02248006800F00C00DB
:101AE0006168B0EB810FEDD11D48006800F00F0078
:101AF000A84209D91A490D700846006800F00F0085
:101B0000A84201D0012078E7207800F004000428E2
:101B100007D11448006820F4E050E16808431149F7
:101B20000860207800F00800082808D10D480068F7
:101B300020F46040216940EAC1000A49086000F0D1
:101B40003FF808490968C1F30311074A515CC840CE
:101B50000649086006480068FFF79EFE00204CE733
:101B6000003C024008380240F4B50008680200203A
:101B700060020020014800687047000068020020F1
:101B800000B5FFF7F7FF04490968C1F38221034A52
:101B9000515CC84000BD00000838024004B600088F
:101BA00000B5FFF7E7FF04490968C1F34231034A72
:101BB000515CC84000BD00000838024004B600086F
:101BC0002DE9F047002400250026A146254800689D
:101BD00000F00C0020B1042805D008283AD105E017
:101BE000DFF8849039E0DFF8849036E01D48001F6C
:101BF000006800F03F041B48001F006800F48000EC
:101C000078B11A481749091F0968C1F38811A0FB68
:101C100001700146224600233846FEF7D1FA0546F8
:101C20000EE011480F49091F0968C1F38811A0FB94
:101C300001700146224600233846FEF7C1FA0546E8
:101C40000848001F0068C0F30140401C4600B5FB77
:101C5000F6F902E0DFF8109000BF00BF4846BDE88B
:101C6000F0870000083802400024F40040787D012D
:101C7000F8B504460CB90120F8BD207800F0010049
:101C8000002874D0F948006800F00C0004280DD03A
:101C9000F648006800F00C00082813D1F348001F34
:101CA000006800F48000B0F5800F0BD1EF480838D1
:101CB0000068C0F34040002859D06068002856D121
:101CC0000120D9E700BF6068B0F5803F08D1E74840
:101CD0000838006840F48030E449083908601EE0A4
:101CE0006068B0F5A02F0DD1E0480838006840F4D6
:101CF0008020DE49083908600846006840F48030DA
:101D000008600CE0D9480838006820F48030D749D2
:101D1000083908600846006820F48020086000BF89
:101D2000606890B1FFF754F9054606E0FFF750F9F7
:101D3000401B642801D903209EE7CC48083800687E
:101D4000C0F340400028F1D011E0FFF741F905460B
:101D500006E0FFF73DF9401B642801D903208BE71B
:101D6000C24808380068C0F340400028F1D120780C
:101D700000F0020002285FD1BC48006800F00C00AF
:101D800058B1BA48006800F00C0008281CD1B748C8
:101D9000001F006800F48000B0B9B448083800683B
:101DA000C0F3400020B1E068012801D0012063E7C2
:101DB000AE480838006820F0F800216940EAC10008
:101DC000AA490839086037E0E06800B30120A84953
:101DD0000860FFF7FDF8054606E0FFF7F9F8401B3D
:101DE000022801D9032047E7A04808380068C0F35B
:101DF00040000028F1D09D480838006820F0F80025
:101E0000216940EAC10099490839086014E00020BE
:101E100097490860FFF7DCF8054606E0FFF7D8F8B9
:101E2000401B022801D9032026E7904808380068A3
:101E3000C0F340000028F1D1207800F00800082805
:101E40002CD16069A8B101208A490860FFF7C0F869
:101E5000054606E0FFF7BCF8401B022801D9032025
:101E60000AE782486C300068C0F340000028F1D0D7
:101E700014E000207F490860FFF7AAF8054606E055
:101E8000FFF7A6F8401B022801D90320F4E67748A3
:101E90006C300068C0F340000028F1D1207800F0D9
:101EA0000400042870D1002770483830006800F022
:101EB000805090B900BF002000906C483830006816
:101EC00040F080506949383108600846006800F0E9
:101ED0008050009000BF00BF01276748006800F4F1
:101EE0008070B0B96448006840F48070624908604E
:101EF000FFF76EF8054606E0FFF76AF8401B022878
:101F000001D90320B8E65C48006800F4807000281E
:101F1000F2D000BFA068012808D15448683000689A
:101F200040F001005149683108601DE0A0680528B3
:101F30000DD14E486830006840F004004B496831CC
:101F400008600846006840F0010008600CE047485F
:101F50006830006820F00100444968310860084694
:101F6000006820F00400086000BFA068A8B1FFF777
:101F70002FF8054609E0FFF72BF8401B41F28831A6
:101F8000884202D9032077E626E0384868300068A6
:101F9000C0F340000028EED013E0FFF719F8054623
:101FA00008E0FFF715F8401B41F28831884201D95B
:101FB000032061E62D4868300068C0F34000002827
:101FC000EFD1012F07D129483830006820F0805028
:101FD00026493831086000BFA069002845D0234851
:101FE000006800F00C0008285DD0A069022845D1E7
:101FF00000201F490866FEF7EBFF054606E0FEF7E6
:10200000E7FF401B022801D9032035E617480838AE
:102010000068C0F340600028F1D1D4E9070108430B
:10202000616A40EA81110122A06AC2EB500041EAD4
:1020300000412C20005D41EA00600C49091F086046
:1020400001200B490866FEF7C3FF054606E0FEF7D0
:10205000BFFF401B022801D903200DE603480838C2
:102060000068C0F340600028F1D03FE0083802402B
:1020700000004742800E47420070004000201C498B
:102080000866FEF7A5FF054606E0FEF7A1FF401B28
:10209000022801D90320EFE516480068C0F340602C
:1020A0000028F2D122E0A069012800D1E4E511481E
:1020B000001D066806F48001E069814214D106F033
:1020C0003F01206A81420FD147F6C0703040616AFB
:1020D000884209D106F44031A06A814204D106F059
:1020E0007061E06A814201D00120C5E50020C3E5AE
:1020F000000047420038024010B504460CB90120E8
:1021000010BD606A00B900BF0021A16294F85100BF
:1021100028B9002084F85000204600F033F802204F
:1021200084F851002068006820F0400021680860B1
:10213000D4E901010843E168084321690843616962
:102140000843218B01F400710843E1690843216AC7
:102150000843A16A0843216808600421A06901EAD4
:102160001040616A0843216848602068C06920F413
:1021700000602168C86100206065012084F851007A
:102180000020BDE710B586B00446142101A8FEF773
:1021900061F81B49206888422FD100BF00200090C1
:1021A0001848006840F480501649086008460068E6
:1021B00000F48050009000BF00BF00BF00200090DE
:1021C00010481438006840F001000E4914390860C6
:1021D0000846006800F00100009000BF00BFE0204A
:1021E000019002200290002003900320049005201B
:1021F000059001A90448FEF7DDFD06B010BD000002
:1022000000300140443802400000024070B50446EE
:102210002546681EB0F1807F01D301200FE0681EC3
:102220004FF0E02148610F214FF0FF3004F0ACF98E
:1022300000204FF0E021886107200861002070BD78
:102240007047704710B50346002200BF93F83C006A
:10225000012801D1022010BD012083F83C0000BFFD
:1022600022F0FF00CC6840EA040222F440708C683F
:1022700040EA040222F480604C6840EA040222F43E
:1022800000600C6840EA040222F480500C6940EAC5
:10229000040222F400504C6940EA040222F4804017
:1022A000CC6940EA04021868426400BF002083F849
:1022B0003C0000BF00BFCEE730B502460B4600BF72
:1022C00092F83C00012801D1022030BD012082F8A3
:1022D0003C0000BF022082F83D001068446810688E
:1022E000816824F070041868044310684460184D35
:1022F0001068A8421BD01068B0F1804F17D0154D60
:102300001068A84213D0144D1068A8420FD0134D86
:102310001068A8420BD0124D1068A84207D0114D8A
:102320001068A84203D0104D1068A84205D121F0D2
:1023300080015868014310688160012082F83D00E7
:1023400000BF002082F83C0000BF00BFBDE70000D6
:10235000000001400004004000080040000C004064
:1023600000040140004001400018004010B5044640
:102370000CB9012010BD94F83D0028B9002084F864
:102380003C00204600F00CF8022084F83D00211D9E
:10239000206803F03BF9012084F83D000020E9E7C4
:1023A00038B504462D49206888420FD100BF00206F
:1023B00000902B48006840F0010029490860084659
:1023C000006800F00100009000BF46E02549206849
:1023D00088421AD100BF002000902148001F0068E9
:1023E00040F010001E49091F08600846006800F010
:1023F0001000009000BF00BF002201213620FFF72F
:10240000A5FA3620FFF792FA27E01749206888429C
:102410000FD100BF002000901148006840F002007A
:102420000F4908600846006800F00200009000BFF5
:1024300013E00E49206888420FD100BF00200090B1
:102440000748006840F48030054908600846006885
:1024500000F48030009000BF00BF38BD0000014094
:102460004438024000100040000401400040014098
:1024700001460868C06840F001000B68D860086831
:10248000806800F00702062A05D00868006840F05E
:1024900001000B681860002070472DE9F0410446E8
:1024A0000D4600BF94F83C00012802D10220BDE88F
:1024B000F081012084F83C0000BF022084F83D0038
:1024C0002068866826F0770626F47F4620688660B6
:1024D0002868502833D00CDC202850D004DC002899
:1024E0004BD0102851D149E0302849D040284CD158
:1024F00039E060282DD0702807D0B0F5805F03D078
:10250000B0F5005F41D10DE040E0D5E902136A6803
:10251000206803F0F8F82068866846F0770620689F
:10252000866033E0D5E902136A68206803F0EBF8AF
:102530002068806840F480402168886026E0EA686E
:102540006968206803F0D0F95021206803F0E6F8AC
:102550001CE0EA686968206803F0D9F96021206806
:1025600003F0DCF812E0EA686968206803F0BCF95F
:102570004021206803F0D2F808E000BF00BF00BF90
:102580002968206803F0CAF800E000BF00BF0120FE
:1025900084F83D0000BF002084F83C0000BF00BF6D
:1025A00085E72DE9F04104460D4614B90120BDE848
:1025B000F08194F83D0028B9002084F83C002046C2
:1025C00000F046F8022084F83D002068806844F25C
:1025D0000701884321688860211D206803F016F8F0
:1025E0002068D0F80880206886692068076A286813
:1025F00040EA080840F203308643A969A86840EA27
:102600000120064340F60C4086434FF2F00086431B
:10261000E969E86840EA0120064328690001296A5F
:1026200040EA0130064327F0220727F0880769694E
:10263000686840EA011007432068C0F808802068F5
:10264000866120680762012084F83D000020AEE723
:1026500010B586B00446142101A8FDF7FBFD2068E3
:10266000B0F1804F4CD100BF00200090734800684B
:1026700040F00100714908600846006800F0010060
:10268000009000BF00BF00BF002000906B481038D2
:10269000006840F001006949103908600846006888
:1026A00000F00100009000BF00BF00BF00200090BC
:1026B0000846006840F0020008600846006800F024
:1026C0000200009000BF00BF4FF4004001900220C4
:1026D00002900020039004900120059001A9584821
:1026E000FEF768FB08200190022002900020039072
:1026F00004900120059001A95248FEF75BFB9BE086
:102700005149206888422FD100BF002000904B48DB
:10271000006840F00200494908600846006800F07F
:102720000200009000BF00BF00BF0020009043489F
:102730001038006840F0020040491039086008462F
:10274000006800F00200009000BF00BF3020019040
:10275000022002900020039004900220059001A91D
:102760003848FEF727FB67E038492068884230D1B7
:1027700000BF002000903148006840F004002F495D
:1027800008600846006800F00400009000BF00BF29
:1027900000BF0020009029481038006840F0080071
:1027A0002649103908600846006800F008000090CB
:1027B00000BF00BF4FF44050019002200290002063
:1027C000039004900220059001A92148FEF7F2FA37
:1027D00032E02049206888422ED100BF00200090BE
:1027E0001648006840F00800144908600846006870
:1027F00000F00800009000BF00BF00BF0020009064
:102800000E481038006840F001000C49103908608B
:102810000846006800F00100009000BF00BF0320E0
:102820000190022002900020039004900220059065
:1028300001A90348FEF7BEFA06B010BD40380240B9
:102840000000024000040240000400400008004074
:10285000000C0240000C004030B504460D4615B196
:10286000042D0CD105E001220021206802F03AFF7E
:1028700010E001220421206802F034FF0AE0012266
:102880000021206802F02EFF01220421206802F0BE
:1028900029FF00BF00BF2068006840F001002168E8
:1028A0000860002030BD704710B5044620680069FC
:1028B000C0F34000D8B12068C068C0F34000B0B198
:1028C0006FF002002168086101202077206880698C
:1028D00000F0030018B12046FFF7E5FF05E02046B1
:1028E00000F04AF9204600F0E7F900202077206840
:1028F0000069C0F38000D8B12068C068C0F38000D0
:10290000B0B16FF0040021680861022020772068D0
:10291000806900F4407018B12046FFF7C4FF05E05D
:10292000204600F029F9204600F0C6F90020207763
:1029300020680069C0F3C000D8B12068C068C0F347
:10294000C000B0B16FF00800216808610420207752
:102950002068C06900F0030018B12046FFF7A3FF0C
:1029600005E0204600F008F9204600F0A5F9002017
:10297000207720680069C0F30010D8B12068C068D3
:10298000C0F30010B0B16FF010002168086108209A
:1029900020772068C06900F4407018B12046FFF726
:1029A00082FF05E0204600F0E7F8204600F084F9B9
:1029B000002020772068006900F0010058B12068ED
:1029C000C06800F0010030B16FF0010021680861BB
:1029D000204600F09FF920680069C0F3C01058B18C
:1029E0002068C068C0F3C01030B16FF0800021686B
:1029F00008612046FFF724FC20680069C0F38010BE
:102A000058B12068C068C0F3801030B16FF040004A
:102A100021680861204600F0D1FA20680069C0F3FF
:102A2000401058B12068C068C0F3401030B16FF05A
:102A30002000216808612046FFF703FC10BD00005C
:102A400010B586B00446142101A8FDF703FC4349E4
:102A5000206888423BD100BF0020009040480068B9
:102A600040F010003E4908600846006800F0100081
:102A7000009000BF00BF00BF002000900846006823
:102A800040F0010008600846006800F00100009076
:102A900000BF00BF4FF42850019002200290002098
:102AA000039004900120059001A92E48FEF782F9B9
:102AB0004FF40060019002200290002003900490E7
:102AC0000120059001A92848FEF774F943E0274941
:102AD000206888421ED100BF002000902048006876
:102AE00040F004001E4908600846006800F0040039
:102AF000009000BF00BF4FF4707001900220029060
:102B00000020039004900320059001A91848FEF7C7
:102B100051F920E01749206888421CD100BF0020ED
:102B200000900F48006840F001000D490860084619
:102B3000006800F00100009000BF00BF0420019079
:102B4000022002900020039004900320059001A928
:102B50000548FEF72FF906B010BD00000000014047
:102B600030380240001002400000024000040140E2
:102B70000008024000400140704770B504460D4611
:102B8000164600BF94F83C00012801D1022070BD18
:102B9000012084F83C0000BF022084F83D0036B1DB
:102BA000042E1BD0082E31D00C2E5ED145E02946D4
:102BB000206802F0BDFD2068806940F008002168AF
:102BC00088612068806920F004002168886120689D
:102BD0008069296908432168886147E0294620689F
:102BE00002F0DEFD2068806940F4006021688861A1
:102BF0002068806920F4806021688861206880698D
:102C0000296940EA0120216888612FE0294620686F
:102C100002F004FE2068C06940F008002168C86125
:102C20002068C06920F004002168C8612068C0697C
:102C3000296908432168C86118E02946206802F024
:102C400029FE2068C06940F400602168C8612068DE
:102C5000C06920F480602168C8612068C069296962
:102C600040EA01202168C86100E000BF00BF0120E8
:102C700084F83D0000BF002084F83C0000BF00BF86
:102C800085E710B504460CB9012010BD94F83D004D
:102C900028B9002084F83C00204600F00CF80220FF
:102CA00084F83D00211D206802F0B0FC012084F86A
:102CB0003D000020E9E770477047000070B504460A
:102CC0000E4601223146206802F00CFD0F492068B3
:102CD000884203D00E492068884201D1012000E0DB
:102CE000002028B12068406C40F40040216848640E
:102CF0002068806800F00705062D05D02068006870
:102D000040F0010021680860002070BD0000014013
:102D10000004014070B50446914884427ED1914838
:102D20000088401C8F4908808F480088401C8E49CD
:102D300008808E480088401C8C49088004F048FBBD
:102D400089480088142804D1FDF71EFF0020864919
:102D5000088086480088142812D18548006878B118
:102D600084480068FDF774FD83480068012804D199
:102D700080480068401CFDF76BFD00207B490880FF
:102D80007848008814287DD17C480068406A7C49D6
:102D900008607C480068406A48607B480068406A78
:102DA00088607A480068406AC860744800680068B3
:102DB000C0F3001076490860724800680068C0F3EC
:102DC00000104860704800680068C0F30010886018
:102DD0006E4800680068C0F30010C86000206D49AC
:102DE000087058E066486B49097850F821006A4934
:102DF000684A127851F82210401A6849654A1278D8
:102E000041F8220008466349097850F821004CF245
:102E1000503188420EDD61485E4900E09FE009784C
:102E200050F82100A0F580305C495A4A127841F8E8
:102E3000220013E059485749097850F821005849B1
:102E400088420BDA55485349097850F8210000F5BB
:102E5000803052494F4A127841F822004F484D497C
:102E6000097850F821004F494A4A127851F8221047
:102E700088420BDD49484749097850F82100494903
:102E8000444A00E056E0127841F8220041480078B8
:102E9000401C404908703F4800780428A2DB01F03C
:102EA000C1FE00203B4908700EE0354839490978D9
:102EB00050F821003849374A127841F82200354845
:102EC0000078401C33490870324800780428ECDB55
:102ED000354A1168314A106800F070FE33490860C5
:102EE000314A51682D4A506800F0A2FE2F494860CF
:102EF0002D4A9168294A906800F0D4FE2B498860D9
:102F0000294AD168254AD06800F006FF2749C860E1
:102F10000D46EB682A68A968686802F099FA2448A7
:102F20000268244801682448006804F033FA00204D
:102F30000C4908800B480088142802D10020094958
:102F4000088009480088142802D10020064908801A
:102F500006480088142802D100200449088070BD6A
:102F6000580B00206C0000206E0000207000002034
:102F700064000020B000002068000020580A0020F3
:102F800004030020980A0020D80A0020180B002013
:102F900024030020600000201403002034030020DC
:102FA000B03CFFFF540300204403002050000020E9
:102FB00038020020340200203002002070477047A1
:102FC0002DE9F0470446206805682068C668206837
:102FD00047694FF00008C14605F00F08B8F1000F2F
:102FE0000AD105F0200038B106F0200020B12046BB
:102FF00002F0CBFCBDE8F087B8F1000F72D007F00B
:10300000010018B906F4907000286BD005F001009B
:1030100030B106F4807018B1E06B40F00100E0635D
:1030200005F0040030B107F0010018B1E06B40F08A
:103030000200E06305F0020030B107F0010018B1B2
:10304000E06B40F00400E06305F0080048B106F0D2
:10305000200010B907F0010018B1E06B40F0080043
:10306000E063E06B70B305F0200028B106F02000AB
:1030700010B1204602F089FC20684069C0F3801935
:10308000E06B00F0080010B9B9F1000F23D0204622
:1030900002F05BFC2068406900F04000402816D137
:1030A0002068406920F0400021684861606B50B1A1
:1030B0001748616B0865606BFDF754FE10B1606BDB
:1030C000016D88470CE02046FFF779FF08E02046B5
:1030D000FFF775FF04E02046FFF771FF0020E06373
:1030E00088E7FFE705F0800030B106F0800018B1F6
:1030F000204602F091FE7DE705F0400030B106F079
:10310000400018B1204602F030FC73E700BF71E7C1
:103110003759000810B504460CB9012010BDA0694C
:1031200000B100E000BF94F8390028B9002084F80D
:103130003800204600F028F8242084F83900206860
:10314000C06820F400502168C860204602F070FC7E
:103150002068006920F49040216808612068406977
:1031600020F02A00216848612068C06840F40050BF
:103170002168C8600020E063202084F8390084F8CA
:103180003A000020CAE7000010B586B004461421BA
:1031900001A8FDF75FF87F49206888424DD100BF44
:1031A000002000907C48006840F480107A49086054
:1031B0000846006800F48010009000BF00BF00BF08
:1031C0000020009074481038006840F004007249F4
:1031D000103908600846006800F00400009000BF45
:1031E00000BF00BF002000900846006840F00800C3
:1031F00008600846006800F00800009000BF00BFAB
:103200008814019002200290012003900320049072
:103210000820059001A96148FDF7CCFD042001902C
:1032200002200290012003900320049008200590C2
:1032300001A95B48FDF7BEFDA9E05A492068884214
:1032400033D100BF002000905348001D006840F0BB
:1032500010005149091D08600846006800F0100080
:10326000009000BF00BF00BF002000904A48103807
:10327000006840F0010048491039086008460068BD
:1032800000F00100009000BF00BF4FF4C06001904B
:103290000220029000200390032004900720059054
:1032A00001A94148FDF786FD71E040492068884248
:1032B00030D100BF002000903748006840F4003053
:1032C000354908600846006800F40030009000BFEF
:1032D00000BF00BF002000902F481038006840F069
:1032E00008002D49103908600846006800F0080001
:1032F000009000BF00BF60200190022002900020DB
:103300000390032004900720059001A92448FDF7AD
:1033100051FD3CE026492068884238D100BF00209A
:1033200000901D48006840F480201B490860084652
:10333000006800F48020009000BF00BF00BF0020A4
:10334000009015481038006840F008001249103904
:1033500008600846006800F00800009000BF00BF49
:103360004FF440700190022002900020039003204F
:1033700004900720059001A90948FDF71BFD0022D4
:1033800001212720FEF7E2FA2720FEF7CFFA06B048
:1033900010BD0000005000404038024000080240CC
:1033A000000C0240001001400000024000440040B8
:1033B0000048004010B5034693F83A0020282FD16A
:1033C00001B10AB9012010BD00BF93F838000128EF
:1033D00001D10220F7E7012083F8380000BF99628D
:1033E0009A85DA850020D863222083F83A0000BF4E
:1033F000002083F8380000BF1868C06840F480706F
:103400001C68E0601868406940F001001C68606159
:103410001868C06840F020001C68E0600020D2E717
:103420000220D0E770B505464D48006898B90020E5
:103430004C4908704C4908704C48007810B101287C
:1034400008D103E00B204A49087003E00A204849EC
:10345000087000BF00BF42480068401C4049086037
:10346000444801783E480068401E434A11543C4895
:103470000068401E1146085C0A2864D1384800687C
:10348000801E085C0D285ED1354801683BA003F022
:103490004FF8002406E03848025D21463CA003F0C6
:1034A00047F8641C2E4800688442F4DB2C480078FE
:1034B0002C49087000202A4908602A4800782C49C5
:1034C000097888423FDB0120274908700020254900
:1034D00008702648007810B101282CD113E0264846
:1034E0004078324908702448807848702248C07873
:1034F00088702148407948711F48807988711E483A
:10350000C079C87117E00020294908700EE02848EA
:103510000078C0F106001849085C2649244A127850
:10352000885423480078401C2149087020480078BE
:103530000628ECDB00BF00BF32210F48FCF78AFEF3
:1035400000200C490870074800780949097888422A
:1035500004DA012207491848FFF72CFF70BD00006C
:10356000000200200B020020CC000020CD00002033
:103570000A020020F801002038050020556172740D
:10358000332D52584C656E3D25640D0A0000000035
:10359000554152542044617461427566665B2564EE
:1035A0005D203D20307825780D0A0000CE000020F7
:1035B0000C020020F9010020D80C00202DE9F8436E
:1035C00004460D4616461F464FF0000994F8390090
:1035D00020285DD105B116B90120BDE8F88300BFF0
:1035E00094F83800012801D10220F6E7012084F880
:1035F000380000BF0020E063212084F83900FDF787
:10360000E7FC8146A684E68400BF002084F83800E9
:1036100000BF2BE0E08C401EE084A068B0F5805F26
:1036200016D14B46002280212046009702F028FC4C
:1036300008B10320D1E7A846B8F80000C0F308009D
:1036400021684860206908B9AD1C0FE06D1C0DE0D1
:103650004B46002280212046009702F011FC08B161
:103660000320BAE715F8010B21684860E08C0028B8
:10367000D0D14B46002240212046009702F000FCAA
:1036800008B10320A9E7202084F839000020A4E72E
:103690000220A2E7704700BFFEE70000054B1B7841
:1036A0001BB1130A03700A7002E0130A0B70027058
:1036B000704700006D020020014608684069C0F3B1
:1036C0008020B0B16FF480600A6850610020086308
:1036D000202081F83D00002081F83E00086C40F079
:1036E0000400086400BF002081F83C0000BF0120F6
:1036F00070470020FCE700002DE9F84304460F4620
:1037000015469946DDE908862068006840F4806027
:10371000216808602068006840F4807021680860B3
:10372000434600224FF001112046009600F032F986
:1037300060B12068006800F48070B0F5807F02D12D
:103740004FF4007020640320BDE8F88307F0FE000A
:1037500021680861334642463E49204600F05DF943
:1037600008B10120F0E700BF002000902068406908
:10377000009020688069009000BF00BF324641463B
:10378000204600F0ECF950B1206C042805D12068E7
:10379000006840F40070216808600120D4E7B9F1A6
:1037A000010F03D1E8B22168086117E0C5F30720D3
:1037B0002168086132464146204600F0D0F950B1F8
:1037C000206C042805D12068006840F4007021684E
:1037D00008600120B8E7E8B2216808613246414636
:1037E000204600F0BCF950B1206C042805D12068B7
:1037F000006840F40070216808600120A4E7206898
:10380000006840F4807021680860434600224FF051
:1038100001112046009600F0BDF858B120680068FC
:1038200000F48070B0F5807F02D14FF40070206406
:10383000032089E7F8B240F00100216808613346AF
:1038400042460449204600F0E8F808B101207BE731
:10385000002079E7020001002DE9F843044688467C
:1038600015469946DDE908672068006840F48070D5
:1038700021680860334600224FF00111204600976E
:1038800000F088F860B12068006800F48070B0F53E
:10389000807F02D14FF4007020640320BDE8F883DC
:1038A00008F0FE00216808613B4632462149204667
:1038B00000F0B3F808B10120F0E700BF002000904D
:1038C00020684069009020688069009000BF00BFB8
:1038D0003A463146204600F042F950B1206C0428A7
:1038E00005D12068006840F400702168086001205C
:1038F000D4E7B9F1010F03D1E8B22168086117E0FC
:10390000C5F30720216808613A463146204600F099
:1039100026F950B1206C042805D12068006840F4D5
:103920000070216808600120B8E7E8B221680861EA
:103930000020B3E70200010070B504460D461646AC
:1039400020E02046FFF7B8FE08B1012070BD681CDA
:10395000C0B1FDF73DFB801BA84200D895B90020FF
:103960002063202084F83D00002084F83E00206C75
:1039700040F02000206400BF002084F83C0000BF1D
:103980000120E3E720684069C0F380000028D8D018
:103990000020DBE72DE9F04104460D4617461E46A0
:1039A000DDF818801CE0701CD0B1FDF711FBA0EB16
:1039B0000800B04200D89EB900202063202084F87F
:1039C0003D00002084F83E00206C40F02000206480
:1039D00000BF002084F83C0000BF0120BDE8F0815A
:1039E000C5F3074001280AD120684069A9B2084000
:1039F000A9B2884201D101200BE0002009E0206833
:103A00008069A9B20840A9B2884201D1012000E032
:103A10000020B842C7D00020E0E72DE9F04104467D
:103A20000D4616461F463DE020684069C0F38020E1
:103A3000E8B12068006840F40070216808606FF405
:103A400080602168486100202063202084F83D00C8
:103A5000002084F83E00206C40F00400206400BF89
:103A6000002084F83C0000BF0120BDE8F081701CFC
:103A7000C0B1FDF7ADFAC01BB04200D896B9002026
:103A80002063202084F83D00002084F83E00206C54
:103A900040F02000206400BF002084F83C0000BFFC
:103AA0000120E2E7C5F3074001280AD120684069F8
:103AB000A9B20840A9B2884201D101200BE0002040
:103AC00009E020688069A9B20840A9B2884201D102
:103AD000012000E000200028A6D00020C5E770B536
:103AE00004460D46164632E020684069C0F30010D7
:103AF000A0B16FF0100021684861002020632020F1
:103B000084F83D00002084F83E00206C206400BF53
:103B1000002084F83C0000BF012070BDFDF758FA7A
:103B2000801BA84200D895B900202063202084F88B
:103B30003D00002084F83E00206C40F0200020640E
:103B400000BF002084F83C0000BF0120E5E72068AA
:103B50004069C0F380100028C6D00020DDE770B5B2
:103B600004460D46164620E02046FFF7A5FD08B1A5
:103B7000012070BD681CC0B1FDF72AFA801BA84265
:103B800000D895B900202063202084F83D00002053
:103B900084F83E00206C40F02000206400BF00202C
:103BA00084F83C0000BF0120E3E720684069C0F3CF
:103BB000C0100028D8D00020DBE7000010B5024676
:103BC000501A164B186018460068154B1B68C01A2F
:103BD000144B1B685843144B1B68104C246803FBA0
:103BE0000400124B1B681844104B18600B48006807
:103BF0000B4B18600D48006844F29F13984202DD99
:103C000018460A4B186009480068002802DA0020AC
:103C1000064B18600548006810BD00002000002019
:103C200024000020000000200400002028000020C4
:103C300010B50246501A164B186018460068154B0E
:103C40001B68C01A144B1B685843144B1B68104C5C
:103C5000246803FB0400124B1B681844104B1860C7
:103C60000B4800680B4B18600D48006844F29F1326
:103C7000984202DD18460A4B18600948006800287F
:103C800002DA0020064B18600548006810BD0000ED
:103C90002C00002030000020080000200C00002034
:103CA0003400002010B50246501A164B1860184612
:103CB0000068154B1B68C01A144B1B685843144B03
:103CC0001B68104C246803FB0400124B1B6818444B
:103CD000104B18600B4800680B4B18600D480068CB
:103CE00044F29F13984202DD18460A4B18600948B7
:103CF0000068002802DA0020064B186005480068BA
:103D000010BD0000380000203C0000201000002002
:103D1000140000204000002010B50246501A164B37
:103D2000186018460068154B1B68C01A144B1B68B6
:103D30005843144B1B68104C246803FB0400124BBF
:103D40001B681844104B18600B4800680B4B186038
:103D50000D48006844F29F13984202DD18460A4B52
:103D6000186009480068002802DA0020064B186035
:103D70000548006810BD00004400002048000020F5
:103D8000180000201C0000204C00002010B500206E
:103D90002A4908600CE02948006880002849274A21
:103DA000126841F8220025480068401C2349086039
:103DB000224800680428EEDB224802F00BFBB9EE33
:103DC000080A204880ED010A9FED1F0A80ED020AD3
:103DD000BFEE000A80ED030A1C4802F0FBFAB1EEC8
:103DE000080A1A4880ED010A9FED170A80ED020AC1
:103DF000B7EE000A80ED030A154802F0EBFABFEEB9
:103E0000000A134880ED010A9FED0F0A80ED020AB7
:103E1000BFEE000A80ED030A0E4802F0DBFABFEEA7
:103E2000000A0C4880ED010A9FED070A80ED020AA6
:103E3000BFEE000A80ED030A10BD000088000020DC
:103E40001C050020F40300200000000018040020DE
:103E50003C0400206004002010B5044601223021FB
:103E6000204604F0D0FE10BDF0B5054600203EE02F
:103E7000204E365CF607340E1E4E1036365C771038
:103E80001C4E10363754183E365CF607330E194E6A
:103E90000836365C7710174E08363754365C2643A2
:103EA000144F08373E5407F10806365CF607320E09
:103EB000104E365C77100F4E3754365C1E430D4F54
:103EC0003E5407F10806365CF607310EA7F10806E6
:103ED000365C7610083F3E543E46365C16433E54F0
:103EE00007F11806365C0E4318373E54401C08286C
:103EF000BEDBF0BD2F0E0020F0B50546002041E0EE
:103F0000224E365CF409214E103E365C7606360EA3
:103F10001E4F103F3E5407F11806365CF10907F1B9
:103F20000806365C7606370E184E083E3754365C67
:103F30002643164F083F3E54A7F10806365CF209A7
:103F4000124E365C7606370E104E3754365C0E43F2
:103F50000E4F3E54A7F10806365CF30907F1080638
:103F6000365C7606370E094E08363754365C1643F3
:103F7000064F08373E54A7F11806365C1E43183F1B
:103F80003E54401C0828BBDBF0BD0000370E00206B
:103F9000024B03EBC0035A5470470000270E002069
:103FA0002DE9F041054600242E78534F07EBC60754
:103FB00003CF6E78504F07EBC6070CCF00BF1AE057
:103FC0000F26164016EB060C4CEA4016C4F1060705
:103FD000DFF828C10CF807604FEA102646EA0160B6
:103FE0004FEA11214FEA122646EA03624FEA1323F1
:103FF00004F10106F4B2082CE2DBAE783E4F07EB89
:10400000C60603CE3E46D6E90823002422E01F2739
:1040100002EA07060027B60846EA877646EA40170E
:10402000C4F1060C354E083606F80C70032616400F
:10403000B607370EC4F1060C304E103606F80C7079
:10404000060A46EA0160090A160A46EA03621B0AE2
:10405000661CF4B2082CDADBEE78274F07EBC606B5
:1040600003CE00241AE0C4F10607244E1036F65D94
:104070000F270740FF1946EA0706F7B2C4F1060CFE
:104080001E4E06F1100606F80C704FEA102646EA9E
:1040900001604FEA112104F10106F4B2082CE2DBC1
:1040A0002E79154F07EBC60603CE6E7907EBC606D1
:1040B0000CCE00241CE00F26164016EB060C4CEA32
:1040C0004016F7B2C4F1060C0C4E06F1180606F8BD
:1040D0000C704FEA102646EA01604FEA11214FEAC0
:1040E000122646EA03624FEA132304F10106F4B2F2
:1040F000082CE0DBBDE8F081A8B60008270E002000
:1041000000B587B0142102A8FCF7A4F800BF002076
:1041100001905A48006840F010005849086008466D
:10412000006800F01000019000BF00BF00BF002039
:1041300001900846006840F00400086008460068E6
:1041400000F00400019000BF00BF00BF00200190FC
:104150000846006840F0800008600846006800F0EB
:104160008000019000BF00BF00BF00200190084602
:10417000006840F0010008600846006800F0010097
:10418000019000BF00BF00BF0020019008460068FA
:1041900040F0020008600846006800F0020001904C
:1041A00000BF00BF00BF002001900846006840F03B
:1041B000080008600846006800F00800019000BF91
:1041C00000BF00224FF4A0512D48FCF7FBFE002257
:1041D0004FF440612B48FCF7F5FE002201212A48EC
:1041E000FCF7F0FE4CF2FF100290002003900490C8
:1041F00002A92348FCF7DEFD4EF20F0002900020DA
:104200000390049002A91F48FCF7D4FD4FF4A0507E
:1042100002900120039000200490059002A9184804
:10422000FCF7C8FD4FF470600290002003900490EA
:1042300002A91648FCF7BEFD4FF440600290012031
:10424000039000200490059002A90E48FCF7B2FDEF
:1042500001200290039000200490059002A90A48D2
:10426000FCF7A8FD9A20029000200390049002A978
:104270000548FCF79FFD07B000BD00003038024044
:104280000010024000080240000C024000040240FE
:1042900010B50B480B4908600B48486000210948DD
:1042A0008160C1604FF48041016100214161816101
:1042B000C1610162FCF792FE08B1FCF74EFC10BD33
:1042C000005400406C090020A086010010B50E4883
:1042D0000E4908604FF48270486000210B488160ED
:1042E000C160016141614FF4007181610021C161D0
:1042F0000162416281620A21C162FDF7FDFE08B1DF
:10430000FCF72BFC10BD000000300140C00900206C
:1043100000B595B0002011901290139014900F905A
:1043200010901C2108A8FBF795FF20216846FBF799
:1043300091FF39483949086000204860002137481A
:10434000816044F29F11C16000210161416181617E
:10435000FEF70CF808B1FCF700FC4FF48050119008
:1043600011A92E48FEF799F808B1FCF7F6FB2B4887
:10437000FEF787FC08B1FCF7F0FB00200F901090CF
:104380000FA92648FDF798FF08B1FCF7E6FB60206F
:104390000890002009900A900B900C900D900E90C0
:1043A000002208A91D48FEF7E8FB08B1FCF7D5FB81
:1043B000042208A91948FEF7E0FB08B1FCF7CDFB81
:1043C000082208A91548FEF7D8FB08B1FCF7C5FB81
:1043D0000C2208A91148FEF7D0FB08B1FCF7BDFB81
:1043E0004FF4006000904010019000200290039074
:1043F0004FF48050049040000590400007906946BB
:104400000648FDF71FFF08B1FCF7A7FB0348FEF7BE
:1044100017FB15B000BD000000000140180A002085
:1044200000B58BB0242102A8FBF714FF00200090F8
:1044300001904FF08040174908600020486000213B
:10444000144881604FF6FF71C160002101618161F4
:10445000012002900020039001200490002005908C
:104460000690079001200890002009900A9002A968
:104470000848FEF796F808B1FCF76FFB00200090A3
:10448000019069460348FDF717FF08B1FCF765FB8B
:104490000BB000BD580A002000B58BB0242102A843
:1044A000FBF7D8FE002000900190184818490860DA
:1044B000002048600021164881604FF6FF71C160FE
:1044C0000021016181610120029000200390012000
:1044D000049000200590069007900120089000208D
:1044E00009900A9002A90A48FEF75BF808B1FCF7A8
:1044F00034FB00200090019069460548FDF7DCFE82
:1045000008B1FCF72AFB0BB000BD0000000400401E
:10451000980A002000B58BB0242102A8FBF79AFE70
:104520000020009001901848184908600020486059
:104530000021164881604FF6FF71C16000210161C2
:10454000816101200290002003900120049000204E
:1045500005900690079001200890002009900A908D
:1045600002A90A48FEF71DF808B1FCF7F6FA002088
:104570000090019069460548FDF79EFE08B1FCF7E2
:10458000ECFA0BB000BD000000080040D80A002083
:1045900000B58BB0242102A8FBF75CFE0020009040
:1045A000019018481849086000204860002116480A
:1045B00081604FF6FF71C1600021016181610120BE
:1045C00002900020039001200490002005900690A6
:1045D000079001200890002009900A9002A90A483B
:1045E000FDF7DFFF08B1FCF7B8FA0020009001905A
:1045F00069460548FDF760FE08B1FCF7AEFA0BB05E
:1046000000BD0000000C0040180B00201CB500206D
:10461000009001900E480F49086053204860002127
:104620000C48816040F2E731C16000218161FDF7F3
:104630009DFE08B1FCF791FA0020009001906946B8
:104640000448FDF739FE08B1FCF787FA1CBD0000ED
:1046500000100040580B002000B595B000201190CC
:104660001290139014900F9010901C2108A8FBF743
:10467000F1FD20216846FBF7EDFD39483949086016
:104680000020486000213748816044F29F11C160DA
:104690000021016141618161FDF768FE08B1FCF70D
:1046A0005CFA4FF48050119011A92E48FDF7F5FEE9
:1046B00008B1FCF752FA2B48FEF7E3FA08B1FCF711
:1046C0004CFA00200F9010900FA92648FDF7F4FD3A
:1046D00008B1FCF742FA60200890002009900A9087
:1046E0000B900C900D900E90002208A91D48FEF72B
:1046F00044FA08B1FCF731FA042208A91948FEF778
:104700003CFA08B1FCF729FA082208A91548FEF777
:1047100034FA08B1FCF721FA0C2208A91148FEF777
:104720002CFA08B1FCF719FA4FF400600090401021
:1047300001900020029003904FF4805004904000BC
:1047400005904000079069460648FDF77BFD08B1DB
:10475000FCF703FA0348FEF773F915B000BD00003B
:1047600000040140980B002000B58BB0002007909A
:10477000089009900A901C216846FBF76BFD1C48C5
:104780001C490860A720486000211A48816042F255
:104790000F71C160002101618161FDF7E7FD08B182
:1047A000FCF7DBF94FF48050079007A91148FDF79B
:1047B00074FE08B1FCF7D1F90E48FEF762FA08B1B1
:1047C000FCF7CBF96020009040F2DC500190002013
:1047D00002900490002269460648FEF7CEF908B11F
:1047E000FCF7BBF90348FEF72BF90BB000BD000046
:1047F00000400140D80B002010B50B480B49086061
:104800004FF4E1304860002108488160C1600161D7
:104810000C21416100218161C161FEF77BFC08B17F
:10482000FCF79BF910BD000000500040180C002060
:1048300010B50B480B4908604FF4E1304860002187
:1048400008488160C16001610C21416100218161E2
:10485000C161FEF75FFC08B1FCF77FF910BD0000F5
:1048600000100140580C002010B50B480B4908609F
:104870004FF416504860002108488160C160016112
:104880000C21416100218161C161FEF743FC08B147
:10489000FCF763F910BD000000440040980C0020B4
:1048A00010B50B480B4908604FF4E1304860002117
:1048B00008488160C16001610C2141610021816172
:1048C000C161FEF727FC08B1FCF747F910BD0000F5
:1048D00000480040D80C002070B50121002000F0F5
:1048E000AFF90221012000F0ABF900241BE0C84819
:1048F000005D522804D13120C64901EB44014870C3
:10490000C348005D472804D13220C24901EB44016D
:104910004870BF48005D422804D13320BD4901EBF7
:1049200044014870641C062CE1D300243BE0B948E4
:1049300000EB44004078B849095D884203D1B5498D
:1049400001F814402EE0601C0321B0FBF1F201FBE2
:104950001200B149085CAF4901EB44014978884233
:1049600009D1601C0321B0FBF1F201FB1200A9493F
:1049700001F8140016E0A01C0321B0FBF1F201FBCA
:104980001200A549085CA34901EB4401497888421B
:1049900008D1A01C0321B0FBF1F201FB12009D49DC
:1049A00001F81400641C032CC1D3002447E0E01C70
:1049B000984901EB40004178601D974A105C8142A4
:1049C00005D1E01CC1B2934A02F8101036E0601C19
:1049D0000321B0FBF1F201FB1200401D8E49095C7E
:1049E000E01C8C4A02EB4000407881420BD1601CF5
:1049F0000321B0FBF1F201FB1200C01CE11C854A4F
:104A000002F811001AE0A01C0321B0FBF1F201FB37
:104A10001200401D8049095CE01C7E4A02EB400008
:104A2000407881420AD1A01C0321B0FBF1F201FBC6
:104A30001200C01CE11C774A02F81100641C032C10
:104A4000B5D3002405E0734911F81410734A545487
:104A5000641C062CF7D30024D6E0002547E0032190
:104A600001FB04516D4A515CC91CC8B201F046FA01
:104A700002F036FB0321022000F0E2F8032000FBE5
:104A800004506649085C634901EB400040783328D4
:104A900005D102F025FB092001F030FA20E00320C7
:104AA00000FB04505D49085C5A4901EB4000407826
:104AB000312805D102F014FB0A2001F01FFA0FE0A3
:104AC000032000FB04505549085C524901EB4000AB
:104AD0004078322804D102F003FB0B2001F00EFADB
:104AE000022D03D00221032000F0AAF86D1C032D33
:104AF000B5D3002577E0032000FB04504749085C4C
:104B0000444901EB40004078332805D102F0E8FA2F
:104B10000C2001F0F3F920E0032000FB04503F4992
:104B2000085C3C4901EB40004078312805D102F097
:104B3000D7FA0D2001F0E2F90FE0032000FB04504A
:104B40003649085C334901EB40004078322804D1F3
:104B500002F0C6FA0E2001F0D1F90421032000F082
:104B60006FF8032000FB04502C49085C294901EB35
:104B700040004078332808D104EB44010F31C8B21B
:104B800001F0BCF902F0ACFA26E0032000FB04506F
:104B90002249085C1F4901EB40004078312808D1C8
:104BA00004EB44011031C8B201F0A8F902F098FA00
:104BB00012E0032000FB04501849085C154901EB82
:104BC00040004078322807D104EB44011131C8B2CB
:104BD00001F094F902F084FA022D03D0032104209D
:104BE00000F02EF86D1C032D85D3012C07D1052173
:104BF000042000F025F8012001F080F903E00221F3
:104C0000042000F01DF8641C022CFFF426AF70BDD8
:104C1000F90100202C050020CE000020C400002057
:104C200000BFFEE7044800684042034908600846A8
:104C300040684042486070473403002070470000DD
:104C40002DE9F04104460D4604EB840005EB4007D6
:104C5000222F74D008DC012F0DD00C2F1CD0172F61
:104C60003CD0202F17D152E02A2F67D02B2F7DD098
:104C70002D2FF7D1DEE06FF00E01002000F010F9CB
:104C800000221146032000F0D7F90221002000F095
:104C900007F901F0CFFAF7E000221146032000F0F7
:104CA000CBF90021084600F0FBF80021084600F08F
:104CB000F7F80A21002000F0F3F801F04DFA022085
:104CC00001F01CF96FF00E01002000F0E9F8FCF78C
:104CD0003DF84FF4FA60FCF759F8D5E00A2002F0ED
:104CE000DDFB4FF47A70FCF751F8FCF735F8002142
:104CF000084600F0D5F86FF00E01002000F0D0F863
:104D0000FCF724F84FF47A70FCF740F8BCE0FCF7AD
:104D100023F80021022000F0C3F86FF00E010220FA
:104D200000F0BEF86FF0090002F0B8FBFCF70EF8D7
:104D30004FF47A70FCF72AF8A6E000E04EE0FCF7AA
:104D40000BF80021084600F0ABF86FF00E010020D0
:104D500000F0A6F80A2002F0A1FBFBF7F7FF4FF4E2
:104D60007A70FCF713F8FBF7F7FF00E00FE0002183
:104D7000084600F095F86FF00E01002000F090F862
:104D8000FBF7E4FF4FF47A70FCF700F87CE0FBF7E8
:104D9000E3FF0021022000F083F86FF00E010220F3
:104DA00000F07EF86FF0090002F078FBFBF7CEFF11
:104DB0004FF47A70FBF7EAFFFBF7CEFF00210220E9
:104DC00000F06EF86FF00E01022000F069F8FBF7BA
:104DD000BDFF4FF47A70FBF7D9FF55E0FBF7BCFF3E
:104DE0000021022000F05CF86FF00E01022000F0BC
:104DF00057F86FF0090002F051FBFBF7A7FF4FF4E3
:104E00007A70FBF7C3FFFBF7A7FF002604E0002141
:104E1000022000F045F8761C032EF8DB6FF00E013F
:104E2000022000F03DF86FF0090002F037FBFBF7BD
:104E30008DFF29E0FBF790FF0021084600F030F8D5
:104E40000021084600F02CF86FF00E01002000F061
:104E500027F80021012000F023F800200C49086009
:104E60000C49086005200C4908600F200B490860B8
:104E700040F6B830FBF78AFF002006490860064973
:104E800008600649086000BF00BFBDE8F08100006F
:104E9000640000203802002034020020300200208C
:104EA00070B504460D460120584908605848046012
:104EB00034B1012C09D0022C0CD0032C16D10FE0F8
:104EC00005F11E005349086010E005F10F0052493A
:104ED00008600BE06FF01D00401B4E49086005E0C4
:104EE0006FF00E00401B4C49086000BF00BF04F08B
:104EF000010020B94FF4C870FBF748FF03E04FF4FE
:104F00004870FBF743FF00BF2046FBF7FFFC00287B
:104F1000FAD034B1012C0FD0022C19D0032C2FD190
:104F200022E000203A4908603A4908603B4800689E
:104F3000401C3A49086023E0012035490860002000
:104F40003549086036480068401E3549086017E05A
:104F500002202F49086000202E4908602F48006871
:104F6000401E2E4908600BE00320294908600020FC
:104F7000294908602A480068401C2949086000BF88
:104F800000BF274802682548016826A001F0D0FA32
:104F9000611C01F00300FBF75BFC1420FBF7F6FE3D
:104FA000611C01F00300FBF753FC1420FBF7EEFE3D
:104FB000611C01F00300FBF74BFC1420FBF7E6FE3D
:104FC000611C01F00300FBF743FC1420FBF7DEFE3D
:104FD000611C01F00300FBF73BFC1420FBF7D6FE3D
:104FE000611C01F00300FBF733FC1420FBF7CEFE3D
:104FF000611C01F00300FBF72BFC1420FBF7C6FE3D
:105000000020054908600349086070BD6400002065
:10501000B0000020340200203002002044020020B2
:10502000480200204920616D206174202825642CED
:105030002564292E0D0A000070B504460E4615465B
:105040000120594908605948046034B1012C09D045
:10505000022C0CD0032C16D10FE005F11E00544990
:10506000086010E005F10F00524908600BE06FF096
:105070001D00401B4E49086005E06FF00E00401B0C
:105080004C49086000BF00BF04F0010020B94FF494
:10509000C870FBF77BFE03E04FF44870FBF776FE29
:1050A00000BFE0B23146FBF767FC0028F9D034B10D
:1050B000012C0FD0022C19D0032C2FD122E000207C
:1050C0003A4908603A4908603B480068401C3A4940
:1050D000086023E001203549086000203549086058
:1050E00036480068401E3549086017E002202F4905
:1050F000086000202E4908602F480068401E2E4995
:1051000008600BE003202949086000202949086055
:105110002A480068401C2949086000BF00BF274892
:1051200002682548016826A001F002FA611C01F01E
:105130000300FBF78DFB1420FBF728FE611C01F038
:105140000300FBF785FB1420FBF720FE611C01F038
:105150000300FBF77DFB1420FBF718FE611C01F038
:105160000300FBF775FB1420FBF710FE611C01F038
:105170000300FBF76DFB1420FBF708FE611C01F038
:105180000300FBF765FB1420FBF700FE611C01F038
:105190000300FBF75DFB1420FBF7F8FD0020054939
:1051A00008600349086070BD64000020B000002062
:1051B0003402002030020020440200204802002077
:1051C0004920616D206174202825642C2564292ED6
:1051D0000D0A00007047000030B553B2C0EB001458
:1051E000014D2C44635430BDC01300202DE9FF4312
:1051F00083B080468946174602F07AF902200123DF
:1052000006AA49460090404603F0B4FC03F0A0FC17
:1052100001F086FE18B9002007B0BDE8F083032135
:1052200002A802F0C7F9032801D00020F4E79DF896
:105230001810384602F0BEF904469DF81800844262
:1052400001D00020E8E701210DF10B0002F0B2F9D6
:10525000012801D00020DFE79DF808009DF8091023
:1052600008449DF80A100844C5B2002604E0B85D61
:105270002844C5B2701CC6B2A642F8DBE843C5B2EA
:105280009DF80B00A84201D00020C5E72046C3E7E7
:1052900070B505464FF0FF34681C28B90A480478F9
:1052A0002402407804430CE0002008490860E8B27A
:1052B000382102F0A7F90446601C10B90120034907
:1052C0000860204670BD0000180D0020700200200C
:1052D00038B504460D4620884FF47A730222694699
:1052E00001F05EFE9DF80100000200B29DF8001082
:1052F000084328802088801C208038BD0246054B4A
:105300001B781BB110460002084302E00846000269
:10531000104370476D020020704738B504460D46B3
:10532000E8B28DF80000280A8DF8010020884FF6B9
:10533000FF730222694601F05FFE2088801C2080F6
:1053400038BD00007CB5002001900420009001F0E1
:1053500019FE002855D0002424E0C4EBC400294ADB
:1053600032F910106846FFF7D8FF00250CE0C4EBB7
:10537000C400244A02EB4000801C30F91510684636
:10538000FFF7CBFF681CC5B2052DF0DBC4EBC400F2
:105390001C4A02EB4000B0F90C106846FFF7BDFF55
:1053A000601CC4B2C4EBC400164931F91000401CA3
:1053B0000028D2D1BDF8000001B201A8FFF7ADFF6F
:1053C000002411E0C4EB04100F4A81184FF6FF735C
:1053D0000F22BDF8000001F00FFEBDF800000F30F5
:1053E00080B20090601CC4B2C4EB04100649085699
:1053F000401C0028E6D1BDF8000001B201A8FFF76B
:105400008CFF7CBD480E0020C01300207FB50546F0
:105410000E46002409E0601CFFF73AFF01B20DF1CF
:10542000020020F81410601CC4B2052CF3DBADF8A8
:105430000050ADF80C60C5EBC501044A02EB410019
:105440000E226946FAF7EDFE7FBD0000480E0020EF
:1054500030B542F2D004A04209D94400A4F58244F8
:105460009F3C294D2C6000242D1D2C6008E0002459
:10547000254D2C6044F29F14241A241A2D1D2C60F3
:1054800042F2D004A14208D94C00A4F582449F3CCA
:105490001E4D6C630024AC6307E000241B4D6C635D
:1054A00044F29F14641A641AAC6342F2D004A2421C
:1054B00008D95400A4F582449F3C144D2C64002468
:1054C000EC6307E00024114D2C6444F29F14A41AED
:1054D000A41AEC6342F2D004A3420AD95C00A4F5FA
:1054E00082449F3C084D08352C6000242D1D2C6003
:1054F00009E00024044D08352C6044F29F14E41A9E
:10550000E41A2D1D2C6030BD340401400000014020
:1055100010B5034C6060A1602260E36010BD000024
:105520004403002010B5FCF78DF910BD00B593B011
:10553000302107A8FAF78EFE142102A8FAF78AFE96
:1055400000BF002001902448006840F080502249AC
:1055500008600846006800F08050019000BF00BF5E
:1055600000BF002001901D48006840F480401B49A6
:1055700008600846006800F48040019000BF00BF4A
:10558000012007900004089002200D9041050E9123
:1055900019210F914FF4A87110910221119104214A
:1055A000129107A8FCF764FB08B1FBF7D6FA0F20AD
:1055B000029002200390002004904FF4A050059028
:1055C0004FF480500690052102A8FCF711FA08B1AB
:1055D000FBF7C3FA13B000BD403802400070004032
:1055E0000548006840F47000034908604FF000600F
:1055F000014980390860704788ED00E010B5024825
:10560000FDF752F910BD0000580B002010B50268DC
:10561000294B98420ED0B0F1804F0BD0274B9842C7
:1056200008D0274B984205D0264B984202D0264BF3
:10563000984203D122F070024B681A431E4B9842E5
:1056400020D0B0F1804F1DD01C4B98421AD01C4B7B
:10565000984217D01B4B984214D01B4B984211D044
:105660001A4B98420ED01A4B98420BD0194B9842C5
:1056700008D0194B984205D0184B984202D0184BCD
:10568000984203D122F44072CB681A4322F080037F
:105690004C6943EA040202608B68C3620B68836250
:1056A000054B984202D0084B984201D10B69036325
:1056B0000123436110BD00000000014000040040D0
:1056C00000080040000C0040000401400040014080
:1056D000004401400048014000180040001C004008
:1056E0000020004030B501F01F05012404FA05F345
:1056F000046A9C430462046A01F01F0502FA05F57E
:105700002C43046230BD30B50C46816821F47F41E2
:1057100042EA032525432943816030BD0A4681685A
:1057200021F0700142F007031943816070470000C7
:1057300030B5056A25F001050562026A436884698F
:1057400024F0700424F003040D682C4322F00202BC
:105750008D682A43104DA84200D103E00F4DA842A6
:1057600006D100BF22F00802CD682A4322F00402CD
:10577000094DA84202D0094DA84207D123F48073F5
:1057800023F400734D692B438D692B43436084617F
:105790004D684563026230BD0000014000040140D5
:1057A00030B5056A25F010050562026A4368846910
:1057B00024F4E04424F440740D6844EA052422F003
:1057C00020028D6842EA0512124DA84200D103E082
:1057D000114DA84207D100BF22F08002CD6842EAF5
:1057E000051222F040020B4DA84202D00A4DA842F9
:1057F00009D123F4806323F400634D6943EA8503F0
:105800008D6943EA8503436084614D688563026264
:1058100030BD0000000001400004014030B5056AC1
:1058200025F480750562026A4368C46924F0700437
:1058300024F003040D682C4322F400728D6842EAC0
:105840000522124DA84200D103E0114DA84207D114
:1058500000BF22F40062CD6842EA052222F4806291
:105860000A4DA84202D00A4DA84209D123F4805320
:1058700023F400534D6943EA05138D6943EA051388
:105880004360C4614D68C563026230BD00000140E1
:105890000004014030B5056A25F480550562036AAD
:1058A0004468C26922F4E04222F440720D6842EA80
:1058B000052223F400538D6843EA0533084DA842BE
:1058C00002D0084DA84204D124F480444D6944EA32
:1058D00085144460C2614D680564036230BD0000F8
:1058E000000001400004014030B50B461446026A36
:1058F000056A25F001050562816921F0F00141EAA0
:10590000041122F00A021A438161026230BD30B5EF
:105910000B461446056A25F0100505628169026A86
:1059200021F4704141EA043122F0A00242EA03125C
:105930008161026230BD70B50546AC6B0020E08528
:10594000E0842046FDF73BFB70BD0168C96821F487
:1059500090710268D1600168496921F00101026813
:105960005161202180F83A10704710B50446206834
:10597000C06820F040002168C860202084F8390009
:105980002046FDF787FE002010BD70B5044694F850
:105990003A0022284AD1A068B0F5805F13D1A56AE9
:1059A000206940B920684068C0F308002880A06AD8
:1059B000801CA06219E020684068C0B22880A06AFC
:1059C000401CA06211E0206938B920684068C1B26B
:1059D000A26A501CA062117007E02068406800F0C5
:1059E0007F01A26A501CA0621170E08D401E80B23F
:1059F000E085C8B92068C06820F020002168C86030
:105A00002068C06820F480702168C8602068406900
:105A100020F0010021684861202084F83A002046E7
:105A2000FDF700FD002070BD0020FCE70220FAE732
:105A30002DE9F84F04462068006920F44050E168E1
:105A40000843216808612169A06808436169084327
:105A5000E169084300902068C06849F20C618843FE
:105A6000009908432168C8602068406920F44070AC
:105A7000A169084321684861E069B0F5004F75D11C
:105A8000E3492068884203D0E249206888426FD108
:105A9000FCF786F8814602206168A0FB01510B46A5
:105AA0001920A9FB00712A463846FAF789FB6421C0
:105AB000B0FBF1F04FEA001A02206168A0FB01512F
:105AC0000B461920A9FB00712A463846FAF778FBE5
:105AD000074602206168A0FB01510B461920A9FB73
